:020000040800F2
:1000000000180020B50200083D4E00082B470008EC
:1000100000000000000000000000000000000000E0
:10002000000000000000000000000000AB4F0008CE
:1000300000000000000000003F4E0008AD4F000827
:10004000C702000800000000C7020008C70200083D
:10005000C7020008C7020008C7020008E92C000810
:1000600000000000C7020008C7020008C70200081D
:10007000C7020008C7020008C7020008000000000D
:10008000D54F00080000000000000000C54F000828
:1000900000000000C7020008C70200082D47000842
:1000A00000000000C702000800000000C7020008AE
:1000B000C70200080000000000000000000000006F
:1000C00000F002F800F0CBF812A030C8083824186D
:1000D0002D18AC4201D100F0C2F80FCCA246AB46BD
:1000E0000CA730CF2D1B083F3F197C427F1E544484
:1000F0002D090426F441641EAC4201D300F0AFF890
:100100000126334200D0FB1A3343984754465D46DC
:10011000DFE70000F07B0000107C0000103A02D303
:1001200078C878C1FAD8520701D330C830C101D598
:1001300004680C6070470000704700000023002432
:1001400000250026103A01D378C1FBD8520700D30E
:1001500030C100D50B60704710B56E2902D100F098
:10016000EFFC10BD702902D101F051F810BD6629D5
:1001700002D107F07BFB10BD652902D107F076FBA9
:1001800010BD672902D107F071FB10BD612902D1B2
:1001900007F074FB10BD03681B0A01D380231943C9
:1001A000692902D100F014F910BD642902D100F0D0
:1001B0000FF910BD752902D100F00AF910BD6F29A1
:1001C00002D100F0CFFF10BD782902D101F00CF868
:1001D00010BDE92902D100F06BFF10BDE42902D166
:1001E00000F066FF10BDF52902D100F061FF10BDDF
:1001F000EF2902D100F0C2FF10BDF82902D101F0B1
:1002000001F810BD0368DB0901D38023194363297A
:1002100002D100F0E3FE10BD732902D100F0E6FE2A
:1002200010BDE32902D101F0B8FA10BDF32902D1C3
:1002300001F0BBFA10BD002010BD1FB501F0A8F8F9
:1002400004000020002107F08FF9401C60600020AE
:10025000002107F073F9E0601FBD10B510BD01F07B
:100260006AFE1146FFF7E9FF05F0E2F902F022F914
:1002700003B4FFF7F2FF03BC02F0A4F970B5054622
:100280000C46164602E00FCC0FC5103E102EFAD2D7
:10029000082E02D303CC03C5083E042E07D301CC9D
:1002A00001C5361F03E021782970641C6D1C761E81
:1002B000F9D270BD0748804707480047FEE7FEE7D0
:1002C000FEE7FEE7FEE7FEE704480549054A064B60
:1002D00070470000B54F0008C10000080012002060
:1002E0000018002000140020001400201CB50C464B
:1002F000064B7B4469460090204600F044FE0446CD
:100300000020694600F052FE20461CBDB70C0000DC
:100310000FB41CB5084B06AA7B44694600900598AB
:1003200000F031FE04460020694600F03FFE204602
:100330001CBC08BC04B01847910C00000FB41CB5DD
:100340000C0007AA009007D04142A14202D3001935
:10035000401E01E00020C043074B7B4469460190EA
:10036000069800F010FE0021002C01D0009A1170B8
:100370001CBC08BC04B01847590C000070B50C46F2
:100380000546012A05D02878800600D5EA690023B1
:1003900002E0012305E05B1C934202D2E05C0028EE
:1003A000F9D1A869E618C01AA861286AC01828629D
:1003B000284600F034FB04E06A682078A968641CD1
:1003C0009047B442F8D3284600F03FFB70BD0000D0
:1003D000F7B5002575291068009914A611D000F012
:1003E00045FB002802DA404211A608E0009909689E
:1003F0008A0701D50FA602E0490704D50EA60125FC
:1004000001E000F03CFB009F0024243704E000F0F2
:100410009FFF30313955641C0028F8D12B463246F5
:100420002146009800F034FBFEBD000000000000F3
:100430002D0000002B00000020000000F3B5044652
:10044000002081B020622046E1688847002872D0F1
:10045000252802D06268A168ABE0594F00267F448E
:100460002046E16888472028054608DB312D06D262
:10047000781920380078002801D00643F0E7B0074B
:1004800001D5042086430020E0610746A0612A2DA3
:100490000AD0284606F0CEFD002827D0B800001963
:1004A000303D0090856119E00298BA00121902C827
:1004B000916102902046E1688847012F054617D1D7
:1004C000E06900281FDA202086431CE000980A21FA
:1004D0008069484300994019303888612046E168B6
:1004E0008847054606F0A6FD0028EFD1012F0AD067
:1004F0002E2D08D12046E168884705462020064376
:100500007F1C022FC3DBA069002803DA4042A061F0
:1005100001200643F00701D0102086436C2D0BD03C
:10052000682D09D04C2D3CD06A2D38D0742D38D090
:100530007A2D36D016E040E0E1682F462046884705
:10054000B842054609D16C2F29D001208002E1680C
:10055000064320468847054604E06C2F1DD0FF2047
:1005600001300643002D28D028464138192803D8E9
:100570000120C00206432035204626602946029A03
:100580001646FFF7E9FD002810D001280BD0F61D14
:10059000F008C0000830029055E74020E1E78020D5
:1005A000D5E70020D3E7361D02964CE7626828465F
:1005B000A1689047206A401C44E7206AFEBD000005
:1005C0005A74000070B5064600F01AFA0468054631
:1005D00030460A22002100F083FE2C6070BD401ED0
:1005E000CAB24178401C8A4202D00029F9D10020C9
:1005F0007047034610B50B439B070FD1042A0DD358
:1006000008C810C9121FA342F8D018BA21BA8842EC
:1006100001D9012010BD0020C04310BD002A03D025
:10062000D30703D0521C07E0002010BD03780C78DC
:10063000401C491C1B1B07D103780C78401C491C2B
:100640001B1B01D1921EF1D1184610BD30B5441CC0
:1006500003E00178401C00290DD08107F9D10B4B34
:10066000DD0104C8D11A91432940FAD0001B0A06C3
:1006700003D0C01E30BD001B30BD0A0401D0801E57
:1006800030BD0902FCD0401E30BD00000101010157
:1006900001E004C0091F0429FBD28B0701D50280A9
:1006A000801CC90700D00270704700290BD0C30717
:1006B00002D00270401C491E022904D3830702D5D0
:1006C0000280801C891EE3E70022EEE70022DFE7BC
:1006D000002203098B4273D3030A8B4258D3030BC6
:1006E0008B423CD3030C8B4221D312E003460B43D5
:1006F0007FD4002243088B4274D303098B425FD31B
:10070000030A8B4244D3030B8B4228D3030C8B4246
:100710000DD30902FF2212BA030C8B4202D312122C
:10072000090265D0030B8B4219D300E0090AC30B01
:100730008B4201D3CB03C01A5241830B8B4201D3AE
:100740008B03C01A5241430B8B4201D34B03C01A97
:100750005241030B8B4201D30B03C01A5241C30A0F
:100760008B4201D3CB02C01A5241830A8B4201D380
:100770008B02C01A5241430A8B4201D34B02C01A6A
:100780005241030A8B4201D30B02C01A5241CDD20F
:10079000C3098B4201D3CB01C01A524183098B425A
:1007A00001D38B01C01A524143098B4201D34B0143
:1007B000C01A524103098B4201D30B01C01A5241A6
:1007C000C3088B4201D3CB00C01A524183088B422D
:1007D00001D38B00C01A524143088B4201D34B0016
:1007E000C01A5241411A00D2014652411046704788
:1007F0005DE0CA0F00D04942031000D3404253408D
:100800009C46002203098B422DD3030A8B4212D34C
:100810008901FC2212BA030A8B420CD3890192117E
:100820008B4208D3890192118B4204D389013AD0BB
:10083000921100E08909C3098B4201D3CB01C01A90
:10084000524183098B4201D38B01C01A52414309A3
:100850008B4201D34B01C01A524103098B4201D391
:100860000B01C01A5241C3088B4201D3CB00C01AFE
:10087000524183088B4201D38B00C01A5241D9D216
:1008800043088B4201D34B00C01A5241411A00D297
:1008900001465241104663465B1001D34042002B93
:1008A00000D54942704763465B1000D3404201B512
:1008B0000449002802DC491C084000E00846C04604
:1008C000C04602BDFFFFFF7F7047704770470000C2
:1008D0000246C80FC00781434B0030B54B405B0058
:1008E0009B0D20D01923DB06C91801231B05994253
:1008F00020DB0324A40704251346AB400BD3002BB5
:1009000004D1EB0613409B00E34204D401246407A6
:10091000002312195941FF231B0599420BD2C9002C
:100920000143500F09E0CB0204D501430803024301
:1009300005D0054830BDFF21C905084330BD084634
:1009400007210905884330BD0000C07F0121C9058A
:100950000123411842001B06D3185B0E0AD0C110B8
:100960000722D206891840075242D14201D55200CF
:1009700089187047090208D50146002A03D0C10F23
:10098000C9070020704710467047420202D000207D
:1009900002497047072109050143F4E70000F87F89
:1009A0001F22030C02D10F2200041CD0030E01D120
:1009B0000002083A030F01D10001121F830F01D179
:1009C0008000921E002801DB4000521ED205511803
:1009D000021251181922904004D3491C002801D159
:1009E0004908490008467047C10FC90700D0404276
:1009F000012292071143D3E701218907D0E70000C4
:100A0000004870474802002010B5FFF7F9FF006862
:100A100010BD10B50446FFF7F3FF046010BD70B5BC
:100A2000044685690068C10601D5302600E020260D
:100A3000C00707D070BD62683046A1689047206A41
:100A4000401C20626D1EF6D570BD70B504468569E8
:100A50000078C00707D170BD6268A1682020904768
:100A6000206A401C20626D1EF6D570BD09684A05DB
:100A700001D540B27047C905FCD500B2704709687E
:100A80004A0501D5C0B27047C905FCD580B2704790
:100A9000FFB504460D4681B02430009021688806D9
:100AA00004D51022E0699143216000E00120A842B2
:100AB00001DD471B00E000270498A1697A1910188E
:100AC000081AA0612078C00602D42046FFF7A7FFCD
:100AD000002608E003986268A168805D9047206A5C
:100AE000401C761C206204988642F3DB2078C00606
:100AF0000AD52046FFF793FF06E06268A168302020
:100B00009047206A401C206238467F1E0028F4DC93
:100B100007E000986268A168405D9047206A401C29
:100B2000206228466D1E0028F3DC2046FFF78DFF6B
:100B30002078000602D5022005B0F0BD0120FBE7B9
:100B400011680268006A530501D5087009E0D305F1
:100B500001D5088005E0130602D5C21705C100E0E3
:100B60000860012070470000FFB50C461E468FB09C
:100B700003CA089009914F007D0D00D16D1E002120
:100B800008460020C0460321099A89050840002A2A
:100B900003DA8200801840080840800D01280A907E
:100BA00002DD0020C0430A90089807430DD0F048AA
:100BB000F049281848430714189800281DD075429A
:100BC000291E1DDD0A9842421BE01898012802D018
:100BD0000020302104E00020F24305E02154401CB5
:100BE000B042FBDB30460022189B002121540F99B4
:100BF0008B600A60486013B0F0BDBD1B6D1CDFE761
:100C00000A9A002900DA69420BA800F047FE0BABF4
:100C100007CB03AB07C30899099800F0ABFE6B46FE
:100C200007C30146D4480918002D00910BDDD249B5
:100C300003980A9A49424018002303A90390684682
:100C400001F008F908E003990A9A0023081803A99B
:100C50000390684601F0A8F86B4607C30004000C37
:100C600003D00020C043410800E01046189A002A33
:100C700003D00022009215461EE0751E05D400F038
:100C80008BFB303262556D1EF9D501220843079661
:100C900002D000227F1C04E02078302801D10022FD
:100CA0007F1E002A069787D01EE0112D07DA00F07C
:100CB00073FB303262556D1C02460A43F5D108437E
:100CC00003D00098002819D00EE00021681E05E02E
:100CD000235C625C63542254401E491C8142F7DB52
:100CE000A81B401E07950690079A18990020A0544B
:100CF0000F98079B069A81600CC07CE711260020A4
:100D0000189059E7D21DF0B50D460446D10893B0AE
:100D1000C90003C90C900D9106F0ECF802460D983D
:100D2000C00F01D02D2007E02068810701D52B20BE
:100D300002E04007C00F4001032A0F9001D0072AAC
:100D400005DB03462946204600F0D8FC0EE120785A
:100D5000800601D5E76900E006272846652D04D006
:100D6000662814D0672D69D12DE00020112F009046
:100D700001DB112300E07B1C0CAA03A910A8FFF7DC
:100D8000F3FE1199002610987D1C0E9142E001207F
:100D90003B460CAAC0070B900120009003A910A8A5
:100DA000FFF7E2FE119D12981099002600280E957B
:100DB00001D1781C0D18781B02D446427D1C761E8A
:100DC000E81B00903AE0012F00DA01270020112FE4
:100DD000009001DD112300E03B460CAA03A910A8F6
:100DE000FFF7C2FE11993D46109800260E9121781A
:100DF00009070BD40E99A94200DA0D4603A9012D6B
:100E000004DD4A19203AD27F302A06D0B84201DAEE
:100E1000011D04DA012100910FE06D1EEFE70028AB
:100E200002DC86192D1A03E0411CA94200DD0D46A3
:100E3000801B401C00900120C0070B902078000709
:100E400005D40098A84202DB0020C0430090694608
:100E50000020C8720B98012102AF0337C9078842EE
:100E600025D0022010902B2011900B9800280BDA2F
:100E700040420B902D20119006E00B9800F068FA8C
:100E800030317F1E0B9039701099481E0029109048
:100E9000F3DC0B980028F0D111987F1E3870208861
:100EA000000501D5452000E065207F1E387001A8AF
:100EB000C01BC01D0B900F98002800D001204119C5
:100EC0000098C01709180B980818A169081A401E45
:100ED000A0612078C00602D42046FFF7A0FD0F983D
:100EE000002805D06268A1689047206A401C2062F3
:100EF0002078C00625D52046FFF791FD21E0002E81
:100F000007DB0E98B04204DD03A86268805DA1682B
:100F100002E06268A16830209047206A761C401C7D
:100F200020620098401E002800900AD100F030FA9C
:100F3000C06862680168405CA1689047206A401CF4
:100F4000206228466D1E0028D9DC07E062683878E8
:100F5000A1687F1C9047206A401C20620B99481EA4
:100F600000290B90F2DC2046FFF76FFD032042E6DC
:100F700001FCFFFF104D0000E1DFFFFF01694A1C8B
:100F800002610878704700B58FB002910021059189
:100F90000549019379440391114604906846FFF78F
:100FA0004DFA0FB000BD0000E5FFFFFF0A681070AA
:100FB000521C0A6070470CC908399A4202D2531C6D
:100FC0000B601070704710B54369002B02D0C0460B
:100FD000C04601E0FFF7D2F9012010BD12780146AA
:100FE00024310A7000224A700122ECE711680022C5
:100FF000D243E8E7F7B50446154686B02B48784457
:10100000002703C83E460090019111E007986A4608
:101010007100415A02A800F06DFF411C07D02178F1
:10102000890603D5E269391891420ED83F18761C1B
:101030002078800602D5E069B84206DDAE42E5DBE5
:1010400007987100405A0028E0D1A069C01BA06138
:101050002046FFF7E4FC154878445A3803C800904E
:101060000020019116E041006A460798415A02A803
:1010700000F040FF0590401C0AD0002505E06268A2
:1010800002A8A168405D90476D1C05988542F6D383
:101090000498401CB0420490E5DB206AC01920622D
:1010A0002046FFF7D2FC09B0F0BD0000CE6800007A
:1010B000F7B5D21D0025D20815A6D200F52905CA1C
:1010C00011D0002A05DA00214042914111A60A46BA
:1010D00008E0009909688B0701D50FA602E04907CF
:1010E00001D50EA601251146009F0024243704E0F7
:1010F00000F052F930323A55641C02460A43F7D1E7
:101100002B46324621460098FFF7C2FCFEBD000088
:10111000000000002D0000002B0000002000000057
:1011200070B504460021243408E05507D2086D0F3D
:10113000303565545D072A43DB08491C15461D43BD
:10114000F3D10468002310A2250708D520252C40E0
:101150000C4304D0C46901230CA2641EC461FFF7D0
:1011600097FC70BD10B5044621461068FFF787FC58
:10117000002302462046FFF7D3FF10BDD21DD10841
:10118000C9000CC9CCE700000000000030000000DE
:10119000F8B50F460188090502D5224C7C4402E0CF
:1011A000204C7C440E3405460021243508E0160707
:1011B0001209360FA65D6E541E0732431B09491CE7
:1011C00016461E43F3D1224604780023240705D592
:1011D000702F06D0002901D002231132FFF758FCEE
:1011E000F8BD01231032F9E770B504460D462146DB
:1011F0001068FFF744FC0023024629462046FFF70B
:10120000C7FF70BDD21DD308DB000CCBC0E730B4E4
:10121000036820241268234303600823C36130BCA1
:101220000023B5E7386700000FB40A46002300B575
:1012300089B00DA900910C99CB60254B7B44069396
:10124000244B7B44002A079301D0042300E00023B1
:10125000214A01930292214A7A446B46089202463F
:10126000002006F013FB09B008BC04B01847F0B525
:1012700007461E4615460C463B4685B000206A468A
:10128000C04301900020049004A8009102913146CF
:10129000FFF7CAFF049902466018002D05D0002907
:1012A00001D0034600E023462B6000290ED0002A1F
:1012B00002DD0099814209D03B466A463146001B57
:1012C000019004A800940294FFF7AEFF05B0F0BDB2
:1012D000730500008D050000FFFFFF7FB7010000D0
:1012E000F7B50F460026009C2578641C002D05D01C
:1012F00000F046F80068405DC007F5D12B2D02D004
:101300002D2D18D0641E3946029A204600F073FA3B
:10131000002F04D03968A14201D1009939607105CC
:10132000022400290BDA4042002803DDFFF768FBA6
:101330000460A007FEBD012080020643E3E7002809
:10134000F8DAFFF75DFB04600048FEBDFFFFFF7F9A
:1013500001468008081A02091018020A1018020C27
:101360001018C008820012185200891A01E0401CAF
:101370000A390A29FBD2704700487047480200200A
:1013800010B500F005F8001D10BD00BFDD610000C4
:1013900000487047680200200B4670B50246890776
:1013A0008008084319469D08141AA9412509080711
:1013B000054308092C194841250A01060D43010A75
:1013C0002C194141200C0D0428430D0C00194D41EE
:1013D000002140194D41C00869070843E908840FFE
:1013E0008D002543840024184D4124196D41121BA2
:1013F000AB4107E00925ED432C115219634100244C
:10140000401C61411C460A250026551BB441F1D2FF
:1014100070BD10B50446FFF7B3FF0068005DC0075C
:10142000C00F10BDD21DF0B504460D46D0088DB0DA
:10143000C000466807683146384605F05BFD024645
:10144000F00F01D02D2307E02068810701D52B2361
:1014500002E04007C00F43016846002B037001D033
:10146000012000E00020032A0A9001D0072A04DBB3
:101470002946204600F042F92DE12078800601D46B
:101480000D2500E0E5697000400D0D2D01904BDA4F
:10149000300D00210B9008460020C046032189052D
:1014A0000840002E05DA82008018C20F1018401084
:1014B00008408015012801DD0020C043A900002359
:1014C000182906D39C460A460123183A1B07D34025
:1014D00003E001221205CA4094460C31202902D3B0
:1014E0003A46203900E032468A40002802DD002AD0
:1014F00006D119E0002817D10121C9078A4213D368
:10150000194663467F185E41002806D10120C007B6
:10151000824202D1084687439E430B98310D814297
:1015200002D00198401C01902088000502D5714925
:10153000794402E06F49794419396B460A983022A0
:101540001A540A980A7C401C1A54401C0A900198AC
:10155000002801DC302000E031201872019A0120BF
:10156000002A02D0644BD21804E072003A4302D041
:10157000614A521C0192002D02DC2278120703D529
:101580006A462E20507202200022864694460CE0C5
:1015900032033601120F6D1E8B5C02AA1354624691
:1015A000521C401C9446052A01DA002DF0DC002272
:1015B00002AE08E03B0F3F01CB5C521C6D1E335462
:1015C000401C082A01DA002DF4DC23689A0601D5B4
:1015D00011E0401E704504DD3218203AD27F302AD7
:1015E000F7D0002807DD3218203AD27F2E2A02D108
:1015F0001A0700D4401E002D03DD3E223254401C49
:101600006D1E497C31540199401C002906DA2D21B8
:10161000471C315401984042019003E02B21471CA4
:10162000315401987D21C900884206DBFFF75EF83E
:101630003030F0557F1C019101E0642808DB0198EF
:101640006421FFF753F83030F0557F1C019101E021
:101650000A2806DB01980A21FFF748F83030F055D8
:101660007F1C01980A21FFF741F83031F1550A98A3
:10167000A1697F1C7A191018081AA0612078C00689
:1016800002D42046FFF7CBF9216A6E460A98081863
:10169000206204E062683078A168761C90470A985E
:1016A000401E0A90401CF5D12078C00602D5204685
:1016B000FFF7B5F902AE09E03078761C3E280DD070
:1016C0006268A1689047206A401C20627F1EF3D2A6
:1016D0002046FFF7BAF90DB00320F0BD206A40198B
:1016E000206203E06268A168302090476D1EEDD350
:1016F000F8E70000DF63000001FCFFFFF8B51F46BC
:10170000044601230068DB02032601461840072A2D
:1017100005DB002801D017A506E017A504E0002886
:1017200001D016A500E016A5102081432160A06914
:10173000C01E002FA06101D0401EA0612046FFF70F
:101740006EF9002F09D038466268A1689047206A78
:10175000401C2062C01C206206E0206AFAE7626832
:101760002878A1686D1C9047761EF8D22046FFF7B6
:101770006CF9F8BD4E414E006E616E00494E460058
:10178000696E660010B54369002B02D0C046C046A2
:1017900001E0FFF72FFC012010BD12880146243123
:1017A00082840022C2840122ECE711680022D24325
:1017B000E8E74268002A08D001680B78491C002B32
:1017C00003D0521E06C0184670470121C160881E12
:1017D00070474268002A0BD0C3680168002B07D10C
:1017E00083688B4204D0491E521C06C000207047FB
:1017F0000020C0437047F7B5154682B00027029C11
:101800002078641C0197302802D0002D15D015E0F7
:1018100020780127641C782804D0582802D0002D95
:1018200009D00BE0002D01D0102D07D12078002722
:101830001025641C02E0082500E00A250026009619
:1018400010E0009901276943081829467143020CEA
:1018500080B200908E183804864201D30120019096
:101860002078641C294600F085FB0028E9DA0398FB
:10187000002805D0002F01D0641E00E0029C046007
:101880000198002806D0FFF7BBF802210160C81EAE
:1018900005B0F0BD009930040843F9E7F7B51646E6
:1018A0008AB0334878446C4603467C33C06F5A682C
:1018B0009B680DC42E487844763003AC0DC80DC427
:1018C0003720C001081837211B30FEF70FFF0546EF
:1018D0000C46803D1B3C02D56442012000E0002004
:1018E0000027099010E0E0070CD00C202049784335
:1018F000794432464C3941186846012300F054FAC5
:101900006B4607C364107F1C002CECD1184F7F443A
:101910002E3F16E0E80712D02001C0190EC806912C
:10192000089307920068F04201D198190890324656
:10193000012306A903A800F037FA03AB07C36D1013
:10194000641C002DE6D10998002806D0324669466D
:10195000012303A800F07EFA05E001233246694620
:1019600003A800F021FA0A9B07C30DB0F0BD0000E8
:1019700080600000034640000A4610B5400D0BD0C1
:101980000121C9070F24A40200191C036408214384
:10199000540D2143D20207E000210120F2E7D40FC9
:1019A000490021435200401E0029F8DADB0FDB0713
:1019B000184310BDFFB50D46144685B04868516800
:1019C00005F07FFA00910190A868A16805F079FA06
:1019D00002910390A868616805F073FA029A1218E0
:1019E0008242029201D2012000E00020019A0B18ED
:1019F000D2180028019202D08A4202D903E08A421A
:101A000001D2012000E000200099081800906868C9
:101A1000A16805F056FA029A12188242029201D287
:101A2000012000E00020019A0B18D2180028019232
:101A300002D08A4202D903E08A4201D2012000E0AA
:101A4000002000990818009028682168400049008B
:101A5000400849084018FA49471814E00199400025
:101A6000C90F08430090019802994000C90F08432C
:101A70000190029803994000C90F0843029003980F
:101A800040007F1E039000980028E7DA089800289D
:101A900001D0EC4E00E00026B74201DA012000E060
:101AA0000020002804902AD0F71BF806C00E15D09D
:101AB000029B2021091A039A8B401A430392029A2F
:101AC000019BC2408B401A430292019A009BC24084
:101AD0008B4000991A430192C14000917B110DD0B7
:101AE0006F460320C11A03D500218200B95003E0DC
:101AF0008A008100BA587A50401EF3D537460398C1
:101B00000299002800D00120014308980291002882
:101B100008460CD0002800D001200199019A4905FF
:101B200008430121D20AC902D202019200E0012138
:101B30000E9B0122D207012B02D0002B03D013E011
:101B4000002807D120E0904204D890420CD1019B9C
:101B50000B4209D0019B5918019105D10099491CEC
:101B6000009101D17F1C009200280DD01021084661
:101B70000020C0460498002806D00F98002803D003
:101B8000082108460020C04628682168019B009A69
:101B90004840C10F0598C90739430EC009B0F0BDD0
:101BA000FFB587B0099A0898089953689268406809
:101BB000896896460022039317469446089A12684D
:101BC0005300099A5B081268520052089A1A9E4BF9
:101BD000D4180A9A002A01D0352200E04022069249
:101BE0000022012315460492DB07059324E0002D13
:101BF00005D175460346039E4D1BB34109D3754677
:101C00006646039B491B049D9841059B7519AC468C
:101C10005F4163463B4308D0059B049EDD07760881
:101C20002E435B080496059301E0521E641EC50F07
:101C3000ED0749184041521C069B9A42D7DB002D04
:101C400004D17546039A6B1A824101D203200CE03D
:101C5000039A0B466B404240134303D0014303D029
:101C6000012002E0022000E00020614601910021F5
:101C7000009702910A99002905D06146400201436C
:101C8000704B019102E08007002302909C4201DA30
:101C9000012000E0002007003AD01A1BD006C00E39
:101CA00015D0029D2021019C091AC5408C40254376
:101CB000029C8C4000D001242543019C0295009D8C
:101CC000C4408D4000992C430194C14000915411AF
:101CD0001DD06D460221002202290CD10320001BD9
:101CE00007E0002804DB8600AE59002E00D0012258
:101CF000401C0328F5DB081B02D588002A5004E0AD
:101D00008000285810438A00A850491EE3D51C467D
:101D10000A98002802980CD0002800D001200199D0
:101D2000019A490508430121D20AC902D20201924F
:101D300000E00121109B0122D207012B02D0002BD1
:101D400003D013E0002807D11FE0904204D890424E
:101D50000CD1019B0B4209D0019B5918019105D16F
:101D60000099491C009101D1641C009200280CD0FC
:101D7000102108460020C046002F06D011980028E8
:101D800003D0082108460020C04608980999019A06
:101D9000009B006809684840C10F0798C9072143A4
:101DA00082600AC00BB0F0BD00B585B0019300920F
:101DB0000A460146002302A8FFF7FCFD02A807C857
:101DC00005B000BDFFB50A461F4685B007990193CF
:101DD00001230091014602A8FFF7ECFD0299039848
:101DE000049ECA0F4900D20700920F2249089202AE
:101DF0008C1A0021002800DB0C46450013486D08B2
:101E0000844214D3079A002A04DA441E0026104D97
:101E1000F64302E004460D460E4610210846002017
:101E2000C046002F03D0042108460020C0462005EC
:101E3000E90A0843009908436905F20A1143ADE62F
:101E400002C0FFFF013C0000FF3F0000FF07000051
:101E5000FFFFFF7F00B585B0019300920A4601465F
:101E6000002302A8FFF79CFE02A807C8A8E7FFB559
:101E70000A461F4685B00799019301230091014648
:101E800002A8FFF78DFE02990398049ECA0F49002D
:101E9000D20700920F22490892028C1A00210028D2
:101EA00000DB0C46450011486D08844214D3079AA4
:101EB000002A04DA441E00260D4DF64302E00446D3
:101EC0000D460E46102108460020C046002F03D0C4
:101ED000042108460020C0462005E90A084300996D
:101EE00008436905F20A114358E60000FF070000A5
:101EF000FFFFFF7FF8B516460C460546FFF740FA90
:101F00000368FF200230C05C012807D0FF2C0FD8E7
:101F1000185D00280CD001202C70F8BDFF3332462C
:101F2000214608331868C71828460023B847F8BD6B
:101F30000020C043F8BD7546FFF71EFAAE46050007
:101F400069465346C008C000854618B020B5FEF764
:101F5000BBF960BCB64600260027C0C5C0C5C0C5D9
:101F6000C0C5C0C5C0C5C0C5C0C5403D49084900C1
:101F70008D4670473A2800D23038202302469A43D3
:101F8000412A01D310463738884201D30020C0438C
:101F900070470000FFB58BB00878FF2806D0491CB9
:101FA0002D2805D000230020009009E000200EE03D
:101FB0000123F8E7009A0A2462438018491C009024
:101FC0000878FF28F6D1002B02D0009840420090FC
:101FD000002503952C460D9800782D2801D02B283C
:101FE00015D10D99491C2D280D9102D00020039088
:101FF0000DE00120FBE7401C214600270A223B465A
:102000000D90284600F0C6FA35183C464C410D9814
:102010000678FF2EEFD1002108460020C046039924
:10202000002902D08100401840080002860F012ECE
:1020300001DD0026F6430E990098471828462043F4
:102040000BD0FF20F530C7421ADA0398C1070B986E
:10205000002E41600ADD012009E00398C1070B98BA
:1020600041600B99002008600FB0F0BD00200B9973
:102070000860FEF7C5FC02210160182108461AE03D
:10208000FF20F530874219DD002E02DAFC48784443
:1020900001E0FC48784406C80B9806C00B980399E9
:1020A0004068C90708430B994860FEF7A9FC022164
:1020B0000160142108460020C046D5E700210846EB
:1020C0000020C04639000A9001D5724200E0324635
:1020D000002900DA794207A8FFF7E0FB07AB07CB3E
:1020E00004AB07C3E848009000200146214304D117
:1020F0002C460546E44920390091210C090401438E
:1021000006D1290C24040C4300992D0410390091A8
:10211000210E0906014306D1290E24020C43009921
:102120002D0208390091210F0907014306D1290F1B
:1021300024010C4300992D01091F0091A10F89076B
:10214000014306D1A90FA4000C430099AD00891EDC
:102150000091E10FC907084304D100986D1964414B
:10216000401E0090002F0295019406DD324668461D
:10217000012304A9FFF726FE05E001233246684645
:1021800004A9FFF774FE044603980D46002802D008
:102190000120C0074440002108460020C0460A999B
:1021A000BA4E48400007800F07D16000400828431E
:1021B00003D06000400DB04214D1FEF721FC022193
:1021C00001606000400DB0420CD1B148784406C8AF
:1021D0000B9806C00B98E10FC907406808430B999C
:1021E000486041E70B9844600B9805603CE7FFB5F9
:1021F0001F4695B0002000250C909E685C68ED435A
:102200001390FFF7C5F8C0680168405C1490B96985
:1022100016986D1C88470A90396A88470028F6D1BD
:102220000A98401C0AD00D20C0018443002E12DD04
:102230000A982B2809D02D280DD103E00020C04397
:1022400019B0F0BD012080020443B96916986D1CD5
:102250008847761E0A90600504A901D52D2000E06C
:102260002B206A46491C107410A8002E0D910B906B
:102270003BDD0A98692805D0492803D06E2801D093
:102280004E281DD13B46039002200296179A1699BC
:10229000C0430095019405F009FBC11CD0D10FE0AB
:1022A000B96916986D1C88470A900120761E400275
:1022B0000443179805601398401C002E139014DDFA
:1022C0000A983028ECD0782801D058280DD11398DE
:1022D00001280AD13B460296179A1699001F0095CD
:1022E000019405F0DBFAC11CAAD114990A9888421E
:1022F00045D18020044308E00C981799401E0C90AB
:10230000012040020443681C0860B9696D1C1698DE
:10231000761E884730280A90EED030E01499884223
:1023200005D1200603D480200443761E1DE00A98C0
:1023300004F080FE002825D001210A9849020C43B0
:102340000D9908AA03323038761E914208D20870DF
:102350000D98401C0D90200607D50C98401E03E0F8
:10236000200602D40C98401C0C90A00502D51799A9
:10237000681C0860B96916986D1C88470A90002E81
:10238000CCDC59E0002E57DD0A98652801D045289D
:1023900052D1A00550D50320B969000284436D1CB9
:1023A0001698761E8847002E0A900CDD2B2804D044
:1023B0002D2808D1FF2001300443B96916986D1CFF
:1023C0008847761E0A90E00501D52D2100E02B21DB
:1023D0000B9801700B98401C0B90009025E0012099
:1023E00012A9400204430B980131761E88420ED296
:1023F0000A980B9930380006000E087003D1009936
:102400000B9888420AD90B98401C0B9006E0E00517
:1024100001D5204801E01F4840420C90B969169848
:102420006D1C88470A9017980560002E04DD0A98F5
:1024300004F000FE0028D2D1F969169888470D995A
:10244000FF2004AA08700B99087000200E900F90CE
:102450000C9B10A90EA8FFF79DFDA00502D401203A
:10246000C043EDE62420044216D0E00720D13868AE
:102470000F9A0E99031D3B60006806C018E000002B
:102480009A5C00008C5C00003E400000FF070000EA
:10249000545B0000F1D8FFFF0EA9684604F054FD1C
:1024A000E00705D13868009A011D396000680260B4
:1024B0002846C5E610B50446C046C0462046FDF78E
:1024C000D7FE10BD82078B079A423FD170B5920F9D
:1024D0000AD0032402780B78401C491C002A33D010
:1024E0009A4231D12042F5D1214EF40104C808C9E5
:1024F000951B9543254018D19A420FD104C808C9AD
:10250000951B9543254010D19A4207D104C808C9AC
:10251000951B9543254008D19A42E7D012BA1BBAC1
:1025200001209A4200D2404270BD12BA1BBA2DBAA5
:1025300018241000E0401900E140401A05D12E0097
:10254000E64002D1083CF4D1D01A70BD02780B7875
:10255000401C491C002A09D09A4207D102780B7806
:10256000401C491C002A01D09A42EFD0D01A704773
:102570000101010110B5202A04DB0146203A9140F7
:10258000002010BD914020239C1A0346E3401943CC
:10259000904010BD4343514330B55C18010C130CFF
:1025A0000D4692B25D4380B251432C190546554306
:1025B0000A0C09044D1962415843010C00044019EA
:1025C000514130BD01491820ABBEFEE72600020094
:1025D000FFB51F4689B0139812994005C00FC00778
:1025E00005900020079005460446461E0490029080
:1025F0003C20491C12910690B9690A9888470390BB
:102600001498401E14901498002841DD03982E2839
:1026100016D01021FFF7AEFC002834DB0121049115
:10262000079901431AD0069900290CDB069AC117B5
:10263000FFF7A0FF054306980C43001F069006E035
:10264000012002900EE0002801D001200543012066
:1026500007900298002805D1361D03E00298002853
:1026600000D0361F1298401C1290B9690A9888470A
:1026700003901498401E149004980028C3D00B991E
:1026800012980860BFE70398702808D0502806D039
:10269000F9690A9888470498002815D051E000206D
:1026A000039001200290049800280AD01298401C40
:1026B0001290B9690A9888471499491E0029149103
:1026C00006DCF9690A9888470120C0430DB0F0BDC7
:1026D0002B2804D02D280DD10020C0430290129841
:1026E000401C1290B9690A9888471499491E00291C
:1026F0001491E6DD411CE4D00A21FFF73BFC0028E1
:10270000DFDB03990A225143081803901298401CFA
:102710001290B9690A9888470A21FFF72BFC14998F
:102720000B9A491E1491129911601499002901DD28
:102730000028E6DAF9690A9888470299039848431D
:10274000861913982421084004902846204304D079
:10275000A10F8907090002D006E005989BE0A90FA8
:10276000A4000C43AD00B61EE10FC907080002D15A
:102770006D196441761E0498002803D00B20029046
:102780005D4803E0282002907D20C04386420390EC
:1027900007DA811B029808184128029001DD4120C8
:1027A0000290029A01200021521EFFF7E3FE02462A
:1027B00028400B462140084301D0012000E00020C2
:1027C00007900020521EC04343412A4023401A4331
:1027D00001D0012000E0002007990690014352D06B
:1027E000002108460020C0460321059A89050840BB
:1027F000002A05D082008018C20F1018401008402F
:102800008015012802DD0020C04301E0012815D019
:10281000401C38D00798002835D0069800280DD1E4
:10282000029A01200021FFF7A5FE2840214008431D
:1028300001D0012000E00020002824D0029A0120CD
:102840000021FFF797FE034640198C4661412A1A82
:102850008C410FD30298402807DD0498039E00287E
:1028600001D0343E02E0173E00E0761C0124002532
:10287000E40708E05B1E62460024E4436241DD4356
:10288000D44305400C4003980121081AB04206DAEF
:102890001A49059808430190002000900EE060005E
:1028A0006205010BE80A1043059A009068460A4346
:1028B00013490A433146019204F0B2FB0498002800
:1028C0000AD01398C00714D13868019A0099031DE3
:1028D0003B60006806C00CE002A8694604F034FBC7
:1028E0001398C00705D13868029A011D3960006845
:1028F00002601298EAE6000002FCFFFF0000F07F91
:102900000000F03FFFB51D4687B01198484A109C63
:10291000129E40051399C00F761EC0070243019214
:1029200000220092FF22D205104320229143492920
:10293000059003D017464E2928D04FE03DA002AAAB
:102940000BC801270BC2A9690898641C8847761E2A
:10295000014607D402A8C05D002803D0202291437D
:1029600081420AD0E96908988847032F36D0082F9A
:1029700034D00120C0430BB0F0BD7F1C032F01D029
:10298000082FE0D10999601C0860DCE7A969089864
:10299000641C8847761E2DD4B84341282AD1A969E2
:1029A0000898641C8847761E24D4B8434E2821D149
:1029B000A9690898641C884701990122D20411432F
:1029C00001910599D200114305910999761E0C6079
:1029D00001D4282806D0E969089888471198C007CB
:1029E00012D023E0A9690898641C8847761E01D498
:1029F000002803DAE96908988847BAE72928F1D15D
:102A00000998641C0460E9E711982421084207D062
:102A10002868019A0099031D2B60006806C005E034
:102A200028680599021D2A60006801602046A2E717
:102A30000000F07F494E46494E49545900000000BD
:102A400070470000F8B5264C4E00069DA6420AD8F5
:102A5000A64201D1002806D15E00A64203D8A642B4
:102A60000AD1002A08D00D242404254233D0294657
:102A7000002000F067F8F8BD0C461C4311D49942C1
:102A800007D0C81A02D3EFF30080F8BDEFF300803F
:102A9000F8BD801A02D3EFF30080F8BDEFF3008099
:102AA000F8BD09242407E5008B4207D0581A02D349
:102AB000EFF3008006E0EFF3008007E0101A03D385
:102AC000EFF30080A04303E0EFF30080A04328432E
:102AD00080F30088F8BD009500F04CF8F8BD0000C8
:102AE0000000E0FF70B505464800440D124B002081
:102AF000002C0AD0634008D09A4206DA6642B242FD
:102B000003DD12054019514170BD002C08D0002B87
:102B100009D0C90FC907002AF6DB084A114370BD66
:102B2000C90FC90770BD28460A03104302D0002010
:102B3000034970BD284670BDFF0700000000F07F0C
:102B40000000F87FC80212D54803400F002804D0C7
:102B5000C803C043012188407047EFF300800001A3
:102B6000000903210907084380F30088704700200B
:102B70007047000010B500200249029A00F004F8E6
:102B800010BD00000000F87F10B50C461107090FBA
:102B9000092904D00A290AD008290CD104E01146D9
:102BA0000820FFF7CFFF06E0510606D501E05106E9
:102BB00001D50120C007214610BDD10607D501016E
:102BC0000909CC084907000E0006044309E0410F3B
:102BD00020024907000A0143200E00061D22D141B0
:102BE00001430846E7E7F0B583B002910190052064
:102BF00004071025012620462946324600F0C1FC74
:102C000020212046324600F0BCFC042120463246FA
:102C100000F0B7FC0027204629463A4600F0B1FCF8
:102C2000032002F00FFA20462946324600F0A9FCA4
:102C30000198029900F010F8204629463A4600F023
:102C4000A0FC082002F0FEF920462946324600F09A
:102C500098FC03B0F0BD0000F0B581B0042803D8A3
:102C60001EA2105C1F4A10701E4F0026FE7010241A
:102C7000BC7079700520050728462146324600F0D1
:102C800080FC432002F0DEF9387802F0DBF9787836
:102C900002F0D8F9B87802F0D5F9F87802F0D2F954
:102CA0000127284621463A4600F06BFC284621467B
:102CB000324600F066FC232002F0C4F902F0C0F8AE
:102CC00002F0BEF802F0BCF802F0BAF8284621463D
:102CD0003A4600F056FC01B0F0BDC0468191A1B16A
:102CE0000E0000005C03002080B50120000300F00E
:102CF00061FB80BD72B6FEE770B5044600F04AFC89
:102D00000619104D2868C00305D500F043FCB042F9
:102D1000F8D3032070BD29680B480840286003D011
:102D200085494860012070BD00F034FC0419286812
:102D3000400304D500F02EFCA042F8D3E9E70020C0
:102D400070BDC04610200240FAC30000F0B583B049
:102D50000291052004070821204600F00DFC002800
:102D6000F9D1102500222046294600F00AFC284609
:102D700002F068F902F064F8064602F061F801908A
:102D800002F05EF8074601222046294600F0F9FBD2
:102D900076B2029800280DD110250022204629463F
:102DA00000F0EFFB022002F04DF9012220462946F7
:102DB00000F0E7FBF0B2C109064A1170019909025F
:102DC000C91900040818002E02D503498143481C84
:102DD00003B0F0BD60030020FFFF7F0070B5242129
:102DE00001244454014624314A78022A2BD1036835
:102DF0001A680E24A2431A601C68012294431C60C6
:102E0000446C2568124B1D402560046C1C25254030
:102E10001446AC400F4D2E6826432E60846CC56C62
:102E20006560046D002C05D025681D402560436D4C
:102E3000846D5C6000240C704A70816B002900D0A6
:102E40008847204670BD0421C163204670BDC0463E
:102E5000FFFEFFFF040002402521405C7047000098
:102E6000B0B5044600F096FB0546601C02D004484D
:102E70000078241800F08EFB401BA042FAD3B0BDAE
:102E800038000020F0B583B00446B34F38780128ED
:102E900002D1022003B0F0BD019100267E60012026
:102EA00038707D20C5002846FFF726FF002802D095
:102EB0003E7003B0F0BD2068BA4B04280AD11F4809
:102EC000801C1968014319602846FFF715FF3E7002
:102ED00003B0F0BDF1430198016031466668A06817
:102EE00080198642009108461DD20295F7001868A5
:102EF000134908403843114908431D461860029899
:102F0000FFF7FAFE00280AD16068A16808180837A0
:102F1000761C86422B46EAD300988F4F03E0019936
:102F20000E608D4F2B461968022291431960009E56
:102F30003E7003B0F0BDC0469C04002002000100BA
:102F400085FFFEFFF0B582B00721016041680129CD
:102F500001D0102200E00C22804953581F241C404D
:102F600084605258D202D20EC2600A6800920D6884
:102F700001220192D6064B685B029BB29B19036249
:102F80001A4B5F1C8A681740C4691C40E319C3616F
:102F9000520292B2164C121942624A69520292B21D
:102FA000921982628A69520292B21219C2626C4A02
:102FB000426115408561009AD4B2AA2C03D12546FE
:102FC000CC2C03D003E0BB25CC2C00D125460561D9
:102FD00003221343C361019A1204096E0A403F237E
:102FE0000B400263436302B0F0BDC046FFFFFF7FAA
:102FF000FF010008F0B585B0D44D2978012902D130
:10300000022005B0F0BD00266E60012104912970F8
:103010000168CA07514F0BD04168012901D0102126
:1030200000E00C218268C3681B0413437B500168D5
:1030300006220A40062A0BD1044610341CCC144345
:10304000FF229343D2435A403B681340234329E075
:103050008A070DD44A0726D54269FF239A43DB43EA
:1030600053403C683A68E4B2AA2C0FD1039411E0B3
:103070003A6803923C68FF239C433246384E039BD8
:103080001E4003693343164623430BE00292BB22E2
:103090000392029A1A40CC2C00D103948369039CBA
:1030A000234313433B600A072ED5C269049BDB0709
:1030B0005C1C22421CD00396BE68D40701D1344662
:1030C00012E0056A446A02941F24E40601942D1953
:1030D0006D0A7D607F25AE4300969C4D029C019E4B
:1030E000A419640A009E344313402343BB60039E2B
:1030F000920709D51F22D206836A9B185B0A7B615F
:10310000C36A9A18520ABA61C90607D5396E154AB8
:103110000A40016B406B0843104338667D20C400B1
:103120002046FFF7E9FD002802D02E7005B0F0BD63
:1031300003962E46049845040C3F386828433860AF
:103140002046FFF7D9FD3968A9433546039E39600B
:103150002E7005B0F0BDC0469C0400202020024027
:1031600000FF4F3FC0FFFEFF0120C0070D490A6866
:1031700002430A600868C043C00F70470120C106BF
:10318000084A13680B4313607047C046012080074C
:1031900004490A6802430A600968014048424841FC
:1031A0007047C0461420024006488168490001D497
:1031B00001207047044901600449016080684000B3
:1031C000C00F70470C2002403B2A19087F6E5D4CEF
:1031D000F0B589B05D4D2C78012C03D10222104648
:1031E00009B0F0BD01930292079103900020069070
:1031F000686001262E707D20C40000F0CBF9049495
:10320000041905963604524F3868304205D000F054
:10321000C1F9A042F8D3032293E038684D49084031
:10322000386002D06860059A8BE000F0B3F9049929
:1032300044180120059080040890386808990842D5
:1032400004D000F0A7F9A042F7D3E4E703980128DF
:103250000BD17868012101437960079902980860D1
:10326000BFF36F8F0198486044E07868089908437D
:103270007860EFF31080019072B6069A11460298BA
:103280004458079B5C505D18441863686B60A368E2
:10329000AB60E368EB6023692B6163696B61A369D1
:1032A000AB61E369EB61236A2B62636A6B62A36AB9
:1032B000AB62E36AEB62236B2B63636B6B63A36BA1
:1032C000AB63E36BEB630F231343403110323F2BAF
:1032D000D6D308E03868304208D03868304205D08C
:1032E0003868304202D038683042F3D1019880F318
:1032F0001088164D00F04EF9049944183868304291
:1033000005D000F047F9A042F8D3032215E0386851
:1033100010490840386002D06860059A0DE000F05E
:1033200039F90499441838680899084204D000F023
:1033300031F9A042F7D3E8E7002279680398814386
:10334000796006982870104609B0F0BD9C040020F2
:1033500010200240FAC300000648C168002901D4C9
:10336000002070470449016004490160C068C00F33
:103370007047C0460820024023016745AB89EFCD66
:1033800080B50121090388420ED10520000700F015
:10339000F3F8002808D105480178092904D1002153
:1033A0000170034800F092FF80BDC0464400002039
:1033B00050040020B0B50446074D2868204203D0D1
:1033C0002C60204600F00AF86868204203D06C6048
:1033D0002046FFF7D5FFB0BD0C1802407047000033
:1033E000F0B58AB00B68002B00D1B9E05D4A90427D
:1033F00001D0062200E0052200920246203201920E
:1034000000270997089707970690049112E02A432E
:10341000554842607F1C0B681846F840079A0832EE
:103420000792099A921C0992089A121D0892002884
:1034300000D195E001240594BC4023400393E9D0DA
:103440004D6810202843122813D11C2008990840E9
:103450000F2631468140FA0892000292019DAB5836
:103460008B43049A116931408140194302982950D5
:10347000556803232A461A400998824002938340E4
:1034800006990E689E43164306990E60069ED84321
:10349000122D049916D8059AAA40354B1A420FD01E
:1034A000B2680240CB6801460998834008460499F7
:1034B0001343B3602A09BA407368A343134373608C
:1034C000032DA7D0F26802408B680998834013430C
:1034D000F360EA009ED53A4602988243224880185B
:1034E000046E0522120796420CD0E34A964206D09B
:1034F000204A9642009E039D06D1022604E0039DC9
:10350000059E01E00026039D1822079B1A400F2309
:1035100093409C436030964026430660134C2368DA
:103520004868C20306D52B4323606368820306D430
:10353000AB4305E0AB43236063688203F8D52B43BC
:103540006360094A1368C20201D52B4300E0AB4314
:10355000054A13605268800200D558E7AA4357E72E
:103560000AB0F0BD0014005000180240801802405C
:10357000060006000008005000690840411E88410E
:103580007047002A02D018228150704728228150AB
:1035900070470000014800687047C046F8110020DD
:1035A000B0B50246034640335C780220202C17D188
:1035B0001C78012C14D02420587010680268012453
:1035C000A2430260220305689543056002680A432E
:1035D00002600168214301600020187020215970A9
:1035E000B0BDB0B50246034640335C780220202CC3
:1035F00017D11C78012C14D0242058701068026850
:103600000124A24302600F221202056895430902B9
:1036100029430160016821430160002018702021C6
:103620005970B0BD7047000080B50268AA4B9A423D
:1036300000D080BD002908D0A849CA78096A891835
:103640000122130600F0C6F980BDA4498A78002A39
:10365000EFD1C91C0122130600F042F980BDC0461B
:10366000F0B581B00122150201688B691C462C401F
:10367000664266410F6880243C4067426741374399
:1036800004D1466C012737434764CD6165426541EB
:103690005E05164600D52E46002E05D19502466CD5
:1036A000082737434764CD61654265419B05134652
:1036B00009D4002B0AD0416C0B22114201D001F039
:1036C000B5F801B0F0BD2B46002BF4D15202436C8B
:1036D00002241C434464CA61416C0B221142EED1A6
:1036E000EFE780B502689169436B1268002B00D048
:1036F000984780BD4121415C20290CD101464131D0
:1037000028220A70F049416300680168B8220A4320
:1037100002600020704702207047C04670470000DA
:10372000F0B581B0002822D00546403569780029DF
:1037300005D100212970044600F056F820462421C6
:10374000697001680B68012293430B600F231B060D
:1037500044689C430C618C68D94B1C408C60846825
:10376000C668012E06D1D60334438C600CE00120DC
:1037700001B0F0BD2127BF023C438C60022E03D173
:10378000D4024E68264302E0D4024E68A6434E603F
:103790004C680E4E26434E60CC681C40CC600369DA
:1037A00044691C4383691B022343CB60C369046AD9
:1037B0001C430C600B6813430B6000214164202202
:1037C0006A7001630846A97001B0F0BD0080000274
:1037D00080B50168404A914200D080BD3F49002237
:1037E0004A80FFF787FF80BDB0B58EB000240D94EE
:1037F0000C940B940A9409940894079406940594E5
:103800000494039400683449884201D00EB0B0BDDE
:103810004020029002A800F0CFF9002801D0FFF765
:1038200069FA144D28680221084328602868084076
:10383000019006200D900C940B9412200A90C02049
:10384000099001980C4809A9FFF7CAFD012040051D
:10385000A9680143A960A968014001910198172551
:1038600028462146224600F08BF9284600F07CF9D4
:103870000EB0B0BD341002400004005080B50168A5
:10388000154A914200D080BD14498A78002A03D09D
:10389000CA78521CCA7002E001228A70CA78D2B279
:1038A000096A89180122130600F01AF880BDC04683
:1038B00080B50168084A914200D080BD0749CA78A6
:1038C000521CCA70096AD2B2891801221306362224
:1038D00000F080F880BDC04600540040A8020020DF
:1038E000F0B587B00693054640356C7828273C40F4
:1038F000282C11D1002913D0002A11D06C7803682C
:103900001E68FC240594A6431E602E78012E0DD15E
:103910000224204607B0F0BD0124204607B0F0BDC8
:10392000012461024164204607B0F0BD01240494E3
:103930002C706E78292E28D16E783E40F227FF43F6
:10394000282E00D1B0371E683E401E601E687604E7
:103950001BD5049CA6031F68B7431F60846B002C13
:1039600013D0584EA6630390204601910292FFF7B0
:1039700035FA029A019904460398002C05D0806B11
:10398000816B8847029A019903982A246C7020243D
:10399000AC7000244464049BDB0307687E689E438C
:1039A0007E604285428D069BC36241624649416307
:1039B0000285B869B969C90303D40821084000D059
:1039C000F9612C703868059908433860204607B0C3
:1039D000F0BDC046F0B585B00493054640356C781F
:1039E00028273C40282C11D1002913D0002A11D0BF
:1039F0006C7803681E68FA240394A6431E602E7830
:103A0000012E0DD10224204605B0F0BD0124204630
:103A100005B0F0BD012461024164204605B0F0BD4F
:103A200001262E706E782A2E27D16E783E40F4271C
:103A3000FF43282E00D1B0371E683E401E601E682E
:103A400036041AD51E681E4C26401E60C46B002C1E
:103A500013D01C4EA6630290204600910192FFF7FE
:103A6000BDF9019A009904460298002C05D0C06B5C
:103A7000816B8847019A0099029829246C70202450
:103A8000AC700024446407687E680D4B1E407E6065
:103A90004285428D049BC36241620B4941630285AA
:103AA000B869B969C90303D50821084000D0F96194
:103AB0002C703868039908433860204605B0F0BD83
:103AC000FF7FFFFF51470008054C00081A480078A7
:103AD00002490A68101808607047C046F8110020B3
:103AE00080B5032000F008F8002801D0012080BD37
:103AF00000F024F8002080BD70B50F4E317801240D
:103B0000002916D005467D20C00003F0DFF80146ED
:103B1000E148006803F0DAF800F0ECFA032D08D869
:103B2000002806D10024E0432946224600F028F868
:103B30007560204670BDC0463800002082B009483C
:103B4000416801221143416041681140019101998E
:103B5000110702680A43026000680840009000985C
:103B600002B070473C100240002805D41F210840D5
:103B700001218140014801607047C04600E100E03A
:103B8000002805D40322034693430A4A9A1803E007
:103B90000C220240064BD2188007C00E8901C9B220
:103BA0008140FF23834010689843084310607047AA
:103BB00014ED00E000E400E0F0B585B004460168D3
:103BC0008803464E03D40020CA0739D140E00120C3
:103BD00001073746203F3A6803910A40029207D115
:103BE0003968039A11433960396811400491049986
:103BF000032101910A023168114010D0A26991425B
:103C00000DD031680004326802433260326882436A
:103C100032600846324A10403060C8074CD13068E4
:103C20002F490840A1690143316000200299002911
:103C300003D13968039A914339602168CA0707D0D4
:103C40003246083A13680325AB43A5681D43156047
:103C50004A0607D44A0410D40A0519D4002922D4EC
:103C600005B0F0BD032212033346083B1D6895439F
:103C7000E2682A431A604A04EED5032292073346CB
:103C8000083B1D68954362692A431A600A05E5D519
:103C9000032292033346083B1D68954322692A4359
:103CA0001A600029DCD55C3E3168E02291436268ED
:103CB0000A43326005B0F0BDFFF76CFC0546306882
:103CC0008007ACD4FFF766FC401B6F498842F6D9E9
:103CD000019802990029ACD0AFE7C0465C100240C1
:103CE000FFFCFFFFF0B583B00D460146012000291F
:103CF00063D00291019063480068072738408542ED
:103D000015D960490868B84328430860F84CFFF7A4
:103D100041FC06465B4800683840A84207D0FFF7E0
:103D200039FC801BA042F5D9032003B0F0BD029BF3
:103D300018688107554C10D5410707D57B2109022A
:103D400022688A430B210902511821600F210902C0
:103D500022688A43D96811432160C0071AD14948B3
:103D60000068384085422AD246490868B84328434B
:103D70000860DF4CFFF70EFC0646424800683840FA
:103D8000A8421CD0FFF706FC801BA042F5D90320F7
:103D900003B0F0BD2246083A10681C218843996898
:103DA000014311605968002932D0032901982BD0B2
:103DB000012932D11268920332D403B0F0BD029BC4
:103DC00018784007314A05D53803116881431869CE
:103DD0000843106010688006400F06D01168382034
:103DE0000140082909D12A483AE0104608380068FD
:103DF0008004410FBB48C84032E0116801402029CF
:103E000026D10120C0032BE0A26D9207D5D507E093
:103E1000106840050198D0D502E0626D9207CCD5BC
:103E20002068B84308432060FFF7B4FB06462068CB
:103E30003821014002984068C00081428FD0FFF7CE
:103E4000A9FB801BAA498842F1D9032003B0F0BD29
:103E500011680140182901D0002001E07D200002F6
:103E6000116889093C220A400A4989581F220A40E0
:103E7000D0409D4908609D480068FFF73DFE03B0B3
:103E8000F0BDC04600200240881300000810024028
:103E900000127A00BC79000840000020F0B581B023
:103EA00004460120002C00D118E100902078C007C2
:103EB0008B4E07D0B068382202406168082A3BD197
:103EC000002972D02078800713D42078000709D504
:103ED000B06838220240A169182A69D100290098E7
:103EE00000D1FBE020780025400736D4284601B0F9
:103EF000F0BDE268B0688006400F38D0306801211C
:103F00008F02002A74D00722D20290432269024312
:103F100032600802316801433160FFF73BFB054620
:103F20003068384200D08BE0FFF734FB401B02289A
:103F3000F6D9032001B0F0BD306801235F041A04F4
:103F4000914207D005252D04A94262D19904084366
:103F5000306030681043306063E0B068382202405F
:103F6000A168202A37D14842484101B0F0BD002A5B
:103F70001BD07F2000027168814360690002084302
:103F800070600720C00231688143206908433060B7
:103F900030688004400F5349C14053480160534882
:103FA0000068FFF7A9FD00288FD0009801B0F0BD90
:103FB000306E00294DD0012108433066FFF7EAFA40
:103FC0000546306E80078DD4FFF7E4FA411B0320CD
:103FD0000229F6D982E0F06D012905D0052949D1E1
:103FE00004210843F065F06D01210143F1654AE0C9
:103FF000090288433060FFF7CDFA05463068384241
:1040000000D162E7FFF7C6FA411B03200229F5D968
:1040100064E0904330609804326882433260002943
:1040200040D0FFF7B7FA05463068384200D049E77C
:10403000FFF7B0FA401B6428F6D9032001B0F0BDA9
:104040007F2000027168814360690002084370604C
:104050003BE7012188433066FFF79CFA0546306E46
:10406000800700D43EE7FFF795FA411B03200229A1
:10407000F5D933E001229043F065F06D04229043BE
:10408000F06500291CD01A4FFFF784FA0446F06D42
:10409000800700D52AE7FFF77DFA011B0320B9420C
:1040A000F5D91BE0FFF776FA05463068384200D1B3
:1040B00008E7FFF76FFA411B03206429F5D90DE0EB
:1040C0000B4FFFF767FA0446F06D800700D40DE749
:1040D000FFF760FA011B0320B942F5D901B0F0BD2A
:1040E00000100240006CDC02400000203C00002078
:1040F00088130000401E010E01D0012070470749BF
:10410000074A5060074803680B4003218907591884
:10411000016000209060072111607047FFFFFF00E1
:1041200010E000E020ED00E07047704770470000AD
:1041300070B53C22825C012A01D1022070BD02468A
:104140003C3202235370006845688368714CA0427A
:1041500001D02E4604E00F263605B5434E682E43A7
:104160007025AE430D6835434560A04202D06A4CCD
:10417000A04204D18024A3438968194381600020B0
:1041800010700121517070BDB0B5002824D00546D3
:104190003C356978002905D100212970044600F0DA
:1041A00057F820460221697001680C68594A91420B
:1041B00002D0594B994211D170239C438368234309
:1041C000204CA1420EDD914212D01F4CA1420FD0D3
:1041D0001E4CA1420CD033E00120B0BD2346194C47
:1041E000A142F0DC4C4CA14202D0364CA14227D176
:1041F00003242402A34304691C4380239C43836952
:1042000023430B60C368CB6243688B62914205D045
:104210000D4A914202D00D4A914201D14069086392
:10422000012048612873A870E87028716871A8712E
:10423000E87128726872A872E87268700020B0BDD8
:104240001C46DAE7FF2B01400048014000440140D2
:1042500010B584B00068304988421DD019498842A1
:104260000ED02C4988422AD10120C00216490A6882
:1042700002430A60096801400391039804B010BD2D
:104280000120C00310490A6802430A60096801401E
:104290000191019813240AE00B48001F01680222D3
:1042A0001143016000681040029002981024002120
:1042B00020460A46FFF764FC2046FFF755FC04B091
:1042C00010BDC046002000404010024010B53D2106
:1042D000415C01291CD101463D3102220A7001686E
:1042E000C86801221043C8600A48814202D00A48C7
:1042F000814208D18868094B03400020062B06D074
:104300001404A34203D0086810430860002010BDC5
:10431000012010BD002C01400004004007000100F6
:1043200010B50268D36801218B43D360136A094C2E
:10433000234203D03D228154002010BD136A064C55
:104340002342F7D113688B4313603D228154002030
:1043500010BDC0461111000044040000F0B53C221D
:10436000825C012A01D10220F0BD02463C320223C8
:1043700053700468A0684E4B0340A3600D6800238F
:104380004F2D1EDC1F2D37DD202D39D0302D37D09D
:10439000402D00D087E0206A256A0126B5432562BA
:1043A000A569F026B543CE6836012E43A6610A25DD
:1043B000A843496801432162A0683E490140473152
:1043C0006BE06F2D28DD01204603B54256D0000377
:1043D000854218461CD0702D65D1FF200002A568CB
:1043E000854348688E68C9680643080230432843FD
:1043F000A060A06877214FE0002D01D0102D52D190
:10440000A0682C4901400D4307202843A0601846AE
:10441000137001215170F0BD502D19D0602D42D183
:10442000206A256A1026B54325620F252D03A6694B
:10443000AE43CD682D033543A561A025A843496847
:10444000090101432162A0681A490140673124E053
:10445000206A256A0126B5432562A569F026B54381
:10446000CE6836012E43A6610A25A8434968014358
:104470002162A0680F49014057310EE0FF252D024F
:10448000A668AE434D688F68C9682F430902394357
:104490003143A1608003A1680143A16018461370F5
:1044A00001215170F0BD0120137001215170F0BD48
:1044B0008800CEFF88FFCFFF70470000F0B583B0C3
:1044C00004460068C5680227294639404A424A41E5
:1044D0000169029139404B424B41134313D16B495F
:1044E000FE310161012121778069800703D02046D8
:1044F000FFF7E2FF05E0204600F0CAF8204600F092
:10450000C8F800202077012604222946114048429D
:10451000484102994907314600D50146032000026F
:104520000190002916D1009220685849FC310161A0
:10453000277780690199084203D02046FFF7BCFF26
:1045400005E0204600F0A4F8204600F0A2F8002084
:104550002077009A08272946394048424841029965
:104560000907314600D50146002913D12068474983
:10457000F83101612277C069800703D02046FFF738
:104580009BFF05E0204600F083F8204600F081F80C
:104590000020207710212940484248410299C9064D
:1045A000314600D50146002914D120683749F03141
:1045B00001612777C0690199084203D02046FFF7BF
:1045C0007BFF05E0204600F063F8204600F061F82C
:1045D0000020207701212940484248410299C9071B
:1045E000314600D00146002906D120682749FF3115
:1045F0000161204600F04EF880272F407842784134
:1046000002990906314600D50146002906D12068E5
:104610001E49803101612046FFF787FD78427841CD
:104620000299C905314600D50146002905D1206807
:10463000164901612046FFF777FD40212940484295
:10464000484102994906314600D50146002906D164
:1046500020680E49C0310161204600F065F8202035
:104660000540684268410299890603D4002E04D0AF
:1046700003B0F0BD0646002EFAD120680349E031B0
:1046800001612046FFF752FD03B0F0BDFFFEFFFFC2
:104690007047704770B51D49096802688A4229D180
:1046A0001B4E3178491C3170C9B209290FD1174806
:1046B000FFF736FE1A480168164A1278194B5A5409
:1046C000491C016020291AD30021016070BD0446F5
:1046D0000520000701252903FEF74EFF3178491E0A
:1046E0008D400C490A78002801D02A4300E0AA43F3
:1046F00020460A70084909680068884200D070BDE9
:1047000006480168491C016070BDC0465004002085
:1047100044000020340D002004040020C0020020CA
:10472000B4020020380D00207047FEE780B507482E
:10473000006880694005400F03D00448FEF790FFF1
:1047400080BD0248FEF7CDFF80BDC0466403002057
:1047500080B5806A816B002901D000228A630146FE
:104760004031C26B002A01D0002393634A78602A4B
:1047700007D120224A7000220A700263FEF752FF1E
:1047800080BD00220A700263FEF7C8FF80BD0000F2
:10479000F0B581B006464036717828220A40056897
:1047A000282A1DD1A969AC69AB68EA680092FE228B
:1047B000240CC903C90FC768022F17D1DF0967404E
:1047C0007C07A40F1ED0009B1340002232702A6881
:1047D000B824A2432A601A46FEF726FF01B0F0BDB6
:1047E000002030700820E86101B0F0BD0023337074
:1047F0002B68B826B3432B6014402246FEF714FF03
:1048000001B0F0BD826C521C8264826C022AEBD132
:10481000054C1A4622400023836433700823EB6161
:10482000FEF702FF01B0F0BDFF03000070B50446C3
:10483000054640356A780020A870D24BE362608557
:10484000636C0B4363646978283A022A16D86B7844
:1048500028200340F622D6433246B032282B134696
:1048600000D033460140282900D0324621680E6826
:1048700016401E400E606870404829E06978216843
:104880000A68FE239A430A608A69920706D48A69F5
:10489000D20707D06A78602A0BD119E088628A694A
:1048A000D207F7D18A69012313438B616A78602AA2
:1048B0000ED020226A708B699B0609D58B69DB06B6
:1048C00005D51023CB61636C04261E436664CA6160
:1048D0006063A06B226B00281CD0212A01D0112A12
:1048E00018D10A68520404D5012292030B6893433D
:1048F0000B60FEF7B1FA01281FD000202870A06BD2
:104900001F498163FEF76AFA002828D0A06B816BEB
:10491000884770BDE06B00280FD0222A01D0122AF0
:104920000BD10A68120404D50122D2030B68934309
:104930000B60FEF791FA012812D16878602808D13F
:10494000202068700020287020632046FEF76AFE51
:1049500070BD0020287020632046FEF7DFFE70BD8A
:1049600000202870E06B06498163FEF737FA0028C3
:10497000F5D0E06B816B884770BDC046054C0008E0
:1049800051470008F0B585B0049103681E680546DC
:1049900040356A7820210391D961F7211140FE2426
:1049A0000294E443212904D0222904D1A21C22210B
:1049B00006E0221D04E0282A07D16978002122465A
:1049C0006F781F6817401F60016301940121CA03BB
:1049D0005F6817435F605F68694C3C405C609C693E
:1049E000A4070ED49C69E40710D08903740413D47F
:1049F00016421AD01C6894431C60C66B002E11D15D
:104A000013E000249C629C69E407EED19C690C438E
:104A10009C6189037404EBD51C688C431C60866B15
:104A2000002E02D0346864684485049C64070FD566
:104A3000446A5B6A2370436A5B1C4362038D0024F3
:104A40000494002B04D05B1E0385438D5B1E4385BD
:104A5000438D002B03D0436C04241C434464002684
:104A6000AE704663436C002B32D0416C0746FFF7B3
:104A7000DDFE6878282846D1ED49F9623E63039946
:104A800069707E63AE700499490712D5796A3A68F5
:104A9000526A0A70796A491C7962398D002908D0F6
:104AA0007A8D521E7A85491E3985796C04220A4313
:104AB0007A646978697839680A68029B9A430A605F
:104AC0002E701022CA613846FEF782FE05B0F0BD96
:104AD000C36AD74FBB420AD16978039A6A702E70B5
:104AE000066322290DD1FEF7C9FE05B0F0BD0368AB
:104AF0001C68AE700C4208D11442019C0AD0CE4909
:104B000005E0FEF7D5FE05B0F0BDCA49019C1A6864
:104B10000A401A60697829290AD12821697021225E
:104B200002632E706A780A40282A0FD00C340EE0F7
:104B300069782A291AD128216970222202632E70ED
:104B40006A780A40282A09D00A3408E0BC34196877
:104B5000214019600446FEF7ABFE06E0BA3419683E
:104B6000214019600446FEF789FE2046C76203997A
:104B700069702E700663FEF72BFE05B0F0BDC046CF
:104B800000E800FE0000FFFFB0B501680C680246B7
:104B9000403200239370650403D4240405D5A64C49
:104BA00000E0A44C0D6825400D605478292C0CD1F0
:104BB0002824547021250563137053782340F42270
:104BC000D243282B16D0921C15E054782A2C10D1F1
:104BD0002824547022250563137053782340F4224F
:104BE000D243282B00D1B0320B6813400B60FEF784
:104BF00045FEB0BDB2320B6813400B60FEF758FEA5
:104C0000B0BDC046F0B583B04023C35CC66A012B7B
:104C100002D1022003B0F0BD0546403501272F70B8
:104C20000A4093060DD50446029601950D463E4670
:104C30001746FFF7A7FE3A4637462946019D029ED2
:104C40002046D3061BD451072ED4110700D580E08F
:104C5000910700D4E5E0418D002900D1B9E0016859
:104C6000426A13788B62511C4162018D491E018595
:104C7000418D491E41850020287003B0F0BD428D52
:104C8000002A33D001681022CA61416C04220A4311
:104C9000426466490E4200D0C3E0416CFFF7C6FD96
:104CA0000020287003B0F0BD418D00290CD0416A6E
:104CB0000268526A0A70416A491C4162018D491EAC
:104CC0000185418D491E4185418D002900D0A8E014
:104CD00057498E4200D1A4E001680B680022AA70F7
:104CE0005C0458D41B045AD5534B55E06B78504A9A
:104CF000282B34D17B069E4231D1C262002202634E
:104D000020236B704263AA70490712D5416A036879
:104D10005B6A0B70416A491C4162018D002908D011
:104D2000438D5B1E4385491E0185416C04230B4363
:104D300043646978697801680B68FE24A3430B60BB
:104D40002A701022CA61FEF743FD0020287003B0CC
:104D5000F0BDFFF71DFD0020287003B0F0BD6B789B
:104D600001681024CC61292B5BD1964259D08A6905
:104D7000920701D500228A628A69D20702D18A6924
:104D80003A438A610B680022AA705C042AD41B048F
:104D90002CD5294B27E0274B0C681C400C606B7806
:104DA000292B26D128236B70212404632A706C7868
:104DB0001C40F422D243282C01D0921C00E0B232D5
:104DC0000B6813400B60FEF773FD0020287003B0E2
:104DD000F0BD16490E4224D1FFF7D6FE0020287000
:104DE00003B0F0BD134B0C681C400C606B78292B92
:104DF000D8D06B782A2B14D128236B70222404631B
:104E00002A706C781C40F422D243282C00D1B03296
:104E10000B6813400B60FEF731FD0020287003B0D3
:104E2000F0BD0020287003B0F0BDC046FFFFFFFEBC
:104E30000000FFFFFFBFFFFFFF7FFFFFFEE77047A0
:104E4000F0B589B005200407202500262046294614
:104E500032460896FEF795FB0127204629463A463A
:104E6000FEF78FFB402107912046FEF785FB05905A
:104E7000204629463246FEF784FB204629460697FF
:104E80003A46FEF77EFB2046079E3146FEF774FB4E
:104E9000049020462946089AFEF773FB20462946CF
:104EA0003A46FEF76EFB20463146FEF765FB03905F
:104EB00020462946089F3A46FEF763FB20462946CE
:104EC000069E3246FEF75DFB20460799FEF754FB2F
:104ED0000290204629463A46FEF753FB20462946D3
:104EE00037463246FEF74DFB2046079E3146FEF719
:104EF00043FB019020462946089AFEF742FB2046D4
:104F000029463A46FEF73DFB204637463146FEF736
:104F100033FB009020462946089E3246FEF731FBBF
:104F200020462946069AFEF72CFB20463946FEF716
:104F300023FB0746204629463246FEF722FB204641
:104F40002946069AFEF71DFB20460799FEF714FB3B
:104F5000064620462946089AFEF713FB0599481E87
:104F60008141C800049A511E8A4191004018039A59
:104F7000511E8A4151004018029A511E8A418018E0
:104F80008000019A511E8A4151004018009A511E1A
:104F90008A4180188000791E8F4179004018711E67
:104FA0008E418019C0B209B0F0BD704780B5FEF7E0
:104FB0008DFD80BD0120C006014908607047C046D4
:104FC00008ED00E080B50248FFF778FA80BDC046E2
:104FD0000404002080B50248FFF770FA80BDC04687
:104FE0005004002083B0B0B581B0054605A80EC0BE
:104FF00005AA0092114C20462946FBF777F9204676
:10500000FBF724FB05460E480168490608D40168F1
:10501000490605D40168490602D401684906F3D55A
:10502000002D05D0207800F015FA641C6D1EF9D112
:1050300001B0B0BC01BC03B00047C04678110020ED
:105040001C440040F0B585B005210C07C209074695
:105050000490042103912046FEF793FA20260125AF
:10506000204631462A460195FEF78BFA002202922D
:1050700020463146FEF785FA7806C20F2046039F88
:105080003946FEF77EFA204631462A46FEF779FA7F
:1050900020463146029D2A46FEF773FA04988006A0
:1050A000C20F20463946FEF76CFA20463146019F72
:1050B0003A46FEF766FA204631462A46FEF761FA7E
:1050C000049DE806C20F20460399FEF75AFA2046CF
:1050D00031463A46FEF755FA20463146029F3A4697
:1050E000FEF74FFA2807C20F20460399FEF749FA48
:1050F00020463146019D2A46FEF743FA20463146B6
:105100003A46FEF73EFA04984007C20F2046039F36
:105110003946FEF736FA204631462A46FEF731FA7E
:1051200020463146029D2A46FEF72BFA0498800756
:10513000C20F20463946FEF724FA20463146019F29
:105140003A46FEF71EFA204631462A46FEF719FA7D
:10515000049A3A4020460399FEF713FA2046314656
:105160003A46FEF70EFA204631462A46FEF709FA7D
:1051700005B0F0BDF0B583B00190334800680290EF
:10518000394E3A4F3A4C042001252946FDF7DEFD01
:1051900035212F4A515C2F4A12788A4200D1404271
:1051A0007D21C90001F0B4FD2C4909682C4A9142C7
:1051B00000DD0021284A80188A002A4B9850481C9C
:1051C00026490860B068396888420ED0205C01F03A
:1051D0009BFCB068401CC117890E41183F229143C7
:1051E000401AB06039688842F0D101F0CDFC002847
:1051F0001AD1154800680299411A1E4A91421BD2E1
:105200007168401A11498842BDD91048411C1AA042
:10521000FFF7E8FE302002210D4A115407203070BC
:105220000025284603B0F0BD01F0A6FC0648006842
:105230007060284603B0F0BD1BA00199FFF7D2FEB5
:105240000025284603B0F0BDC00200202F750000E5
:10525000D00200206003002070170000B002002080
:10526000FF0100003405002010030020B4020020DC
:10527000380D0020983A000050415F5252463A20C3
:105280007761746368646F6720E28094206E6F209A
:105290006F6B20666F72202575206D732C20616204
:1052A0006F7274696E670A0050415F5252463A202D
:1052B00074696D656F75743A2025730A00000000EB
:1052C000F0B585B0124C216860685A265F4F114ACC
:1052D000914204D1B95D884201D105B0F0BD0020F2
:1052E0000190FEF739F8012504950F200390022064
:1052F000029002A801A9FDF7C5FDBB5D054A28463D
:105300002146FDF765FFFDF72FFF05B0F0BDC04654
:1053100000780008BD3412BDF0B587B020294CDB01
:1053200005924B1EDA0FD20284189A00A4588A0004
:105330001718381F0297083F8D1E01910A46214613
:105340001F3A06922646039306E00838AD1E083F32
:105350009B1E069A934217DDDA0FD2028458A142AF
:1053600000D82146EA0FD202BA58914204D9A64287
:1053700005D29642E9D305E01146A642F9D3264666
:105380009642E2D31646E0E7881B5B212F4A505431
:105390005A21515CC3B2012000228B42014600D841
:1053A0001146142B039E029C069D019B00D81046BB
:1053B000059A002A03D1084301D007B0F0BD981E1A
:1053C0000590581E04903246DE1E191F00273846ED
:1053D000D30FDB02E3181B1F1B681818059BDB0F9C
:1053E000DB02E318083B1B681818049BDB199B1EA3
:1053F000AB421ADDF30FDB02E3182546CC0FE402C3
:105400002C190C3B1B681818103C23682C461818E4
:105410003F1F049BDB19059D2D1F0595069D361F1B
:10542000091F103C121FAB42D2DC1E2101F070FCA0
:105430000446064D6869A04203D005482146FFF79F
:10544000D1FD00206C61A86107B0F0BDA80200206A
:105450002D7A0008F0B585B00190052000070125E0
:10546000E9020027039002913A46FEF78AF81A24CF
:1054700004946E480068416A89B2049A8A18120C32
:1054800014D1426A521A049B9A4220D2426A521A9A
:10549000049B9A421BD2426A521A049B9A4216D229
:1054A000426A521A049B9A42EBD310E04762416A67
:1054B000049A91420BD2416A049A914207D2416AFE
:1054C000049A914203D2416A049A9142EFD32E0486
:1054D000019D03E0019D7F1C082F6FD02846F840F6
:1054E000C00722D0012203980299FEF74AF80494DB
:1054F0004E480068416A89B2049A8A18B24238D28A
:10550000426A521A049B9A42E5D2426A521A049B9A
:105510009A42E0D2426A521A049B9A42DBD2426A11
:10552000521A049B9A42EBD3D5E7002503980299BF
:105530002A46FEF726F804943C480068416A89B27E
:10554000049A8A18B24227D2426A521A049B9A429B
:10555000C0D2426A521A049B9A42BBD2426A521A81
:10556000049B9A42B6D2426A521A049B9A42EBD3E7
:10557000B0E700214162416A049A9142ABD2416A8C
:10558000049A9142A7D2416A049A9142A3D2416AF5
:10559000049A9142EFD39EE74562416A049A914290
:1055A00098D2416A049A914294D2416A049A9142F3
:1055B00090D2416A049A9142EFD38BE7012203987B
:1055C0000299FDF7DEFF049418480068416A89B229
:1055D000049A8A18B24214D2426A521A049B9A421E
:1055E00021D2426A521A049B9A421CD2426A521A2F
:1055F000049B9A4217D2426A521A049B9A42EBD3F6
:1056000011E000214162416A049A91420BD2416A41
:10561000049A914207D2416A049A914203D2416AA4
:10562000049A9142EFD305B0F0BDC046B803002004
:10563000A4B0FEF755FA00251B9519951C951A95EF
:10564000189517950224169440201B9001200702FC
:10565000199716A8FEF722FC002801D072B6FEE7C3
:1056600012950720119013951495159511A80126F0
:105670003146FEF737FB002801D072B6FEE70E97E1
:105680001A951995189517951695F34801683143A1
:105690000160016831401191119901682143016055
:1056A0000068204011901198052007071094EB4CDA
:1056B000384621462A46FDF764FF19951896179635
:1056C000169416AC38462146FDF78AFE18951795B4
:1056D0004820169038462146FDF782FE1896E0488D
:1056E00017900D96360316960F9738462146FDF70C
:1056F00077FE0727384629462A46FEF741FA3846FC
:10570000FEF732FAD748D8492F27D84A84C0056017
:1057100041608560C5600561199518951795083831
:10572000FEF732FD002801D072B6FEE71696CD488E
:1057300016A9FEF713FE002801D072B6FEE71395F6
:1057400012951195C74811A9FEF7F2FC002801D067
:1057500072B6FEE7C64885611A21C64A84C0056054
:105760004160856019951895179512950838FEF7D0
:105770000BFD002801D072B6FEE71696BC4816A9AC
:10578000FEF7ECFD002801D072B6FEE713951195E7
:10579000B74811A9FEF7CCFC002801D072B6FEE78D
:1057A000B5480821B54AB64B0360426081600D9947
:1057B000C160056145618561C5610562FDF7B0FFA6
:1057C000002801D072B6FEE7AB480021FDF7E8FEE5
:1057D000002801D072B6FEE7A74800210791FDF727
:1057E00000FF002801D072B6FEE7A648079B836140
:1057F000A549A64A02600D9A42608360C1600361B8
:10580000FEF7C2FC002801D072B6FEE7F648FEF7AC
:105810005DFDF748FEF75AFDF6490798C860086134
:10582000C87016A8FDF78EFB1C98C10110D50D9904
:10583000090688431C90FDF78FFDFDF7B5FC16A8FF
:10584000FDF7D8FBFDF79AFCFDF7A0FCFDF78CFCFB
:10585000E84D2C4628342C62284635302921FAF7A9
:1058600033FF5A200421295407992173E249E34A5E
:10587000E34BAB62EA622963E2490A684968E24B9A
:105880009A4203D1632901D8DA4A11545822109858
:10589000D849049288540798C8614861D348FDF7F5
:1058A00029FF002801D072B6FEE70420D421FDF7BD
:1058B0009AF95D20CF4C06900D99215401F01AF908
:1058C000D949DD4808180190D14B079D049F08E095
:1058D00004203421FDF787F9DD48FFF783FB079D9E
:1058E000CB4BCA48405D002831D00D2801D00A2892
:1058F00027D1207900282AD000261E5418785978FC
:1059000009020818C349884207D005221846C2A1D7
:10591000FAF76FFEBE4B00280FD10D96B54F1C460F
:10592000A05D01F0F1F8761C38798642F8D30A20A0
:1059300001F0EAF8049F23460D9EAE480671044626
:1059400005E021797E2902D85854481C20716D1C2D
:10595000402DC6D100F0A8F9002808D000F0A4F925
:10596000062804D000F0A0F9072800D005E10420A3
:1059700001263146FDF7EAF90699615CA84A1278DA
:105980008A4200D140427D21C90001F0C1F9A549F8
:105990004118A0688200A44B9950401CA060592077
:1059A000205C012802D1A1A0FFF71CFBE05D0728C5
:1059B0000FD1A1685C290EDB0E98FF30814200D820
:1059C000ECE0F02298480199FAF758FC3C20A060DE
:1059D00001E000F051FF00F0BBFD5C20215C62693A
:1059E000012902D0002A00D0B6E005961099215472
:1059F000A068202800DAA0E00392451E0446E80FC4
:105A0000C002894B1818A9004258A0001F183E1F59
:105A10000297083FA31E089420461F380D900B9351
:105A200014460C95294606E0083E9B1E083F891E39
:105A30000D98814233DDC80FC0023058824200D831
:105A40000246DD0FED027D59AA4221D82A46844242
:105A500020D2AC42E8D320E034100240B429000048
:105A600000002110B8030020FEFF0000002C0140C0
:105A70005004002000040040640300205D3E3020FC
:105A8000005400400404002080BB000000200040BF
:105A90008442DED30446AC42C6D32C46C4E7101B76
:105AA0005B21544A50540898411E0A91C11E099125
:105AB000001F089000242046029D0BAE4CCED90F4B
:105AC000C9026918091F09680818D10FC9026918A5
:105AD0000839096808180A990919891EB1421DDD9B
