:020000040800F2
:1000000068150020D5000008D5270008D327000870
:1000100000000000000000000000000000000000E0
:10002000000000000000000000000000432900085C
:100030000000000000000000D72700084529000844
:10004000E700000800000000E7000008E7000008E3
:10005000E7000008E7000008E7000008B50E000808
:1000600000000000E7000008E7000008E7000008C3
:10007000E7000008E7000008E700000800000000B3
:100080002D2A000800000000000000001D2A0008C2
:1000900000000000E7000008E7000008E700000893
:1000A00000000000E700000800000000D53500084F
:1000B000E700000800000000000000000000000051
:1000C0000348854600F06AFB00480047654A00087F
:1000D000681500200448804704480047FEE7FEE713
:1000E000FEE7FEE7FEE7FEE70D2A0008C100000874
:1000F00003460B439B0703D009E008C9121F08C041
:10010000042AFAD203E00B780370401C491C521EEB
:10011000F9D27047D2B201E00270401C491EFBD2F6
:1001200070470022F6E710B513460A460446194602
:10013000FFF7F0FF204610BDCAB2401E4178401CB8
:100140008A4202D00029F9D100207047421C017870
:10015000401C0029FBD1801A704730B504460020AE
:10016000034600E05B1C934203D2E05CCD5C401B85
:10017000F8D030BD70B5064606F07EFD0468054631
:100180000A220021304600F0AFF92C6070BDF8B5AE
:1001900002464A40D40F42004B0052085B089A4284
:1001A00002D20246084611464A0023D0C30D4A0037
:1001B000DDB2120EAD1A202D35DA49020126490AA8
:1001C000F6058A19002C00D0524220214F1B1146FF
:1001D000B9402A411018C20D9A4221D0002C17D0E4
:1001E000012D08DCDA05801AD20F8019D207DBB2A4
:1001F00000F0BAF9F8BDDA05801A012340001B06A9
:10020000C01880185A428018CA0F1043490007E0EE
:100210004908C2071143DA05801A8019400880187E
:1002200000F09AF9F8BD61000122511A001BF7E7AE
:100230000122D2075140AAE70122D2075040A6E787
:10024000024670B54A40D30FDB0740002DD04A006C
:100250002AD0010E140E000212020919400A520A95
:100260008418E50104465443000A120A2E04504340
:10027000A4194219200CC543AA18120C0125AD037C
:10028000521C521912047F39240400D0521C10430E
:1002900001D44000491EC2B20C06C0092018401CFF
:1002A0004008802A02D003E0002070BD40084000D2
:1002B000002900DA0020184370BD0122D20700286F
:1002C00000DB101A002900DB511A814201D80120FD
:1002D0007047002070470122D207002800DB101A67
:1002E000002900DB511A814201D201207047002011
:1002F00070470122D207002800DB101A002900DB1A
:10030000511A814201D3012070470020704710B577
:1003100000229623114600F027F910BD410040024B
:100320000122400AD205090E80187F2901DA002037
:100330007047962903DC9622511AC84070479639B7
:1003400088407047C20FD207400040080BD0C10D53
:100350000723DB01C91840020905400A1143C208FE
:10036000400711437047002001467047CB0FDB0761
:10037000490010B5490802460A4307D00A0D072470
:100380000903E401090B121B002A01DC002010BD47
:10039000C900440F0C43C100E018D205801800F0DA
:1003A000DBF810BD70B50446002903D000202022E0
:1003B000012310E0002801D00020C043C046C04601
:1003C0000DE02546D5408D4205D30D469540641B72
:1003D0001D46954040191546521E002DF1DC214660
:1003E00070BD000070B5002504462E46002911D0CE
:1003F000002C01DA01254442002901DA0126494294
:100400002046FFF7CFFFB54200D04042002D00D07C
:10041000494270BD002C02DA0121C90702E0002C1C
:1004200000DD03490846C046C046214670BD0000B5
:10043000FFFFFF7F0FB400B589B00A460DA90091F8
:1004400000230C99002ACB60234B0693234B079380
:1004500001D0042300E00023214A0292214A08929D
:10046000019302466B46002000F06FFA09B008BC09
:1004700004B01847F0B585B007460020C04301908E
:100480001E46002015460C460091029104903B4602
:100490006A46314604A8FFF7CDFF0499024660186A
:1004A000002D05D0002901D0034600E023462B6033
:1004B00000290ED0002A02DD0099814209D0001BDC
:1004C000019000943B466A463146029404A8FFF727
:1004D000B1FF05B0F0BD0000A10B0008C10B000882
:1004E000FFFFFF7F19080008F7B5009C0F460026A4
:1004F0002578641C002D05D000F08AF90068405D65
:10050000C007F5D12B2D02D02D2D18D0641E3946F1
:100510002046029A00F066FB002F04D03968A14201
:1005200001D1009939607105022400290BDA40429B
:10053000002803DD06F0A0FB0460A007FEBD01203B
:1005400080020643E3E70028F8DA06F095FB046032
:100550000048FEBDFFFFFF7F002904DA401C490070
:1005600001D140084000704770B40024050C05D14B
:100570001024000402D1002921D01124050E01D13C
:1005800000020834050F01D10001241D850F01D19F
:100590008000A41C002801DB4000641C002908D056
:1005A00020252E1B0D46F540A14000D001212943F6
:1005B000084301061B1B000ADB1D02D5002070BC8E
:1005C0007047DB05181880180029F8DA401C49002C
:1005D000F5D170BC4008400070470000F0B51FB472
:1005E00088B00B990998002448400999C00F490028
:1005F00049080991C0070B990090490049080B91DF
:1006000009990898A64608431CD00B990A980843F4
:1006100018D0099801244000420D4800410D099866
:1006200024050003000B204309900B980003000BE6
:1006300020430B9050181C4940180022019014468A
:10064000104605E0002001460DB0F0BD032801DA98
:10065000034600E003239C46C11A0AAE0AE05F008D
:1006600008ADED5B4F00F75B7D430027AA187C4186
:10067000491C5B1E6145F2DD410004AB5A52210466
:10068000120C0A43240C401C0828DFDB019802905E
:100690000099704601910090059B049A079906986D
:1006A00000F000FBD0E700000DFCFFFFF0B50C46AA
:1006B0005C4085B0E40FE40703944C000026640816
:1006C00059009446490802460296224321D06246C8
:1006D0000A431ED06200570D4A000E032303550D36
:1006E000012402462C492405781B1B0B360B4018AD
:1006F00023432643614600901C46501AB44103D35D
:100700000098401C009002E0921800985B4100287D
:1007100003DA0020014605B0F0BD002001210905E3
:100720000746864611E064461D46141BB54106D3B4
:100730006546521BB341744607430C43A646CD079A
:1007400040084908284392185B4105460D43EAD109
:100750001046184313D06046194650407140084374
:1007600006D06046101AB34106D20122002306E0EB
:1007700000220123DB0702E00122D243531000983C
:1007800074460105381C6141029C039D00196941B2
:1007900000F07BFABFE70000FD0300001CB509482C
:1007A00000900948019005460126009C05E0E36899
:1007B00007CC33430C3C98471034AC42F7D3FFF7D7
:1007C00083FC00002C7600084C76000810B5202A27
:1007D00004DB0146203A9140002010BD91402023C7
:1007E0009C1A0346E3401943904010BD10B5202ADF
:1007F00004DB0846203AD040002110BD0B46D34010
:10080000D0402024A21A91400843194610BD000090
:1008100000487047D872000810B50446FFF7F8FF8B
:100820000068005DC007C00F10BD0000FFB508786C
:1008300089B01546FF2805D0491C2D2804D0002278
:10084000002407E000240BE00122F9E70A235C43BF
:100850000419491C0878FF28F8D1002A00D0644206
:10086000002004902A7801462D2A01D02B2A0FD18E
:100870006D1C2D2A02D00022049209E00122FBE720
:1008800000260A2233466D1C00F05EFA38187141CA
:100890002F78FF2FF4D10C9AA218069202460A4331
:1008A00004D0FF23069A9133DA4205DA0021099831
:1008B0000A4606C00DB0F0BD0024B74AB54D264625
:1008C000079200F069FA029006980391002801DA75
:1008D000474200E0074639050020AF4A001C51415D
:1008E0000191009012E0F80707D022462B463046CF
:1008F0000799FFF773FE0646079122462B461046DE
:100900001946FFF76BFE04460D467F10002FEAD113
:100910000698019B0028009A0399029806DAFFF7CF
:10092000C5FE3246079BFFF7C1FE05E0FFF756FE06
:100930003246079BFFF752FE049A002A02D001229A
:10094000D2075140099A03C2B4E7FFB591B0002025
:1009500009900025ED432E209E685C681F4601909B
:10096000B9696D1C129888470090396A8847002839
:10097000F6D10098401C0AD00D20C0018443002EFF
:1009800012DD00982B2809D02D280DD103E000207E
:10099000C04315B0F0BD012080020443B9696D1C4D
:1009A00012988847761E009003A9600501D52D2076
:1009B00000E02B206A461073491C0CA80F9102908E
:1009C0000AE0B9696D1C1298884700900120400226
:1009D00004431398761E0560002E02DD009830282F
:1009E000EFD001990098884245D18020044308E067
:1009F0000998401E09900120400204431399681C85
:100A00000860B9696D1C761E1298884700903028DE
:100A1000EED030E00199884205D1200603D4802031
:100A20000443761E1DE0009806F046F9002825D004
:100A3000012149020C43009807AA0F99033230386C
:100A4000761E914208D208700F98401C0F90200625
:100A500007D50998401E03E0200602D40998401CDF
:100A60000990A00502D51399681C0860B9696D1C2E
:100A7000129888470090002ECCDC59E0002E57DDFC
:100A80000098652801D0452852D1A00550D50320F3
:100A900000028443B9696D1C761E12988847009045
:100AA000002E0CDD2B2804D02D2808D1FF2001308A
:100AB0000443B9696D1C12988847761E0090E005C2
:100AC00001D52D2100E02B21029801700298401CD5
:100AD0000290019025E00120400204430EA90298F3
:100AE0000131761E88420ED20098029930380006F5
:100AF000000E087003D10299019881420AD9029828
:100B0000401C029006E0E00501D5244801E023489E
:100B100040420990B9696D1C12988847009013985B
:100B20000560002E04DD009806F0C6F80028D2D13A
:100B3000F969129888470F99FF200870029903AA53
:100B4000087000200A900B900CA90AA8099BFFF7D7
:100B50006DFEA00502D40120C0431AE72420044200
:100B600009D0E00713D138680B9A0A99031D3B603E
:100B7000006806C00BE00B990A98FFF7F7FB0146E7
:100B8000E00704D13868021D3A6000680160284619
:100B9000FFE60000000014400000F03FF1D8FFFF26
:100BA0004268002A08D001680B78491C002B03D04A
:100BB000521E06C0184670470121C160881E70474A
:100BC0004268002A0BD0C3680168002B07D18368F4
:100BD0008B4204D0491E521C06C0002070470020E2
:100BE000C0437047F7B582B0029C00272078641C90
:100BF00015460197302802D0002D15D015E0207839
:100C00000127641C782804D0582802D0002D09D070
:100C10000BE0002D01D0102D07D1002710252078E2
:100C2000641C02E0082500E00A250026009610E07A
:100C30000099012769430818020C294680B27143C4
:100C400000908E183804864201D30120019020784C
:100C5000641C294600F090F80028E9DA039800287F
:100C600005D0002F01D0641E00E0029C04600198B2
:100C7000002806D006F000F802210160C81E05B069
:100C8000F0BD009930040843F9E710B5002B08DAED
:100C90000024401C614192185B411A4301D1400875
:100CA000400010BDF0B51FB482B005460C0003D063
:100CB000084605F0C9FF02E005F0C6FF20300246F5
:100CC000009021462846FFF781FD049B059A0446C3
:100CD0000F4618431143084314D0184610431BD045
:100CE000009840210A1A18460599FFF77FFD05462E
:100CF0000E46009A05990498FFF768FD084305D051
:100D0000012004E02046394607B0F0BD0020C1179D
:100D100005430E432C43374300990E986305401A50
:100D20007905E40A00220C43FD0A0A3002D50020AE
:100D30000146E9E70105101969410C9C0D9D001958
:100D40006941FFF7A2FFDFE730B5434351435C1829
:100D5000010C130C0D465D432C1980B292B205466E
:100D6000554351430A0C09044D1962415843010C83
:100D700000044019514130BD3A2800D230382023B8
:100D800002469A43412A01D310463738884201D39C
:100D90000020C043704700000EB5054A02920022B1
:100DA000009213460192FFF77DFF03B000BD0000E3
:100DB00033040000F0B583B00291019005200407D0
:100DC0001025012620462946324600F0C2FB20218C
:100DD0002046324600F0BDFB04212046324600F09A
:100DE000B8FB0027204629463A4600F0B2FB032014
:100DF00002F0F0FF20462946324600F0AAFB019897
:100E0000029900F00FF8204629463A4600F0A1FB6F
:100E1000082002F0DFFF20462946324600F099FB09
:100E200003B0F0BDF0B581B0042803D81EA2105C59
:100E30001F4A10701E4F0026FE701024BC7079707F
:100E40000520050728462146324600F082FB432054
:100E500002F0C0FF387802F0BDFF787802F0BAFFE8
:100E6000B87802F0B7FFF87802F0B4FF01272846FF
:100E700021463A4600F06DFB28462146324600F0F6
:100E800068FB232002F0A6FF01F0A6FC01F0A4FC01
:100E900001F0A2FC01F0A0FC284621463A4600F0F1
:100EA00058FB01B0F0BDC0468191A1B10E00000019
:100EB0000403002080B50120000300F059FA80BD32
:100EC00070B5044600F04EFB0619104D2868C003AB
:100ED00005D500F047FBB042F8D3032070BD296868
:100EE0000B480840286003D09F494860012070BD2E
:100EF00000F038FB04192868400304D500F032FBE9
:100F0000A042F8D3E9E7002070BDC046102002409F
:100F1000FAC30000F0B583B0029105200407082150
:100F2000204600F009FB0028F9D1102500222046B8
:100F3000294600F00EFB284602F04CFF01F04CFC65
:100F4000064601F049FC019001F046FC07460122EB
:100F50002046294600F0FDFA76B2029800280DD10D
:100F6000102500222046294600F0F3FA022002F064
:100F700031FF01222046294600F0EBFAF0B2C10908
:100F8000064A117001990902C91900040818002EB7
:100F900002D503498143481C03B0F0BD080300207B
:100FA000FFFF7F0070B500282CD0014624314A781D
:100FB000022A29D1046822680E239A432260426CD7
:100FC0001568314B1D401560256801229543256049
:100FD000046C1C2525401446AC402C4D2E6826433D
:100FE0002E60846CC56C6560046D002C05D025688E
:100FF0001D402560436D806D58604A7000200022BE
:101000000A7070BD012070BD0422C263012000225D
:101010000A7070BD70B52421012444540146243166
:101020004A78022A2BD103681A680E24A2431A6058
:101030001C68012294431C60446C2568124B1D40BF
:101040002560046C1C2525401446AC400F4D2E68CD
:1010500026432E60846CC56C6560046D002C05D041
:1010600025681D402560436D846D5C6000240C7014
:101070004A70816B002900D08847204670BD04214A
:10108000C163204670BDC046FFFEFFFF0400024062
:10109000B0B5044600F066FA0546601C02D004486C
:1010A0000078241800F05EFA401BA042FAD3B0BDCD
:1010B0003C000020F0B583B00446934F38780128F7
:1010C00002D1022003B0F0BD019100267E60012014
:1010D00038707D20C5002846FFF7F2FE002802D0B8
:1010E0003E7003B0F0BD2068274B04280AD11F488A
:1010F000801C1968014319602846FFF7E1FE3E7025
:1011000003B0F0BDF1430198016031466668A06804
:1011100080198642009108461DD20295F700186892
:10112000134908403843114908431D461860029886
:10113000FFF7C6FE00280AD16068A16808180837C2
:10114000761C86422B46EAD300986F4F03E0019944
:101150000E606D4F2B461968022291431960009E64
:101160003E7003B0F0BDC0468404002002000100C0
:1011700085FFFEFF0120C00703490A6802430A6099
:101180000868C043C00F704714200240F0B589B012
:101190005D4D2C78012C03D10222104609B0F0BD20
:1011A0000193029207910390002006906860012647
:1011B0002E707D20C40000F0D5F904940419059622
:1011C0003604524F3868304205D000F0CBF9A042C7
:1011D000F8D3032293E038684D490840386002D0C4
:1011E0006860059A8BE000F0BDF90499441801206D
:1011F00005908004089038680899084204D000F0EF
:10120000B1F9A042F7D3E4E7039801280BD178683D
:10121000012101437960079902980860BFF36F8F3D
:101220000198486044E07868089908437860EFF3D3
:101230001080019072B6069A114602984458079B96
:101240005C505D18441863686B60A368AB60E3682A
:10125000EB6023692B6163696B61A369AB61E3692F
:10126000EB61236A2B62636A6B62A36AAB62E36A17
:10127000EB62236B2B63636B6B63A36BAB63E36BFF
:10128000EB630F231343403110323F2BD6D308E0DA
:101290003868304208D03868304205D0386830426B
:1012A00002D038683042F3D1019880F31088164D8F
:1012B00000F058F9049944183868304205D000F01D
:1012C00051F9A042F8D3032215E0386810490840CC
:1012D000386002D06860059A0DE000F043F9049987
:1012E000441838680899084204D000F03BF9A0423D
:1012F000F7D3E8E70022796803988143796006987C
:101300002870104609B0F0BD84040020102002406F
:10131000FAC300000648C168002901D400207047C4
:101320000449016004490160C068C00F7047C046AD
:101330000820024023016745AB89EFCD80B501212C
:10134000090388420ED10520000700F0F5F80028B7
:1013500008D105480178092904D10021017003480A
:1013600000F0A2FC80BDC04648000020A40300207D
:10137000B0B50446074D2868204203D02C602046B3
:1013800000F00AF86868204203D06C602046FFF73E
:10139000D5FFB0BD0C18024070470000F0B58AB010
:1013A0000B68002B00D1B9E05D4A904201D00622C3
:1013B00000E00522009202462032019200270997A0
:1013C000089707970690049112E02A435548426017
:1013D0007F1C0B681846F840079A08320792099A52
:1013E000921C0992089A121D0892002800D195E0DB
:1013F00001240594BC4023400393E9D04D6810209C
:101400002843122813D11C20089908400F26314682
:101410008140FA0892000292019DAB588B43049AD6
:1014200011693140814019430298295055680323BE
:101430002A461A40099882400293834006990E6812
:101440009E43164306990E60069ED843122D0499BA
:1014500016D8059AAA40354B1A420FD0B2680240FE
:10146000CB68014609988340084604991343B3604A
:101470002A09BA407368A34313437360032DA7D0AE
:10148000F26802408B68099883401343F360EA00D6
:101490009ED53A460298824322488018046E05225F
:1014A000120796420CD0224A964206D0214A964212
:1014B000009E039D06D1022604E0039D059E01E0E7
:1014C0000026039D1822079B1A400F2393409C433C
:1014D0006030964026430660134C23684868C20378
:1014E00006D52B4323606368820306D4AB4305E033
:1014F000AB43236063688203F8D52B436360094ADA
:101500001368C20201D52B4300E0AB43054A1360C8
:101510005268800200D558E7AA4357E70AB0F0BDE9
:101520000014005000180240801802400600060017
:10153000000400500008005000690840411E884126
:10154000704742690B4693430A401104C9188161F0
:101550007047002A02D018228150704728228150FB
:1015600070470000054800687047C0461A48007878
:1015700002490A68101808607047C04660110020D0
:1015800080B5032000F008F8002801D0012080BDBC
:1015900000F024F8002080BD70B50F4E3178012492
:1015A000002916D005467D20C000FEF7FBFE01464F
:1015B0009B480068FEF7F6FE00F08AFA032D08D873
:1015C000002806D10024E0432946224600F028F8EE
:1015D0007560204670BDC0463C00002082B00948BE
:1015E0004168012211434160416811400191019914
:1015F000110702680A4302600068084000900098E2
:1016000002B070473C100240002805D41F2108405A
:1016100001218140014801607047C04600E100E0BF
:10162000002805D40322034693430A4A9A1803E08C
:101630000C220240064BD2188007C00E8901C9B2A5
:101640008140FF238340106898430843106070472F
:1016500014ED00E000E400E0F0B583B00D46014673
:101660000120002963D00291019063480068072798
:101670003840854215D960490868B8432843086056
:101680005E4CFFF76FFF06465B4800683840A84293
:1016900007D0FFF767FF801BA042F5D9032003B0F6
:1016A000F0BD029B18688107714C10D5410707D522
:1016B0007B21090222688A430B210902511821600B
:1016C0000F21090222688A43D96811432160C007AB
:1016D0001AD149480068384085422AD246490868EC
:1016E000B84328430860454CFFF73CFF0646424894
:1016F00000683840A8421CD0FFF734FF801BA0428E
:10170000F5D9032003B0F0BD2246083A10681C2129
:1017100088439968014311605968002932D0032930
:1017200001982BD0012932D11268920332D403B030
:10173000F0BD029B187840074D4A05D53803116863
:10174000814318690843106010688006400F06D076
:10175000116838200140082909D146483AE010466E
:10176000083800688004410FD548C84032E011684D
:101770000140202926D10120C0032BE0A26D920751
:10178000D5D507E0106840050198D0D502E0626D1C
:101790009207CCD52068B84308432060FFF7E2FEEB
:1017A000064620683821014002984068C000814206
:1017B0008FD0FFF7D7FE801BC4498842F1D90320A0
:1017C00003B0F0BD11680140182901D0002001E0EC
:1017D0007D200002116889093C220A400849895885
:1017E0001F220A40D040B7490860B7480068FFF799
:1017F000D3FE03B0F0BDC0460020024088130000B5
:10180000DC720008AF48006819490968890A1C227F
:101810000A40044989581F220A40D0407047C046F8
:10182000440000201C730008114801688906490F14
:1018300006D0026838210A40082A08D10D487047AE
:10184000083800688004410F9D48C840704702680E
:101850000A40202A02D10120C003704700680840D6
:10186000182801D0002070477D2000027047C04634
:101870000810024000127A00F0B581B00446012041
:10188000002C00D118E100902078C0078B4E07D0C3
:10189000B068382202406168082A3BD1002972D022
:1018A0002078800713D42078000709D5B068382243
:1018B0000240A169182A69D10029009800D1FBE0F3
:1018C00020780025400736D4284601B0F0BDE268F4
:1018D000B0688006400F38D0306801218F02002A9E
:1018E00074D00722D2029043226902433260080278
:1018F000316801433160FFF735FE054630683842F4
:1019000000D08BE0FFF72EFE401B0228F6D9032003
:1019100001B0F0BD306801235F041A04914207D082
:1019200005252D04A94262D199040843306030682E
:101930001043306063E0B06838220240A168202A7A
:1019400037D14842484101B0F0BD002A1BD07F206A
:1019500000027168814360690002084370600720DB
:10196000C0023168814320690843306030688004D8
:10197000400F5349C1405348016053480068FFF786
:101980000BFE00288FD0009801B0F0BD306E00290A
:101990004DD0012108433066FFF7E4FD0546306E67
:1019A00080078DD4FFF7DEFD411B03200229F6D905
:1019B00082E0F06D012905D0052949D104210843B1
:1019C000F065F06D01210143F1654AE009028843A9
:1019D0003060FFF7C7FD05463068384200D162E746
:1019E000FFF7C0FD411B03200229F5D964E09043B5
:1019F00030609804326882433260002940D0FFF79B
:101A0000B1FD05463068384200D049E7FFF7AAFD2E
:101A1000401B6428F6D9032001B0F0BD7F200002EE
:101A20007168814360690002084370603BE70121EF
:101A300088433066FFF796FD0546306E800700D478
:101A40003EE7FFF78FFD411B03200229F5D933E064
:101A500001229043F065F06D04229043F065002967
:101A60001CD01A4FFFF77EFD0446F06D800700D5AD
:101A70002AE7FFF777FD011B0320B942F5D91BE0E8
:101A8000FFF770FD05463068384200D108E7FFF7E0
:101A900069FD411B03206429F5D90DE00B4FFFF7C9
:101AA00061FD0446F06D800700D40DE7FFF75AFD95
:101AB000011B0320B942F5D901B0F0BD001002406E
:101AC000006CDC024400002040000020881300006D
:101AD000401E010E01D0012070470749074A50609F
:101AE000074803680B40032189075918016000204B
:101AF0009060072111607047FFFFFF0010E000E0D9
:101B000020ED00E0704770477047000070B53C2240
:101B1000825C012A01D1022070BD02463C320223C0
:101B20005370006845688368714CA04201D02E460E
:101B300004E00F263605B5434E682E437025AE43AC
:101B40000D6835434560A04202D06A4CA04204D1E2
:101B50008024A3438968194381600020107001210B
:101B6000517070BDB0B5002824D005463C35697869
:101B7000002905D100212970044600F057F82046BD
:101B80000221697001680C68594A914202D0594B90
:101B9000994211D170239C4383682343204CA14276
:101BA0000EDD914212D01F4CA1420FD01E4CA1421B
:101BB0000CD033E00120B0BD2346194CA142F0DC2B
:101BC0004C4CA14202D0364CA14227D1032424021E
:101BD000A34304691C4380239C43836923430B6014
:101BE000C368CB6243688B62914205D00D4A914233
:101BF00002D00D4A914201D1406908630120486139
:101C00002873A870E87028716871A871E87128724B
:101C10006872A872E87268700020B0BD1C46DAE7EE
:101C2000FF2B0140004801400044014010B584B042
:101C30000068304988421DD0194988420ED02C498D
:101C400088422AD10120C00216490A6802430A606C
:101C5000096801400391039804B010BD0120C0033E
:101C600010490A6802430A6009680140019101981D
:101C700013240AE00B48001F01680222114301608F
:101C800000681040029002981024002120460A4665
:101C9000FFF7C6FC2046FFF7B7FC04B010BDC046F6
:101CA000002000404010024010B53D21415C012958
:101CB0001CD101463D3102220A700168C868012228
:101CC0001043C8600A48814202D00A48814208D1C4
:101CD0008868094B03400020062B06D01404A34259
:101CE00003D0086810430860002010BD012010BD1B
:101CF000002C0140000400400700010010B50268FC
:101D0000D36801218B43D360136A094C234203D06B
:101D10003D228154002010BD136A064C2342F7D1A6
:101D200013688B4313603D228154002010BDC046D0
:101D30001111000044040000F0B53C22825C012A2D
:101D400001D10220F0BD02463C32022353700468E8
:101D5000A0684E4B0340A3600D6800234F2D1EDC8E
:101D60001F2D37DD202D39D0302D37D0402D00D01C
:101D700087E0206A256A0126B5432562A569F02619
:101D8000B543CE6836012E43A6610A25A8434968AB
:101D900001432162A0683E49014047316BE06F2D4D
:101DA00028DD01204603B54256D00003854218467F
:101DB0001CD0702D65D1FF200002A56885434868BE
:101DC0008E68C9680643080230432843A060A068B3
:101DD00077214FE0002D01D0102D52D1A0682C4961
:101DE00001400D4307202843A060184613700121CD
:101DF0005170F0BD502D19D0602D42D1206A256A56
:101E00001026B54325620F252D03A669AE43CD6884
:101E10002D033543A561A025A84349680901014365
:101E20002162A0681A490140673124E0206A256ACE
:101E30000126B5432562A569F026B543CE68360173
:101E40002E43A6610A25A843496801432162A06880
:101E50000F49014057310EE0FF252D02A668AE4321
:101E60004D688F68C9682F43090239433143A16027
:101E70008003A1680143A1601846137001215170CD
:101E8000F0BD0120137001215170F0BD8800CEFF1C
:101E900088FFCFFF70470000F0B583B004460068AC
:101EA000C5680227294639404A424A4101690291E0
:101EB00039404B424B41134313D16B49FE31016111
:101EC000012121778069800703D02046FFF7E2FFD8
:101ED00005E0204600F0CAF8204600F0C8F80020CF
:101EE00020770126042229461140484248410299A0
:101EF0004907314600D50146032000020190002920
:101F000016D1009220685849FC3101612777806919
:101F10000199084203D02046FFF7BCFF05E02046A8
:101F200000F0A4F8204600F0A2F800202077009AE4
:101F30000827294639404842484102990907314655
:101F400000D50146002913D120684749F8310161C5
:101F50002277C069800703D02046FFF79BFF05E08A
:101F6000204600F083F8204600F081F8002020771A
:101F700010212940484248410299C906314600D5FE
:101F80000146002914D120683749F03101612777D3
:101F9000C0690199084203D02046FFF77BFF05E0A6
:101FA000204600F063F8204600F061F8002020771A
:101FB00001212940484248410299C907314600D0D1
:101FC0000146002906D120682749FF3101612046DA
:101FD00000F04EF880272F40784278410299090698
:101FE000314600D50146002906D120681E498031BE
:101FF00001612046FFF787FD784278410299C905C3
:10200000314600D50146002905D1206816490161F5
:102010002046FFF777FD4021294048424841029978
:102020004906314600D50146002906D120680E49EF
:10203000C0310161204600F05BF820200540684275
:1020400068410299890603D4002E04D003B0F0BD84
:102050000646002EFAD120680349E031016120468E
:10206000FFF752FD03B0F0BDFFFEFFFF7047704762
:10207000B0B51A4909680068884200D0B0BD184C54
:102080002078401C2070C0B2092813D11348FFF7F4
:1020900035FE15490A6813480378144DAB54531C98
:1020A0000B603F2A01DB00220A6009212170002118
:1020B0000170B0BD0520000701252903FFF73CFA98
:1020C0002178491E8D4007490A78002802D02A430A
:1020D0000A70B0BDAA430A70B0BDC046A403002078
:1020E000480000201C0D00205C020020200D002074
:1020F000704770477047704770477047F0B589B0B8
:102100000368DF69202501210691CE0232462F3275
:102110003A40196808900446803405939B68202A49
:102120000395079710D108462840012212071A404C
:1021300080181F4616D00898416F002900D156E13B
:102140000898884709B0F0BD30460F3007421F4657
:1021500008D0C8480840069A1207551C3D40281868
:1021600000D091E00494102608463040424242419B
:10217000079D284630404442444114430898C06EAD
:10218000401E421E9041204337D001240126B20553
:102190003A4050425041EA022246059B00D5024691
:1021A000002A00D1A6E0280606D580200840F205C6
:1021B0001740C01900D0B0E140230A461A405042EF
:1021C00050416A06224600D50246002A00D13DE170
:1021D000B2070A40504250412A02224600D5024628
:1021E000002A00D1A4E1002900DAA6E1E80100D527
:1021F000A7E1002C00D0FAE0A7E1089C5C34059828
:1022000006628068400600D57BE06188228860888D
:10221000002800D1EBE08A4200D1E8E0EFF3108023
:102220000790012383F31088092045010898374659
:1022300006683468AC433460079C84F31088EFF37D
:102240001084079483F310880568AE68C14C34404D
:10225000AC60079C84F31088049C039DE560002417
:102260004467C466EFF3108483F3108803681D6825
:10227000BD431D6084F3108802230367511A89B29D
:10228000FFF737FF09B0F0BD009204940798069B52
:1022900018404242424118020191084044424441E0
:1022A0001443059B05D101201862049C2269024356
:1022B000226101203C46029004406042604107993F
:1022C0008A07069A00D50246002A06D10220186223
:1022D0000498016904220A4302616042604107993F
:1022E0004A07069A5CD4002A049C5DD00798000730
:1022F00063D46CE0300518620898FFF7FDFE09B062
:10230000F0BD04980068006841688AB2002A6ED067
:1023100023889A426BD261800068800635D4EFF33F
:102320001082012181F310888C4B203308980568B6
:1023300037462E681E402E6082F31088EFF310821D
:1023400081F3108803689D688D439D6082F3108837
:10235000EFF3108281F3108803689D684026B5432F
:102360009D6082F31088049B039ADA600022C266A3
:10237000EFF3108281F3108800680168B9430160AF
:1023800082F310881868FEF70DFE02210898016795
:1023900021886288891A89B2FFF7ABFE09B0F0BDC7
:1023A0000246002A049CA1D104201862206902225E
:1023B000024322610798000709D50198039A10404B
:1023C000054304D008201862226902432261029862
:1023D000820601990A4050425041079A324208D180
:1023E00006980028039A09D0206900280DD109B069
:1023F000F0BD069006980028039AF5D11E62206968
:102400001043206120690028F1D0079810400DD0BA
:102410001140009807400F43049C08D00898416F72
:10242000002904D0089C204688472368049C206922
:102430002822024098684021084080181CD1089842
:10244000FFF75BFE0020206109B0F0BDEFF31081C3
:1024500086F310880898026814689C43146081F31E
:102460001088002181670499039A8A6000F0B0F90E
:1024700009B0F0BD20010004EFF31080029E86F346
:10248000108809225201089B1C6825689543256025
:1024900080F31088EFF3108086F310881A68946830
:1024A0002C4D2540956080F31088D86E01280CD102
:1024B000EFF31082029880F3108808980068036890
:1024C0001024A343036082F31088049C0398E06007
:1024D0000020089AD066506710688068400622D5B0
:1024E000EFF31082029880F31088089800688368E0
:1024F0008B43836082F310882168002913D016482B
:1025000088630846FEF786FD002800D16FE704982F
:102510000068816B884709B0F0BD0898816F002979
:1025200000D00DE663E70898FFF7E7FD09B0F0BDBE
:102530000898FFF7E0FD09B0F0BD0026E80100D4DF
:1025400057E63446002C00D051E70898FFF7D2FD3B
:1025500009B0F0BDFEFFFFEFE12B0008DFFEFFFF3B
:10256000B0B500281ED004460546843568680028AA
:1025700004D100202870204600F02AF8242068604A
:10258000206801680125A9430160A06A002802D0E3
:10259000204600F053FA204600F0E6FD002803D064
:1025A0002846B0BD0120B0BD0920C00221684A689C
:1025B00082434A6088682A22904388600868012222
:1025C00002430A60204600F0A3FA05462846B0BD43
:1025D00070B586B000240594049403940294019489
:1025E00000683E49884201D006B070BD02200290CA
:1025F000124D296801432960296801400091059422
:102600000494C02001900098012603960C4801A96B
:10261000FEF7C4FEB003E9680143E960E9680140E0
:10262000009100981B25284621462246FEF7F8FF18
:102630002846FEF7E9FF06B070BDC04634100240E0
:1026400000040050F0B581B08C23C358202B12D168
:10265000012400290CD0002A0AD001231C0385681C
:10266000A5420CD1CC070AD00469002C07D11C4626
:10267000204601B0F0BD0224204601B0F0BD002488
:10268000C46605686D682D020AD5EFF3108583F3E3
:1026900010889B06066837681F43376085F31088EB
:1026A00000F024FE204601B0F0BD000080B50068B7
:1026B0000A49884200D080BD0948C1688278094B28
:1026C0005A544A1CC2603F2901DB0021C160811CB1
:1026D00005480122FFF7B6FF80BDC0460038014023
:1026E00050020020200D0020F0030020F0B587B03C
:1026F0000693064688203058202810D10120002952
:102700000BD0002A09D001200503B368AB4209D1E0
:10271000CB0707D03369002B04D107B0F0BD0220EE
:1027200007B0F0BD0391344654343146883100205F
:10273000049088602120029108601746FEF712FF7E
:10274000059067802780B068A84202D130690028D0
:1027500001D0039D0AE000250398049006E0287844
:10276000316888626D1C6088401E60806088002827
:1027700016D0069800908021002730463A46059BE7
:1027800000F052FE00281BD1002DE8D1049A1088D9
:102790000E49084031688862921C04923D46E2E787
:1027A00006980090402100223046059B00F03CFE38
:1027B0002021029A11600028AFD0032007B0F0BD9D
:1027C000202002990860032007B0F0BDFF0100003F
:1027D0007047FEE7FEE77047F0B589B005200407B3
:1027E000202500262046294632460896FEF7B1FEEF
:1027F0000127204629463A46FEF7ABFE40210791C5
:102800002046FEF799FE0590204629463246FEF7FF
:10281000A0FE2046294606973A46FEF79AFE204635
:10282000079E3146FEF788FE049020462946089A06
:10283000FEF78FFE204629463A46FEF78AFE2046DE
:102840003146FEF779FE039020462946089F3A4616
:10285000FEF77FFE20462946069E3246FEF779FEA9
:1028600020460799FEF768FE0290204629463A4620
:10287000FEF76FFE2046294637463246FEF769FED0
:102880002046079E3146FEF757FE01902046294616
:10289000089AFEF75EFE204629463A46FEF759FEA4
:1028A000204637463146FEF747FE0090204629462F
:1028B000089E3246FEF74DFE20462946069AFEF750
:1028C00048FE20463946FEF737FE07462046294691
:1028D0003246FEF73EFE20462946069AFEF739FEAE
:1028E00020460799FEF728FE064620462946089A04
:1028F000FEF72FFE0599481E8141C800049A511E1B
:102900008A4191004018039A511E8A415100401893
:10291000029A511E8A4180188000019A511E8A41F4
:1029200051004018009A511E8A4180188000791E7B
:102930008F4179004018711E8E418019C0B209B0D4
:10294000F0BD704780B5FEF711FE80BD70B592B046
:1029500000260B9609960C960A9608960796022072
:10296000069040200B9001252C02099405960496B0
:1029700003960296019606A8FEF77EFF002819D05E
:102980002148016829430160006828400D900D9896
:10299000119610960DA870C0052005070DA92846B0
:1029A000FEF7FCFC28462146FEF7CBFD6420FEF72F
:1029B0006FFBF7E7029607200190039604960596B1
:1029C00001A801252946FEF747FE00281AD00E4827
:1029D000016829430160006828400D900D98119608
:1029E00010960DA870C0052004070DA92046FEF71B
:1029F000D5FC2D0220462946FEF7A3FD6420FEF7F4
:102A000047FBF7E712B070BD341002400120C0064A
:102A1000014908607047C04608ED00E080B50248F3
:102A2000FFF73AFA80BDC0465803002080B502483F
:102A3000FFF732FA80BDC046A4030020B0B5816A1A
:102A40000A070CD4CA0714D18A071CD44A0724D415
:102A5000CA062CD48A0634D44A063CD44CE001225F
:102A6000D20303685C689443826B22435A60CA07AE
:102A7000EAD00122520403685C689443C26A22438C
:102A80005A608A07E2D50122120403685C68944305
:102A9000026B22435A604A07DAD501229204036886
:102AA0005C689443426B22435A60CA06D2D5012225
:102AB000120303689C689443C26B22439A608A069F
:102AC000CAD50122520303689C689443026C2243D6
:102AD0009A604A0610D501221305026854689C4387
:102AE000456C2C4354609D4206D103235B0554681A
:102AF0009C43836C23435360090607D50121C90415
:102B0000026853688B43C06C18435060B0BD00002E
:102B1000F0B583B00446064684360025F560FEF71E
:102B200021FD034620680168090721D502952B483D
:102B3000009001256905002220461F4600F074FC24
:102B4000002812D0EFF3108085F3108821680A68FE
:102B500080239A430A6080F3108803202022882172
:102B6000029D6250357003B0F0BD20683B46029D67
:102B70000068400726D5194800900127B9050022B2
:102B8000204600F051FC00281CD0EFF3108087F3A2
:102B9000108809214901226813688B43136080F370
:102BA0001088EFF3108087F3108821688A68BA4391
:102BB0008A6080F31088032020228C2162503570B7
:102BC00003B0F0BD20207060B060E56670212A4639
:102BD00028466250357003B0F0BDC046FFFFFF01CC
:102BE00080B5806A0146563100220A815621425240
:102BF000FFF783FA80BDF0B581B08C21415802689F
:102C0000222910D101465C318B88526A1A40836DAB
:102C10001A804A88521E4A809A1C82654A88002A75
:102C200007D001B0F0BD906908210143916101B066
:102C3000F0BD03468C33EFF31084012282F3108839
:102C400009256D0106683768AF43376084F3108843
:102C5000EFF3108482F310880568AE689643AE6087
:102C600084F3108820241C600023036743670468F2
:102C7000646824020AD5EFF3108482F31088950665
:102C800006683768AF43376084F31088C46E012C40
:102C900015D1C366EFF3108382F3108804682568AA
:102CA00010229543256083F310880368DC69E406ED
:102CB00000D51A620988FFF71CFA01B0F0BDFFF7D2
:102CC000F5FC01B0F0BD0000F0B587B00446016826
:102CD000C8690A6803928A6805928C22A258222A3F
:102CE00000D0B8E023465C33202102919989002965
:102CF00000D1B6E00299084000D1B2E026468C36F9
:102D00009D880121059808400590069108020399C5
:102D1000014003910493019507E02046FFF7C6FCAC
:102D2000049B019DB80600D49BE02068416A2940BD
:102D3000A26D11805988491E5980911CA165C769EF
:102D400079073CD0039B5A425A41FB07069B00D0AF
:102D50001346002B04D1012202627368134373608F
:102D6000059B5A425A41BB07069B00D51346002BD0
:102D700005D1022202627268042313437360059B2B
:102D80005A425A41002906990DD511460029049B43
:102D90000CD10421016270680221014371607068E6
:102DA000002806D10BE00029049BF2D070680028AF
:102DB00005D02046FFF7A1F9049B002070605888D9
:102DC0000028AFD1EFF31081012080F310880202B8
:102DD00023681D6895431D6081F31088EFF310810F
:102DE00080F3108822689368DE4D2B40936081F356
:102DF000108802993160002121676167226852685A
:102E000012020CD5EFF31082009280F31088830633
:102E100025682A689A432A60009A82F31088E26E35
:102E2000012A00D079E7E166EFF3108180F3108882
:102E30002268136810208343136081F3108821688F
:102E4000CA69D20600D50862049D29882046FFF78A
:102E500050F92B4665E78869082202438A6107B06A
:102E6000F0BD58880028FAD099898842F7D2EFF34C
:102E70001080012181F31088BA4A521C23689D6892
:102E800015409D6080F3108807486067EFF310805D
:102E900081F3108821680A68029B1A430A6080F354
:102EA000108807B0F0BDC046F72B0008F0B581B020
:102EB0008C2141580268222911D101465C318B884E
:102EC000526A1A40836D1A704A88521E4A80826D77
:102ED000521C82654A88002A07D001B0F0BD906973
:102EE00008210143916101B0F0BD03468C33EFF33B
:102EF0001084012282F3108809256D010668376865
:102F0000AF43376084F31088EFF3108482F31088A6
:102F10000568AE689643AE6084F3108820241C6078
:102F20000023036743670468646824020AD5EFF34B
:102F3000108482F31088950606683768AF433760BF
:102F400084F31088C46E012C15D1C366EFF310838F
:102F500082F310880468256810229543256083F366
:102F600010880368DC69E40600D51A620988FFF757
:102F7000C0F801B0F0BDFFF799FB01B0F0BD000053
:102F8000F0B587B004460168C8690A6803928A6888
:102F900005928C22A258222A00D0BAE022465C3246
:102FA000202102919189002900D1B8E002990840BE
:102FB00000D1B4E026468C3695880121059808405A
:102FC000059006910802039901400391049201952E
:102FD00007E02046FFF76AFB049A019DB80600D47B
:102FE0009DE02068406A2840A16D08705088401E0E
:102FF0005080A06D401CA0652068C76979073CD04F
:10300000039B5A425A41FB07069B00D01346002BF4
:1030100004D101220262736813437360059B5A4214
:103020005A41BB07069B00D51346002B05D102224F
:1030300002627268042313437360059B5A425A412B
:10304000002906990DD5114600290CD104210162F1
:10305000706802210143716070680028049A06D1EB
:103060000BE00029F2D070680028049A05D02046B1
:10307000FFF743F8049A0020706050880028ADD113
:10308000EFF31081012080F31088020223681D688D
:1030900095431D6081F31088EFF3108180F3108851
:1030A000226893682F4D2B40936081F3108802991A
:1030B00031600021216761672268526812020CD5D5
:1030C000EFF31082009280F31088830625682A6847
:1030D0009A432A60009A82F31088E26E012A00D097
:1030E00077E7E166EFF3108180F3108822681368B8
:1030F00010208343136081F310882168CA69D206C7
:1031000000D50862049D29882046FEF7F2FF2A4672
:1031100063E78869082202438A6107B0F0BD5088DE
:103120000028FAD091898842F7D2EFF3108001216C
:1031300081F310880B4A521C23689D6815409D60DE
:1031400080F31088B6486067EFF3108081F3108831
:1031500021680A68029B1A430A6080F3108807B04E
:10316000F0BDC046FEFFFFEFF0B581B00446006839
:103170000168514A0A40A16823690B4365691D43F0
:103180001543E1690D43056003221203436893432D
:10319000E2681A434260A269236A13438268474D7A
:1031A00015401D438560C26A0F239A43676A3A43FC
:1031B000C262434A904209D0424A904208D14248F2
:1031C000406D8007000F41A2125802E0002200E08B
:1031D0001022264668360125E803814210D1082ACC
:1031E00061D8C0467A44127952009744045C195C55
:1031F0002B5C5C5C3000FEF705FB002826D151E01B
:10320000082A50D87A44127952009744044C124C40
:10321000354C4C4C3A00FEF7F5FA002830D141E02D
:10322000294800680006400F411C2C48FDF7BAF8F9
:103230000DE0254800680006400F411C2748FDF7B7
:10324000B1F81EE0FEF7F0FA00282BD0676A79008B
:10325000234A515AFDF7A6F8400061684A08101841
:10326000FDF7A0F80246103A1E498A421BD20140DF
:103270000007400F084313E0FEF7D6FA002811D0EC
:10328000676A7900164A515AFDF78CF861684A0856
:103290001018FDF787F801461039124A914202D200
:1032A0002168C86000251048306000206067A06772
:1032B000284601B0F0BDC046F369FFCFFFF4FF110F
:1032C00000440040003801400010024000000000AF
:1032D000040000000200000008000000006CDC0296
:1032E0003C730008F0FF000001000100F0B55C2312
:1032F000C25281650021416703465C335A8085686C
:1033000004468C34002D12D001263707BD4208D068
:103310003603B54214D10569002D0ED13D4D9D8077
:103320000FE00569002D05D03F259D8009E0056966
:10333000002D02D07F259D8003E0FF259D8000E0C9
:103340009980616022212160EFF31084012181F3D3
:1033500010880568AE680E43AE6084F310880C03D5
:103360004D07466EAE4202D19B899A421BD202693A
:103370008368A34204D1002A1ED0294A426703E091
:10338000274B4367002A19D0EFF3108281F310888E
:103390000902006803680B4320211943016082F38E
:1033A00010880020F0BD02698368A34213D1002A6F
:1033B00021D0194A426712E01A4A4267EFF310829D
:1033C00081F310880068016820230B43036082F3B7
:1033D00010880020F0BD104B4367002A0DD0EFF39A
:1033E000108281F310880B02046825681D43256054
:1033F00082F3108801E0094A4267EFF3108281F3FB
:1034000010880907006883680B43836082F3108883
:103410000020F0BDFF010000812F0008C92C00082A
:10342000AD2E0008F72B0008F0B587B01D461646F4
:103430000F460368D9693940C91B4A424A410021F5
:10344000964224D10C9C002C24D00391611C26D1DF
:10345000D9693940C91B4A424A41964214D1D969B7
:103460003940C91B4A424A4196420DD1D969394077
:10347000C91B4A424A41964206D1D9693940C91B03
:103480004A424A419642E3D0039807B0F0BD08464D
:1034900007B0F0BDFEF766F8032007B0F0BD0146A7
:1034A0008431029101210191C90205910690049491
:1034B00006E0C9693940CA1B514251418E42E3D1ED
:1034C000FEF750F8411B0323A14246D80698016835
:1034D0000A685207EDD5CA69120741D4CA692C4659
:1034E000059D2A422546049CE3D01E4605980862A5
:1034F000EFF31082012181F3108809235B01069804
:10350000046825689D43256082F31088EFF31082DC
:1035100081F31088069803689C682D4D25409D60B6
:10352000069882F31088C26E012A0BD1EFF3108245
:1035300081F3108801680B681024A3430B60069880
:1035400082F310882021029B99600022C2664267A4
:103550001A70D960304607B0F0BD184607B0F0BD0C
:1035600008250D62EFF31081019880F3108809227D
:103570005201069B1B681C6894431C6081F31088F1
:10358000EFF3108180F31088069A12689368104C4C
:103590001C40069B946081F31088D96E01290CD1E0
:1035A000EFF31081012282F310881A681368102447
:1035B000A3431360069B81F310882021029A916037
:1035C0000021D96659671170D56007B0F0BDC046BB
:1035D000FEFFFFEF80B50248FEF790FD80BDC046BC
:1035E000F003002083B0F0B596B005461BA80EC0CE
:1035F0001BA8129013A8001F009013A8001F029090
:1036000013A8001F049013A8001F019013A8001F07
:1036100003900FA8401C07900FA8401C06900FA80D
:10362000401C09902B4E08E0207000F0DFFF0122C3
:103630000A2330462146FFF759F8287825280ED06E
:10364000002800D1BEE313AC207000F0CFFF0122B0
:103650000A2330462146FFF749F86D1CEDE76878EC
:103660002E281FD1A87801463039C9B209291CD8A3
:10367000291D00240A235C432418303C4A1E10787C
:103680000546303DEDB2092D11D863431C18303C7E
:103690008A1C087801463039C9B20A291146E9D393
:1036A000921E04E06A1C062401E0AA1C0024551C9A
:1036B0000146633912294BD87944097949008F446E
:1036C0000C120B4D0B0B0B0B0B0B0B0B0B0B0B0B00
:1036D0000B0B8200F0030020AFE71298011D12913E
:1036E000007813ACA0E70B951298011D12910568A4
:1036F000002D00D59AE000D1EEE0002701210D91C8
:103700000E910A2428462146FCF74CFE4443291B0F
:1037100030242143FEB213AA91550A2D00D2E0E0D5
:103720000A21FCF73FFE13A8801921434170642150
:103730002846FCF737FE0E9CA11CBF1C632D0546D6
:10374000DED8641C380600D0D0E00020ED4E0FE338
:10375000252800D071E713AC252065E70B9512985A
:10376000C11D0720814308460830129003C9FCF7A9
:10377000FDFD074600263146FCF7BBFD00280ED1B3
:1037800013A90E912D20087000F030FF01250A23A7
:10379000DC480E992A46FEF7A9FFE807474038465D
:1037A000FCF7BCFD0546FCF7B2FD01463846FCF7C8
:1037B0003FFD21060C910E9031D0E0B20428D24A90
:1037C00079D201277FE00B951298011D12910568AF
:1037D000002D27D0002701210D910E910A242846A3
:1037E0002146FCF7DFFD4443291B30242143FEB270
:1037F00013AA91550A2D4DD30A21FCF7D3FD13A826
:1038000080192143417064212846FCF7CBFD0E9CB2
:10381000A11CBF1C632D0546DFD8641C3CE00127BA
:10382000B84E19E10FA93020088066E213AC2D20B4
:10383000207000F0DBFE01270A23304621463A467D
:103840000D93FEF753FF6D4200260C9739460E91FB
:1038500028460D9C2146FCF7A5FD4443291B302733
:103860003943F4B213AA11550A2D00D280E00A217F
:10387000FCF798FD13A800193943417064212846CC
:10388000FCF790FD0E9FB91CB61C632D0546DED8D3
:103890007F1C6FE00D9F0E9C002039060146994E5B
:1038A00000D125E2E2B2511E03292FD200210323C9
:1038B0001C4046D11BE2FC20204001275743361D07
:1038C000F1B28142FAD1032004408E4E00D1C3E010
:1038D000012C15D10A20BEE00FA8302101700798F5
:1038E00048E20D9F0E9C380600D12EE7E1B2481E3B
:1038F00003284ED20020834E0322144064D136E2C6
:10390000022C00D1A6E07D20C000A4E00E94FC2390
:1039100013400021049CA518EE780FAF7E547E184A
:10392000A75CF770AF7877706D78B570241F091DAC
:103930008B42F0D1521A734E0E9C03231C4000D1CF
:10394000D5E113ABD3185B1E1B7825460FAC63542F
:103950004B1C012D0AD02F4613AC1419A41E247839
:103960000FADEC548B1C022F00D0B9E11946BEE11B
:103970000C9E0E9F002031060146624E00D108E2E7
:10398000FAB2511E032935D2002103231F404CD126
:10399000FEE12746FC220A400020029B5C18E578E5
:1039A0000FAE355435185E5CEE70A6786E70647894
:1039B000AC701B1F001D8242F0D1091A514E3C46CB
:1039C0000322144000D1D2E113AA8A18521E1278A1
:1039D0000FAB1A54421C012C0AD013ABCB189B1E00
:1039E0001B7825460FACA354821C022D00D0B7E1F2
:1039F0001046BCE10E97FC2313400021009DAC183B
:103A0000E6780FAF7E547E18AF5CF770A7787770BA
:103A10006478B4702D1F091D8B42F0D1521AEC4E00
:103A20000E9F03231F4000D1B2E113ABD3185B1EDE
:103A30001B780FAC63544B1C012F09D013AC141925
:103A4000A41E24780FADEC548B1C022F00D098E1FB
:103A500019469DE1642047433846FCF758FC01466F
:103A60000E98FCF7EDFB3F210906FCF790FBFCF7F5
:103A700055FC874200D86D1C874229D90D900890CB
:103A8000002D2AD028460A970027012105910E9182
:103A90000A2405462146FCF785FC4443291B3024B3
:103AA0002143FEB213AA91550A2D1AD30A21FCF71D
:103AB00079FC13A880192143417064212846FCF742
:103AC00071FC0E9A911CBF1C632DE0D8551C0AE0B6
:103AD00000210D910890002DD4D10FA9302008802D
:103AE00052E0059F0E9D002039060146B84E0A9F00
:103AF00045D0EAB2511E032908D2002103231D40FC
:103B00001FD13BE0F0030020102700000E95FC239E
:103B100013400021039CA518EE780FAF7E547E1849
:103B2000A75CF770AF7877706D78B570241F091DAA
:103B30008B42F0D1521AA64E0A9F0E9D03231D40C0
:103B40001CD013ABD3185B1E1B780FAC63544B1CFB
:103B5000012D0AD00E9513AC1419A41E24780FADB4
:103B6000EC548B1C0E9C022C01D1194606E013ACC0
:103B70001219D21E12780FACE254C91CC9B20FAA96
:103B800050541078002810D0099D13AC2070C0B29A
:103B900000F02CFD01220A2330462146FEF7A6FD47
:103BA000691C287800280D46EFD10C98002800D118
:103BB000D4E013AC2E20207000F018FD01220A255D
:103BC000304621460A922B46FEF790FD38460C956A
:103BD0002946FCF7E7FB142F19D304460D988442BD
:103BE00015D913AF3020387000F000FD01220A25EE
:103BF000304639462B46FEF779FD20462946FCF72C
:103C0000D1FB142C03D30D9988420446E9D80D98B2
:103C1000002823D000250A9908980E9104460C9E8E
:103C20003146FCF7BFFB4643A11B30263143EFB2C0
:103C300013AAD1550A2C15D30A21FCF7B3FB13A8FC
:103C4000C0193143417064212046FCF7ABFB0E9A4A
:103C5000911CAD1C632CE0D8541C05E00FA930204A
:103C600008806AE00A9D0E9C002729063946584EB6
:103C70005ED0E2B2511E032904D200210320044089
:103C80001AD154E00E97FC2313400021019DAE1879
:103C9000F7780FA847544018AF5CC770B7784770E3
:103CA000767886702D1F091D8B42F0D1521A484E2E
:103CB0000E9F032004403AD013A81018401E00782D
:103CC0000FAB58544B1C012C08D013A81018801EA1
:103CD00000780FADE8548B1C022C21D1194626E048
:103CE00013AC1219D21E12780FACE254C91CC9B21F
:103CF0000FAA50541078002810D0069D13AC2070E5
:103D0000C0B200F073FC01220A2330462146FEF7C0
:103D1000EDFC691C287800280D46EFD10B9D8CE442
:103D200013A81018C01E00780FAAD054C91CC9B21D
:103D30000FA847540078002810D0099D13AC2070BC
:103D4000C0B200F053FC01220A2330462146FEF7A0
:103D5000CDFC691C287800280D46EFD10B9D6CE442
:103D600013ABC918C91E09780FAB9954C01CC0B257
:103D70000FA90818002101700FA8007800280ED1A3
:103D80001EE013AC1219D21E12780FACE254C91CFB
:103D9000C9B20FAA50540FA80078002810D0079D70
:103DA00013AC2070C0B200F021FC01220A2330467F
:103DB0002146FEF79BFC691C287800280D46EFD1B0
:103DC0000B9D3AE416B0F0BC01BC03B00047C046FE
:103DD000F0030020F0B585B005210C07C2090746A5
:103DE0000490042103912046FDF7B3FB2026012512
:103DF000204631462A460195FDF7ABFB0022029290
:103E000020463146FDF7A5FB7806C20F2046039FEA
:103E10003946FDF79EFB204631462A46FDF799FBC1
:103E200020463146029D2A46FDF793FB0498800602
:103E3000C20F20463946FDF78CFB20463146019FD4
:103E40003A46FDF786FB204631462A46FDF781FBC0
:103E5000049DE806C20F20460399FDF77AFB204631
:103E600031463A46FDF775FB20463146029F3A46F9
:103E7000FDF76FFB2807C20F20460399FDF769FB8A
:103E800020463146019D2A46FDF763FB2046314618
:103E90003A46FDF75EFB04984007C20F2046039F99
:103EA0003946FDF756FB204631462A46FDF751FBC1
:103EB00020463146029D2A46FDF74BFB04988007B9
:103EC000C20F20463946FDF744FB20463146019F8C
:103ED0003A46FDF73EFB204631462A46FDF739FBC0
:103EE000049A3A4020460399FDF733FB20463146B9
:103EF0003A46FDF72EFB204631462A46FDF729FBC0
:103F000005B0F0BDF0B587B014460E460746002553
:103F100008462946FCF7EDF9002805D12D20387018
:103F20000120C00746407F1C03973046FCF7F6F996
:103F30000746FCF7ECF901463046FCF779F90690A4
:103F4000002C07D003202040042C05D20A21002891
:103F500011D11AE0012618E0FC210C400126ED49A0
:103F600032460E4656432D1DEBB2A342F8D1AA4964
:103F70005143002809D0012801D10E4605E002284E
:103F800001D0642600E00A264E433046FCF7BFF914
:103F900001460698FCF754F93F210906FCF7F7F8AB
:103FA000FCF7BCF9864200D87F1C864248D90546FA
:103FB0000290002F48D001950024E3430399049315
:103FC00006910A2538462946FCF7ECF94543791B4A
:103FD000234630242143039AD1540593D5180A2F40
:103FE00037D30A21FCF7DEF921436970642F34D3FB
:103FF00064213846FCF7D6F90A21FCF7D3F92143AE
:10400000A970F8087D282CD37D20C1003846FCF724
:10401000C9F90A21FCF7C6F92143E9703846BD4DBC
:104020002946FCF7BFF9049B1B1D059C241D06991E
:10403000091DAF420746C2D2039AD318141914E0DF
:1040400000250290002FB6D13020039908704C1C37
:104050002EE06C1C039A069B07E0069B5B1CAC1CC5
:1040600002E0069B9B1CEC1C039A9A42019D1FD206
:104070001078197811701870591E501C884217D288
:1040800002780B7803700A70491E401C88420FD2D8
:1040900002780B7803700A70491E401C884207D2D0
:1040A00002780B7803700A704B1E421C9A42DFD3D1
:1040B0002E2020700A2130460491FCF773F9074640
:1040C0000694601C0390142E3DD3AF423BD9069852
:1040D000061DF01E34463026069006700A2138462A
:1040E000FCF760F90594A11E142F7FD3A8427DD957
:1040F0000E7064213846FCF755F90599491EC82F02
:1041000071D3A8426FD90E707D20C1003846FCF7EC
:1041100049F939097D2973D3A84271D92C46039DE9
:10412000E81C069005980670064638467949FCF763
:1041300039F92D1D039539498F4269D3361D25461E
:10414000A0420746C5D8002D53D00124029F069DEA
:104150003846049E3146FCF725F94643B91B302604
:10416000314329550A2F15D306990D190A21FCF759
:1041700019F931436970069D64213846FCF712F93C
:10418000A41C642F0746E3D2611E2046281802298A
:1041900005D226E0601C21462818022921D369187F
:1041A000039C22780B7823700A704A1E611C91428E
:1041B00017D20B7814780C701370521E491C914260
:1041C0000FD20B7814780C701370531E4A1C9A424D
:1041D00007D211781C7814701970591E541C8C4227
:1041E000DFD307B0F0BD0398401C06900391002D6B
:1041F000ABD13020039908700698801C07B0F0BD41
:104200000398801C069005980390002D9DD1F0E73F
:104210002546002D99D1ECE7A0860100204E000034
:10422000F0B583B0002942D00D460026F24300903D
:104230000146019202910A2728463946FCF7B2F856
:104240004743E91B30242143009B99559F190A2DB0
:1042500032D30A21FCF7A6F821437970642D2ED3BE
:1042600064212846FCF79EF80A21FCF79BF82143BD
:10427000B970E8087D2826D37D20C1002846FCF7C8
:1042800091F80A21FCF78EF82143F9702846214C59
:104290002146FCF787F8019A121D361D0299091D67
:1042A000A5420546C5D2009B9C1898192EE03021E6
:1042B0000170401C03B0F0BD781C029C26E0029CFB
:1042C000641CB81C02E0029CA41CF81C009B1DE0AE
:1042D000197822781A702170621E591C914217D2E7
:1042E0000B7814780C701370521E491C91420FD237
:1042F0000B7814780C701370521E491C914207D22F
:104300000B7814780C701370541E4B1CA342DFD32F
:1043100003B0F0BD10270000F0B583B00290324822
:1043200000680190384F394E394C04200125294648
:10433000FCF7F0FD35212E4A515C2E4A12788A4254
:1043400000D140427D21C900FCF74CF82B49096897
:104350002B4A914200DD0021274A80188A00294B10
:104360009850481C25490860B868316888420ED0CA
:10437000205C02F0B5FAB868401CC117890E4118DC
:104380003F229143401AB86031688842F0D102F070
:10439000E7FA002818D1144800680199411A029AD6
:1043A000914219D27968401A10498842BDD90F4804
:1043B000411C1DA0FFF716F9302002210C4A1154B0
:1043C0000025284603B0F0BD02F0C2FA0648006896
:1043D0007860284603B0F0BD0EA0FFF703F9002572
:1043E000284603B0F0BDC046680200202F750000CB
:1043F00078020020080300207017000058020020F7
:10440000FF0100001C050020B80200205C02002013
:10441000200D002050415F5252463A2074696D656C
:104420006F75740A0000000050415F5252463A20F6
:104430007761746368646F6720E28094206E6F20F8
:104440006F6B20666F72202575206D732C20616262
:104450006F7274696E670A00F0B585B0124C2168FE
:1044600060685A265F4F114A914204D1B95D884273
:1044700001D105B0F0BD00200190FCF74BFF0125F4
:1044800004950F2003900220029002A801A9FCF7D6
:1044900011FEBB5D054A28462146FCF777FEFCF776
:1044A00069FE05B0F0BDC04600780008BD3412BDFD
:1044B000F0B587B020294CDB05924B1EDA0FD202F3
:1044C00084189A00A4588A001718381F0297083FCA
:1044D0008D1E01910A4621461F3A069226460393F5
:1044E00006E00838AD1E083F9B1E069A934217DD72
:1044F000DA0FD2028458A14200D82146EA0FD20234
:10450000BA58914204D9A64205D29642E9D305E0B1
:104510001146A642F9D326469642E2D31646E0E774
:10452000881B5B212F4A50545A21515CC3B2012091
:1045300000228B42014600D81146142B039E029C98
:10454000069D019B00D81046059A002A03D1084316
:1045500001D007B0F0BD981E0590581E0490324659
:10456000DE1E191F00273846D30FDB02E3181B1F7E
:104570001B681818059BDB0FDB02E318083B1B6860
:104580001818049BDB199B1EAB421ADDF30FDB02EC
:10459000E3182546CC0FE4022C190C3B1B681818B5
:1045A000103C23682C4618183F1F049BDB19059DFF
:1045B0002D1F0595069D361F091F103C121FAB428B
:1045C000D2DC1E21FBF70EFF0446064D6869A042AF
:1045D00003D005482146FFF705F800206C61A8616B
:1045E00007B0F0BD50020020A7730008F0B587B0F7
:1045F0000290052000070124E102002706460091F1
:104600003A46FCF7A6FF1A2001900490EF48006894
:10461000416A89B2049A8A18120C23040393002A6F
:1046200015D13D46426A521A049B9A4221D2426AEF
:10463000521A049B9A421CD2426A521A049B9A4212
:1046400017D2426A521A049B9A42EBD311E03D46BC
:104650004762416A049A91420BD2416A049A91429C
:1046600007D2416A049A914203D2416A049A914264
:10467000EFD30298044037463046009E314622462A
:10468000FCF767FF01980590F5480068416A89B218
:10469000059A8A18039B9A4215D22C46426A521AEE
:1046A000059B9A4221D2426A521A059B9A421CD219
:1046B000426A521A059B9A4217D2426A521A059BC5
:1046C0009A42EBD311E02C464562416A059A914229
:1046D0000BD2416A059A914207D2416A059A9142EA
:1046E00003D2416A059A9142EFD302988007C20F24
:1046F00038463146FCF72DFF019D0595D8480068E6
:10470000416A89B2059A8A18039B9A4214D2426A76
:10471000521A059B9A4220D2426A521A059B9A422B
:104720001BD2426A521A059B9A4216D2426A521A08
:10473000059B9A42EBD310E04462416A059A91428C
:104740000BD2416A059A914207D2416A059A914279
:1047500003D2416A059A9142EFD302984007C20FF3
:1047600038463146FCF7F5FE0595BD480068416ABC
:1047700089B2059A8A18039B9A4214D2426A521A45
:10478000059B9A4220D2426A521A059B9A421BD23A
:10479000426A521A059B9A4216D2426A521A059BE5
:1047A0009A42EBD310E04462416A059A91420BD2DF
:1047B000416A059A914207D2416A059A914203D211
:1047C000416A059A9142EFD302980007C20F38461A
:1047D0003146FCF7BEFE0595A1480068416A89B2E2
:1047E000059A8A18039B9A4214D2426A521A059B70
:1047F0009A4220D2426A521A059B9A421BD2426ABE
:10480000521A059B9A4216D2426A521A059B9A4244
:10481000EBD310E04462416A059A91420BD2416A9F
:10482000059A914207D2416A059A914203D2416AA0
:10483000059A9142EFD30298C006C20F384631461E
:10484000FCF787FE059586480068416A89B2059A9B
:104850008A18039B9A4214D2426A521A059B9A42C2
:1048600020D2426A521A059B9A421BD2426A521ABD
:10487000059B9A4216D2426A521A059B9A42EBD382
:1048800010E04462416A059A91420BD2416A059A4E
:10489000914207D2416A059A914203D2416A059A30
:1048A0009142EFD302988006C20F38463146FCF79A
:1048B00050FE05956A480068416A89B2059A8A18CF
:1048C000039B9A4214D2426A521A059B9A4220D202
:1048D000426A521A059B9A421BD2426A521A059B9F
:1048E0009A4216D2426A521A059B9A42EBD310E0C2
:1048F0004462416A059A91420BD2416A059A9142FB
:1049000007D2416A059A914203D2416A059A9142BF
:10491000EFD302984006C20F38463146FCF719FE25
:1049200005954F480068416A89B2059A8A18039B29
:104930009A4214D2426A521A059B9A4220D2426A83
:10494000521A059B9A421BD2426A521A059B9A42FE
:1049500016D2426A521A059B9A42EBD310E0446287
:10496000416A059A91420BD2416A059A914207D257
:10497000416A059A914203D2416A059A9142EFD366
:104980000298C20938463146FCF7E3FD05953448E4
:104990000068416A89B2059A8A18039B9A4217D225
:1049A000426A521A059B9A4223D2426A521A059BC6
:1049B0009A421ED2426A521A059B9A4219D2426A00
:1049C000521A059B9A42EBD313E0C0460C03002019
:1049D0004462416A059A91420BD2416A059A91421A
:1049E00007D2416A059A914203D2416A059A9142DF
:1049F000EFD3012238463146FCF7ABFD0695184847
:104A00000068416A89B2069A8A18039B9A4214D2B6
:104A1000426A521A069B9A4220D2426A521A069B56
:104A20009A421BD2426A521A069B9A4216D2426A94
:104A3000521A069B9A42EBD310E04462416A069AEE
:104A400091420BD2416A069A914207D2416A069A74
:104A5000914203D2416A069A9142EFD307B0F0BD6A
:104A60000C0300209CB0FCF78BFDFDF76FFF0026C8
:104A70001B961A96199618961796EB4908680127FF
:104A80003843086008683840139013980868022279
:104A90001043086008680692104013901398052090
:104AA0000407E24D204629463246FCF752FD1A968D
:104AB00019971897179517AD20462946FCF76EFCF5
:104AC000199618964820179020462946FCF766FC50
:104AD0001997D748189038030F9017902046294609
:104AE000FCF75CFC0725284631463246FCF798FD6A
:104AF0002846FCF789FDCF48CF492F23CF4A0260D3
:104B00000E9343608660C1600661466186611696B9
:104B1000159614961396129611961096FDF722F894
:104B20003D02002818D0C04908683843086008686A
:104B30003840179017981B961A961996189717953C
:104B400017A92046FCF72AFC20462946FCF7F9FC69
:104B50006420FCF79DFAF7E70D9707960F981390DE
:104B6000B44813A9FDF7E8F800281AD0AE4A106837
:104B70000D9908431060106808401790179807981F
:104B80001B901A9019901891179517A92046FCF7B9
:104B900005FC20462946FCF7D4FC6420FCF778FA93
:104BA000F7E7079E129611961096A24810A9FCF7F7
:104BB000ADFF00289C4F18D038680D990843386025
:104BC00038680840179017981B961A9619961891EE
:104BD000179517A92046FCF7E1FB20462946FCF76C
:104BE000B0FC6420FCF754FAF7E7954886611A2177
:104BF000944A02600E9A42608660C1600661169611
:104C0000159614961396129611961096FCF7AAFF15
:104C1000002818D038680D99084338603868084073
:104C2000179017981B961A9619961891179517A909
:104C30002046FCF7B3FB20462946FCF782FC6420A3
:104C4000FCF726FAF7E70F9813907D4813A9FDF7B4
:104C500073F8002818D038680D9908433860386810
:104C60000840179017981B961A9619961891179541
:104C700017A92046FCF792FB20462946FCF761FC69
:104C80006420FCF705FAF7E7129610966C4810A915
:104C9000FCF73CFF002818D038680D9908433860AD
:104CA00038680840179017981B961A96199618910D
:104CB000179517A92046FCF771FB20462946FCF7FB
:104CC00040FC6420FCF7E4F9F7E75F4886615F4940
:104CD0005F4A02600D9F47608660C1600661FCF715
:104CE00041FF002818D05049086838430860086818
:104CF0003840179017981B961A961996189717957B
:104D000017A92046FCF74AFB20462946FCF719FC68
:104D10006420FCF7BDF9F7E74E480C214E4A4B23BF
:104D20005B024CC0066046608160C66006610C385C
:104D3000FDF716FC002819D03B4A10680D9908436E
:104D4000106010680840179017981B961A961996CD
:104D50001891179517A92046FCF720FB20462946F5
:104D6000FCF7EFFB6420FCF793F9F7E7F848FCF752
:104D70009BFFF848FCF798FFF84FFE603E613E4607
:104D800028367E620798F870384635302921FBF7BF
:104D9000C8F95A200421395407993173F049F14A6E
:104DA000F14BBB62FA623963F0490A684968F04B1B
:104DB0009A4202D1632900D8395458260698B8552A
:104DC0000798F8617861B91CE3480D9AFDF73AFC41
:104DD0000420D421FBF7EEFF5D2003900D99395498
:104DE00001F074FDEA49EE4808180090E24F079A76
:104DF000049607E00420B421FBF7DCFFEAA0FEF7ED
:104E0000F1FB079ADB48805C002854D00D2825D0A0
:104E10000A2823D0D14909797E294CD87854481CD6
:104E2000CE49087147E0C04634100240B429000062
:104E3000000021100C030020FEFF0000002C0140A8
:104E4000A4030020000400405803002080BB0000A1
:104E500000200040F003002000380140BF480079E6
:104E6000002828D000233B543878797809020818A4
:104E7000C24988420F920AD005223846C0A11E4678
:104E8000FBF76BF933460F9A049E002811D10E935D
:104E90001E46B24FB848805D01F022FD761C38797D
:104EA0008642F7D30A2001F01BFD049EB24F0F9AF1
:104EB0000E9BAA480371521C402AA3D100F0A6F908
:104EC000002808D000F0A2F9062804D000F09EF9CE
:104ED000072800D003E1042001210591FCF71AF80E
:104EE0009E4F0399795CA84A12788A4200D14042C9
:104EF0007D21C900FBF776FAA4494118B868820001
:104F0000A34B9950401CB8605920385C012802D14D
:104F1000A0A0FEF767FBB85D07280FD1B9685C2930
:104F20000EDB2846FF30814200D8EAE0F0229848A4
:104F30000099FBF7DDF83C20B86001E001F088FB48
:104F400001F0F4F95C20395C7A69012902D0002A69
:104F500000D0B2E006993954B86820283E4600DAFD
:104F60009CE00292431E0646D80FC002884A1018E1
:104F7000990040580F90B0001718381F0197083F4C
:104F8000B11E089632460F9E1F3A0C920A910E9659
:104F90000B9307E00838891E083F9B1E0C9A93422A
:104FA0000F9E20DDDA0FD2020D908258964200D873
:104FB00016463046CE0FF602BE590F90B04207D9C2
:104FC0000E98904208D20E90B0420D98E2D308E0BD
:104FD0000F960E989042F6D310460E90B0420D9860
:104FE000D8D30E96D6E70E98301A5B215B4A505400
:104FF0000898411E0D91C11E0991001F08900020C4
:105000000E900F900B9B019F0A9E0C98DA0FD20214
:10501000BA18121F12680F995118F20FD202BA185B
:10502000083A126851180F910D9A0E995218921E53
:10503000824223DD0998C20FD202BA180B93089955
:10504000CB0FDB02FB180C3A12680A960F9E9619DA
:10505000103B1A680B9B92190F920E9E361F0D9AE9
:105060000E9692190A9E361F001F0990091F08917B
:10507000103F1B1F0C9908468A42C7DC1E210F985F
:10508000FBF7B0F907460298B84203D045483946C5
:10509000FEF7A8FA0020314E7761B0610027F76172
:1050A000204629463A46FCF754FA05984103204623
:1050B0003A46FCF74EFA3746049EB85D397881428D
:1050C000079A2D4F00D19DE624490870072800D08B
:1050D00090E604203421FBF76DFE37488FE600F0A0
:1050E00099F901F023F91D49885D09788142079AF1
:1050F00000D187E619490870072822D104203421FD
:1051000021E0234801F0A4FEB9682339204802F0C9
:105110006BF838623D2800D212E701461C4801F0C6
:10512000DFFE012800DA0BE779781C4A5054002092
:10513000B860481C78700598C1021548FAF7F1FF6D
:10514000FEE60420B421FBF735FE079A5AE6C04676
:105150000C03002058030020F00300205002002020
:105160006476310A6170693370616E64007800089A
:10517000BD3412BD200D0020600F00206F6B0000B9
:105180004572726F72000000080300207017000063
:105190001C05002025643B0A000000009C04002040
:1051A0000C070000A7730008456E6473746F7020CD
:1051B0006D6F64650A0000005473000810B50B4C55
:1051C0002078072805D801218140C120014200D064
:1051D00010BD3020064902220A5406A001F0E6FC68
:1051E00005A0FEF7FFF90720207010BDB8020020CF
:1051F000780200204D30000050415F5252463A2064
:1052000061626F727465640A0000000001480078F2
:105210007047C046B8020020F0B53022002181540A
:105220000B4AC2620D4C0E4D0E4E0F4F0F4A104BE3
:10523000C360026147618661C5610462064A4262D9
:10524000044A8262322202720A4A06C0F0BDC04697
:105250000000604000001B4200001E4300000A43A3
:105260000000C44200009C42B80B0000302A00003D
:10527000C05D00006F12033BF0B581B0002900D182
:10528000AAE0044608460978002900D1A4E0274690
:10529000303752A503E0701C0178002941D03A2133
:1052A000FAF74AFF00283CD00646417808464538C0
:1052B0000F280BD878440079400087440B07071764
:1052C000070707210726072B0707101C2846FEF7AC
:1052D00089F9E0E7B01CFAF74DFF3870DBE7B01C46
:1052E00001F09FFDFBF742F86060D4E7B01CFAF7CD
:1052F00041FF2061CFE7B01CFAF73CFFE060CAE74E
:10530000B01CFAF737FF6061C5E7B01CFAF732FF4F
:105310002072C0E7B01C01F084FDFBF727F8206085
:10532000B9E7206963281FD96169632921D9E26837
:10533000632A23D9344B984225D8994226D800971E
:105340009A4200D9E3606768002538462946FAF793
:10535000B4FF00281FD12E4E38463146FAF7ADFF74
:105360000028009F19D019E0642020616169632939
:10537000DDD864216161E268632ADBD86422E260DF
:10538000214B9842D9D923619942D8D963610097BA
:105390009A42D7D8D7E71D4E009F666026683046F0
:1053A0002946FAF798FF002807D1012085073046E3
:1053B0002946FAF782FF002800D12560207A0028CC
:1053C00003D0412803D3402000E001202072387828
:1053D000082801D30020387001B0F0BD50415F5261
:1053E00052463A20756E6B6E6F776E2070617261F7
:1053F0006D206B657920272563272C2069676E6FE8
:105400007265640A0000000060EA00006F12833ACF
:10541000CDCCCC3DF0B5CDB00DAAD51D3E32064F5A
:105420003878C046784400794000874403500786A6
:10543000D86E03034DB0F0BDB8020020FD48FEF762
:10544000D1F8FDA001F096FAFC4C2046FEF764FF6F
:105450000726002801D100F056FEF9A001F08AFAD3
:105460002046FEF759FF002801D100F04CFE2C46E3
:105470000DA8F4498180F4490D9148217D5C002DEF
:1054800000D1E9E20A96871D07240A2628463146FC
:10549000FAF788FF4643A91B302631430DAA12199B
:1054A000521E11700A2D00D2DFE20A21FAF77AFFAC
:1054B00031430DA8015564212846FAF773FFA41C57
:1054C000642D0546E1D2611EA01E0C46CEE2DF48E7
:1054D000FEF788F8DE4801F069FBD84C2046FEF75D
:1054E0001BFF0726002801D100F00DFED94801F06E
:1054F0005DFB2046FEF710FF002801D100F003FEFF
:1055000001F034FA022600F0FEFD07927978D2A06D
:10551000FEF768F87978B8690990002900D15FE34F
:105520008808052800D2C4E00520042900D3C3E080
:105530000120814200D853E3C1E0CF48FEF752F882
:10554000CE480D90FC6B3E6B0DA8001D0225314628
:105550002A46FEF7D7FCCA490A0A42700170801C2D
:10556000396C2A46FEF7CEFC0546C648010A69702A
:10557000287020463146FAF75BFEC349FAF760FE11
:105580000346BE6A002E00D1E4E00C93A81C0B90E9
:1055900003240A2730463946FAF704FF4743F11B34
:1055A000302739432A19521E11700A2E00D287E182
:1055B0000A21FAF7F7FE3943295564213046FAF7F4
:1055C000F1FEA41C642E0646E3D2601EA11E044612
:1055D0002819032900D378E1AC4F0C9BBDE02020B3
:1055E000385CBC78844200D3B0E008950DA995489A
:1055F0000A91888094480D90396B7E6B3046FAF79B
:1056000017FEA14D2946FAF71BFE07909F48876BAE
:1056100038463146FAF70CFE2946FAF711FE0646DF
:105620009A48C06B3946994FFAF702FE2946FAF7B5
:1056300007FE05462046FAF76AFE0446F969FAF7BE
:10564000FFFDB969FAF7A3FD0C90796C2046FAF7D3
:10565000F7FD396CFAF79BFD48217C5C002C059521
:1056600006960B9000D157E10A98861D07270A2558
:1056700020462946FAF796FE4543611B302529430B
:105680000DAAD219521E11700A2C00D249E10A212A
:10569000FAF788FE29430DA8C15564212046FAF780
:1056A00081FEBF1C642C0446E1D2791EB81E0F4651
:1056B00038E1042900D23BE7814200D890E2089506
:1056C0000D1A01262A4632400692024649424140BE
:1056D000491C00D1A6E1B543D1006D4A8F1802469E
:1056E0000C37FF210C91034606E00B46AD1E103728
:1056F000921C002D00D198E10B920A930C99CCB228
:10570000394608390A78D3B20021A34230463446DC
:1057100000D30C465E1EB341234000D10C9AD6B292
:105720003C780C94E4B2B442064600D30E46611EA7
:105730008C41344000D10C92002B0B9A1146064646
:1057400000D10A99002CD0D0531CCFE705263E701B
:105750004DB0F0BD3020A870E81C4E490170090A18
:105760004170801C05221946FEF7CCFB00210C91EC
:1057700001700DA801F0FEF8304C2046FEF7CCFD7C
:105780000726002801D100F0BEFC434801F0F2F8E2
:105790002046FEF7C1FD002801D100F0B4FC3F48CF
:1057A00000680B903E4E3F4C3F4F3C4800680B99C1
:1057B000401A40097C2835D804200121FBF7AAFBB8
:1057C00035213A4A515C3A4A12788A4200D1404225
:1057D0007D21C900FAF706FE326836498A420C99E3
:1057E00000DC1146344A80188A00344B9850481C1B
:1057F00035463060254EB068216888420ED0385C4E
:1058000001F06EF8B068401CC117890E41183F22A4
:105810009143401AB06021688842F0D1307807285F
:105820002E46C2D1194F0C98B87004263E704DB068
:10583000F0BDC0460374000847393000983A0000B4
:105840004D383300204400004D353732DC730008FA
:10585000957400088D74000850415F5252463A20FA
:1058600066696E697368696E672C2025752073619F
:105870006D706C65730A0000EF73000847312058A3
:10588000205900002046000023BC3D3DB802002006
:10589000600D002020450000887400086802002088
:1058A000580200205C020020200D00207802002019
:1058B00008030020FF010000701700001C050020F5
:1058C000611E2819032900D286E66918EC4F0B9C4B
:1058D00022780B7823700A704A1E611C914200D313
:1058E0007BE60B7814780C701370521E491C9142A1
:1058F00000D372E60B7814780C701370531E4A1C98
:105900009A4200D369E611781C7814701970591EF8
:10591000541C8C42DCD360E60DA830218171089CB8
:1059200029E0781E0DA9CC19072823D30DA9081842
:10593000D34F3178027832700170411E701C88425A
:1059400019D202780B7803700A70491E401C8842F5
:1059500011D202780B7803700A704A1E411C9142E2
:1059600009D2087813780B701070501E4E1C8642B6
:10597000DFD300E0C24FC3482070000A6070A01C53
:1059800004220C99FEF7BEFA002404700DA800F062
:10599000F1FFBD4D2846FEF7BFFC0726002800D1C9
:1059A000B1E30994B9480D90396B0DA8001D02248C
:1059B00008902246FEF7A6FAB5490A0A04924270F8
:1059C0000170801C0B992246FEF79CFA0446B148F0
:1059D000010A617020707F6A002F0A9603913FD000
:1059E000A01C029003250A2638463146FAF7DAFC55
:1059F0004643B91B302631436219521E11700A2FDB
:105A00007FD30A21FAF7CEFC314361556421384631
:105A1000FAF7C8FCAD1C642F0746E4D2681EA91E25
:105A200005466FE0FF210C91134606990029944F1B
:105A3000089D00D19CE01E461046D100964A5118A0
:105A40000A79D1B24C1E0B46A3410C9CE4B2A14290
:105A500000D284E0002183E00DA8302181712EE086
:105A60003020A070E01C864F8FE2601E0DA90C193B
:105A700007280A9E22D30DA90818397802783A70AF
:105A80000170411E781C884218D202780B7803708E
:105A90000A70491E401C8842794F10D202780B7858
:105AA00003700A704A1E411C914208D2087813788C
:105AB0000B701070501E4F1C8742DED3704F714820
:105AC0002070000A6070B969A01C0422FEF71AFA5F
:105AD000002101700DA800F04DFF6B4C2046FEF731
