:020000040800F2
:1000000030110020D5000008551E0008531E0008BE
:1000100000000000000000000000000000000000E0
:100020000000000000000000000000008F26000813
:100030000000000000000000571E00089126000884
:10004000E700000800000000E7000008E7000008E3
:10005000E7000008E7000008E70000083105000895
:1000600000000000E7000008E7000008E7000008C3
:10007000E7000008E7000008E700000800000000B3
:100080007927000800000000000000006927000830
:1000900000000000E7000008E7000008E700000893
:1000A00000000000E7000008000000002133000805
:1000B000E700000800000000000000000000000051
:1000C0000348854600F09CF900480047B943000802
:1000D000301100200448804704480047FEE7FEE74F
:1000E000FEE7FEE7FEE7FEE759270008C10000082B
:1000F00003460B439B0703D009E008C9121F08C041
:10010000042AFAD203E00B780370401C491C521EEB
:10011000F9D27047D2B201E00270401C491EFBD2F6
:1001200070470022F6E710B513460A460446194602
:10013000FFF7F0FF204610BDF8B502464A40D40F45
:1001400042004B0052085B089A4202D2024608461F
:1001500011464A0023D0C30D4A00DDB2120EAD1A7B
:10016000202D35DA49020126490AF6058A19002CA4
:1001700000D0524220214F1B1146B9402A4110188D
:10018000C20D9A4221D0002C17D0012D08DCDA05CF
:10019000801AD20F8019D207DBB200F0F7F8F8BD51
:1001A000DA05801A012340001B06C01880185A4245
:1001B0008018CA0F1043490007E04908C2071143DD
:1001C000DA05801A80194008801800F0D7F8F8BDC9
:1001D00061000122511A001BF7E70122D2075140AA
:1001E000AAE70122D2075040A6E7024670B54A406E
:1001F000D30FDB0740002DD04A002AD0010E140E89
:10020000000212020919400A520A8418E501044644
:100210005443000A120A2E045043A4194219200C18
:10022000C543AA18120C0125AD03521C5219120421
:100230007F39240400D0521C104301D44000491ED1
:10024000C2B20C06C0092018401C4008802A02D007
:1002500003E0002070BD40084000002900DA0020C3
:10026000184370BD0122D207002800DB101A0029B4
:1002700000DB511A814201D30120704700207047F2
:1002800010B500229623114600F080F810BD410001
:1002900040020122400AD205090E80187F2901DAA6
:1002A00000207047962903DC9622511AC8407047F7
:1002B000963988407047CB0FDB07490010B54908D5
:1002C00002460A4307D00A0D07240903E401090B7B
:1002D000121B002A01DC002010BDC900440F0C4392
:1002E000C100E018D205801800F048F810BD70B5C4
:1002F0000446002903D000202022012310E000281A
:1003000001D00020C043C046C0460DE02546D54080
:100310008D4205D30D469540641B1D4695404019FE
:100320001546521E002DF1DC214670BD70B500252A
:1003300004462E46002911D0002C01DA0125444242
:10034000002901DA012649422046FFF7D0FFB542D5
:1003500000D04042002D00D0494270BD002C02DA8E
:100360000121C90702E0002C00DD03490846C04610
:10037000C046214670BD0000FFFFFF7F002904DA60
:10038000401C490001D140084000704770B400246F
:10039000050C05D11024000402D1002921D011241C
:1003A000050E01D100020834050F01D10001241D02
:1003B000850F01D18000A41C002801DB4000641CD3
:1003C000002908D020252E1B0D46F540A14000D065
:1003D00001212943084301061B1B000ADB1D02D52E
:1003E000002070BC7047DB05181880180029F8DA67
:1003F000401C4900F5D170BC400840007047000027
:100400001CB5094800900948019005460126009C4A
:1004100005E0E36807CC33430C3C98471034AC420A
:10042000F7D3FFF751FE0000F061000810620008EA
:10043000F0B583B002910190052004071025012634
:1004400020462946324600F0C2FB20212046324693
:1004500000F0BDFB04212046324600F0B8FB002727
:10046000204629463A4600F0B2FB032003F058FB31
:1004700020462946324600F0AAFB0198029900F076
:100480000FF8204629463A4600F0A1FB082003F069
:1004900047FB20462946324600F099FB03B0F0BDE9
:1004A000F0B581B0042803D81EA2105C1F4A10705A
:1004B0001E4F0026FE701024BC70797005200507C1
:1004C00028462146324600F082FB432003F028FBF9
:1004D000387803F025FB787803F022FBB87803F036
:1004E0001FFBF87803F01CFB0127284621463A46FB
:1004F00000F06DFB28462146324600F068FB2320C1
:1005000003F00EFB02F00EF802F00CF802F00AF80D
:1005100002F008F8284621463A4600F058FB01B0A0
:10052000F0BDC0468191A1B10E0000001303002070
:1005300080B50120000300F059FA80BD70B5044673
:1005400000F04EFB0619104D2868C00305D500F0D9
:1005500047FBB042F8D3032070BD29680B48084020
:10056000286003D09F494860012070BD00F038FB2F
:1005700004192868400304D500F032FBA042F8D3E8
:10058000E9E7002070BDC04610200240FAC3000019
:10059000F0B583B00291052004070821204600F041
:1005A00009FB0028F9D1102500222046294600F039
:1005B0000EFB284603F0B4FA01F0B4FF064601F042
:1005C000B1FF019001F0AEFF074601222046294607
:1005D00000F0FDFA76B2029800280DD11025002215
:1005E0002046294600F0F3FA022003F099FA01228E
:1005F0002046294600F0EBFAF0B2C109064A117014
:1006000001990902C91900040818002E02D50349EE
:100610008143481C03B0F0BD17030020FFFF7F009B
:1006200070B500282CD0014624314A78022A29D1FD
:10063000046822680E239A432260426C1568314B8D
:100640001D4015602568012295432560046C1C251A
:1006500025401446AC402C4D2E6826432E60846CF9
:10066000C56C6560046D002C05D025681D402560B3
:10067000436D806D58604A70002000220A7070BD82
:10068000012070BD0422C263012000220A7070BDE7
:1006900070B5242101244454014624314A78022AA9
:1006A0002BD103681A680E24A2431A601C68012229
:1006B00094431C60446C2568124B1D402560046CFB
:1006C0001C2525401446AC400F4D2E6826432E6055
:1006D000846CC56C6560046D002C05D025681D40D8
:1006E0002560436D846D5C6000240C704A70816BE2
:1006F000002900D08847204670BD0421C1632046F0
:1007000070BDC046FFFEFFFF04000240B0B50446C6
:1007100000F066FA0546601C02D0044800782418F0
:1007200000F05EFA401BA042FAD3B0BD38000020B2
:10073000F0B583B00446934F3878012802D10220E7
:1007400003B0F0BD019100267E60012038707D204D
:10075000C5002846FFF7F2FE002802D03E7003B025
:10076000F0BD2068274B04280AD11F48801C196857
:10077000014319602846FFF7E1FE3E7003B0F0BD6B
:10078000F1430198016031466668A068801986428D
:10079000009108461DD20295F700186813490840D9
:1007A0003843114908431D4618600298FFF7C6FEFA
:1007B00000280AD16068A16808180837761C8642AC
:1007C0002B46EAD300986F4F03E001990E606D4FFE
:1007D0002B461968022291431960009E3E7003B0B7
:1007E000F0BDC046900400200200010085FFFEFF1E
:1007F0000120C00703490A6802430A600868C04331
:10080000C00F704714200240F0B589B05D4D2C78C0
:10081000012C03D10222104609B0F0BD01930292CF
:100820000791039000200690686001262E707D20BD
:10083000C40000F0D5F90494041905963604524F0B
:100840003868304205D000F0CBF9A042F8D303223B
:1008500093E038684D490840386002D06860059AD6
:100860008BE000F0BDF90499441801200590800444
:10087000089038680899084204D000F0B1F9A04205
:10088000F7D3E4E7039801280BD1786801210143ED
:100890007960079902980860BFF36F8F01984860EC
:1008A00044E07868089908437860EFF3108001907D
:1008B00072B6069A114602984458079B5C505D1820
:1008C000441863686B60A368AB60E368EB602369FE
:1008D0002B6163696B61A369AB61E369EB61236AB7
:1008E0002B62636A6B62A36AAB62E36AEB62236B9F
:1008F0002B63636B6B63A36BAB63E36BEB630F23E4
:100900001343403110323F2BD6D308E038683042D1
:1009100008D03868304205D03868304202D0386894
:100920003042F3D1019880F31088164D00F058F949
:10093000049944183868304205D000F051F9A042BB
:10094000F8D3032215E0386810490840386002D017
:100950006860059A0DE000F043F90499441838687E
:100960000899084204D000F03BF9A042F7D3E8E729
:1009700000227968039881437960069828701046B0
:1009800009B0F0BD9004002010200240FAC300001E
:100990000648C168002901D400207047044901605D
:1009A00004490160C068C00F7047C046082002407B
:1009B00023016745AB89EFCD80B50121090388424A
:1009C0000ED10520000700F0F5F8002808D10548F1
:1009D0000178092904D100210170034800F0A2FC2C
:1009E00080BDC04644000020B0030020B0B50446DE
:1009F000074D2868204203D02C60204600F00AF8FA
:100A00006868204203D06C602046FFF7D5FFB0BD78
:100A10000C18024070470000F0B58AB00B68002B3C
:100A200000D1B9E05D4A904201D0062200E00522E3
:100A300000920246203201920027099708970797F3
:100A40000690049112E02A43554842607F1C0B68CF
:100A50001846F840079A08320792099A921C0992A0
:100A6000089A121D0892002800D195E001240594EF
:100A7000BC4023400393E9D04D681020284312283E
:100A800013D11C20089908400F2631468140FA08EE
:100A900092000292019DAB588B43049A1169314038
:100AA0008140194302982950556803232A461A4069
:100AB000099882400293834006990E689E4316432C
:100AC00006990E60069ED843122D049916D8059AF1
:100AD000AA40354B1A420FD0B2680240CB6801469B
:100AE00009988340084604991343B3602A09BA4021
:100AF0007368A34313437360032DA7D0F2680240C9
:100B00008B68099883401343F360EA009ED53A4608
:100B10000298824322488018046E052212079642EA
:100B20000CD0224A964206D0214A9642009E039D4E
:100B300006D1022604E0039D059E01E00026039DE8
:100B40001822079B1A400F2393409C436030964025
:100B500026430660134C23684868C20306D52B431E
:100B600023606368820306D4AB4305E0AB43236094
:100B700063688203F8D52B436360094A1368C20295
:100B800001D52B4300E0AB43054A13605268800255
:100B900000D558E7AA4357E70AB0F0BD001400504B
:100BA00000180240801802400600060000040050B1
:100BB0000008005000690840411E884170474269A2
:100BC0000B4693430A401104C91881617047002AFB
:100BD00002D01822815070472822815070470000AF
:100BE000054800687047C0461A48007802490A68FC
:100BF000101808607047C0462C0D002080B50320F7
:100C000000F008F8002801D0012080BD00F024F891
:100C1000002080BD70B50F4E31780124002916D018
:100C200005467D20C000FFF762FB01469B48006837
:100C3000FFF75DFB00F08AFA032D08D8002806D1E3
:100C40000024E0432946224600F028F8756020463B
:100C500070BDC0463800002082B0094841680122BA
:100C600011434160416811400191019911070268E7
:100C70000A430260006808400090009802B0704784
:100C80003C100240002805D41F210840012181406A
:100C9000014801607047C04600E100E0002805D42B
:100CA0000322034693430A4A9A1803E00C220240A7
:100CB000064BD2188007C00E8901C9B28140FF23BC
:100CC00083401068984308431060704714ED00E0BB
:100CD00000E400E0F0B583B00D4601460120002994
:100CE00063D002910190634800680727384085422D
:100CF00015D960490868B843284308605E4CFFF77F
:100D00006FFF06465B4800683840A84207D0FFF7EF
:100D100067FF801BA042F5D9032003B0F0BD029B02
:100D200018688107714C10D5410707D57B2109024E
:100D300022688A430B210902511821600F21090200
:100D400022688A43D96811432160C0071AD14948F3
:100D50000068384085422AD246490868B84328438B
:100D60000860454CFFF73CFF0646424800683840A3
:100D7000A8421CD0FFF734FF801BA042F5D9032006
:100D800003B0F0BD2246083A10681C2188439968D8
:100D9000014311605968002932D0032901982BD0F2
:100DA000012932D11268920332D403B0F0BD029B04
:100DB000187840074D4A05D53803116881431869F2
:100DC0000843106010688006400F06D01168382074
:100DD0000140082909D146483AE010460838006821
:100DE0008004410FD548C84032E0116801402029F5
:100DF00026D10120C0032BE0A26D9207D5D507E0D4
:100E0000106840050198D0D502E0626D9207CCD5FC
:100E10002068B84308432060FFF7E2FE06462068DA
:100E20003821014002984068C00081428FD0FFF70E
:100E3000D7FE801BC4498842F1D9032003B0F0BD1E
:100E400011680140182901D0002001E07D20000236
:100E5000116889093C220A40084989581F220A4022
:100E6000D040B7490860B7480068FFF7D3FE03B029
:100E7000F0BDC0460020024088130000205F00083B
:100E8000AF48006819490968890A1C220A400449C8
:100E900089581F220A40D0407047C04640000020B9
:100EA000605F0008114801688906490F06D0026892
:100EB00038210A40082A08D10D48704708380068D0
:100EC0008004410F9D48C840704702680A40202AAC
:100ED00002D10120C003704700680840182801D0E3
:100EE000002070477D2000027047C0460810024075
:100EF00000127A00F0B581B004460120002C00D128
:100F000018E100902078C0078B4E07D0B0683822D7
:100F100002406168082A3BD1002972D020788007FE
:100F200013D42078000709D5B06838220240A1699F
:100F3000182A69D10029009800D1FBE0207800250B
:100F4000400736D4284601B0F0BDE268B06880069C
:100F5000400F38D0306801218F02002A74D0072258
:100F6000D202904322690243326008023168014391
:100F70003160FFF735FE05463068384200D08BE01F
:100F8000FFF72EFE401B0228F6D9032001B0F0BD6A
:100F9000306801235F041A04914207D005252D040F
:100FA000A94262D199040843306030681043306030
:100FB00063E0B06838220240A168202A37D1484255
:100FC000484101B0F0BD002A1BD07F2000027168AB
:100FD000814360690002084370600720C0023168E5
:100FE000814320690843306030688004400F5349D2
:100FF000C1405348016053480068FFF70BFE0028CA
:101000008FD0009801B0F0BD306E00294DD0012185
:1010100008433066FFF7E4FD0546306E80078DD447
:10102000FFF7DEFD411B03200229F6D982E0F06DB7
:10103000012905D0052949D104210843F065F06D47
:1010400001210143F1654AE0090288433060FFF75E
:10105000C7FD05463068384200D162E7FFF7C0FDA2
:10106000411B03200229F5D964E0904330609804C5
:10107000326882433260002940D0FFF7B1FD054657
:101080003068384200D049E7FFF7AAFD401B6428CA
:10109000F6D9032001B0F0BD7F20000271688143C2
:1010A00060690002084370603BE7012188433066B5
:1010B000FFF796FD0546306E800700D43EE7FFF748
:1010C0008FFD411B03200229F5D933E00122904313
:1010D000F065F06D04229043F06500291CD01A4F92
:1010E000FFF77EFD0446F06D800700D52AE7FFF785
:1010F00077FD011B0320B942F5D91BE0FFF770FD16
:1011000005463068384200D108E7FFF769FD411B0A
:1011100003206429F5D90DE00B4FFFF761FD04466C
:10112000F06D800700D40DE7FFF75AFD011B032087
:10113000B942F5D901B0F0BD00100240006CDC02EC
:10114000400000203C00002088130000401E010EDB
:1011500001D0012070470749074A506007480368DB
:101160000B40032189075918016000209060072176
:1011700011607047FFFFFF0010E000E020ED00E08D
:10118000704770477047000070B53C22825C012AAE
:1011900001D1022070BD02463C3202235370006828
:1011A00045688368714CA04201D02E4604E00F26AA
:1011B0003605B5434E682E437025AE430D68354362
:1011C0004560A04202D06A4CA04204D18024A343CF
:1011D000896819438160002010700121517070BD31
:1011E000B0B5002824D005463C356978002905D1E2
:1011F00000212970044600F057F82046022169704A
:1012000001680C68594A914202D0594B994211D158
:1012100070239C4383682343204CA1420EDD9142FE
:1012200012D01F4CA1420FD01E4CA1420CD033E073
:101230000120B0BD2346194CA142F0DC4C4CA14228
:1012400002D0364CA14227D103242402A3430469CF
:101250001C4380239C43836923430B60C368CB6298
:1012600043688B62914205D00D4A914202D00D4AEB
:10127000914201D140690863012048612873A87038
:10128000E87028716871A871E87128726872A87294
:10129000E87268700020B0BD1C46DAE7FF2B014001
:1012A000004801400044014010B584B00068304956
:1012B00088421DD0194988420ED02C4988422AD133
:1012C0000120C00216490A6802430A600968014009
:1012D0000391039804B010BD0120C00310490A68AF
:1012E00002430A60096801400191019813240AE051
:1012F0000B48001F01680222114301600068104082
:10130000029002981024002120460A46FFF7C6FCEE
:101310002046FFF7B7FC04B010BDC04600200040D7
:101320004010024010B53D21415C01291CD101460D
:101330003D3102220A700168C86801221043C8606A
:101340000A48814202D00A48814208D18868094B84
:1013500003400020062B06D01404A34203D00868E3
:1013600010430860002010BD012010BD002C01407A
:10137000000400400700010010B50268D368012195
:101380008B43D360136A094C234203D03D2281541E
:10139000002010BD136A064C2342F7D113688B431B
:1013A00013603D228154002010BDC0461111000081
:1013B00044040000F0B53C22825C012A01D10220E5
:1013C000F0BD02463C32022353700468A0684E4BC5
:1013D0000340A3600D6800234F2D1EDC1F2D37DD59
:1013E000202D39D0302D37D0402D00D087E0206A15
:1013F000256A0126B5432562A569F026B543CE6866
:1014000036012E43A6610A25A8434968014321629B
:10141000A0683E49014047316BE06F2D28DD012077
:101420004603B54256D00003854218461CD0702DA5
:1014300065D1FF200002A568854348688E68C968A9
:101440000643080230432843A060A06877214FE09C
:10145000002D01D0102D52D1A0682C4901400D4320
:1014600007202843A0601846137001215170F0BD79
:10147000502D19D0602D42D1206A256A1026B5431F
:1014800025620F252D03A669AE43CD682D03354394
:10149000A561A025A8434968090101432162A0680C
:1014A0001A490140673124E0206A256A0126B543C4
:1014B0002562A569F026B543CE6836012E43A661A4
:1014C0000A25A843496801432162A0680F490140E9
:1014D00057310EE0FF252D02A668AE434D688F6898
:1014E000C9682F43090239433143A1608003A168D1
:1014F0000143A1601846137001215170F0BD012015
:10150000137001215170F0BD8800CEFF88FFCFFF1E
:1015100070470000F0B583B004460068C568022734
:10152000294639404A424A410169029139404B42B9
:101530004B41134313D16B49FE31016101212177E6
:101540008069800703D02046FFF7E2FF05E02046D0
:1015500000F0CAF8204600F0C8F8002020770126E5
:101560000422294611404842484102994907314620
:1015700000D50146032000020190002916D10092F7
:1015800020685849FC310161277780690199084238
:1015900003D02046FFF7BCFF05E0204600F0A4F88A
:1015A000204600F0A2F800202077009A082729465C
:1015B00039404842484102990907314600D5014661
:1015C000002913D120684749F83101612277C069A9
:1015D000800703D02046FFF79BFF05E0204600F080
:1015E00083F8204600F081F8002020771021294060
:1015F000484248410299C906314600D501460029B2
:1016000014D120683749F03101612777C069019909
:10161000084203D02046FFF77BFF05E0204600F09C
:1016200063F8204600F061F800202077012129406E
:10163000484248410299C907314600D00146002975
:1016400006D120682749FF310161204600F04EF89D
:1016500080272F407842784102990906314600D50B
:101660000146002906D120681E49803101612046CB
:10167000FFF787FD784278410299C905314600D5C8
:101680000146002905D12068164901612046FFF76F
:1016900077FD402129404842484102994906314698
:1016A00000D50146002906D120680E49C0310161EC
:1016B000204600F05BF8202005406842684102990E
:1016C000890603D4002E04D003B0F0BD0646002ED8
:1016D000FAD120680349E03101612046FFF752FD4D
:1016E00003B0F0BDFFFEFFFF70477047B0B51A4969
:1016F00009680068884200D0B0BD184C2078401CB2
:101700002070C0B2092813D11348FFF735FE1549E0
:101710000A6813480378144DAB54531C0B603F2ADE
:1017200001DB00220A600921217000210170B0BD97
:101730000520000701252903FFF73CFA2178491EFF
:101740008D4007490A78002802D02A430A70B0BDAC
:10175000AA430A70B0BDC046B00300204400002078
:10176000280D002054020020D3020020704770474B
:101770007047704770477047F0B589B00368DF69FC
:10178000202501210691CE0232462F323A401968B7
:1017900008900446803405939B68202A0395079798
:1017A00010D108462840012212071A4080181F460F
:1017B00016D00898416F002900D156E10898884753
:1017C00009B0F0BD30460F3007421F4608D0C84868
:1017D0000840069A1207551C3D40281800D091E099
:1017E000049410260846304042424241079D284654
:1017F00030404442444114430898C06E401E421E8B
:101800009041204337D001240126B2053A4050428E
:101810005041EA022246059B00D50246002A00D12B
:10182000A6E0280606D580200840F2051740C0191A
:1018300000D0B0E140230A461A40504250416A06A7
:10184000224600D50246002A00D13DE1B2070A40F7
:10185000504250412A02224600D50246002A00D1B9
:10186000A4E1002900DAA6E1E80100D5A7E1002CF7
:1018700000D0FAE0A7E1089C5C3405980662806815
:10188000400600D57BE0618822886088002800D16E
:10189000EBE08A4200D1E8E0EFF3108007900123EB
:1018A00083F3108809204501089837460668346894
:1018B000AC433460079C84F31088EFF310840794E2
:1018C00083F310880568AE68C14C3440AC60079C57
:1018D00084F31088049C039DE56000244467C4667B
:1018E000EFF3108483F3108803681D68BD431D6007
:1018F00084F3108802230367511A89B2FFF737FF78
:1019000009B0F0BD009204940798069B184042422B
:101910004241180201910840444244411443059B4E
:1019200005D101201862049C226902432261012032
:101930003C46029004406042604107998A07069A3B
:1019400000D50246002A06D10220186204980169D7
:1019500004220A4302616042604107994A07069ADD
:101960005CD4002A049C5DD00798000763D46CE027
:10197000300518620898FFF7FDFE09B0F0BD049825
:101980000068006841688AB2002A6ED023889A42B3
:101990006BD261800068800635D4EFF3108201219C
:1019A00081F310888C4B20330898056837462E68E1
:1019B0001E402E6082F31088EFF3108281F31088AE
:1019C00003689D688D439D6082F31088EFF3108259
:1019D00081F3108803689D684026B5439D6082F3BB
:1019E0001088049B039ADA600022C266EFF310822B
:1019F00081F3108800680168B943016082F31088A0
:101A00001868FEF70DFE0221089801672188628898
:101A1000891A89B2FFF7ABFE09B0F0BD0246002A71
:101A2000049CA1D104201862206902220243226191
:101A30000798000709D50198039A1040054304D080
:101A400008201862226902432261029882060199E5
:101A50000A4050425041079A324208D10698002865
:101A6000039A09D0206900280DD109B0F0BD069075
:101A700006980028039AF5D11E6220691043206160
:101A800020690028F1D0079810400DD0114000982F
:101A900007400F43049C08D00898416F002904D0E8
:101AA000089C204688472368049C2069282202401D
:101AB00098684021084080181CD10898FFF75BFE09
:101AC0000020206109B0F0BDEFF3108186F310888B
:101AD0000898026814689C43146081F31088002100
:101AE00081670499039A8A6000F0B2F909B0F0BDE9
:101AF00020010004EFF31080029E86F31088092273
:101B00005201089B1C6825689543256080F3108866
:101B1000EFF3108086F310881A6894682C4D2540E6
:101B2000956080F31088D86E01280CD1EFF31082F5
:101B3000029880F310880898006803681024A34373
:101B4000036082F31088049C0398E0600020089AE8
:101B5000D066506710688068400622D5EFF3108287
:101B6000029880F310880898006883688B4383602C
:101B700082F310882168002913D01648886308462C
:101B8000FEF786FD002800D16FE704980068816B9E
:101B9000884709B0F0BD0898816F002900D00DE694
:101BA00063E70898FFF7E7FD09B0F0BD0898FFF775
:101BB000E0FD09B0F0BD0026E80100D457E6344648
:101BC000002C00D051E70898FFF7D2FD09B0F0BD16
:101BD000FEFFFFEF2D290008DFFEFFFFB0B5002854
:101BE0001ED00446054684356868002804D10020CC
:101BF0002870204600F02AF82420686020680168D8
:101C00000125A9430160A06A002802D0204600F007
:101C1000BBFD204601F04EF9002803D02846B0BD98
:101C20000120B0BD0920C00221684A6882434A6091
:101C300088682A22904388600868012202430A606B
:101C4000204600F00BFE05462846B0BD70B586B0B4
:101C500000240594049403940294019400683F497D
:101C6000884201D006B070BD134D28680221084398
:101C70002860286808400090059404910291C020D3
:101C800001900098012603960C4801A9FEF7C4FEB6
:101C9000B003E9680143E960E968014000910098F8
:101CA0001B25284621462246FEF7F8FF2846FEF768
:101CB000E9FF06B070BDC046341002400004005079
:101CC000F0B581B08C23C358202B12D101240029F8
:101CD0000CD0002A0AD001231C038568A5420CD130
:101CE000CC070AD00469002C07D11C46204601B05D
:101CF000F0BD0224204601B0F0BD0024C466056892
:101D00006D682D020AD5EFF3108583F310889B06CA
:101D1000066837681F43376085F3108801F08CF937
:101D2000204601B0F0BD000010B500680B498842A4
:101D300000D010BD0A48C1680A4A52188378372477
:101D400013554A1CC2603F2901DB0021C160811C80
:101D500005480122FFF7B4FF10BDC046003801401E
:101D6000480200209C020020FC030020F0B587B050
:101D70000693064688203058202810D101200029DB
:101D80000BD0002A09D001200503B368AB4209D16A
:101D9000CB0707D03369002B04D107B0F0BD022078
:101DA00007B0F0BD039134465434314688310020E9
:101DB000049088602120029108601746FEF710FF0A
:101DC000059067802780B068A84202D1306900285A
:101DD00001D0039D0AE000250398049006E02878CE
:101DE000316888626D1C6088401E608060880028B1
:101DF00016D0069800908021002730463A46059B71
:101E000001F0B8F900281BD1002DE8D1049A108800
:101E10000E49084031688862921C04923D46E2E710
:101E200006980090402100223046059B01F0A2F95F
:101E30002021029A11600028AFD0032007B0F0BD26
:101E4000202002990860032007B0F0BDFF010000C8
:101E50007047FEE7FEE77047F0B593B0F84DA9680C
:101E60005C2900DA58E3480A09D0F749F5484118D7
:101E7000F022FEF73DF93C20A86013B0F0BDFB4C0A
:101E8000204603F04BFEA9682339204604F012F8DF
:101E900068623D2800D23FE30146F44803F086FE25
:101EA000002800DC38E303463120522129546978A8
:101EB000EF484354FF20FF2B00D303462C220B9204
:101EC0001E46AB542A4631323A235370491C69707E
:101ED000E8490A68D1170C928A43FF2A00DB0246C0
:101EE00029462C3108924A70E34A1468E217079495
:101EF0009443FF2C00DB044604948C70DF4A146882
:101F0000E21703949443FF2C00DB044609930294E8
:101F1000CC70DB4A1368DA1701939343FF2B00DB85
:101F2000034600930B71002501210D9130460F915E
:101F30000A2406462146FEF7DAF90E944443311B83
:101F400030273943EAB210AB99542C460D990C4313
:101F50000A2E12D30A21FEF7CAF93943E0B210AAB9
:101F6000115464213046FEF7C2F90F9A911CAD1C42
:101F7000632EDCD80D97561C02E00D9725460F9E68
:101F80000022290611464BD00F9203203040F2B2B6
:101F9000511E032902D20021B34F1DE006950A907D
:101FA000FC25154010A90E1F0021AF484718B05C52
:101FB0003623F854B018C37833243B55837834243F
:101FC0003B5540783523F854361F091D8D42ECD11E
:101FD000521AA54F0A98069D00281FD00646781869
:101FE00010ABD3185B1E1B783324035530464E1CB0
:101FF00001280AD00A90B81910ABD3189B1E1B7881
:1020000003558E1C0A98022801D1314606E0B81902
:1020100010ABD218D21E12780255C91CC9B20F9A41
:10202000914F384633304254EAB20B9981540692AC
:102030008018441C3E465036B44200D360E20C99EE
:10204000012929DB05960A94002601210F910898A1
:102050000F4605460E9C2146FEF749F94443291BCD
:102060000D9A1143F2B210AB995434460F990C43B8
:102070000A2D16D30A21FEF73AF90D980143E0B272
:1020800010AA115464212846FEF731F9B91CB61C78
:10209000632DDDD87F1C05E00D994170801C012166
:1020A0004EE0264630060A9C07D003253D40F8B294
:1020B000411E032903D2002123E000203CE00895C3
:1020C0006949069A89180F91FC2101400C9110A9C9
:1020D0000F1F00210F9A54183A5C3723E2543A1824
:1020E000D378342563559378352563555278362354
:1020F000E2543F1F091D0C9A8A42EBD1401A0A9CF8
:10210000089D002D17D010AA8218521E1278625412
:102110004B1C012D07D010AA8218921E1278E2548F
:102120008B1C022D01D1194605E010AA8018C01E93
:102130000078E054C91CC8B2F84F2018F1B2059ECF
:10214000002505700B9860546018441CB44200D3FD
:10215000D6E108910799012929DB05960A94012106
:102160000F91049F0C4638460E9E3146FEF7BFF88D
:102170004643B91B0D9A1143EAB210AB99542E464F
:102180000F990E430A2F18D30A21FEF7B0F80D98C5
:102190000143F0B210AA115464213846FEF7A7F8A3
:1021A000A11CAD1C632F0746DCD8641C06E000218F
:1021B00081700D9A4270012171E035460022280697
:1021C0001046D64F059E66D0032020400790E1B20E
:1021D000481E032801D2002323E00492FC2008407B
:1021E0000F900698089A101838180C9010A8001F25
:1021F00000230C9AD618425C382432554218D47801
:102200003527F45594783627F455527837243255CB
:10221000001F1B1D0F9A9A42EBD1C91ABF4F059E92
:10222000049A0798002835D010A80818401E007896
:102230000A9CE054581C079C012C07D1034629E056
:1022400048020020280500200C070000049210AA74
:102250008A18921E12780A9C2254981C079A022A05
:1022600010D1034615E0C046480200202805002092
:10227000A80400202C000020300000200C000020CA
:102280001400002010AA8918C91E09780A9A11544E
:10229000DB1C049AD8B20A9C2254E9B20D9A0B981E
:1022A00060546018441CB44200D329E1079103999B
:1022B00001292BDB05960A94002401210F910D9230
:1022C000029F0D4638460E9E3146FEF710F84643F3
:1022D000B91B0D9A1143E2B210AB995426460F99DF
:1022E0000E430A2F17D30A21FEF701F80D98014378
:1022F000F0B210AA115464213846FDF7F8FFA91C6A
:10230000A41C632F0746DCD86D1C05E000218170FA
:10231000427001235EE034460022200610467F4FC3
:10232000059E52D0032028400490E9B2481E03289D
:1023300001D2002325E00392FC2008400F9008986A
:10234000079A1018069A801838180C9010A8001FC9
:1023500000230C9AD618425C392572554218D5785C
:102360003627F55595783727F55552783825725523
:10237000001F1B1D0F9A9A42EBD1C91A674F059E89
:10238000039A049800281FD010A80818401E00784F
:102390000A9DE854581C049D012D01D1034613E009
:1023A000039210AA8A18921E12780A9D2A54981C29
:1023B000049A022A01D1034605E010AA8918C91E11
:1023C00009782954DB1C039AD8B20A990A54E3B25B
:1023D0000C460D9A0B98E054E018441CB44200D30C
:1023E0008EE0019901292BDB0C930A940024012132
:1023F0000F910D92009D0F4628460E9E3146FDF727
:1024000076FF4643A91B0D9A1143E2B210AB9954D3
:1024100026460F990E430A2D17D30A21FDF767FFB1
:102420000D980143F0B210AA115464212846FDF71B
:102430005EFFB91CA41C632D0546DCD87F1C05E09B
:10244000002181704270012056E0344600262006AB
:1024500030460C9A4BD0032038400B90F9B2481EFE
:10246000032801D2002325E00596FC2008400F90A8
:1024700007981018089A8018069A8018274A10188A
:102480000D9010A8001F00230D9AD618425C099DDC
:1024900072554218D5783727F55595783827F55570
:1024A000527839257255001F1B1D0F9A9A42EBD1A5
:1024B000C91A059E0B9F002F18D010A80818401E9F
:1024C00000780A9DE854581C012F07D010AA8A18DA
:1024D000921E12782A54981C022F01D1034605E05F
:1024E00010AA8918C91E09782954DB1CD8B20A9988
:1024F0000E54E0B20C46094F0E9921542018441C8A
:1025000000202070B8600120F870E11B313939716A
:10251000C1020348FDF705FE13B0F0BD48020020DC
:1025200028050020F0B589B00520040720250026E5
:102530002046294632460896FEF749FB01272046E9
:1025400029463A46FEF743FB402107912046FEF715
:1025500031FB0590204629463246FEF738FB2046DF
:10256000294606973A46FEF732FB2046079E31463B
:10257000FEF720FB049020462946089AFEF727FB29
:10258000204629463A46FEF722FB20463146FEF712
:1025900011FB039020462946089F3A46FEF717FB99
:1025A00020462946069E3246FEF711FB2046079933
:1025B000FEF700FB0290204629463A46FEF707FB4D
:1025C0002046294637463246FEF701FB2046079E45
:1025D0003146FEF7EFFA019020462946089AFEF7A9
:1025E000F6FA204629463A46FEF7F1FA20463746E3
:1025F0003146FEF7DFFA009020462946089E324613
:10260000FEF7E5FA20462946069AFEF7E0FA20464C
:102610003946FEF7CFFA0746204629463246FEF7EE
:10262000D6FA20462946069AFEF7D1FA204607999F
:10263000FEF7C0FA064620462946089AFEF7C7FA72
:102640000599481E8141C800049A511E8A41910093
:102650004018039A511E8A4151004018029A511E97
:102660008A4180188000019A511E8A415100401809
:10267000009A511E8A4180188000791E8F4179008E
:102680004018711E8E418019C0B209B0F0BD70476C
:1026900080B5FEF7A9FA80BD70B592B000260B9602
:1026A00009960C960A9608960796022006904020F6
:1026B0000B9001252C020994059604960396029628
:1026C000019606A8FEF716FC002819D021480168DB
:1026D00029430160006828400D900D9811961096CE
:1026E0000DA870C0052005070DA92846FEF794F92E
:1026F00028462146FEF763FA6420FEF707F8F7E75D
:1027000002960720019003960496059601A80125DC
:102710002946FEF7DFFA00281AD00E48016829433F
:102720000160006828400D900D98119610960DA834
:1027300070C0052004070DA92046FEF76DF92D0293
:1027400020462946FEF73BFA6420FDF7DFFFF7E756
:1027500012B070BD341002400120C006014908606B
:102760007047C04608ED00E080B50248FEF7D2FE93
:1027700080BDC0466403002080B50248FEF7CAFE53
:1027800080BDC046B0030020B0B5816A0A070CD4F2
:10279000CA0714D18A071CD44A0724D4CA062CD4E9
:1027A0008A0634D44A063CD44CE00122D2030368A2
:1027B0005C689443826B22435A60CA07EAD00122C4
:1027C000520403685C689443C26A22435A608A07D1
:1027D000E2D50122120403685C689443026B224331
:1027E0005A604A07DAD50122920403685C68944370
:1027F000426B22435A60CA06D2D5012212030368F3
:102800009C689443C26B22439A608A06CAD501220F
:10281000520303689C689443026C22439A604A0600
:1028200010D501221305026854689C43456C2C4363
:1028300054609D4206D103235B0554689C43836C1E
:1028400023435360090607D50121C9040268536870
:102850008B43C06C18435060B0BD0000F0B583B02E
:102860000446064684360025F560FEF7B9F90346AE
:1028700020680168090721D502952B4800900125A1
:102880006905002220461F4600F074FC002812D083
:10289000EFF3108085F3108821680A6880239A433B
:1028A0000A6080F31088032020228821029D625054
:1028B000357003B0F0BD20683B46029D00684007BC
:1028C00026D5194800900127B9050022204600F0BE
:1028D00051FC00281CD0EFF3108087F310880921E9
:1028E0004901226813688B43136080F31088EFF36B
:1028F000108087F3108821688A68BA438A6080F361
:102900001088032020228C216250357003B0F0BD66
:1029100020207060B060E56670212A46284662502B
:10292000357003B0F0BDC046FFFFFF0180B5806A7F
:102930000146563100220A8156214252FEF71BFF02
:1029400080BDF0B581B08C2141580268222910D198
:1029500001465C318B88526A1A40836D1A804A881E
:10296000521E4A809A1C82654A88002A07D001B00C
:10297000F0BD906908210143916101B0F0BD0346AB
:102980008C33EFF31084012282F3108809256D0146
:1029900006683768AF43376084F31088EFF310841C
:1029A00082F310880568AE689643AE6084F31088A1
:1029B00020241C60002303674367046864682402C2
:1029C0000AD5EFF3108482F31088950606683768FD
:1029D000AF43376084F31088C46E012C15D1C366F1
:1029E000EFF3108382F31088046825681022954362
:1029F000256083F310880368DC69E40600D51A6259
:102A00000988FEF7B4FE01B0F0BDFFF78DF901B003
:102A1000F0BD0000F0B587B004460168C8690A68D7
:102A200003928A6805928C22A258222A00D0B8E02C
:102A300023465C33202102919989002900D1B6E018
:102A40000299084000D1B2E026468C369D880121CB
:102A500005980840059006910802039901400391EA
:102A60000493019507E02046FFF75EF9049B019D62
:102A7000B80600D49BE02068416A2940A26D11800D
:102A80005988491E5980911CA165C76979073CD0B6
:102A9000039B5A425A41FB07069B00D01346002B6A
:102AA00004D101220262736813437360059B5A428A
:102AB0005A41BB07069B00D51346002B05D10222C5
:102AC00002627268042313437360059B5A425A41A1
:102AD000002906990DD511460029049B0CD104212B
:102AE000016270680221014371607068002806D19C
:102AF0000BE00029049BF2D07068002805D0204626
:102B0000FEF739FE049B0020706058880028AFD182
:102B1000EFF31081012080F31088020223681D6802
:102B200095431D6081F31088EFF3108180F31088C6
:102B300022689368DE4D2B40936081F310880299E0
:102B400031600021216761672268526812020CD54A
:102B5000EFF31082009280F31088830625682A68BC
:102B60009A432A60009A82F31088E26E012A00D00C
:102B700079E7E166EFF3108180F31088226813682B
:102B800010208343136081F310882168CA69D2063C
:102B900000D50862049D29882046FEF7E8FD2B46F3
:102BA00065E78869082202438A6107B0F0BD58884A
:102BB0000028FAD099898842F7D2EFF310800121DA
:102BC00081F31088BA4A521C23689D6815409D60A5
:102BD00080F3108807486067EFF3108081F3108856
:102BE00021680A68029B1A430A6080F3108807B0C4
:102BF000F0BDC04643290008F0B581B08C21415892
:102C00000268222911D101465C318B88526A1A4030
:102C1000836D1A704A88521E4A80826D521C8265EA
:102C20004A88002A07D001B0F0BD9069082101430D
:102C3000916101B0F0BD03468C33EFF310840122A3
:102C400082F3108809256D0106683768AF43376045
:102C500084F31088EFF3108482F310880568AE685F
:102C60009643AE6084F3108820241C600023036721
:102C700043670468646824020AD5EFF3108482F382
:102C80001088950606683768AF43376084F310886C
:102C9000C46E012C15D1C366EFF3108382F3108844
:102CA0000468256810229543256083F31088036823
:102CB000DC69E40600D51A620988FEF758FD01B008
:102CC000F0BDFFF731F801B0F0BD0000F0B587B0FE
:102CD00004460168C8690A6803928A6805928C22D2
:102CE000A258222A00D0BAE022465C32202102916A
:102CF0009189002900D1B8E00299084000D1B4E0E0
:102D000026468C3695880121059808400590069145
:102D100008020399014003910492019507E02046BF
:102D2000FFF702F8049A019DB80600D49DE02068E0
:102D3000406A2840A16D08705088401E5080A06DE8
:102D4000401CA0652068C76979073CD0039B5A42A4
:102D50005A41FB07069B00D01346002B04D10122E9
:102D60000262736813437360059B5A425A41BB0762
:102D7000069B00D51346002B05D102220262726821
:102D8000042313437360059B5A425A410029069954
:102D90000DD5114600290CD1042101627068022171
:102DA0000143716070680028049A06D10BE0002985
:102DB000F2D070680028049A05D02046FEF7DBFCAC
:102DC000049A0020706050880028ADD1EFF3108184
:102DD000012080F31088020223681D6895431D605E
:102DE00081F31088EFF3108180F3108822689368D4
:102DF0002F4D2B40936081F31088029931600021A0
:102E0000216761672268526812020CD5EFF31082C5
:102E1000009280F31088830625682A689A432A6006
:102E2000009A82F31088E26E012A00D077E7E1660B
:102E3000EFF3108180F31088226813681020834319
:102E4000136081F310882168CA69D20600D5086230
:102E5000049D29882046FEF78AFC2A4663E7886994
:102E6000082202438A6107B0F0BD50880028FAD0DA
:102E700091898842F7D2EFF31080012181F3108805
:102E80000B4A521C23689D6815409D6080F3108892
:102E9000B6486067EFF3108081F3108821680A68F4
:102EA000029B1A430A6080F3108807B0F0BDC04649
:102EB000FEFFFFEFF0B581B0044600680168514A9B
:102EC0000A40A16823690B4365691D431543E16905
:102ED0000D4305600322120343689343E2681A43DB
:102EE0004260A269236A13438268474D15401D431F
:102EF0008560C26A0F239A43676A3A43C262434AB3
:102F0000904209D0424A904208D14248406D800721
:102F1000000F41A2125802E0002200E010222646D3
:102F200068360125E803814210D1082A61D8C046DD
:102F30007A44127952009744045C195C2B5C5C5C07
:102F40003000FDF79DFF002826D151E0082A50D817
:102F50007A44127952009744044C124C354C4C4C34
:102F60003A00FDF78DFF002830D141E02948006884
:102F70000006400F411C2C48FDF7B9F90DE025482B
:102F800000680006400F411C2748FDF7B0F91EE01D
:102F9000FDF788FF00282BD0676A7900234A515A31
:102FA000FDF7A5F9400061684A081018FDF79FF980
:102FB0000246103A1E498A421BD201400007400FC8
:102FC000084313E0FDF76EFF002811D0676A79000F
:102FD000164A515AFDF78BF961684A081018FDF737
:102FE00086F901461039124A914202D22168C8601E
:102FF00000251048306000206067A067284601B0B7
:10300000F0BDC046F369FFCFFFF4FF11004400405C
:1030100000380140001002400000000004000000E1
:103020000200000008000000006CDC02805F000865
:10303000F0FF000001000100F0B55C23C252816581
:103040000021416703465C335A80856804468C340E
:10305000002D12D001263707BD4208D03603B542F5
:1030600014D10569002D0ED13D4D9D800FE00569FD
:10307000002D05D03F259D8009E00569002D02D077
:103080007F259D8003E0FF259D8000E099806160A1
:1030900022212160EFF31084012181F3108805685B
:1030A000AE680E43AE6084F310880C034D07466E85
:1030B000AE4202D19B899A421BD202698368A34225
:1030C00004D1002A1ED0294A426703E0274B4367F8
:1030D000002A19D0EFF3108281F3108809020068EA
:1030E00003680B4320211943016082F310880020FC
:1030F000F0BD02698368A34213D1002A21D0194A86
:10310000426712E01A4A4267EFF3108281F3108897
:103110000068016820230B43036082F310880020BD
:10312000F0BD104B4367002A0DD0EFF3108281F3FE
:1031300010880B02046825681D43256082F31088FF
:1031400001E0094A4267EFF3108281F31088090712
:10315000006883680B43836082F310880020F0BD11
:10316000FF010000CD2C0008152A0008F92B0008EB
:1031700043290008F0B587B01D4616460F46036880
:10318000D9693940C91B4A424A410021964224D19B
:103190000C9C002C24D00391611C26D1D9693940A4
:1031A000C91B4A424A41964214D1D9693940C91BC8
:1031B0004A424A4196420DD1D9693940C91B4A4217
:1031C0004A41964206D1D9693940C91B4A424A410F
:1031D0009642E3D0039807B0F0BD084607B0F0BDB3
:1031E000FDF7FEFC032007B0F0BD014684310291DB
:1031F00001210191C90205910690049406E0C96974
:103200003940CA1B514251418E42E3D1FDF7E8FCDF
:10321000411B0323A14246D8069801680A68520759
:10322000EDD5CA69120741D4CA692C46059D2A42C8
:103230002546049CE3D01E4605980862EFF31082F1
:10324000012181F3108809235B0106980468256831
:103250009D43256082F31088EFF3108281F310887C
:10326000069803689C682D4D25409D60069882F362
:103270001088C26E012A0BD1EFF3108281F31088FF
:1032800001680B681024A3430B60069882F3108832
:103290002021029B99600022C26642671A70D960A1
:1032A000304607B0F0BD184607B0F0BD08250D62E6
:1032B000EFF31081019880F3108809225201069BD8
:1032C0001B681C6894431C6081F31088EFF3108125
:1032D00080F31088069A12689368104C1C40069B75
:1032E000946081F31088D96E01290CD1EFF310811D
:1032F000012282F310881A6813681024A343136014
:10330000069B81F310882021029A91600021D966E2
:1033100059671170D56007B0F0BDC046FEFFFFEFE2
:1033200080B50248FEF728FA80BDC046FC030020A5
:1033300083B0F0B596B005461BA80EC01BA812902E
:1033400013A8001F009013A8001F029013A8001FCD
:10335000049013A8001F019013A8001F03900FA84A
:10336000401C07900FA8401C06900FA8401C099015
:103370002B4E08E0207000F0E3FD01220A233046C6
:103380002146FEF7F3FC287825280ED0002800D12E
:10339000BEE313AC207000F0D3FD01220A233046B7
:1033A0002146FEF7E3FC6D1CEDE768782E281FD15F
:1033B000A87801463039C9B209291CD8291D002432
:1033C0000A235C432418303C4A1E10780546303DE1
:1033D000EDB2092D11D863431C18303C8A1C0878C3
:1033E00001463039C9B20A291146E9D3921E04E0D8
:1033F0006A1C062401E0AA1C0024551C01466339FE
:1034000012294BD87944097949008F440C120B4D8D
:103410000B0B0B0B0B0B0B0B0B0B0B0B0B0B820090
:10342000FC030020AFE71298011D1291007813AC45
:10343000A0E70B951298011D12910568002D00D58B
:103440009AE000D1EEE0002701210D910E910A24AF
:1034500028462146FCF74BFF4443291B30242143D7
:10346000FEB213AA91550A2D00D2E0E00A21FCF722
:103470003EFF13A880192143417064212846FCF7C0
:1034800036FF0E9CA11CBF1C632D0546DED8641CB4
:10349000380600D0D0E00020ED4E0FE3252800D004
:1034A00071E713AC252065E70B951298C11D072025
:1034B000814308460830129003C9FCF7FCFE07461A
:1034C00000263146FCF7CEFE00280ED113A90E913E
:1034D0002D20087000F034FD01250A23DC480E99E8
:1034E0002A46FEF743FCE80747403846FCF7CFFE84
:1034F0000546FCF7C5FE01463846FCF76EFE210680
:103500000C910E9031D0E0B20428D24A79D2012732
:103510007FE00B951298011D12910568002D27D0B0
:10352000002701210D910E910A2428462146FCF71F
:10353000DEFE4443291B30242143FEB213AA9155D9
:103540000A2D4DD30A21FCF7D2FE13A8801921437E
:10355000417064212846FCF7CAFE0E9CA11CBF1CCA
:10356000632D0546DFD8641C3CE00127B84E19E105
:103570000FA93020088066E213AC2D20207000F0E7
:10358000DFFC01270A23304621463A460D93FEF719
:10359000EDFB6D4200260C9739460E9128460D9C96
:1035A0002146FCF7A4FE4443291B30273943F4B2DB
:1035B00013AA11550A2D00D280E00A21FCF797FECC
:1035C00013A800193943417064212846FCF78FFE87
:1035D0000E9FB91CB61C632D0546DED87F1C6FE01C
:1035E0000D9F0E9C002039060146994E00D125E220
:1035F000E2B2511E03292FD2002103231C4046D1E1
:103600001BE2FC20204001275743361DF1B28142C6
:10361000FAD1032004408E4E00D1C3E0012C15D115
:103620000A20BEE00FA830210170079848E20D9FE4
:103630000E9C380600D12EE7E1B2481E03284ED278
:103640000020834E0322144064D136E2022C00D1C4
:10365000A6E07D20C000A4E00E94FC2313400021CE
:10366000049CA518EE780FAF7E547E18A75CF77007
:10367000AF7877706D78B570241F091D8B42F0D13B
:10368000521A734E0E9C03231C4000D1D5E113AB9C
:10369000D3185B1E1B7825460FAC63544B1C012DC1
:1036A0000AD02F4613AC1419A41E24780FADEC5485
:1036B0008B1C022F00D0B9E11946BEE10C9E0E9F73
:1036C000002031060146624E00D108E2FAB2511ED6
:1036D000032935D2002103231F404CD1FEE12746A8
:1036E000FC220A400020029B5C18E5780FAE35549E
:1036F00035185E5CEE70A6786E706478AC701B1F37
:10370000001D8242F0D1091A514E3C46032214405A
:1037100000D1D2E113AA8A18521E12780FAB1A54A4
:10372000421C012C0AD013ABCB189B1E1B782546DC
:103730000FACA354821C022D00D0B7E11046BCE1AF
:103740000E97FC2313400021009DAC18E6780FAFC4
:103750007E547E18AF5CF770A77877706478B47089
:103760002D1F091D8B42F0D1521AEC4E0E9F0323E0
:103770001F4000D1B2E113ABD3185B1E1B780FAC16
:1037800063544B1C012F09D013AC1419A41E2478C8
:103790000FADEC548B1C022F00D098E119469DE12F
:1037A000642047433846FCF76BFD01460E98FCF752
:1037B0001CFD3F210906FCF7BFFCFCF768FD8742B2
:1037C00000D86D1C874229D90D900890002D2AD071
:1037D00028460A970027012105910E910A240546E3
:1037E0002146FCF784FD4443291B30242143FEB2CB
:1037F00013AA91550A2D1AD30A21FCF778FD13A8B4
:1038000080192143417064212846FCF770FD0E9A0F
:10381000911CBF1C632DE0D8551C0AE000210D91BE
:103820000890002DD4D10FA93020088052E0059FC8
:103830000E9D002039060146B84E0A9F45D0EAB2D7
:10384000511E032908D2002103231D401FD13BE054
:10385000FC030020102700000E95FC2313400021DC
:10386000039CA518EE780FAF7E547E18A75CF77006
:10387000AF7877706D78B570241F091D8B42F0D139
:10388000521AA64E0A9F0E9D03231D401CD013AB57
:10389000D3185B1E1B780FAC63544B1C012D0AD050
:1038A0000E9513AC1419A41E24780FADEC548B1C88
:1038B0000E9C022C01D1194606E013AC1219D21E3F
:1038C00012780FACE254C91CC9B20FAA5054107838
:1038D000002810D0099D13AC2070C0B200F030FB5E
:1038E00001220A2330462146FEF740FA691C287857
:1038F00000280D46EFD10C98002800D1D4E013AC7D
:103900002E20207000F01CFB01220A2530462146A3
:103910000A922B46FEF72AFA38460C952946FCF700
:10392000E6FC142F19D304460D98844215D913AF21
:103930003020387000F004FB01220A253046394659
:103940002B46FEF713FA20462946FCF7D0FC142C30
:1039500003D30D9988420446E9D80D98002823D056
:1039600000250A9908980E9104460C9E3146FCF7F2
:10397000BEFC4643A11B30263143EFB213AAD155FA
:103980000A2C15D30A21FCF7B2FC13A8C019314345
:10399000417064212046FCF7AAFC0E9A911CAD1CD4
:1039A000632CE0D8541C05E00FA9302008806AE0A1
:1039B0000A9D0E9C002729063946B24E5ED0E2B21F
:1039C000511E032904D20021032004401AD154E0DF
:1039D0000E97FC2313400021019DAE18F7780FA825
:1039E00047544018AF5CC770B778477076788670D8
:1039F0002D1F091D8B42F0D1521AA24E0E9F03209B
:103A000004403AD013A81018401E00780FAB585449
:103A10004B1C012C08D013A81018801E00780FAD85
:103A2000E8548B1C022C21D1194626E013AC121944
:103A3000D21E12780FACE254C91CC9B20FAA50545E
:103A40001078002810D0069D13AC2070C0B200F092
:103A500077FA01220A2330462146FEF787F9691CCE
:103A6000287800280D46EFD10B9D8CE413A8101880
:103A7000C01E00780FAAD054C91CC9B20FA8475461
:103A80000078002810D0099D13AC2070C0B200F05F
:103A900057FA01220A2330462146FEF767F9691CCE
:103AA000287800280D46EFD10B9D6CE413ABC918A4
:103AB000C91E09780FAB9954C01CC0B20FA90818D1
:103AC000002101700FA8007800280ED11EE013AC71
:103AD0001219D21E12780FACE254C91CC9B20FAA37
:103AE00050540FA80078002810D0079D13AC207008
:103AF000C0B200F025FA01220A2330462146FEF723
:103B000035F9691C287800280D46EFD10B9D3AE461
:103B100016B0F0BC01BC03B00047C046FC03002057
:103B2000F0B585B005210C07C209074604900421B1
:103B300003912046FDF74BF820260125204631460B
:103B40002A460195FDF743F80022029220463146AD
:103B5000FDF73DF87806C20F2046039F3946FDF772
:103B600036F8204631462A46FDF731F820463146E0
:103B7000029D2A46FDF72BF804988006C20F2046C6
:103B80003946FDF724F820463146019F3A46FDF7B5
:103B90001EF8204631462A46FDF719F8049DE8062E
:103BA000C20F20460399FDF712F8204631463A46E7
:103BB000FDF70DF820463146029F3A46FDF707F81B
:103BC0002807C20F20460399FDF701F82046314629
:103BD000019D2A46FCF7FBFF204631463A46FCF79A
:103BE000F6FF04984007C20F2046039F3946FCF7B2
:103BF000EEFF204631462A46FCF7E9FF20463146D3
:103C0000029D2A46FCF7E3FF04988007C20F204676
:103C10003946FCF7DCFF20463146019F3A46FCF767
:103C2000D6FF204631462A46FCF7D1FF049A3A4097
:103C300020460399FCF7CBFF204631463A46FCF775
:103C4000C6FF204631462A46FCF7C1FF05B0F0BD4D
:103C500070B582B00178002911D0461C094C01AD25
:103C60002970C8B200F06CF901220A2320462946C7
:103C7000FEF77CF8701C317800290646EFD102B0BF
:103C800070BDC046FC030020F0B587B000292AD0E3
:103C90000E460092019000250121029103910A270E
:103CA00030463946FCF723FB4743F11B30273943A5
:103CB000EAB204AB99542C4602990C430A2E1AD34B
:103CC0000A21FCF714FB3943E0B204AA1154642121
:103CD0003046FCF70CFB039A911CAD1C632E064684
:103CE000DCD8521C09E00021417030210170012014
:103CF000107007B0F0BD2546039A009805700023A8
:103D000029061946019D3ED003261640D2B2511E07
:103D1000032903D20021002E1CD133E00296039325
:103D2000FC24144004A92B460D1F0021AE18F7787F
:103D30005F545F18A85CF870B07878707078B870CD
:103D40002D1F091D8C42F1D1521A1D46039B029E64
:103D5000002E17D004A81018401E007868544C1C80
:103D6000012E07D004A81018801E007828558C1C3E
:103D7000022E01D1214605E004A81018C01E0078CB
:103D80002855C91CC9B26B5407B0F0BDF0B585B059
:103D9000194C22686168A0683227664E664D174B41
:103DA0009A4207D1F25D914204D1296A884201D139
:103DB00005B0F0BD00250195FCF7EAFD012604964B
:103DC0000F2003900220029002A801A9FCF7B0FC8A
:103DD0005848C35D094A30462146FCF715FD564850
:103DE000026A0834304621462B46FCF70DFDFCF7ED
:103DF000FFFC05B0F0BDC04600780008BD3512BD1F
:103E0000F0B587B020294CDB05924B1EDA0FD202A9
:103E100084189A00A4588A001718381F0297083F80
:103E20008D1E01910A4621461F3A069226460393AB
:103E300006E00838AD1E083F9B1E069A934217DD28
:103E4000DA0FD2028458A14200D82146EA0FD202EA
:103E5000BA58914204D9A64205D29642E9D305E068
:103E60001146A642F9D326469642E2D31646E0E72B
:103E7000881B33212F4A50543221515CC3B2012098
:103E800000228B42014600D81146142B039E029C4F
:103E9000069D019B00D81046059A002A03D10843CD
:103EA00001D007B0F0BD981E0590581E0490DF1E8B
:103EB000191F324600263046D30FDB02E3181B1FC2
:103EC0001B681818059BDB0FDB02E318083B1B6817
:103ED0001818049B9B199B1EAB421ADDFB0FDB02DB
:103EE000E3182546CC0FE4022C190C3B1B6818186C
:103EF000103C23682C461818361F049B9B19059DFF
:103F00002D1F0595069D3F1F091F103C121FAB4238
:103F1000D2DC1E21FCF70AFA0446074D6869A0426C
:103F200003D00648214601F025FA00206C61A86103
:103F300007B0F0BD9C020020480200200D6100087F
:103F4000F0B587B00290052000070124E1020027A8
:103F5000064600913A46FCF73AFE1A20019004907A
:103F6000EF480068416A89B2049A8A18120C230447
:103F70000393002A15D13D46426A521A049B9A4285
:103F800021D2426A521A049B9A421CD2426A521AA5
:103F9000049B9A4217D2426A521A049B9A42EBD36C
:103FA00011E03D464762416A049A91420BD2416A50
:103FB000049A914207D2416A049A914203D2416A1B
:103FC000049A9142EFD30298044037463046009E4F
:103FD00031462246FCF7FBFD01980590F548006844
:103FE000416A89B2059A8A18039B9A4215D22C46D7
:103FF000426A521A059B9A4221D2426A521A059B82
:104000009A421CD2426A521A059B9A4217D2426ABD
:10401000521A059B9A42EBD311E02C464562416A45
:10402000059A91420BD2416A059A914207D2416AA0
:10403000059A914203D2416A059A9142EFD30298C0
:104040008007C20F38463146FCF7C1FD019D05953A
:10405000D8480068416A89B2059A8A18039B9A4237
:1040600014D2426A521A059B9A4220D2426A521ACC
:10407000059B9A421BD2426A521A059B9A4216D25B
:10408000426A521A059B9A42EBD310E04462416A9D
:10409000059A91420BD2416A059A914207D2416A30
:1040A000059A914203D2416A059A9142EFD3029850
:1040B0004007C20F38463146FCF789FD0595BD48DB
:1040C0000068416A89B2059A8A18039B9A4214D201
:1040D000426A521A059B9A4220D2426A521A059BA2
:1040E0009A421BD2426A521A059B9A4216D2426ADF
:1040F000521A059B9A42EBD310E04462416A059A3A
:1041000091420BD2416A059A914207D2416A059ABF
:10411000914203D2416A059A9142EFD30298000777
:10412000C20F38463146FCF752FD0595A14800689C
:10413000416A89B2059A8A18039B9A4214D2426A4C
:10414000521A059B9A4220D2426A521A059B9A4201
:104150001BD2426A521A059B9A4216D2426A521ADE
:10416000059B9A42EBD310E04462416A059A914262
:104170000BD2416A059A914207D2416A059A91424F
:1041800003D2416A059A9142EFD30298C006C20F4A
:1041900038463146FCF71BFD059586480068416AA4
:1041A00089B2059A8A18039B9A4214D2426A521A1B
:1041B000059B9A4220D2426A521A059B9A421BD210
:1041C000426A521A059B9A4216D2426A521A059BBB
:1041D0009A42EBD310E04462416A059A91420BD2B5
:1041E000416A059A914207D2416A059A914203D2E7
:1041F000416A059A9142EFD302988006C20F384671
:104200003146FCF7E4FC05956A480068416A89B2CA
:10421000059A8A18039B9A4214D2426A521A059B45
:104220009A4220D2426A521A059B9A421BD2426A93
:10423000521A059B9A4216D2426A521A059B9A421A
:10424000EBD310E04462416A059A91420BD2416A75
:10425000059A914207D2416A059A914203D2416A76
:10426000059A9142EFD302984006C20F3846314674
:10427000FCF7ADFC05954F480068416A89B2059A84
:104280008A18039B9A4214D2426A521A059B9A4298
:1042900020D2426A521A059B9A421BD2426A521A93
:1042A000059B9A4216D2426A521A059B9A42EBD358
:1042B00010E04462416A059A91420BD2416A059A24
:1042C000914207D2416A059A914203D2416A059A06
:1042D0009142EFD30298C20938463146FCF777FC89
:1042E000059534480068416A89B2059A8A18039B8B
:1042F0009A4217D2426A521A059B9A4223D2426AC4
:10430000521A059B9A421ED2426A521A059B9A4241
:1043100019D2426A521A059B9A42EBD313E0C04667
:10432000180300204462416A059A91420BD2416A07
:10433000059A914207D2416A059A914203D2416A95
:10434000059A9142EFD3012238463146FCF73FFCF3
:10435000069518480068416A89B2069A8A18039B34
:104360009A4214D2426A521A069B9A4220D2426A58
:10437000521A069B9A421BD2426A521A069B9A42D2
:1043800016D2426A521A069B9A42EBD310E044625C
:10439000416A069A91420BD2416A069A914207D22B
:1043A000416A069A914203D2416A069A9142EFD33A
:1043B00007B0F0BD180300209CB0FCF71FFCFEF70F
:1043C0006BF900261B961A96199618961796EE49C1
:1043D000086801273843086008683840139013982C
:1043E0000868022210430860086805921040139084
:1043F000139805200407E54D204629463246FCF770
:10440000E6FB1A9619971897179517AD2046294677
:10441000FCF702FB1996189648201790204629466B
:10442000FCF7FAFA1997DA48189038030F901790AA
:1044300020462946FCF7F0FA072528463146324641
:10444000FCF72CFC2846FCF71DFCD248D2492F2350
:10445000D24A02600E9343608660C1600661466185
:1044600086611696159614961396129611961096C6
:10447000FCF7B6FE3D02002818D0C349086838434F
:10448000086008683840179017981B961A96199676
:104490001897179517A92046FCF7BEFA204629461B
:1044A000FCF78DFB6420FCF731F9F7E70D970296D6
:1044B0000F981390B74813A9FCF77CFF00281AD077
:1044C000B14A10680D9908431060106808401790B1
:1044D000179802981B901A9019901891179517A980
:1044E0002046FCF799FA20462946FCF768FB642031
:1044F000FCF70CF9F7E7029E129611961096A54864
:1045000010A9FCF741FE00289F4F18D038680D997C
:104510000843386038680840179017981B961A9619
:1045200019961891179517A92046FCF775FA204699
:104530002946FCF744FB6420FCF7E8F8F7E79848C5
:1045400086611A21974A02600E9A42608660C160B5
:104550000661169615961496139612961196109655
:10456000FCF73EFE002818D038680D9908433860E3
:1045700038680840179017981B961A961996189144
:10458000179517A92046FCF747FA20462946FCF75D
:1045900016FB6420FCF7BAF8F7E70F9813908048F1
:1045A00013A9FCF707FF002818D038680D990843B5
:1045B000386038680840179017981B961A96199615
:1045C0001891179517A92046FCF726FA2046294688
:1045D000FCF7F5FA6420FCF799F8F7E712961096C5
:1045E000F44810A9FCF7D0FD002818D038680D99C0
:1045F0000843386038680840179017981B961A9639
:1046000019961891179517A92046FCF705FA204628
:104610002946FCF7D4FA6420FCF778F8F7E7E64877
:104620008661E649E64A02600D9F47608660C16088
:104630000661FCF7D5FD002818D0DC49086838432E
:10464000086008683840179017981B961A961996B4
:104650001897179517A92046FCF7DEF9204629463A
:10466000FCF7ADFA6420FCF751F8F7E7D54802688B
:1046700041688068D44B9A4209D14A1E622A02D806
:104680003222D24B9954032801D8D1490862D1482B
:104690000C22CF4F3B6A9B00D049CB58CE494AC031
:1046A000066046608260C66006610C38FDF796FAC7
:1046B000002819D0BD4A10680D9908431060106891
:1046C0000840179017981B961A96199618911795E7
:1046D00017A92046FCF7A0F920462946FCF76FFAF7
:1046E0006420FCF713F8F7E7B148FCF71BFEB2486B
:1046F000FCF718FEFE603E61B448B8627E710D3072
:104700002A21FBF70EFD32220421B0480F9281547A
:104710000673B349B34AB44B036042608160A94950
:104720000B684A688868A8498B4205990BD1531ECB
:10473000622B04D8A54B07460F981A543846032815
:10474000A34F00D838623022A04807928154FE61FE
:104750007E61B91C9F4801263246FDF7B1FA002858
:1047600002D0A2A000F006FE386A80009B490958DA
:10477000A7A000F0FFFD0420D421FBF759FE35204F
:10478000924F04903E5413E034100240B4290000CC
:104790000000211018030020FEFF0000002C014043
:1047A000B003002000040040AC4800F0E3FD874F58
:1047B000042001210691FBF7EBFE0499795C9F4AE6
:1047C00012788A4200D14042814E7D21C900FBF718
:1047D000ADFD9B494118B06882009A4B9950401C2E
:1047E000B0603120794A105C012803D196A0FEF711
:1047F0009FFD764A0798105C072802D1FDF72CFB35
:1048000001E000F0A1FC00F02BF934226F4FB85CFE
:104810007169012802D0002900D0B2E0039234204F
:10482000059A3A54B768202F00DA9BE001917B1E6D
:10483000D80FC002834A1018990040580F90B80052
:104840001218101F0092083AB91E08973E461F3EE4
:104850000C960A910F9E0E960B9306E00838891E5F
:10486000083A9B1E0C9EB34220DDDE0FF6020D902F
:1048700087590F98B84200D83846CE0FF60296599D
:104880000F90B04207D90E98B84208D20E90B042AD
:104890000D98E3D308E00F960E98B842F6D3384649
:1048A0000E90B0420D98D9D30E96D7E70F980E9977
:1048B000401A3321454A50540898411E0D91C11E9B
:1048C0000991001F089002980E900F900B9F009A7C
:1048D0000A9E0C98FB0FDB02D3181B1F1B680F9955
:1048E0005918F30FDB02D318083B1B6859180F91B6
:1048F0000D9B0E995B189B1E834223DD0998C30F05
:10490000DB02D3180B970899CF0FFF02D7190C3B86
:104910001B680A960F9E9E19103F3B680B9F9B19C0
:104920000F930E9E361F0D9B0E969B190A9E361FE7
:10493000001F0990091F0891103A3F1F0C99084663
:104940008B42C7DC1E210F98FBF7F0FC074601984D
:10495000B84203D03E48394600F00CFD00201C4E02
:104960007761B0610027F761204629463A46FCF797
:104970002EF90698410320463A46FCF728F9134FD2
:10498000039A304607997E5C0078B04200D10FE769
:104990000F480670072E00D0B42204201146FBF702
:1049A00047FD072E00D0FFE62AA0FEE634100240A5
:1049B00018030020B00300206403002080BB000027
:1049C0000020004000780008BD3512BD9C02002088
:1049D00048020020FC03002000380140985F0008D6
:1049E0006476310A6170693370616E6462645F700D
:1049F000726573737572653A205553415254312074
:104A000052582061726D206661696C656400000017
:104A100062645F70726573737572653A2062645F79
:104A200070726573737572652D7272662D76322E93
:104A3000323220626175643A257500001703002048
:104A4000701700002805002025643B0A00000000C4
:104A50000D6100085041206D6F64650071610008B0
:104A6000F0B589B00620CD4F391832268A5D3B2A31
:104A700056D033228A5C3B2A54D034228A5C3B2AAB
:104A800052D035228A5C3B2A50D036228A5C3B2A9F
:104A90004ED037228A5C3B2A69D038228A5C3B2A76
:104AA00048D039228A5C3B2A46D03A228A5C3B2A8B
:104AB00044D03B228A5C3B2A42D03C228A5C3B2A7F
:104AC00040D03D228A5C3B2A3ED03E228A5C3B2A73
:104AD0003CD03F228A5C3B2A3AD040228A5C3B2A67
:104AE00038D041228A5C3B2A36D042228A5C3B2A5B
:104AF00034D043228A5C3B2A32D044228A5C3B2A4F
:104B000030D045228A5C3B2A2ED04622895C3B2944
:104B10002CD015304528A7D10024204609B0F0BD7F
:104B2000401F24E0001F22E0C01E20E0801E1EE087
:104B3000401E1CE0401C1AE0801C18E0C01C16E05F
:104B4000001D14E0401D12E0801D10E0C01D0EE0AD
:104B500008300CE009300AE00A3008E00B3006E0CB
:104B60000C3004E00D3002E00E3000E00F30C119CF
:104B700036228C5C782C00D1B7E003920494372263
:104B8000BD5C37373C79FA78BB787F78732D10D1CC
:104B9000632F0ED16F2B0CD1722A0AD1652C08D14C
:104BA0008D484078002829D08C494018401E007854
:104BB00025E0722D13D1642F11D1612B0FD1742AEE
:104BC0000DD1612C0BD18449C878012800D084E034
:104BD0000A79002A00D180E03131814880E0702DCF
:104BE0001AD1642F18D1612B16D1742A14D1612CDB
:104BF00012D179492C317A48052271E00020754F95
:104C0000049C06AE3070FFF79BF9754801220A2319
:104C10003146FDF7ABF868E00192049C443C282C37
:104C20006ED8A400029402A4029AA458A746C046D3
:104C3000D54C0008014D0008014D0008014D000849
:104C4000014D0008014D0008014D0008014D00080C
:104C5000234D0008014D0008014D0008014D0008DA
:104C6000014D0008014D0008014D0008014D0008EC
:104C7000014D0008014D0008014D0008014D0008DC
:104C8000014D0008014D0008014D0008014D0008CC
:104C9000014D0008014D0008014D0008014D0008BC
:104CA000014D0008014D0008014D0008014D0008AC
:104CB000194D00082F4D0008014D0008014D000856
:104CC000014D0008014D0008014D0008014D00088C
:104CD0004B4D00083120002120E04148D5490C22ED
:104CE0003223FDF743F8D44F049C37374021384630
:104CF000FBF717FA38480021C160204609B0F0BD23
:104D0000762D2AD1652F28D1722B26D106A9DE2037
:104D1000087033480122E3E731200121C64F39549E
:104D2000E2E70120C44F03997854CEA012E0D7489F
:104D300000F020FB30200221BF4F3954D448816855
:104D4000D4480122FFF75CF8CEE70020BA4F039960
:104D50007854BAA000F00EFBC6E76D2D049C14D168
:104D60006F2F12D1642B10D1019A652A0DD13020FA
:104D7000B14F385CC01F411E884106A90870CD485C
:104D800001223223FCF7F2FFAFE72246493A312AEB
:104D900000D99FE002A39A5C520097449C02002035
:104DA000239B9B9B9B339B9B2A9B9B9B9B9B9B9BA4
:104DB0009B9B9B9B9B9B9B9B9B46659B9B9B9B9BCE
:104DC0002D9B9B9B9B3B9B9B40897F9B9B269B9BFF
:104DD0009B2FC0469C02002048020020A80400200F
:104DE000FC0300203520012116E0D24800F0C2FA71
:104DF000FEE0914FB85D04E735200CE0A44841691E
:104E0000A5A0F3E0342001218B4F3954002000F09D
:104E100077FD6AE734200021874F395465E7864FD4
:104E2000B95DA5A000F0A6FA5FE73520095C30392E
:104E300003297CD8964C2162FEF7A8FF206A8000E7
:104E4000AE490958B54800F095FAC820FBF75EFC5A
:104E5000BFF34F8FB248B3490160BFF34F8F00BF1C
:104E600000BF00BF00BFFAE730200721724F39545E
:104E7000874800218160C1620171C17041702C308E
:104E800001710120C1028348FBF74BF9A74880213B
:104E9000FBF747F9A64800F06DFA26E78D48FEF7C4
:104EA000D7FE3020644D285C072845D08BA044E015
:104EB0009D4800F05FFA0A20FBF728FCBFF34F8FF4
:104EC000974898490160BFF34F8F00BF00BF00BFF4
:104ED00000BFFAE72246303AD3B2092B00D983E06B
:104EE000022800D286E03520085C622800D087E0E6
:104EF00004983038032800D997E0654C2062FEF70B
:104F000045FF206A80007D4909588E4800F032FA3A
:104F10001420FBF7FBFBBFF34F8F814881490160F1
:104F2000BFF34F8F00BF00BF00BF00BFFAE77A4852
:104F3000032200F01FFA5BE067A0FEF789FE6948D4
:104F4000FEF786FEA95D06AE05AF30463A46FEF78F
:104F50009BFE3046FEF77CFE6348FEF779FE352067
:104F6000285C002801D062A000E060A0FEF770FE7F
:104F70006048FEF76DFE6048FEF76AFE4448006A2E
:104F800080005E49095830463C463A46FEF77CFEB2
:104F90003046FEF75DFE5A48FEF75AFE0398285C3D
:104FA000584F594D0028384600D02846FEF750FE8D
:104FB0005648FEF74DFE31201F49085C002800D0FE
:104FC0002F463846FEF744FE5148FEF741FE304872
:104FD000416930462246FEF757FE3046FEF738FE5E
:104FE0004C48FEF735FE7EE65348214600F0C2F9F4
:104FF000114F7AE61048825510060FD101220BE0BE
:105000000D498A5501463139C9B20829F4D80A2117
:10501000414304984218103A07488255D1B2474894
:1050200000F0A8F9FEF7B2FE5DE64548032100F066
:10503000A1F958E6A85F00089C02002062645F7036
:10504000726573737572653A207472696767657209
:10505000206C6F6767696E672064697361626C6555
:105060006400000062645F70726573737572653A04
:105070002074726967676572206C6F6767696E6715
:1050800020656E61626C656400000000716100085B
:10509000480200202805002062645F707265737307
:1050A0007572653A20626173656C696E65203D209A
:1050B00025640000FC03002062645F7072657373F6
:1050C0007572653A207468726573686F6C64203D10
:1050D00020256400E35F000870610000656E647362
:1050E000746F700023600008386000086E6F000065
:1050F00079657300E3600008D15F0008985F0008DD
:105100000E6000087E610008EB6100084C6000083A
:10511000F85F0008B55F000886600008BC61000801
:105120000CED00E00400FA0582610008A8040020EC
:1051300052610008F76000086460000831610008EF
:10514000B660000899610008F0B58BB0834D6869BE
:10515000002815D00790A96801267702781E804C98
:105160000491814210DD0024AC60A8697D49FBF701
:10517000BEF87B48814200D0AAE00020A861A7E0E9
:10518000002420460BB0F0BDA8697649FBF7AFF8C4
:10519000A14200D09BE00020A861049C202C00DAF2
:1051A00096E005900396651EA80D02973840800092
:1051B0006D490818AA008358A000471820463C1FD4
:1051C0000197083F861E1F380A90184608952A4600
:1051D00006E0083CB61E083F921E0A998A4217DD77
:1051E000D10FC9026558AB4200D82B46F10FC90256
:1051F00079588B4205D80B46A84204D28842E8D39E
:1052000004E0A842FAD328468842E2D30846E0E701
:10521000191A332255488154C9B21429039E54D80F
:105220003222805C81424D4D049C4CD8A11E0991D4
:10523000611E0691E71E261F059B1846089A019DD0
:105240000A9CD10FC9026918091F09680818099931
:10525000C90FC90269180839096808180699C918D8
:10526000891EA1421BDDF90FC90269180892F20FCD
:10527000D202AA180C3909680818103A1168089A5D
:1052800008181B1F0699C91805910999091F09914A
:105290003F1F361F103D121F0599A142D1DC1E2170
:1052A000FBF744F8014607988842039E029F049C3E
:1052B0002A4D05D02E480C4600F05CF82146AC681B
:1052C0006961079159E7029F02E0244D029F049C07
:1052D000601E810D39400818810023484158A21EE4
:1052E000930D3B409A18920082585118E21E930D7C
:1052F0003B409A18920082585118221F930D3B4050
:105300009A18920080584018C117890F40188010D1
:105310000799401AC1174840401A3221134A525C7B
:10532000E969904202D30029344607D0520800248C
:10533000904200D925E7012900D022E7EC61052041
:105340000507310228462246FBF741FC7103284637
:105350002246FBF73CFC20460BB0F0BD4802002083
:10536000C3090000C4090000280500209C02002099
:105370000D61000883B0F0B594B0089019A80EC074
:1053800011AD4D202870FEF7DBFD3F4E01270A23AB
:105390000B93304629463A460797FCF7E7FC312441
:1053A0002C702046FEF7CCFD304629463A460B9F2E
:1053B0003B46FCF7DBFC2C702046FEF7C1FD304677
:1053C0002946079A3B46FCF7D1FC38202870FEF7A7
:1053D000B7FD304629462C46079F3A460B9D2B4683
:1053E000FCF7C4FC20200A902070FEF7A9FD30468F
:1053F00021463A462B46FCF7B9FC50202070FEF7B8
:105400009FFD304621463A462B46FCF7AFFC302044
:1054100020700C90FEF794FD304621463A462B460C
:10542000FCF7A4FC0A982070FEF78AFD304621465E
:105430003A462B46FCF79AFC53202070FEF780FD7D
:10544000304621463A462B46FCF790FC222020703D
:105450000290FEF775FD304621463A46089F2B46DE
:10546000FCF784FC19A8109011A8001F009011A847
:10547000001F019011A8001F03900DA8401C06906A
:105480000DA8401C05900CE0FC03002011AC252069
:105490002070FEF755FD01220A2330462146FCF715
:1054A00065FC387825280ED0002800D108E211AC20
:1054B0002070FEF745FD01220A2330462146FCF705
:1054C00055FC7F1CEDE778782E2823D1B87801466B
:1054D000303909295BD8F91C08780246303A092A84
:1054E00000D9D4E048780246303A092A00D9CDE004
:1054F00088780246303A092A00D9D8E00A1DC878CF
:10550000014630390A291146E6D3511E4F1C632843
:1055100005DCC0E0791C4F1C632800DCBBE075286B
:105520003AD06428BDD11098011D10910568002D56
:105530005ED400D1C0E00897002607990C462846A3
:105540000B9F3946FAF7D3FE4743E91B0C9A1143E8
:10555000F7B211AAD1550A2D00D2B2E00A21FAF70A
:10556000C6FE11A8C0190C9A114341706421284647
:10557000FAF7BDFEA11CB61C632D0546DED8641CDF
:10558000300600D0A1E00020DC4E089F6CE1B91C81
:105590004F1C63287FDDC2E71098011D109104683D
:1055A000002C5DD00897002701210A910D46204666
:1055B0000B9E3146FAF79BFE4643A11B0C9A114302
:1055C000FEB211AA91550A2C4FD30A21FAF78FFE89
:1055D00011A880190C9A1143417064212046FAF7F2
:1055E00086FEA91CBF1C632C0446DFD86D1C3DE061
:1055F000089711AF2D203870FEF7A2FC01240A2372
:105600003046394622460993FCF7B0FB6D4200262E
:10561000049421460C9F0A912846099C2146FAF7DA
:1056200066FE4443291B3943F4B211AA11550A2DD1
:1056300078D30A21FAF75BFE11A8001939434170AB
:1056400064212846FAF753FE0A9CA11CB61C632D60
:105650000546E0D8641C00273106394669D114E1BB
:105660000DA80C9901800846E4E00A9F0024390641
:105670002146A24E089F00D1D6E0EAB2511E03296E
:1056800029D200210320054041D1CCE0491C4F1C08
:10569000632800DD43E7252800D1F7E6632800D022
:1056A000FFE61098011D1091007811ACF0E6891CFE
:1056B0004F1C6328EFDD32E70DA80C9901700698A6
:1056C000D4E0079E300600D15DE7E1B2481E032812
:1056D00038D200204AE00A94FC2313400021039CA6
:1056E000A618F7780DA847544018A75CC770B7787C
:1056F000477076788670241F091D8B42F0D1521AAC
:105700007E4E089F0A9C0320054000D18BE011A823
:105710001018401E00780DAB58544B1C012D3ED183
:10572000194680E0049E0A9C00273106394600D1C4
:10573000ABE0E2B2511E03293DD200210320044018
:1057400054D1A1E0FC220A400020019B5D18EE78B4
:105750000DAF3E543E185F5CF770AF7877706D7890
:10576000B5701B1F001D8242F0D1091A634E089FBD
:105770000322144077D011AA8A18521E12780DAB5A
:105780001A54421C012C08D011ABCB189B1E1B785D
:105790000DADAB54821C022C5ED1104663E00A941E
:1057A00011A81018801E00780DACE0548B1C022D3F
:1057B00031D1194636E00A972746FC2313400021D1
:1057C000009CA518EE780DA846544018A65CC6703B
:1057D000AE7846706D788570241F091D8B42F0D11C
:1057E000521A3C460A9F032004404DD011A81018BD
:1057F000401E00780DAB58544B1C012C09D011A849
:105800001018801E007825460DACE0548B1C022D2C
:1058100033D1194638E011A81018C01E00780DAA1F
:10582000D054C91C0A9CC9B20DA844540078002861
:1058300000D136E6059D11AC2070C0B2FEF780FBAA
:1058400001220A2330462146FCF790FA691C287889
:1058500000280D46EFD124E611ABC918C91E0978FE
:105860000DAB9954C01CC0B20DA9081800210170DD
:105870000DA80078002811D113E611A81018C01E39
:1058800000780DAAD054C91CC9B20DA847541B4EAC
:10589000089F0DA80078002800D102E6069D11ACF3
:1058A0002070C0B2FEF74CFB01220A23304621468D
:1058B000FCF75CFA691C287800280D46EFD1F0E56A
:1058C00011AC02982070FEF73BFB0C4D01262846D8
:1058D000214632460B9F3B46FCF748FA2770384674
:1058E000FEF72EFB2846214632463B46FCF73EFAA1
:1058F00014B0F0BC01BC03B00047C046FC0300205C
:10590000F0B581B0044611480025C56105200607A1
:105910000127390230462A46FBF759F97903304608
:105920002A46FBF754F9002C0ED036200849085CB3
:10593000002809D005488068800006494018001FEB
:10594000016805A0FFF716FD01B0F0BD4802002078
:105950009C0200202805002062645F7072657373EA
:105960007572653A2070726F6265206F70656E2087
:1059700076616C3D256400000FB410B504A9074B97
:1059800002AA039800F01CF8044602A9002000F0C7
:10599000BFF8204610BC08BC04B01847115B0008D3
:1059A00002E008C8121F08C1002AFAD170477047E8
:1059B000002001E001C1121F002AFBD17047000046
:1059C000FFB58DB00446002506E025280AD0109AC0
:1059D0000F999047641C6D1C20780028F5D128464B
:1059E00011B0F0BD00270121484A009700E00743AD
:1059F000641C23780846203B98401042F7D1207859
:105A00002E2817D1042007436078641C2A280CD163
:105A10000E98641C02C800910E900BE000990A22B7
:105A2000514330394018641C0090207801463039C9
:105A30000929F3D920780028D1D0642808D0692812
:105A400006D075281ED0109A0F9990476D1C5BE008
:105A50000A200E99019001C90E91002802DA4042F5
:105A60002D2102E0390504D52B216A46117201214E
:105A700003E0F90704D02021F7E70BAE0B910DE00E
:105A80000021FAE70A200E99019001C90E91F7E76B
:105A90000199FAF72CFC3031761E31700028F7D1CD
:105AA00003A8801B20300190780701D5009801E001
:105AB000012000900199884201DD401A00E0002099
:105AC0000027009006E002A8109AC05D0F99904749
:105AD0006D1C7F1C0B988742F5DB04E0109A302088
