:020000040800F2
:1000000028150020D500000809300008F72800084E
:1000100000000000000000000000000000000000E0
:100020000000000000000000000000007731000820
:1000300000000000000000000B30000879310008CB
:10004000E700000800000000E7000008E7000008E3
:10005000E7000008E7000008E7000008B50E000808
:1000600000000000E7000008E7000008E7000008C3
:10007000E7000008E7000008E700000800000000B3
:10008000A1310008000000000000000091310008CC
:1000900000000000E7000008E7000008F928000859
:1000A00000000000E700000800000000E700000872
:1000B000E700000800000000000000000000000051
:1000C0000348854600F06AFB00480047E14200080B
:1000D000281500200448804704480047FEE7FEE753
:1000E000FEE7FEE7FEE7FEE781310008C1000008F9
:1000F00003460B439B0703D009E008C9121F08C041
:10010000042AFAD203E00B780370401C491C521EEB
:10011000F9D27047D2B201E00270401C491EFBD2F6
:1001200070470022F6E710B513460A460446194602
:10013000FFF7F0FF204610BDCAB2401E4178401CB8
:100140008A4202D00029F9D100207047421C017870
:10015000401C0029FBD1801A704730B504460020AE
:10016000034600E05B1C934203D2E05CCD5C401B85
:10017000F8D030BD70B5064606F012F904680546A1
:100180000A220021304600F0AFF92C6070BDF8B5AE
:1001900002464A40D40F42004B0052085B089A4284
:1001A00002D20246084611464A0023D0C30D4A0037
:1001B000DDB2120EAD1A202D35DA49020126490AA8
:1001C000F6058A19002C00D0524220214F1B1146FF
:1001D000B9402A411018C20D9A4221D0002C17D0E4
:1001E000012D08DCDA05801AD20F8019D207DBB2A4
:1001F00000F0BAF9F8BDDA05801A012340001B06A9
:10020000C01880185A428018CA0F1043490007E0EE
:100210004908C2071143DA05801A8019400880187E
:1002200000F09AF9F8BD61000122511A001BF7E7AE
:100230000122D2075140AAE70122D2075040A6E787
:10024000024670B54A40D30FDB0740002DD04A006C
:100250002AD0010E140E000212020919400A520A95
:100260008418E50104465443000A120A2E04504340
:10027000A4194219200CC543AA18120C0125AD037C
:10028000521C521912047F39240400D0521C10430E
:1002900001D44000491EC2B20C06C0092018401CFF
:1002A0004008802A02D003E0002070BD40084000D2
:1002B000002900DA0020184370BD0122D20700286F
:1002C00000DB101A002900DB511A814201D80120FD
:1002D0007047002070470122D207002800DB101A67
:1002E000002900DB511A814201D201207047002011
:1002F00070470122D207002800DB101A002900DB1A
:10030000511A814201D3012070470020704710B577
:1003100000229623114600F027F910BD410040024B
:100320000122400AD205090E80187F2901DA002037
:100330007047962903DC9622511AC84070479639B7
:1003400088407047C20FD207400040080BD0C10D53
:100350000723DB01C91840020905400A1143C208FE
:10036000400711437047002001467047CB0FDB0761
:10037000490010B5490802460A4307D00A0D072470
:100380000903E401090B121B002A01DC002010BD47
:10039000C900440F0C43C100E018D205801800F0DA
:1003A000DBF810BD70B50446002903D000202022E0
:1003B000012310E0002801D00020C043C046C04601
:1003C0000DE02546D5408D4205D30D469540641B72
:1003D0001D46954040191546521E002DF1DC214660
:1003E00070BD000070B5002504462E46002911D0CE
:1003F000002C01DA01254442002901DA0126494294
:100400002046FFF7CFFFB54200D04042002D00D07C
:10041000494270BD002C02DA0121C90702E0002C1C
:1004200000DD03490846C046C046214670BD0000B5
:10043000FFFFFF7F0FB400B589B00A460DA90091F8
:1004400000230C99002ACB60234B0693234B079380
:1004500001D0042300E00023214A0292214A08929D
:10046000019302466B46002000F06FFA09B008BC09
:1004700004B01847F0B585B007460020C04301908E
:100480001E46002015460C460091029104903B4602
:100490006A46314604A8FFF7CDFF0499024660186A
:1004A000002D05D0002901D0034600E023462B6033
:1004B00000290ED0002A02DD0099814209D0001BDC
:1004C000019000943B466A463146029404A8FFF727
:1004D000B1FF05B0F0BD0000A10B0008C10B000882
:1004E000FFFFFF7F19080008F7B5009C0F460026A4
:1004F0002578641C002D05D000F08AF90068405D65
:10050000C007F5D12B2D02D02D2D18D0641E3946F1
:100510002046029A00F066FB002F04D03968A14201
:1005200001D1009939607105022400290BDA40429B
:10053000002803DD05F034FF0460A007FEBD0120A4
:1005400080020643E3E70028F8DA05F029FF04609B
:100550000048FEBDFFFFFF7F002904DA401C490070
:1005600001D140084000704770B40024050C05D14B
:100570001024000402D1002921D01124050E01D13C
:1005800000020834050F01D10001241D850F01D19F
:100590008000A41C002801DB4000641C002908D056
:1005A00020252E1B0D46F540A14000D001212943F6
:1005B000084301061B1B000ADB1D02D5002070BC8E
:1005C0007047DB05181880180029F8DA401C49002C
:1005D000F5D170BC4008400070470000F0B51FB472
:1005E00088B00B990998002448400999C00F490028
:1005F00049080991C0070B990090490049080B91DF
:1006000009990898A64608431CD00B990A980843F4
:1006100018D0099801244000420D4800410D099866
:1006200024050003000B204309900B980003000BE6
:1006300020430B9050181C4940180022019014468A
:10064000104605E0002001460DB0F0BD032801DA98
:10065000034600E003239C46C11A0AAE0AE05F008D
:1006600008ADED5B4F00F75B7D430027AA187C4186
:10067000491C5B1E6145F2DD410004AB5A52210466
:10068000120C0A43240C401C0828DFDB019802905E
:100690000099704601910090059B049A079906986D
:1006A00000F000FBD0E700000DFCFFFFF0B50C46AA
:1006B0005C4085B0E40FE40703944C000026640816
:1006C00059009446490802460296224321D06246C8
:1006D0000A431ED06200570D4A000E032303550D36
:1006E000012402462C492405781B1B0B360B4018AD
:1006F00023432643614600901C46501AB44103D35D
:100700000098401C009002E0921800985B4100287D
:1007100003DA0020014605B0F0BD002001210905E3
:100720000746864611E064461D46141BB54106D3B4
:100730006546521BB341744607430C43A646CD079A
:1007400040084908284392185B4105460D43EAD109
:100750001046184313D06046194650407140084374
:1007600006D06046101AB34106D20122002306E0EB
:1007700000220123DB0702E00122D243531000983C
:1007800074460105381C6141029C039D00196941B2
:1007900000F07BFABFE70000FD0300001CB509482C
:1007A00000900948019005460126009C05E0E36899
:1007B00007CC33430C3C98471034AC42F7D3FFF7D7
:1007C00083FC00001C6D00083C6D000810B5202A59
:1007D00004DB0146203A9140002010BD91402023C7
:1007E0009C1A0346E3401943904010BD10B5202ADF
:1007F00004DB0846203AD040002110BD0B46D34010
:10080000D0402024A21A91400843194610BD000090
:1008100000487047006A000810B50446FFF7F8FF6B
:100820000068005DC007C00F10BD0000FFB508786C
:1008300089B01546FF2805D0491C2D2804D0002278
:10084000002407E000240BE00122F9E70A235C43BF
:100850000419491C0878FF28F8D1002A00D0644206
:10086000002004902A7801462D2A01D02B2A0FD18E
:100870006D1C2D2A02D00022049209E00122FBE720
:1008800000260A2233466D1C00F05EFA38187141CA
:100890002F78FF2FF4D10C9AA218069202460A4331
:1008A00004D0FF23069A9133DA4205DA0021099831
:1008B0000A4606C00DB0F0BD0024B74AB54D264625
:1008C000079200F069FA029006980391002801DA75
:1008D000474200E0074639050020AF4A001C51415D
:1008E0000191009012E0F80707D022462B463046CF
:1008F0000799FFF773FE0646079122462B461046DE
:100900001946FFF76BFE04460D467F10002FEAD113
:100910000698019B0028009A0399029806DAFFF7CF
:10092000C5FE3246079BFFF7C1FE05E0FFF756FE06
:100930003246079BFFF752FE049A002A02D001229A
:10094000D2075140099A03C2B4E7FFB591B0002025
:1009500009900025ED432E209E685C681F4601909B
:10096000B9696D1C129888470090396A8847002839
:10097000F6D10098401C0AD00D20C0018443002EFF
:1009800012DD00982B2809D02D280DD103E000207E
:10099000C04315B0F0BD012080020443B9696D1C4D
:1009A00012988847761E009003A9600501D52D2076
:1009B00000E02B206A461073491C0CA80F9102908E
:1009C0000AE0B9696D1C1298884700900120400226
:1009D00004431398761E0560002E02DD009830282F
:1009E000EFD001990098884245D18020044308E067
:1009F0000998401E09900120400204431399681C85
:100A00000860B9696D1C761E1298884700903028DE
:100A1000EED030E00199884205D1200603D4802031
:100A20000443761E1DE0009805F0DAFC002825D06E
:100A3000012149020C43009807AA0F99033230386C
:100A4000761E914208D208700F98401C0F90200625
:100A500007D50998401E03E0200602D40998401CDF
:100A60000990A00502D51399681C0860B9696D1C2E
:100A7000129888470090002ECCDC59E0002E57DDFC
:100A80000098652801D0452852D1A00550D50320F3
:100A900000028443B9696D1C761E12988847009045
:100AA000002E0CDD2B2804D02D2808D1FF2001308A
:100AB0000443B9696D1C12988847761E0090E005C2
:100AC00001D52D2100E02B21029801700298401CD5
:100AD0000290019025E00120400204430EA90298F3
:100AE0000131761E88420ED20098029930380006F5
:100AF000000E087003D10299019881420AD9029828
:100B0000401C029006E0E00501D5244801E023489E
:100B100040420990B9696D1C12988847009013985B
:100B20000560002E04DD009805F05AFC0028D2D1A3
:100B3000F969129888470F99FF200870029903AA53
:100B4000087000200A900B900CA90AA8099BFFF7D7
:100B50006DFEA00502D40120C0431AE72420044200
:100B600009D0E00713D138680B9A0A99031D3B603E
:100B7000006806C00BE00B990A98FFF7F7FB0146E7
:100B8000E00704D13868021D3A6000680160284619
:100B9000FFE60000000014400000F03FF1D8FFFF26
:100BA0004268002A08D001680B78491C002B03D04A
:100BB000521E06C0184670470121C160881E70474A
:100BC0004268002A0BD0C3680168002B07D18368F4
:100BD0008B4204D0491E521C06C0002070470020E2
:100BE000C0437047F7B582B0029C00272078641C90
:100BF00015460197302802D0002D15D015E0207839
:100C00000127641C782804D0582802D0002D09D070
:100C10000BE0002D01D0102D07D1002710252078E2
:100C2000641C02E0082500E00A250026009610E07A
:100C30000099012769430818020C294680B27143C4
:100C400000908E183804864201D30120019020784C
:100C5000641C294600F090F80028E9DA039800287F
:100C600005D0002F01D0641E00E0029C04600198B2
:100C7000002806D005F094FB02210160C81E05B0D3
:100C8000F0BD009930040843F9E710B5002B08DAED
:100C90000024401C614192185B411A4301D1400875
:100CA000400010BDF0B51FB482B005460C0003D063
:100CB000084605F05DFB02E005F05AFB20300246D5
:100CC000009021462846FFF781FD049B059A0446C3
:100CD0000F4618431143084314D0184610431BD045
:100CE000009840210A1A18460599FFF77FFD05462E
:100CF0000E46009A05990498FFF768FD084305D051
:100D0000012004E02046394607B0F0BD0020C1179D
:100D100005430E432C43374300990E986305401A50
:100D20007905E40A00220C43FD0A0A3002D50020AE
:100D30000146E9E70105101969410C9C0D9D001958
:100D40006941FFF7A2FFDFE730B5434351435C1829
:100D5000010C130C0D465D432C1980B292B205466E
:100D6000554351430A0C09044D1962415843010C83
:100D700000044019514130BD3A2800D230382023B8
:100D800002469A43412A01D310463738884201D39C
:100D90000020C043704700000EB5054A02920022B1
:100DA000009213460192FFF77DFF03B000BD0000E3
:100DB00033040000F0B583B00291019005200407D0
:100DC0001025012620462946324600F0C0FC20218D
:100DD0002046324600F0BBFC04212046324600F09B
:100DE000B6FC0027204629463A4600F0B0FC032016
:100DF00002F07CFD20462946324600F0A8FC01980E
:100E0000029900F00FF8204629463A4600F09FFC70
:100E1000082002F06BFD20462946324600F097FC80
:100E200003B0F0BDF0B581B0042803D81EA2105C59
:100E30001F4A10701E4F0026FE701024BC7079707F
:100E40000520050728462146324600F080FC432055
:100E500002F04CFD387802F049FD787802F046FD4A
:100E6000B87802F043FDF87802F040FD01272846EB
:100E700021463A4600F06BFC28462146324600F0F7
:100E800066FC232002F032FD02F0C0F802F0BEF84A
:100E900002F0BCF802F0BAF8284621463A4600F0C3
:100EA00056FC01B0F0BDC0468191A1B10E0000001A
:100EB0000403002080B50120000300F061FB80BD29
:100EC00072B6FEE770B5044600F04AFC0619104DF4
:100ED0002868C00305D500F043FCB042F8D30320D6
:100EE00070BD29680B480840286003D085494860D8
:100EF000012070BD00F034FC04192868400304D5BB
:100F000000F02EFCA042F8D3E9E7002070BDC046F7
:100F100010200240FAC30000F0B583B00291052012
:100F200004070821204600F00DFC0028F9D1102507
:100F300000222046294600F00AFC284602F0D6FC92
:100F400002F064F8064602F061F8019002F05EF8E3
:100F5000074601222046294600F0F9FB76B20298A6
:100F600000280DD1102500222046294600F0EFFB75
:100F7000022002F0BBFC01222046294600F0E7FBDC
:100F8000F0B2C109064A117001990902C919000499
:100F90000818002E02D503498143481C03B0F0BD58
:100FA00008030020FFFF7F0070B524210124445472
:100FB000014624314A78022A2BD103681A680E248C
:100FC000A2431A601C68012294431C60446C25688B
:100FD000124B1D402560046C1C2525401446AC4076
:100FE0000F4D2E6826432E60846CC56C6560046DC1
:100FF000002C05D025681D402560436D846D5C6024
:1010000000240C704A70816B002900D0884720466C
:1010100070BD0421C163204670BDC046FFFEFFFFC6
:10102000040002402521405C70470000B0B5044632
:1010300000F096FB0546601C02D004480078241896
:1010400000F08EFB401BA042FAD3B0BD3C00002054
:10105000F0B583B00446B34F3878012802D102209E
:1010600003B0F0BD019100267E60012038707D2024
:10107000C5002846FFF726FF002802D03E7003B0C7
:10108000F0BD2068BA4B04280AD11F48801C19689B
:10109000014319602846FFF715FF3E7003B0F0BD0D
:1010A000F1430198016031466668A0688019864264
:1010B000009108461DD20295F700186813490840B0
:1010C0003843114908431D4618600298FFF7FAFE9D
:1010D00000280AD16068A16808180837761C864283
:1010E0002B46EAD300988F4F03E001990E608D4F95
:1010F0002B461968022291431960009E3E7003B08E
:10110000F0BDC046440400200200010085FFFEFF40
:10111000F0B582B0072101604168012901D0102299
:1011200000E00C22804953581F241C408460525810
:10113000D202D20EC2600A6800920D6801220192AA
:10114000D6064B685B029BB29B1903621A4B5F1C6D
:101150008A681740C4691C40E319C361520292B205
:10116000164C121942624A69520292B29219826274
:101170008A69520292B21219C2626C4A42611540E7
:101180008561009AD4B2AA2C03D12546CC2C03D079
:1011900003E0BB25CC2C00D1254605610322134377
:1011A000C361019A1204096E0A403F230B40026397
:1011B000436302B0F0BDC046FFFFFF7FFF010008A0
:1011C000F0B585B0D44D2978012902D1022005B0AF
:1011D000F0BD00266E600121049129700168CA07E4
:1011E000514F0BD04168012901D0102100E00C21A2
:1011F0008268C3681B0413437B50016806220A40BF
:10120000062A0BD1044610341CCC1443FF2293430E
:10121000D2435A403B681340234329E08A070DD448
:101220004A0726D54269FF239A43DB4353403C6873
:101230003A68E4B2AA2C0FD1039411E03A68039201
:101240003C68FF239C433246384E039B1E40036993
:101250003343164623430BE00292BB220392029AC9
:101260001A40CC2C00D103948369039C234313437D
:101270003B600A072ED5C269049BDB075C1C224237
:101280001CD00396BE68D40701D1344612E0056A2B
:10129000446A02941F24E40601942D196D0A7D60AE
:1012A0007F25AE4300969C4D029C019EA419640AC2
:1012B000009E344313402343BB60039E920709D52D
:1012C0001F22D206836A9B185B0A7B61C36A9A1845
:1012D000520ABA61C90607D5396E154A0A40016B30
:1012E000406B0843104338667D20C4002046FFF75A
:1012F000E9FD002802D02E7005B0F0BD03962E4601
:10130000049845040C3F3868284338602046FFF7AE
:10131000D9FD3968A9433546039E39602E7005B062
:10132000F0BDC046440400202020024000FF4F3F93
:10133000C0FFFEFF0120C0070D490A6802430A6092
:101340000868C043C00F70470120C106084A1368EF
:101350000B4313607047C0460120800704490A68A8
:1013600002430A6009680140484248417047C0464C
:101370001420024006488168490001D401207047CA
:10138000044901600449016080684000C00F704753
:101390000C2002403B2A19087F6E5D4CF0B589B0E5
:1013A0005D4D2C78012C03D10222104609B0F0BD0E
:1013B0000193029207910390002006906860012635
:1013C0002E707D20C40000F0CBF90494041905961A
:1013D0003604524F3868304205D000F0C1F9A042BF
:1013E000F8D3032293E038684D490840386002D0B2
:1013F0006860059A8BE000F0B3F904994418012065
:1014000005908004089038680899084204D000F0DC
:10141000A7F9A042F7D3E4E7039801280BD1786835
:10142000012101437960079902980860BFF36F8F2B
:101430000198486044E07868089908437860EFF3C1
:101440001080019072B6069A114602984458079B84
:101450005C505D18441863686B60A368AB60E36818
:10146000EB6023692B6163696B61A369AB61E3691D
:10147000EB61236A2B62636A6B62A36AAB62E36A05
:10148000EB62236B2B63636B6B63A36BAB63E36BED
:10149000EB630F231343403110323F2BD6D308E0C8
:1014A0003868304208D03868304205D03868304259
:1014B00002D038683042F3D1019880F31088164D7D
:1014C00000F04EF9049944183868304205D000F015
:1014D00047F9A042F8D3032215E0386810490840C4
:1014E000386002D06860059A0DE000F039F904997F
:1014F000441838680899084204D000F031F9A04235
:10150000F7D3E8E700227968039881437960069869
:101510002870104609B0F0BD44040020102002409D
:10152000FAC300000648C168002901D400207047B2
:101530000449016004490160C068C00F7047C0469B
:101540000820024023016745AB89EFCD80B501211A
:10155000090388420ED10520000700F0F3F80028A7
:1015600008D105480178092904D1002101700348F8
:1015700000F092FF80BDC04648000020F803002024
:10158000B0B50446074D2868204203D02C602046A1
:1015900000F00AF86868204203D06C602046FFF72C
:1015A000D5FFB0BD0C18024070470000F0B58AB0FE
:1015B0000B68002B00D1B9E05D4A904201D00622B1
:1015C00000E005220092024620320192002709978E
:1015D000089707970690049112E02A435548426005
:1015E0007F1C0B681846F840079A08320792099A40
:1015F000921C0992089A121D0892002800D195E0C9
:1016000001240594BC4023400393E9D04D68102089
:101610002843122813D11C20089908400F26314670
:101620008140FA0892000292019DAB588B43049AC4
:1016300011693140814019430298295055680323AC
:101640002A461A40099882400293834006990E6800
:101650009E43164306990E60069ED843122D0499A8
:1016600016D8059AAA40354B1A420FD0B2680240EC
:10167000CB68014609988340084604991343B36038
:101680002A09BA407368A34313437360032DA7D09C
:10169000F26802408B68099883401343F360EA00C4
:1016A0009ED53A460298824322488018046E05224D
:1016B000120796420CD0E34A964206D0204A964240
:1016C000009E039D06D1022604E0039D059E01E0D5
:1016D0000026039D1822079B1A400F2393409C432A
:1016E0006030964026430660134C23684868C20366
:1016F00006D52B4323606368820306D4AB4305E021
:10170000AB43236063688203F8D52B436360094AC7
:101710001368C20201D52B4300E0AB43054A1360B6
:101720005268800200D558E7AA4357E70AB0F0BDD7
:101730000014005000180240801802400600060005
:101740000008005000690840411E88417047002A87
:1017500002D0182281507047282281507047000023
:10176000014800687047C04620110020B0B502460D
:10177000034640335C780220202C17D11C78012CC2
:1017800014D024205870106802680124A24302601B
:10179000220305689543056002680A4302600168F8
:1017A000214301600020187020215970B0BDB0B5F0
:1017B0000246034640335C780220202C17D11C7867
:1017C000012C14D024205870106802680124A24310
:1017D00002600F2212020568954309022943016045
:1017E0000168214301600020187020215970B0BDAC
:1017F0007047000080B50268AA4B9A4200D080BDB5
:10180000002908D0A849CA78096A89180122130654
:1018100000F0C6F980BDA4498A78002AEFD1C91C1E
:101820000122130600F042F980BDC046F0B581B038
:101830000122150201688B691C462C4066426641F4
:101840000F6880243C4067426741374304D1466CAF
:10185000012737434764CD61654265415E05164601
:1018600000D52E46002E05D19502466C0827374339
:101870004764CD61654265419B05134609D4002B41
:101880000AD0416C0B22114201D001F0B5F801B031
:10189000F0BD2B46002BF4D15202436C02241C43B2
:1018A0004464CA61416C0B221142EED1EFE780B56E
:1018B00002689169436B1268002B00D0984780BD85
:1018C0004121415C20290CD10146413128220A7076
:1018D000F049416300680168B8220A4302600020B1
:1018E000704702207047C04670470000F0B581B0D5
:1018F000002822D0054640356978002905D100210D
:101900002970044600F056F82046242169700168C9
:101910000B68012293430B600F231B0644689C4312
:101920000C618C68D94B1C408C608468C668012EA1
:1019300006D1D60334438C600CE0012001B0F0BD29
:101940002127BF023C438C60022E03D1D4024E6893
:10195000264302E0D4024E68A6434E604C680E4E09
:1019600026434E60CC681C40CC60036944691C432C
:1019700083691B022343CB60C369046A1C430C6068
:101980000B6813430B600021416420226A700163DD
:101990000846A97001B0F0BD0080000280B5016862
:1019A000404A914200D080BD3F4900224A80FFF763
:1019B00087FF80BDB0B58EB000240D940C940B94BD
:1019C0000A94099408940794069405940494039443
:1019D00000683449884201D00EB0B0BD402002906A
:1019E00002A800F0CFF9002801D0FFF769FA144DE2
:1019F00028680221084328602868084001900620D2
:101A00000D900C940B9412200A90C020099001981C
:101A10000C4809A9FFF7CAFD01204005A968014348
:101A2000A960A9680140019101981725284621461F
:101A3000224600F08BF9284600F07CF90EB0B0BDCC
:101A4000341002400004005080B50168154A9142EC
:101A500000D080BD14498A78002A03D0CA78521C6D
:101A6000CA7002E001228A70CA78D2B2096A891863
:101A70000122130600F01AF880BDC04680B5016847
:101A8000084A914200D080BD0749CA78521CCA70EA
:101A9000096AD2B2891801221306362200F080F8B2
:101AA00080BDC0460054004050020020F0B587B011
:101AB0000693054640356C7828273C40282C11D1E8
:101AC000002913D0002A11D06C7803681E68FC240A
:101AD0000594A6431E602E78012E0DD102242046C7
:101AE00007B0F0BD0124204607B0F0BD012461021B
:101AF0004164204607B0F0BD012404942C706E7838
:101B0000292E28D16E783E40F227FF43282E00D19F
:101B1000B0371E683E401E601E6876041BD5049CCC
:101B2000A6031F68B7431F60846B002C13D0584E68
:101B3000A6630390204601910292FFF735FA029ABC
:101B4000019904460398002C05D0806B816B88476F
:101B5000029A019903982A246C702024AC70002406
:101B60004464049BDB0307687E689E437E60428575
:101B7000428D069BC3624162464941630285B86952
:101B8000B969C90303D40821084000D0F9612C7059
:101B90003868059908433860204607B0F0BDC04654
:101BA000F0B585B00493054640356C7828273C4055
:101BB000282C11D1002913D0002A11D06C78036889
:101BC0001E68FA240394A6431E602E78012E0DD1C0
:101BD0000224204605B0F0BD0124204605B0F0BD2A
:101BE000012461024164204605B0F0BD01262E703B
:101BF0006E782A2E27D16E783E40F427FF43282E98
:101C000000D1B0371E683E401E601E6836041AD5EB
:101C10001E681E4C26401E60C46B002C13D01C4E48
:101C2000A6630290204600910192FFF7BDF9019A48
:101C3000009904460298002C05D0C06B816B884740
:101C4000019A0099029829246C702024AC70002419
:101C5000446407687E680D4B1E407E604285428D5D
:101C6000049BC36241620B4941630285B869B9694B
:101C7000C90303D50821084000D0F9612C703868E9
:101C8000039908433860204605B0F0BDFF7FFFFF91
:101C90001D290008D12D00081A48007802490A6859
:101CA000101808607047C0462011002080B503203E
:101CB00000F008F8002801D0012080BD00F024F8D1
:101CC000002080BD70B50F4E31780124002916D058
:101CD00005467D20C000FEF765FB0146E14800682F
:101CE000FEF760FB00F0ECFA032D08D8002806D1BF
:101CF0000024E0432946224600F028F8756020467B
:101D000070BDC0463C00002082B0094841680122F5
:101D10001143416041681140019101991107026826
:101D20000A430260006808400090009802B07047C3
:101D30003C100240002805D41F21084001218140A9
:101D4000014801607047C04600E100E0002805D46A
:101D50000322034693430A4A9A1803E00C220240E6
:101D6000064BD2188007C00E8901C9B28140FF23FB
:101D700083401068984308431060704714ED00E0FA
:101D800000E400E0F0B585B0044601688803464EE3
:101D900003D40020CA0739D140E0012001073746AB
:101DA000203F3A6803910A40029207D13968039AAA
:101DB000114339603968114004910499032101915C
:101DC0000A023168114010D0A26991420DD03168E9
:101DD000000432680243326032688243326008464F
:101DE000324A10403060C8074CD130682F49084053
:101DF000A1690143316000200299002903D13968AB
:101E0000039A914339602168CA0707D03246083ADD
:101E100013680325AB43A5681D4315604A0607D424
:101E20004A0410D40A0519D4002922D405B0F0BD03
:101E3000032212033346083B1D689543E2682A4398
:101E40001A604A04EED5032292073346083B1D6808
:101E5000954362692A431A600A05E5D50322920375
:101E60003346083B1D68954322692A431A600029BE
:101E7000DCD55C3E3168E022914362680A433260FF
:101E800005B0F0BDFFF76CFC054630688007ACD4A8
:101E9000FFF766FC401B6F498842F6D9019802990A
:101EA0000029ACD0AFE7C0465C100240FFFCFFFF4A
:101EB000F0B583B00D4601460120002963D00291A0
:101EC00001906348006807273840854215D960496A
:101ED0000868B84328430860F84CFFF741FC064601
:101EE0005B4800683840A84207D0FFF739FC801BE8
:101EF000A042F5D9032003B0F0BD029B186881070A
:101F0000554C10D5410707D57B21090222688A4329
:101F10000B210902511821600F21090222688A430E
:101F2000D96811432160C0071AD149480068384078
:101F300085422AD246490868B84328430860DF4CE6
:101F4000FFF70EFC0646424800683840A8421CD005
:101F5000FFF706FC801BA042F5D9032003B0F0BDBB
:101F60002246083A10681C21884399680143116091
:101F70005968002932D0032901982BD0012932D188
:101F80001268920332D403B0F0BD029B1878400768
:101F9000314A05D538031168814318690843106038
:101FA00010688006400F06D01168382001400829CB
:101FB00009D12A483AE01046083800688004410FE9
:101FC000BB48C84032E011680140202926D10120D9
:101FD000C0032BE0A26D9207D5D507E0106840053D
:101FE0000198D0D502E0626D9207CCD52068B84345
:101FF00008432060FFF7B4FB064620683821014003
:1020000002984068C00081428FD0FFF7A9FB801B77
:10201000AA498842F1D9032003B0F0BD11680140FC
:10202000182901D0002001E07D20000211688909F3
:102030003C220A400A4989581F220A40D0409D4943
:1020400008609D480068FFF73DFE03B0F0BDC04644
:1020500000200240881300000810024000127A009D
:10206000046A000844000020F0B581B00446012055
:10207000002C00D118E100902078C0078B4E07D0CB
:10208000B068382202406168082A3BD1002972D02A
:102090002078800713D42078000709D5B06838224B
:1020A0000240A169182A69D10029009800D1FBE0FB
:1020B00020780025400736D4284601B0F0BDE268FC
:1020C000B0688006400F38D0306801218F02002AA6
:1020D00074D00722D2029043226902433260080280
:1020E000316801433160FFF73BFB054630683842F9
:1020F00000D08BE0FFF734FB401B0228F6D9032009
:1021000001B0F0BD306801235F041A04914207D08A
:1021100005252D04A94262D1990408433060306836
:102120001043306063E0B06838220240A168202A82
:1021300037D14842484101B0F0BD002A1BD07F2072
:1021400000027168814360690002084370600720E3
:10215000C0023168814320690843306030688004E0
:10216000400F5349C1405348016053480068FFF78E
:10217000A9FD00288FD0009801B0F0BD306E002975
:102180004DD0012108433066FFF7EAFA0546306E6C
:1021900080078DD4FFF7E4FA411B03200229F6D90A
:1021A00082E0F06D012905D0052949D104210843B9
:1021B000F065F06D01210143F1654AE009028843B1
:1021C0003060FFF7CDFA05463068384200D162E74B
:1021D000FFF7C6FA411B03200229F5D964E09043BA
:1021E00030609804326882433260002940D0FFF7A3
:1021F000B7FA05463068384200D049E7FFF7B0FA31
:10220000401B6428F6D9032001B0F0BD7F200002F6
:102210007168814360690002084370603BE70121F7
:1022200088433066FFF79CFA0546306E800700D47D
:102230003EE7FFF795FA411B03200229F5D933E069
:1022400001229043F065F06D04229043F06500296F
:102250001CD01A4FFFF784FA0446F06D800700D5B2
:102260002AE7FFF77DFA011B0320B942F5D91BE0ED
:10227000FFF776FA05463068384200D108E7FFF7E5
:102280006FFA411B03206429F5D90DE00B4FFFF7CE
:1022900067FA0446F06D800700D40DE7FFF760FA97
:1022A000011B0320B942F5D901B0F0BD0010024076
:1022B000006CDC0244000020400000208813000075
:1022C000401E010E01D0012070470749074A5060A7
:1022D000074803680B400321890759180160002053
:1022E0009060072111607047FFFFFF0010E000E0E1
:1022F00020ED00E0704770477047000070B53C2249
:10230000825C012A01D1022070BD02463C320223C8
:102310005370006845688368714CA04201D02E4616
:1023200004E00F263605B5434E682E437025AE43B4
:102330000D6835434560A04202D06A4CA04204D1EA
:102340008024A34389681943816000201070012113
:10235000517070BDB0B5002824D005463C35697871
:10236000002905D100212970044600F057F82046C5
:102370000221697001680C68594A914202D0594B98
:10238000994211D170239C4383682343204CA1427E
:102390000EDD914212D01F4CA1420FD01E4CA14223
:1023A0000CD033E00120B0BD2346194CA142F0DC33
:1023B0004C4CA14202D0364CA14227D10324240226
:1023C000A34304691C4380239C43836923430B601C
:1023D000C368CB6243688B62914205D00D4A91423B
:1023E00002D00D4A914201D1406908630120486141
:1023F0002873A870E87028716871A871E871287254
:102400006872A872E87268700020B0BD1C46DAE7F6
:10241000FF2B0140004801400044014010B584B04A
:102420000068304988421DD0194988420ED02C4995
:1024300088422AD10120C00216490A6802430A6074
:10244000096801400391039804B010BD0120C00346
:1024500010490A6802430A60096801400191019825
:1024600013240AE00B48001F016802221143016097
:1024700000681040029002981024002120460A466D
:10248000FFF764FC2046FFF755FC04B010BDC046C2
:10249000002000404010024010B53D21415C012960
:1024A0001CD101463D3102220A700168C868012230
:1024B0001043C8600A48814202D00A48814208D1CC
:1024C0008868094B03400020062B06D01404A34261
:1024D00003D0086810430860002010BD012010BD23
:1024E000002C0140000400400700010010B5026804
:1024F000D36801218B43D360136A094C234203D074
:102500003D228154002010BD136A064C2342F7D1AE
:1025100013688B4313603D228154002010BDC046D8
:102520001111000044040000F0B53C22825C012A35
:1025300001D10220F0BD02463C32022353700468F0
:10254000A0684E4B0340A3600D6800234F2D1EDC96
:102550001F2D37DD202D39D0302D37D0402D00D024
:1025600087E0206A256A0126B5432562A569F02621
:10257000B543CE6836012E43A6610A25A8434968B3
:1025800001432162A0683E49014047316BE06F2D55
:1025900028DD01204603B54256D000038542184687
:1025A0001CD0702D65D1FF200002A56885434868C6
:1025B0008E68C9680643080230432843A060A068BB
:1025C00077214FE0002D01D0102D52D1A0682C4969
:1025D00001400D4307202843A060184613700121D5
:1025E0005170F0BD502D19D0602D42D1206A256A5E
:1025F0001026B54325620F252D03A669AE43CD688D
:102600002D033543A561A025A8434968090101436D
:102610002162A0681A490140673124E0206A256AD6
:102620000126B5432562A569F026B543CE6836017B
:102630002E43A6610A25A843496801432162A06888
:102640000F49014057310EE0FF252D02A668AE4329
:102650004D688F68C9682F43090239433143A1602F
:102660008003A1680143A1601846137001215170D5
:10267000F0BD0120137001215170F0BD8800CEFF24
:1026800088FFCFFF70470000F0B583B004460068B4
:10269000C5680227294639404A424A4101690291E8
:1026A00039404B424B41134313D16B49FE31016119
:1026B000012121778069800703D02046FFF7E2FFE0
:1026C00005E0204600F0CAF8204600F0C8F80020D7
:1026D00020770126042229461140484248410299A8
:1026E0004907314600D50146032000020190002928
:1026F00016D1009220685849FC3101612777806922
:102700000199084203D02046FFF7BCFF05E02046B0
:1027100000F0A4F8204600F0A2F800202077009AEC
:10272000082729463940484248410299090731465D
:1027300000D50146002913D120684749F8310161CD
:102740002277C069800703D02046FFF79BFF05E092
:10275000204600F083F8204600F081F80020207722
:1027600010212940484248410299C906314600D506
:102770000146002914D120683749F03101612777DB
:10278000C0690199084203D02046FFF77BFF05E0AE
:10279000204600F063F8204600F061F80020207722
:1027A00001212940484248410299C907314600D0D9
:1027B0000146002906D120682749FF3101612046E2
:1027C00000F04EF880272F407842784102990906A0
:1027D000314600D50146002906D120681E498031C6
:1027E00001612046FFF787FD784278410299C905CB
:1027F000314600D50146002905D1206816490161FE
:102800002046FFF777FD4021294048424841029980
:102810004906314600D50146002906D120680E49F7
:10282000C0310161204600F065F820200540684273
:1028300068410299890603D4002E04D003B0F0BD8C
:102840000646002EFAD120680349E0310161204696
:10285000FFF752FD03B0F0BDFFFEFFFF704770476A
:1028600070B51D49096802688A4229D11B4E31782A
:10287000491C3170C9B209290FD11748FFF736FE3C
:102880001A480168164A1278194B5A54491C0160BB
:1028900020291AD30021016070BD044605200007DD
:1028A00001252903FEF74EFF3178491E8D400C4962
:1028B0000A78002801D02A4300E0AA4320460A7083
:1028C000084909680068884200D070BD0648016860
:1028D000491C016070BDC046F8030020480000207C
:1028E000DC0C0020AC030020680200205C02002009
:1028F000E00C00207047FEE780B50748006880695B
:102900004005400F03D00448FEF790FF80BD024809
:10291000FEF7CDFF80BDC0460C03002080B5806A65
:10292000816B002901D000228A6301464031C26BCD
:10293000002A01D0002393634A78602A07D120221D
:102940004A7000220A700263FEF752FF80BD002227
:102950000A700263FEF7C8FF80BD0000F0B581B0C9
:1029600006464036717828220A400568282A1DD17B
:10297000A969AC69AB68EA680092FE22240CC9031D
:10298000C90FC768022F17D1DF0967407C07A40F62
:102990001ED0009B1340002232702A68B824A24344
:1029A0002A601A46FEF726FF01B0F0BD0020307005
:1029B0000820E86101B0F0BD002333702B68B82611
:1029C000B3432B6014402246FEF714FF01B0F0BD64
:1029D000826C521C8264826C022AEBD1054C1A462E
:1029E00022400023836433700823EB61FEF702FF6B
:1029F00001B0F0BDFF03000070B504460546403548
:102A00006A780020A870D24BE3626085636C0B4348
:102A100063646978283A022A16D86B782820034024
:102A2000F622D6433246B032282B134600D0334626
:102A30000140282900D0324621680E6816401E4009
:102A40000E606870404829E0697821680A68FE23B2
:102A50009A430A608A69920706D48A69D20707D026
:102A60006A78602A0BD119E088628A69D207F7D1A7
:102A70008A69012313438B616A78602A0ED0202271
:102A80006A708B699B0609D58B69DB0605D5102317
:102A9000CB61636C04261E436664CA616063A06BED
:102AA000226B00281CD0212A01D0112A18D10A68D3
:102AB000520404D5012292030B6893430B60FEF786
:102AC000B1FA01281FD000202870A06B1F49816334
:102AD000FEF76AFA002828D0A06B816B884770BD8A
:102AE000E06B00280FD0222A01D0122A0BD10A68ED
:102AF000120404D50122D2030B6893430B60FEF746
:102B000091FA012812D16878602808D120206870D5
:102B10000020287020632046FEF76AFE70BD00206A
:102B2000287020632046FEF7DFFE70BD002028706D
:102B3000E06B06498163FEF737FA0028F5D0E06BB9
:102B4000816B884770BDC046D12D00081D29000843
:102B5000F0B585B0049103681E68054640356A7873
:102B600020210391D961F7211140FE240294E4430E
:102B7000212904D0222904D1A21C222106E0221DF1
:102B800004E0282A07D16978002122466F781F685F
:102B900017401F60016301940121CA035F68174356
:102BA0005F605F68694C3C405C609C69A4070ED420
:102BB0009C69E40710D08903740413D416421AD018
:102BC0001C6894431C60C66B002E11D113E00024D6
:102BD0009C629C69E407EED19C690C439C6189036B
:102BE0007404EBD51C688C431C60866B002E02D0ED
:102BF000346864684485049C64070FD5446A5B6A42
:102C00002370436A5B1C4362038D00240494002BF1
:102C100004D05B1E0385438D5B1E4385438D002BD3
:102C200003D0436C04241C4344640026AE70466306
:102C3000436C002B32D0416C0746FFF7DDFE68780D
:102C4000282846D1ED49F9623E63039969707E6395
:102C5000AE700499490712D5796A3A68526A0A70C7
:102C6000796A491C7962398D002908D07A8D521E03
:102C70007A85491E3985796C04220A437A64697819
:102C8000697839680A68029B9A430A602E7010229C
:102C9000CA613846FEF782FE05B0F0BDC36AD74F61
:102CA000BB420AD16978039A6A702E7006632229A2
:102CB0000DD1FEF7C9FE05B0F0BD03681C68AE700B
:102CC0000C4208D11442019C0AD0CE4905E0FEF71F
:102CD000D5FE05B0F0BDCA49019C1A680A401A60C9
:102CE000697829290AD128216970212202632E706E
:102CF0006A780A40282A0FD00C340EE069782A2915
:102D00001AD128216970222202632E706A780A4043
:102D1000282A09D00A3408E0BC3419682140196017
:102D20000446FEF7ABFE06E0BA341968214019608C
:102D30000446FEF789FE2046C762039969702E702B
:102D40000663FEF72BFE05B0F0BDC04600E800FEAE
:102D50000000FFFFB0B501680C6802464032002356
:102D60009370650403D4240405D5A64C00E0A44C5C
:102D70000D6825400D605478292C0CD128245470FE
:102D800021250563137053782340F422D243282B66
:102D900016D0921C15E054782A2C10D12824547097
:102DA00022250563137053782340F422D243282B45
:102DB00000D1B0320B6813400B60FEF745FEB0BD8A
:102DC000B2320B6813400B60FEF758FEB0BDC04630
:102DD000F0B583B04023C35CC66A012B02D1022048
:102DE00003B0F0BD0546403501272F700A40930619
:102DF0000DD50446029601950D463E461746FFF74F
:102E0000A7FE3A4637462946019D029E2046D30634
:102E10001BD451072ED4110700D580E0910700D4B0
:102E2000E5E0418D002900D1B9E00168426A1378DC
:102E30008B62511C4162018D491E0185418D491EE5
:102E400041850020287003B0F0BD428D002A33D0A8
:102E500001681022CA61416C04220A434264664937
:102E60000E4200D0C3E0416CFFF7C6FD0020287081
:102E700003B0F0BD418D00290CD0416A0268526A4E
:102E80000A70416A491C4162018D491E0185418DCC
:102E9000491E4185418D002900D0A8E057498E4246
:102EA00000D1A4E001680B680022AA705C0458D429
:102EB0001B045AD5534B55E06B78504A282B34D11C
:102EC0007B069E4231D1C2620022026320236B70D6
:102ED0004263AA70490712D5416A03685B6A0B70A6
:102EE000416A491C4162018D002908D0438D5B1E57
:102EF0004385491E0185416C04230B434364697873
:102F0000697801680B68FE24A3430B602A701022C5
:102F1000CA61FEF743FD0020287003B0F0BDFFF743
:102F20001DFD0020287003B0F0BD6B7801681024EF
:102F3000CC61292B5BD1964259D08A69920701D581
:102F400000228A628A69D20702D18A693A438A6179
:102F50000B680022AA705C042AD41B042CD5294BD0
:102F600027E0274B0C681C400C606B78292B26D17E
:102F700028236B70212404632A706C781C40F4228F
:102F8000D243282C01D0921C00E0B2320B681340CF
:102F90000B60FEF773FD0020287003B0F0BD1649EA
:102FA0000E4224D1FFF7D6FE0020287003B0F0BDFA
:102FB000134B0C681C400C606B78292BD8D06B78B5
:102FC0002A2B14D128236B70222404632A706C7876
:102FD0001C40F422D243282C00D1B0320B6813409D
:102FE0000B60FEF731FD0020287003B0F0BD00201B
:102FF000287003B0F0BDC046FFFFFFFE0000FFFFDA
:10300000FFBFFFFFFF7FFFFFFEE77047F0B589B00E
:10301000052004072025002620462946324608962A
:10302000FEF795FB0127204629463A46FEF78FFB1F
:10303000402107912046FEF785FB05902046294652
:103040003246FEF784FB2046294606973A46FEF7AD
:103050007EFB2046079E3146FEF774FB0490204617
:103060002946089AFEF773FB204629463A46FEF7A2
:103070006EFB20463146FEF765FB0390204629464D
:10308000089F3A46FEF763FB20462946069E3246D5
:10309000FEF75DFB20460799FEF754FB02902046A1
:1030A00029463A46FEF753FB204629463746324624
:1030B000FEF74DFB2046079E3146FEF743FB01908D
:1030C00020462946089AFEF742FB204629463A4602
:1030D000FEF73DFB204637463146FEF733FB0090B6
:1030E00020462946089E3246FEF731FB20462946F7
:1030F000069AFEF72CFB20463946FEF723FB0746CF
:10310000204629463246FEF722FB20462946069AEB
:10311000FEF71DFB20460799FEF714FB06462046E6
:103120002946089AFEF713FB0599481E8141C800FD
:10313000049A511E8A4191004018039A511E8A41F7
:1031400051004018029A511E8A4180188000019A4D
:10315000511E8A4151004018009A511E8A41801820
:103160008000791E8F4179004018711E8E418019B0
:10317000C0B209B0F0BD704780B5FEF78DFD80BDCF
:103180000120C006014908607047C04608ED00E014
:1031900080B50248FFF778FA80BDC046AC03002036
:1031A00080B50248FFF770FA80BDC046F8030020E2
:1031B00083B0F0B596B006461BA80EC01BA81290AF
:1031C00013A8001F009013A8001F029013A8001F4F
:1031D000049013A8001F019013A8001F03900FA8CC
:1031E000401C07900FA8401C06900FA8401C099097
:1031F0003078252806D0002800D172E300F082FF45
:10320000761CF5E770782E281FD1B078014630394A
:10321000C9B209291CD8311D00240A235C43241893
:10322000303C4A1E10780546303DEDB2092D11D8CC
:1032300063431C18303C8A1C087801463039C9B2F7
:103240000A291146E9D3921E04E0721C062401E00B
:10325000B21C0024561C0146633912294BD8C046C3
:103260007944097949008F440A11094D090909096E
:10327000090909090909090909097900B8E7129832
:10328000011D1291007800F03DFFB1E71298011D79
:1032900012910568002D00D592E000D1DBE00C967C
:1032A000002701210D910E910A2428462146FDF7A1
:1032B00079F84443291B30242143FEB213AA9155C7
:1032C0000A2D00D2CCE00A21FDF76CF813A8801972
:1032D0002143417064212846FDF764F80E9CA11C2F
:1032E000BF1C632D0546DED8641C380600D0BCE048
:1032F00000200C9ED3E2252800D079E7252000F09D
:1033000001FF75E70C961298C11D072081430846FE
:103310000830129003C9FDF729F806460025294612
:10332000FCF7E7FF002805D12D2000F0EBFE01207F
:10333000C00746403046FCF7F1FF0746FCF7E7FFC1
:1033400001463046FCF774FF21060B910E9031D0F8
:10335000E0B20428E64A6ED2012674E01298011DFC
:1033600012910568002D27D00C96002701210D91A0
:103370000E910A2428462146FDF714F84443291BE0
:1033800030242143FEB213AA91550A2D42D30A21BB
:10339000FDF708F813A880192143417064212846DD
:1033A000FDF700F80E9CA11CBF1C632D0546DFD85D
:1033B000641C31E0012610E10FA93020088044E2AE
:1033C0000C962D2000F09EFE6D42002701210D91EC
:1033D0000E910A2428462146FCF7E4FF4443291BAA
:1033E00030242143FEB213AA91550A2D7FD30A211E
:1033F000FCF7D8FF13A880192143417064212846A7
:10340000FCF7D0FF0E9CA11CBF1C632D0546DFD826
:10341000641C6EE00D9F0E9C0020390601460C9E38
:1034200000D10CE2E2B2511E03292ED20021032367
:103430001C4045D102E2FC202040012656432D1DB0
:10344000E9B28142FAD10320044000D1C5E0012C49
:1034500015D10A20C0E00FA830210170079820E2A2
:103460000D9F0E9C380600D142E7E1B2481E0328AA
:103470004ED200200C9E0322144064D10EE2022C96
:1034800000D1A8E07D20C000A6E00E94FC231340EC
:103490000021049CA518EE780FAF7E547E18A75C1F
:1034A000F770AF7877706D78B570241F091D8B4267
:1034B000F0D1521A0C9E0E9C03231C4000D1BDE19A
:1034C00013ABD3185B1E1B7825460FAC63544B1C03
:1034D000012D0AD02F4613AC1419A41E24780FAD69
:1034E000EC548B1C022F00D0A1E11946A6E10D9FE0
:1034F0000E9C0020390601460C9E00D1E0E1E2B2AC
:10350000511E032935D2002103231C404CD1D6E1A2
:103510002746FC220A400020029B5C18E5780FAE8B
:10352000355435185E5CEE70A6786E706478AC70B9
:103530001B1F001D8242F0D1091A0C9E3C4603223B
:10354000144000D1AAE113AA8A18521E12780FABB8
:103550001A54421C012C0AD013ABCB189B1E1B78AB
:1035600025460FACA354821C022D00D08FE11046DB
:1035700094E10E94FC2313400021009CA518EE78E2
:103580000FAF7E547E18A75CF770AF7877706D78B8
:10359000B570241F091D8B42F0D1521A0C9E0E9C4F
:1035A00003231C4000D18AE113ABD3185B1E1B78A8
:1035B00025460FAC63544B1C012D0AD02F4613AC8B
:1035C0001419A41E24780FADEC548B1C022F00D0CC
:1035D0006EE1194673E1642046433046FCF797FEDE
:1035E00001460E98FCF72CFE3F210906FCF7CFFDA3
:1035F000FCF794FE864200D87F1C864229D90D90A4
:103600000A960890002F2AD00026012105910E91DC
:103610000A2438462146FCF7C5FE4443391B3024B2
:103620002143F5B213AA51550A2F1ED30A21FCF7E4
:10363000B9FE13A840192143417064213846FCF7B4
:10364000B1FE0E9DA91CB61C632F0746DFD86D1C6A
:103650000DE000210D910A960890002FD4D10FA9FA
:10366000302008800C9E0D9F51E0059E0E9D00208D
:10367000310601460C9E0D9F44D0EAB2511E03292B
:1036800004D2002103231D401BD13AE00E95FC23F8
:1036900013400021039CA518EE780FAF7E547E18CE
:1036A000A75CF770AF7877706D78B570241F091D2F
:1036B0008B42F0D1521A0C9E0D9F0E9D03231D408C
:1036C0001FD013ABD3185B1E1B780FAC63544B1C7D
:1036D000012D0AD013AC1419A41E24780E950FAD39
:1036E000EC548B1C0E9C022C04D1194609E0C046F8
:1036F0001027000013AC1219D21E12780FACE2543E
:10370000C91CC9B20FAA50541078002808D0099CCF
:10371000C0B200F0F7FC611C207800280C46F7D1FD
:103720000B98002800D163E52E2000F0EBFC0A2165
:103730000A9D28460D91FCF735FE142D0ED3044644
:10374000B8420BD9302000F0DDFC0A212046FCF7FE
:1037500029FE142C02D3B8420446F3D8002F24D0FB
:10376000002501210B9108980E9104460D9E3146CB
:10377000FCF718FE4643A11B30263143EFB213AAD3
:10378000D1550A2C15D30A21FCF70CFE13A8C01939
:103790003143417064212046FCF704FE0E9A911CCF
:1037A000AD1C632CE0D8541C05E00FA93020088024
:1037B00063E00B9D0E9C0027290639460C9E56D0CF
:1037C000E2B2511E032904D20021032004401AD181
:1037D0004CE00E97FC2313400021019DAE18F778B2
:1037E0000FA847544018AF5CC770B7784770767819
:1037F00086702D1F091D8B42F0D1521A0C9E0E9F10
:103800000320044032D013A81018401E00780FABDC
:1038100058544B1C012C08D013A81018801E007897
:103820000FADE8548B1C022C19D119461EE013ACC5
:103830001219D21E12780FACE254C91CC9B20FAAD9
:1038400050541078002800D1D2E4069CC0B200F099
:1038500059FC611C207800280C46F7D1C8E413A855
:103860001018C01E00780FAAD054C91CC9B20FA8E6
:1038700047540078002800D1BAE4099CC0B200F097
:1038800041FC611C207800280C46F7D1B0E413AB52
:10389000C918C91E09780FAB9954C01CC0B20FA932
:1038A0000818002101700FA8007800280FD19FE4AC
:1038B00013AC1219D21E12780FACE254C91CC9B253
:1038C0000FAA50540FA80078002800D190E4079C5C
:1038D000C0B200F017FC611C207800280C46F7D11C
:1038E00086E416B0F0BC01BC03B00047F0B585B06B
:1038F00005210C07C20907460490042103912046C4
:10390000FDF725FF20260125204631462A46019550
:10391000FDF71DFF0022029220463146FDF717FFFA
:103920007806C20F2046039F3946FDF710FF204658
:1039300031462A46FDF70BFF20463146029D2A46B6
:10394000FDF705FF04988006C20F20463946FDF7B3
:10395000FEFE20463146019F3A46FDF7F8FE20461E
:1039600031462A46FDF7F3FE049DE806C20F2046C5
:103970000399FDF7ECFE204631463A46FDF7E7FE97
:1039800020463146029F3A46FDF7E1FE2807C20F66
:1039900020460399FDF7DBFE20463146019D2A466D
:1039A000FDF7D5FE204631463A46FDF7D0FE049895
:1039B0004007C20F2046039F3946FDF7C8FE204648
:1039C00031462A46FDF7C3FE20463146029D2A466F
:1039D000FDF7BDFE04988007C20F20463946FDF76B
:1039E000B6FE20463146019F3A46FDF7B0FE20461E
:1039F00031462A46FDF7ABFE049A3A402046039929
:103A0000FDF7A5FE204631463A46FDF7A0FE2046CA
:103A100031462A46FDF79BFE05B0F0BDF0B587B0F4
:103A200014460E460746002508462946FCF761FC69
:103A3000002805D12D2038700120C00746407F1C8A
:103A400003973046FCF76AFC0746FCF760FC01462A
:103A50003046FCF7EDFB0690002C07D003202040F9
:103A6000042C05D20A21002811D11AE0012618E001
:103A7000FC210C400126ED4932460E4656432D1DD1
:103A8000EBB2A342F8D1AA495143002809D001283A
:103A900001D10E4605E0022801D0642600E00A2686
:103AA0004E433046FCF733FC01460698FCF7C8FB52
:103AB0003F210906FCF76BFBFCF730FC864200D87F
:103AC0007F1C864248D905460290002F48D00195B8
:103AD0000024E3430399049306910A2538462946B6
:103AE000FCF760FC4543791B234630242143039AAD
:103AF000D1540593D5180A2F37D30A21FCF752FC6D
:103B000021436970642F34D364213846FCF74AFCA2
:103B10000A21FCF747FC2143A970F8087D282CD323
:103B20007D20C1003846FCF73DFC0A21FCF73AFC39
:103B30002143E9703846BD4D2946FCF733FC049B10
:103B40001B1D059C241D0699091DAF420746C2D2C4
:103B5000039AD318141914E000250290002FB6D14F
:103B60003020039908704C1C2EE06C1C039A069BB5
:103B700007E0069B5B1CAC1C02E0069B9B1CEC1C3C
:103B8000039A9A42019D1FD210781978117018700B
:103B9000591E501C884217D202780B7803700A70A5
:103BA000491E401C88420FD202780B7803700A70BD
:103BB000491E401C884207D202780B7803700A70B5
:103BC0004B1E421C9A42DFD32E2020700A21304621
:103BD0000491FCF7E7FB07460694601C0390142E43
:103BE0003DD3AF423BD90698061DF01E3446302621
:103BF000069006700A213846FCF7D4FB0594A11EF6
:103C0000142F7FD3A8427DD90E7064213846FCF76B
:103C1000C9FB0599491EC82F71D3A8426FD90E70F0
:103C20007D20C1003846FCF7BDFB39097D2973D3DF
:103C3000A84271D92C46039DE81C06900598067091
:103C4000064638467949FCF7ADFB2D1D03953949E9
:103C50008F4269D3361D2546A0420746C5D8002DA0
:103C600053D00124029F069D3846049E3146FCF73E
:103C700099FB4643B91B3026314329550A2F15D3EA
:103C800006990D190A21FCF78DFB31436970069DD9
:103C900064213846FCF786FBA41C642F0746E3D258
:103CA000611E20462818022905D226E0601C214604
:103CB0002818022921D36918039C22780B782370D5
:103CC0000A704A1E611C914217D20B7814780C704E
:103CD0001370521E491C91420FD20B7814780C704D
:103CE0001370531E4A1C9A4207D211781C78147024
:103CF0001970591E541C8C42DFD307B0F0BD0398D5
:103D0000401C06900391002DABD130200399087020
:103D10000698801C07B0F0BD0398801C069005989B
:103D20000390002D9DD1F0E72546002D99D1ECE7B9
:103D3000A0860100204E0000F0B583B0002942D0DB
:103D40000D460026F24300900146019202910A2797
:103D500028463946FCF726FB4743E91B302421431C
:103D6000009B99559F190A2D32D30A21FCF71AFBA3
:103D700021437970642D2ED364212846FCF712FB71
:103D80000A21FCF70FFB2143B970E8087D2826D3F0
:103D90007D20C1002846FCF705FB0A21FCF702FB49
:103DA0002143F9702846214C2146FCF7FBFA019A81
:103DB000121D361D0299091DA5420546C5D2009B5C
:103DC0009C1898192EE030210170401C03B0F0BD02
:103DD000781C029C26E0029C641CB81C02E0029C39
:103DE000A41CF81C009B1DE0197822781A70217021
:103DF000621E591C914217D20B7814780C70137004
:103E0000521E491C91420FD20B7814780C7013701B
:103E1000521E491C914207D20B7814780C70137013
:103E2000541E4B1CA342DFD303B0F0BD102700008B
:103E3000F0B583B00290324800680190384F394E97
:103E4000394C042001252946FDF766F835212E4A14
:103E5000515C2E4A12788A4200D140427D21C9002D
:103E6000FCF7C0FA2B4909682B4A914200DD00217A
:103E7000274A80188A00294B9850481C2549086019
:103E8000B868316888420ED0205C02F0BDF8B8688E
:103E9000401CC117890E41183F229143401AB86057
:103EA00031688842F0D102F0EFF8002818D11448A8
:103EB00000680199411A029A914219D27968401A10
:103EC00010498842BDD90F48411C1DA0FFF770F969
:103ED000302002210C4A11540025284603B0F0BDC1
:103EE00002F0CAF8064800687860284603B0F0BDC2
:103EF0000EA0FFF75DF90025284603B0F0BDC046CF
:103F0000680200202F7500007802002008030020BE
:103F10007017000058020020FF010000DC040020A0
:103F2000B80200205C020020E00C002050415F52EB
:103F300052463A2074696D656F75740A000000007E
:103F400050415F5252463A207761746368646F67EC
:103F500020E28094206E6F206F6B20666F722025A8
:103F600075206D732C2061626F7274696E670A0030
:103F7000F0B585B0124C216860685A265F4F114A2F
:103F8000914204D1B95D884201D105B0F0BD002055
:103F90000190FDF7C7FA012504950F200390022038
:103FA000029002A801A9FDF753F8BB5D054A284617
:103FB0002146FDF7F3F9FDF7BDF905B0F0BDC046A8
:103FC00000780008BD3412BDF0B587B020294CDB65
:103FD00005924B1EDA0FD20284189A00A4588A0068
:103FE0001718381F0297083F8D1E01910A46214677
:103FF0001F3A06922646039306E00838AD1E083F96
:104000009B1E069A934217DDDA0FD2028458A14212
:1040100000D82146EA0FD202BA58914204D9A642EA
:1040200005D29642E9D305E01146A642F9D32646C9
:104030009642E2D31646E0E7881B5B212F4A505494
:104040005A21515CC3B2012000228B42014600D8A4
:104050001146142B039E029C069D019B00D810461E
:10406000059A002A03D1084301D007B0F0BD981E7D
:104070000590581E04903246DE1E191F0027384650
:10408000D30FDB02E3181B1F1B681818059BDB0FFF
:10409000DB02E318083B1B681818049BDB199B1E06
:1040A000AB421ADDF30FDB02E3182546CC0FE40226
:1040B0002C190C3B1B681818103C23682C46181848
:1040C0003F1F049BDB19059D2D1F0595069D361F7F
:1040D000091F103C121FAB42D2DC1E21FCF782F9F3
:1040E0000446064D6869A04203D005482146FFF703
:1040F0005FF800206C61A86107B0F0BD500200209D
:10410000976A0008F0B585B00190052000070125E9
:10411000E9020027039002913A46FDF718FB1A24A2
:1041200004946E480068416A89B2049A8A18120C95
:1041300014D1426A521A049B9A4220D2426A521AFD
:10414000049B9A421BD2426A521A049B9A4216D28C
:10415000426A521A049B9A42EBD310E04762416ACA
:10416000049A91420BD2416A049A914207D2416A61
:10417000049A914203D2416A049A9142EFD32E04E9
:10418000019D03E0019D7F1C082F6FD02846F84059
:10419000C00722D0012203980299FDF7D8FA0494AF
:1041A0004E480068416A89B2049A8A18B24238D2ED
:1041B000426A521A049B9A42E5D2426A521A049BFE
:1041C0009A42E0D2426A521A049B9A42DBD2426A75
:1041D000521A049B9A42EBD3D5E700250398029923
:1041E0002A46FDF7B4FA04943C480068416A89B253
:1041F000049A8A18B24227D2426A521A049B9A42FF
:10420000C0D2426A521A049B9A42BBD2426A521AE4
:10421000049B9A42B6D2426A521A049B9A42EBD34A
:10422000B0E700214162416A049A9142ABD2416AEF
:10423000049A9142A7D2416A049A9142A3D2416A58
:10424000049A9142EFD39EE74562416A049A9142F3
:1042500098D2416A049A914294D2416A049A914256
:1042600090D2416A049A9142EFD38BE701220398DE
:104270000299FDF76CFA049418480068416A89B203
:10428000049A8A18B24214D2426A521A049B9A4281
:1042900021D2426A521A049B9A421CD2426A521A92
:1042A000049B9A4217D2426A521A049B9A42EBD359
:1042B00011E000214162416A049A91420BD2416AA5
:1042C000049A914207D2416A049A914203D2416A08
:1042D000049A9142EFD305B0F0BDC04660030020C0
:1042E000A4B0FDF7E3FC00251B9519951C951A95C4
:1042F000189517950224169440201B900120070260
:10430000199716A8FDF7B0FE002801D072B6FEE797
:1043100012950720119013951495159511A8012653
:104320003146FDF7C5FD002801D072B6FEE70E97B5
:104330001A951995189517951695F3480168314304
:1043400001600168314011911199016821430160B8
:104350000068204011901198052007071094EB4C3D
:10436000384621462A46FDF7F2F919951896179610
:10437000169416AC38462146FDF718F9189517958E
:104380004820169038462146FDF710F91896E04867
:1043900017900D96360316960F9738462146FDF76F
:1043A00005F90727384629462A46FDF7CFFC384647
:1043B000FDF7C0FCD748D8492F27D84A84C00560EC
:1043C00041608560C5600561199518951795083895
:1043D000FDF7C0FF002801D072B6FEE71696CD4863
:1043E00016A9FEF7A1F8002801D072B6FEE71395D2
:1043F00012951195C74811A9FDF780FF002801D03B
:1044000072B6FEE7C64885611A21C64A84C00560B7
:104410004160856019951895179512950838FDF734
:1044200099FF002801D072B6FEE71696BC4816A97F
:10443000FEF77AF8002801D072B6FEE713951195C1
:10444000B74811A9FDF75AFF002801D072B6FEE760
:10445000B5480821B54AB64B0360426081600D99AA
:10446000C160056145618561C5610562FDF73EFA80
:10447000002801D072B6FEE7AB480021FDF776F9BF
:10448000002801D072B6FEE7A74800210791FDF78A
:104490008EF9002801D072B6FEE7A648079B83611B
:1044A000A549A64A02600D9A42608360C16003611B
:1044B000FDF750FF002801D072B6FEE7F648FDF781
:1044C000EBFFF748FDF7E8FFF6490798C860086179
:1044D000C87016A8FCF71CFE1C98C10110D50D99D8
:1044E000090688431C90FDF71DF8FCF743FF16A84A
:1044F000FCF766FEFCF728FFFCF72EFFFCF71AFF1F
:10450000E84D2C4628342C62284635302921FBF70B
:1045100008FE5A200421295407992173E249E34AED
:10452000E34BAB62EA622963E2490A684968E24BFD
:104530009A4203D1632901D8DA4A115458221098BB
:10454000D849049288540798C8614861D348FDF758
:10455000B7F9002801D072B6FEE70420D421FCF799
:1045600029FC5D20CF4C06900D99215401F042FDAD
:10457000D949DD4808180190D14B079D049F08E0F8
:1045800004203421FCF716FCDD48FEF711FE079DE0
:10459000CB4BCA48405D002831D00D2801D00A28F5
:1045A00027D1207900282AD000261E54187859785F
:1045B00009020818C349884207D005221846C2A13B
:1045C000FBF7CBFDBE4B00280FD10D96B54F1C4617
:1045D000A05D01F019FD761C38798642F8D30A20D7
:1045E00001F012FD049F23460D9EAE48067104465D
:1045F00005E021797E2902D85854481C20716D1C91
:10460000402DC6D100F0A6F9002808D000F0A2F98C
:10461000062804D000F09EF9072800D005E1042008
:1046200001263146FCF778FC0699615CA84A1278AD
:104630008A4200D140427D21C900FBF7D3FEA54943
:104640004118A0688200A44B9950401CA0605920DA
:10465000205C012802D1A1A0FEF7AAFDE05D072899
:104660000FD1A1685C290EDB0E98FF30814200D883
:10467000ECE0F02298480199FBF73AFD3C20A0605D
:1046800001E001F079FB01F0E5F95C20215C626951
:10469000012902D0002A00D0B6E0059610992154D5
:1046A000A068202800DAA0E00392451E0446E80F27
:1046B000C002894B1818A9004258A0001F183E1FBD
:1046C0000297083FA31E089420461F380D900B93B5
:1046D00014460C95294606E0083E9B1E083F891E9D
:1046E0000D98814233DDC80FC0023058824200D895
:1046F0000246DD0FED027D59AA4221D82A468442A6
:1047000020D2AC42E8D320E034100240B4290000AB
:104710000000211060030020FEFF0000002C01407B
:10472000F8030020000400400C0300205D3E302010
:1047300000540040AC03002080BB0000002000407B
:104740008442DED30446AC42C6D32C46C4E7101BD9
:104750005B21544A50540898411E0A91C11E099188
:10476000001F089000242046029D0BAE4CCED90FAE
:10477000C9026918091F09680818D10FC902691808
:104780000839096808180A990919891EB1421DDDFE
:10479000099FF90FC90269180B920C93089BDA0F55
:1047A000D202AA180C3909680818103A11680B9A35
:1047B0000818241F0A990919121F3F1F09971B1F68
:1047C00008930C9B103D1B1FB142D0DC1E21FBF750
:1047D00009FE05460398A84203D044482946FEF73F
:1047E000E7FC00202F4C6561A0610025E561059E76
:1047F00031020F9F38462A46FCF7A9FF710338465D
:10480000049F2A46FCF7A3FFE05D21788142079DC3
:104810002B4B00D1BDE62070072800D1B0E6042064
:10482000B421FCF7C7FA32A0AFE600F097F901F027
:1048300011F9E05D21788142079D214B00D1A8E666
:104840002070072822D10420342121E0224D28465F
:1048500001F092FEA1682339284602F059F86062FF
:104860003D2800D20FE701461B4801F0CDFE01288C
:1048700000DA08E761781B4A50540020A060481C09
:104880006070F1021448FBF74CFCFCE60420B421F4
:10489000FCF790FA7BE6C046600300200C03002082
:1048A000AC030020500200206476310A6170693345
:1048B00070616E6400780008BD3412BDE00C002009
:1048C000200F00206F6B00004572726F72000000B5
:1048D0000803002070170000DC04002025643B0A58
:1048E000000000005C0400200C070000976A00082C
:1048F000456E6473746F70206D6F64650A0000000C
:10490000446A000810B50B4C2078072805D801210F
:104910008140C120014200D010BD30200649022252
:104920000A5406A001F0D6FC05A0FEF741FC0720C2
:10493000207010BDB8020020780200204D30000029
:1049400050415F5252463A2061626F727465640A48
:1049500000000000014800787047C046B8020020FF
:10496000F0B53022002181540B4AC2620D4C0E4D2D
:104970000E4E0F4F0F4A104BC360026147618661B4
:10498000C5610462064A4262044A826232220272AD
:104990000A4A06C0F0BDC0460000604000001B424D
:1049A00000001E4300000A430000C44200009C4275
:1049B000B80B0000302A0000C05D00006F12033BFE
:1049C000F0B581B0002900D1AAE004460846097874
:1049D000002900D1A4E02746303752A503E0701C1F
:1049E0000178002941D03A21FBF7A6FB00283CD0F2
:1049F00006464178084645380F280BD87844007998
:104A0000400087440B070717070707210726072BD6
:104A10000707101C2846FEF7CBFBE0E7B01CFBF7AE
:104A2000A9FB3870DBE7B01C01F08FFDFBF79EFCA3
:104A30006060D4E7B01CFBF79DFB2061CFE7B01CA2
:104A4000FBF798FBE060CAE7B01CFBF793FB6061E3
:104A5000C5E7B01CFBF78EFB2072C0E7B01C01F06D
:104A600074FDFBF783FC2060B9E7206963281FD938
:104A70006169632921D9E268632A23D9344B9842BA
:104A800025D8994226D800979A4200D9E3606768F2
:104A9000002538462946FBF710FC00281FD12E4E72
:104AA00038463146FBF709FC0028009F19D019E071
:104AB0006420206161696329DDD864216161E26855
:104AC000632ADBD86422E260214B9842D9D9236162
:104AD0009942D8D9636100979A42D7D8D7E71D4E3B
:104AE000009F6660266830462946FBF7F4FB0028E5
:104AF00007D10120850730462946FBF7DEFB002859
:104B000000D12560207A002803D0412803D340201B
:104B100000E0012020723878082801D30020387086
:104B200001B0F0BD50415F5252463A20756E6B6E37
:104B30006F776E20706172616D206B65792027251B
:104B400063272C2069676E6F7265640A000000009D
:104B500060EA00006F12833ACDCCCC3DF0B5CDB009
:104B60000DADEA1D3E35064F3878C04678440079D1
:104B70004000874403500788DA6E03034DB0F0BD50
:104B8000B80200201446FB48FEF712FBFAA001F021
:104B900085FAFA4D2846FFF74BF90726002801D180
:104BA00000F05EFCF6A001F079FA2846FFF740F924
:104BB000002801D100F054FC0C960DA8F149818029
:104BC000F1490D9148217E5C002E00D1E6E2851D61
:104BD00007240A2730463946FBF7E4FB4743F11B1D
:104BE000302739430DAA1219521E11700A2E00D215
:104BF000DEE20A21FBF7D6FB39430DA801556421FB
:104C00003046FBF7CFFBA41C642E0646E1D2611EA2
:104C1000A01E0C46CDE2DD48FEF7CAFADC4801F0E2
:104C200059FBD64D2846FFF703F90726002801D186
:104C300000F016FCD74801F04DFB2846FFF7F8F8C6
:104C4000002801D100F00CFC01F024FA022600F04B
:104C500007FC08927978D0A0FEF7AAFA7978B869AB
:104C60000990002901D100F043FC8808052800D2F2
:104C7000C3E00520042900D3C2E00120814201D80D
:104C800000F036FCBFE0CC48FEF792FACB480D901E
:104C9000FC6B3E6B0DA8001D022531462A46FEF72F
:104CA000BDFEC7490A0A42700170801C396C2A4651
:104CB000FEF7B4FE0546C348010A69702870204615
:104CC0003146FBF7B5FAC049FBF7BAFA0346BE6AAC
:104CD000002E00D1E2E00C93A81C0B9003240A27BD
:104CE00030463946FBF75EFB4743F11B302739431B
:104CF0002A19521E11700A2E00D281E10A21FBF7F7
:104D000051FB3943295564213046FBF74BFBA41C6A
:104D1000642E0646E3D2601EA11E0446281903290C
:104D200000D372E1A94F0C9BBBE02020385CBC781B
:104D3000844200D3AEE008920DA992480C9188807D
:104D400091480D90396B7E6B3046FBF771FA9E4DA2
:104D50002946FBF775FA07909C48876B3846314621
:104D6000FBF766FA2946FBF76BFA06909748C06B8B
:104D70003946964FFBF75CFA2946FBF761FA059036
:104D80002046FBF7C4FA0446F969FBF759FAB969FA
:104D9000FBF7FDF90B90796C2046FBF751FA396C63
:104DA000FBF7F5F948217C5C002C0A9000D153E117
:104DB0000C98861D07270A2520462946FBF7F2FA9C
:104DC0004543611B302529430DAAD219521E11708B
:104DD0000A2C00D245E10A21FBF7E4FA29430DA889
:104DE000C15564212046FBF7DDFABF1C642C044644
:104DF000E1D2791EB81E0F4634E1042900D23CE707
:104E0000814200D874E307950D1A01262A463240E4
:104E10000692024649424140491C00D1A4E1B543F3
:104E2000D1006B4A8F1802460C37FF210C910346C4
:104E300006E00B46AD1E1037921C002D00D196E106
:104E40000B920A930C99CCB2394608390A78D3B23E
:104E50000021A3423046344600D30C465E1EB341C7
:104E6000234000D10C9AD6B23C780C94E4B2B44200
:104E7000064600D30E46611E8C41344000D10C9290
:104E8000002B0B9A1146064600D10A99002CD0D06F
:104E9000531CCFE705263E704DB0F0BD3020A87002
:104EA000E81C4C490170090A4170801C0522194612
:104EB000FEF7B4FD00210B9101700DA801F0EEF892
:104EC0002E4D2846FEF7B4FF0726002800D1C7E282
:104ED000414801F0E3F82846FEF7AAFF002800D178
:104EE000BEE23E4800680A903D4F3E4C3E4E0420D4
:104EF00001210C90FCF710F835213C4A515C3C4AEA
:104F000012788A4200D140427D21C900FBF76AFA3B
:104F10003A6838498A420B9900DC1146364A8018B3
:104F20008A00364B9850481C3D463860274FB86879
:104F3000216888420ED0305C01F066F8B868401CE9
:104F4000C117890E41183F229143401AB860216869
:104F50008842F0D1214800680A99401A40097D280A
:104F60002F46C4D30020194FB8700C9E3E704DB030
:104F7000F0BDC046F36A000847393000983A000097
:104F80004D383300204400004D353732CC6A0008DC
:104F9000856B00087D6B000850415F5252463A20F5
:104FA00066696E697368696E672C20257520736168
:104FB0006D706C65730A0000DF6A00084731205885
:104FC000205900002046000023BC3D3DB8020020CF
:104FD000200D002020450000786B000868020020AA
:104FE000580200205C020020E00C00207802002023
:104FF00008030020FF01000070170000DC040020FF
:10500000611E2819032900D28CE66918A34F0B9C56
:1050100022780B7823700A704A1E611C914200D3DB
:1050200081E60B7814780C701370521E491C914263
:1050300000D378E60B7814780C701370531E4A1C5A
:105040009A4200D36FE611781C7814701970591EBB
:10505000541C8C42DCD366E60DA830218171089C7B
:1050600029E0781E0DA9CC19072823D30DA908180B
:10507000EC4F3178027832700170411E701C88420A
:1050800019D202780B7803700A70491E401C8842BE
:1050900011D202780B7803700A704A1E411C9142AB
:1050A00009D2087813780B701070501E4E1C86427F
:1050B000DFD300E0DB4FDC482070000A6070A01CEA
:1050C00004220B99FEF7AAFC0021099101700DA89A
:1050D00000F0E4FFD54D2846FEF7AAFE072600287B
:1050E00000D1BDE10C96D2480D90396B0DA8041D7E
:1050F000022620463246FEF791FCCE490A0A049267
:1051000042700170801C0A993246FEF787FC064601
:10511000C948010A717030707F6A002F08940391AA
:1051200041D0B01C029003240A2538462946FBF7DB
:1051300039F94543791B302529433219521E117024
:105140000A2F00D280E00A21FBF72CF929433155C0
:1051500064213846FBF726F9A41C642F0746E3D2E6
:10516000601EA11E044670E0FF210C9113460699B3
:105170000029AC4F079D00D182E11E461046D100A8
:10518000AE4A51180A79D1B24C1E0B46A3410C9C71
:10519000E4B2A14200D26AE1002169E10DA8302108
:1051A00081710C9E2FE03020B070F01C9D4F77E095
:1051B000601E0DA90C1907289A4F0C9E22D30DA929
:1051C0000818297802782A700170411E681C8842EC
:1051D00018D202780B7803700A70491E401C88426E
:1051E000924D10D202780B7803700A704A1E411C4F
:1051F000914208D2087813780B701070501E4D1C25
:105200008542DED3894D88482070000A6070B969F4
:10521000A01C0422FEF702FC002101700DA800F082
:105220003DFF2846FEF704FE002800D118E184A0C7
:1052300000F034FF2846FEF7FBFD002800D0F7E21F
:1052400007263E704DB0F0BD611E30190329754F21
:10525000764D25D371180C9E029C22780B78237012
:105260000A704A1E611C91421BD20B7814780C7094
:105270001370521E491C914213D20B7814780C7093
:105280001370531E4A1C9A420BD211781C7814706A
:105290001970591E541C8C42DFD302E0B802002062
:1052A0000C9E099C04700DA800F0F8FE2846FEF73D
:1052B000BFFD002800D1D3E05D480D90796B2E46EC
:1052C000022508982A46FEF7A9FB0499417059491E
:1052D0000170801C0A992A46FEF7A0FB03994170D1
:1052E00055490170801CF96AFEF726FD57490A0AE4
:1052F000029242700170801C05220799FEF78EFB16
:1053000004700DA800F0CAFE3046FEF791FD00289B
:1053100000D1A8E046480D90B96B022508982A46AE
:10532000FEF77CFB0499417042490170801C0A9988
:105330002A463546FEF772FB039941703E490170DB
:10534000801CB96AFEF7F8FC029941703F49017070
:10535000801C05220699FEF761FB04700DA800F081
:105360009DFE3046FEF764FD00287CD030480D904D
:10537000F96B2E46022508982A46FEF74FFB049942
:1053800041702C490170801C0A992A46FEF746FBA1
:105390000399417028490170801CF96AFEF7CCFC22
:1053A0000299417029490170801C052505992A46FA
:1053B000FEF734FB04700DA800F070FE3046FEF7D7
:1053C00037FD002800D1A0E2214800F067FE3046FA
:1053D000FEF72EFD0028134F0C9E41D078781D4912
:1053E0000978FA7891420DD93F280BD8C200134BA7
:1053F0000B9C9C50401C78709A18174BCB185B1E66
:105400001B781371F970B978491CB970402801D222
:10541000FFF7B4FBC9B21148FDF7CAFE2E463E7035
:105420004DB0F0BDB802002020530000983A0000B3
:10543000473120582059000020460000200D002050
:1054400047312045342046333030000020450000ED
:10545000786B0008510200205C040020076B0008F4
:105460003E704DB0F0BD0C9E3E704DB0F0BD0121C0
:105470000B4000D10C9A002B00D1304603460C9211
:105480000C98C0B2FF2833D00DA8EB498180EB49BE
:105490000D9148217E5CD9B2C900E94A5158099161
:1054A000002E00D1BFE1801D0C9007250A27304651
:1054B0003946FAF777FF4743F11B302421430DAA01
:1054C0005219521E11700A2E00D2D3E10A21FAF7A6
:1054D00069FF21430DA8415564213046FAF762FF68
:1054E000AD1C642E0646E1D2681EA91E0546C2E127
:1054F000D4A0FDF75DFE00207875D9A000F0CEFDA8
:10550000D948FEF795FC3022D84802218154787D95
:10551000012834D10B920795D5480DA91CC81CC190
:105520003CC83CC13CC83CC13CC83CC10088088068
:1055300048200A903E5C002E24D03F250B9C0A2771
:1055400030463946FAF72EFF4743F11B21430DAA97
:105550005219521E11700A2E19D30A21FAF722FF8E
:1055600021430DA8415564213046FAF71BFFAD1CBD
:10557000642E0646E3D2681EA91E054608E0F34DD8
:10558000F34840E107980B990170401C27E0691E21
:105590000DA840193F2922D30DAA5118079C227843
:1055A0000B7823700A704A1E611C914217D20B7847
:1055B00014780C701370521E491C91420FD20B7854
:1055C00014780C701370531E4A1C9A4207D211783B
:1055D0001C7814701970591E541C8C42DFD3D149A9
:1055E0000170090A07914170801C04220C92099EE7
:1055F0003146FEF713FA0746D6491C22FAF778FD22
:105600000020069038770DAF384600F047FDC248BD
:10561000FEF70EFCD04839461CC81CC11CC81CC172
:105620001CC81CC13CC83CC13437384631460C9AB2
:10563000FEF7F4F90446C9A11922FAF759FDB54855
:105640000A99475C002F24D02046193005901A256E
:105650000C940B9E0A2438462146FAF7A3FE4443D5
:10566000391B31430C9A5219521E11700A2F14D350
:105670000A21FAF797FE31430C98415564213846C8
:10568000FAF790FEAD1C642F0746E3D2A91E6D1EEB
:1056900004E00B9860761A3427E0691E0C9A5019C2
:1056A0001A2921D35118059C22780B7823700A708F
:1056B0004A1E611C914217D20B7814780C7013703B
:1056C000521E491C91420FD20B7814780C70137043
:1056D000531E4A1C9A4207D211781C781470197014
:1056E000591E541C8C42DFD304468E482070079804
:1056F0006070A01C04220999FEF790F904469F49A6
:105700001D22FAF7F5FC069860770DAF384600F0D9
:10571000C5FC814C2046FEF78BFB994800F0BEFC8F
:105720002046FEF785FB7D48B8807D480D9079487E
:105730000A99465C002E23D0B81D0C9007250B9FBC
:105740000A2430462146FAF72DFE4443311B3943E3
:105750000DAA5219521E11700A2E17D30A21FAF7F8
:1057600021FE39430DA8415564213046FAF71AFE4F
:10577000AD1C642E0646E3D2691EA81E0D4606E047
:105780000DA80B998171634F089C29E0681E0DA933
:105790004C19072823D30DA908180C9B5D4F1978C5
:1057A00002781A700170411E581C884217D2027884
:1057B0000B7803700A70491E401C884210D2027890
:1057C0000B7803700A704A1E411C914208D2087877
:1057D00013780B701070501E4B1C8342DFD34D4F5B
:1057E0005048207007986070A01C04220999FEF7A9
:1057F00015F90446634924252A46FAF779FC0698E8
:10580000605561A50DA800F049FC434C2046FEF709
:105810000FFB284600F042FC2046FEF709FB062657
:105820003E704DB0F0BD0DA83021817108984AE05E
:1058300003263E704DB0F0BD204400004D35373298
:10584000200D002050415F5252463A206E6F207664
:10585000616C696420726573756C740A00000000E5
:10586000473238205820590060EA000078020020B2
:10587000B46C0008691E0DA840190729254F22D3D2
:105880000DAA51180C9C22780B7823700A704A1EBE
:10589000611C914217D20B7814780C701370521E51
:1058A000491C91420FD20B7814780C701370531E60
:1058B0004A1C9A4207D211781C7814701970591E2C
:1058C000541C8C42DFD317490170090A4170801CB7
:1058D0000422099D2946FEF7A1F8002101700DA8B8
:1058E00000F0DCFB0C48FEF7A3FA3D61012078755F
:1058F0007C783C752846FAF725FD024600940AA0FC
:105900000B46FDF755FC079DF7E5024F0C9E3E70D8
:105910004DB0F0BDB8020020983A000020440000CD
:105920004D3537322053000050415F5252463A20E5
:10593000626573742050413D252E346620282575FC
:105940002073616D706C6573290A00008D6B00080F
:105950002C6B0008746C00083C6C00085C6E5C6E7C
:1059600041646420746F20636F6E6669672E673AC6
:105970005C6E4D353732204400000000946C000806
:10598000246C0008F46C00084D323900F0B581B089
:105990001C4C22781CA1072A2ED801252B469340A7
:1059A000C122134228D0214618314CC84CC14CC8E2
:1059B0004CC14CC84CC1CCC8CCC1002666756680B1
:1059C000667069021748FAF7ACFB302016490722C7
:1059D0000A541648066016480670E9021548FAF798
:1059E000A0FB15488021FAF79CFB00F003FB257013
:1059F00012480068606012A10846FDF7D9FB01B0AB
:105A0000F0BDC046B802002050415F5252463A20D5
:105A1000616C72656164792072756E6E696E670A79
:105A200000000000200D0020780200205802002015
:105A300051020020DC0400205C04002068020020E9
:105A400050415F5252463A207374617274696E67B6
:105A50000A000000B0B58EB000209C490A185378A7
:105A60003B2B42D093783B2B41D0D3783B2B40D07B
:105A700013793B2B3FD053793B2B3ED093793B2B73
:105A80003DD0D3793B2B3CD0137A3B2B3BD0537A80
:105A90003B2B3AD0937A3B2B39D0D37A3B2B38D05F
:105AA000137B3B2B37D0537B3B2B36D0937B3B2B4D
:105AB00035D0D37B3B2B34D0137C3B2B33D0537C62
:105AC0003B2B32D0937C3B2B31D0D37C3B2B30D043
:105AD000137D3B2B2FD0527D15303B2A2CD03F28F5
