:020000040800F2
:10000000C0140020D5000008292700082727000871
:1000100000000000000000000000000000000000E0
:100020000000000000000000000000009728000809
:1000300000000000000000002B270008992800089D
:10004000E700000800000000E7000008E7000008E3
:10005000E7000008E7000008E7000008E7000008E4
:1000600000000000E7000008E7000008E7000008C3
:10007000E7000008E7000008E700000800000000B3
:10008000E70000080000000000000000B1280008A0
:1000900000000000E7000008E7000008E700000893
:1000A00000000000E70000080000000059340008CC
:1000B000E700000800000000000000000000000051
:1000C0000348854600F06AFB00480047D943000812
:1000D000C01400200448804704480047FEE7FEE7BC
:1000E000FEE7FEE7FEE7FEE7A1280008C1000008E2
:1000F00003460B439B0703D009E008C9121F08C041
:10010000042AFAD203E00B780370401C491C521EEB
:10011000F9D27047D2B201E00270401C491EFBD2F6
:1001200070470022F6E710B513460A460446194602
:10013000FFF7F0FF204610BDCAB2401E4178401CB8
:100140008A4202D00029F9D100207047421C017870
:10015000401C0029FBD1801A704730B504460020AE
:10016000034600E05B1C934203D2E05CCD5C401B85
:10017000F8D030BD70B5064606F004F904680546AF
:100180000A220021304600F0AFF92C6070BDF8B5AE
:1001900002464A40D40F42004B0052085B089A4284
:1001A00002D20246084611464A0023D0C30D4A0037
:1001B000DDB2120EAD1A202D35DA49020126490AA8
:1001C000F6058A19002C00D0524220214F1B1146FF
:1001D000B9402A411018C20D9A4221D0002C17D0E4
:1001E000012D08DCDA05801AD20F8019D207DBB2A4
:1001F00000F0BAF9F8BDDA05801A012340001B06A9
:10020000C01880185A428018CA0F1043490007E0EE
:100210004908C2071143DA05801A8019400880187E
:1002200000F09AF9F8BD61000122511A001BF7E7AE
:100230000122D2075140AAE70122D2075040A6E787
:10024000024670B54A40D30FDB0740002DD04A006C
:100250002AD0010E140E000212020919400A520A95
:100260008418E50104465443000A120A2E04504340
:10027000A4194219200CC543AA18120C0125AD037C
:10028000521C521912047F39240400D0521C10430E
:1002900001D44000491EC2B20C06C0092018401CFF
:1002A0004008802A02D003E0002070BD40084000D2
:1002B000002900DA0020184370BD0122D20700286F
:1002C00000DB101A002900DB511A814201D80120FD
:1002D0007047002070470122D207002800DB101A67
:1002E000002900DB511A814201D201207047002011
:1002F00070470122D207002800DB101A002900DB1A
:10030000511A814201D3012070470020704710B577
:1003100000229623114600F027F910BD410040024B
:100320000122400AD205090E80187F2901DA002037
:100330007047962903DC9622511AC84070479639B7
:1003400088407047C20FD207400040080BD0C10D53
:100350000723DB01C91840020905400A1143C208FE
:10036000400711437047002001467047CB0FDB0761
:10037000490010B5490802460A4307D00A0D072470
:100380000903E401090B121B002A01DC002010BD47
:10039000C900440F0C43C100E018D205801800F0DA
:1003A000DBF810BD70B50446002903D000202022E0
:1003B000012310E0002801D00020C043C046C04601
:1003C0000DE02546D5408D4205D30D469540641B72
:1003D0001D46954040191546521E002DF1DC214660
:1003E00070BD000070B5002504462E46002911D0CE
:1003F000002C01DA01254442002901DA0126494294
:100400002046FFF7CFFFB54200D04042002D00D07C
:10041000494270BD002C02DA0121C90702E0002C1C
:1004200000DD03490846C046C046214670BD0000B5
:10043000FFFFFF7F0FB400B589B00A460DA90091F8
:1004400000230C99002ACB60234B0693234B079380
:1004500001D0042300E00023214A0292214A08929D
:10046000019302466B46002000F06FFA09B008BC09
:1004700004B01847F0B585B007460020C04301908E
:100480001E46002015460C460091029104903B4602
:100490006A46314604A8FFF7CDFF0499024660186A
:1004A000002D05D0002901D0034600E023462B6033
:1004B00000290ED0002A02DD0099814209D0001BDC
:1004C000019000943B466A463146029404A8FFF727
:1004D000B1FF05B0F0BD0000A10B0008C10B000882
:1004E000FFFFFF7F19080008F7B5009C0F460026A4
:1004F0002578641C002D05D000F08AF90068405D65
:10050000C007F5D12B2D02D02D2D18D0641E3946F1
:100510002046029A00F066FB002F04D03968A14201
:1005200001D1009939607105022400290BDA40429B
:10053000002803DD05F026FF0460A007FEBD0120B2
:1005400080020643E3E70028F8DA05F01BFF0460A9
:100550000048FEBDFFFFFF7F002904DA401C490070
:1005600001D140084000704770B40024050C05D14B
:100570001024000402D1002921D01124050E01D13C
:1005800000020834050F01D10001241D850F01D19F
:100590008000A41C002801DB4000641C002908D056
:1005A00020252E1B0D46F540A14000D001212943F6
:1005B000084301061B1B000ADB1D02D5002070BC8E
:1005C0007047DB05181880180029F8DA401C49002C
:1005D000F5D170BC4008400070470000F0B51FB472
:1005E00088B00B990998002448400999C00F490028
:1005F00049080991C0070B990090490049080B91DF
:1006000009990898A64608431CD00B990A980843F4
:1006100018D0099801244000420D4800410D099866
:1006200024050003000B204309900B980003000BE6
:1006300020430B9050181C4940180022019014468A
:10064000104605E0002001460DB0F0BD032801DA98
:10065000034600E003239C46C11A0AAE0AE05F008D
:1006600008ADED5B4F00F75B7D430027AA187C4186
:10067000491C5B1E6145F2DD410004AB5A52210466
:10068000120C0A43240C401C0828DFDB019802905E
:100690000099704601910090059B049A079906986D
:1006A00000F000FBD0E700000DFCFFFFF0B50C46AA
:1006B0005C4085B0E40FE40703944C000026640816
:1006C00059009446490802460296224321D06246C8
:1006D0000A431ED06200570D4A000E032303550D36
:1006E000012402462C492405781B1B0B360B4018AD
:1006F00023432643614600901C46501AB44103D35D
:100700000098401C009002E0921800985B4100287D
:1007100003DA0020014605B0F0BD002001210905E3
:100720000746864611E064461D46141BB54106D3B4
:100730006546521BB341744607430C43A646CD079A
:1007400040084908284392185B4105460D43EAD109
:100750001046184313D06046194650407140084374
:1007600006D06046101AB34106D20122002306E0EB
:1007700000220123DB0702E00122D243531000983C
:1007800074460105381C6141029C039D00196941B2
:1007900000F07BFABFE70000FD0300001CB509482C
:1007A00000900948019005460126009C05E0E36899
:1007B00007CC33430C3C98471034AC42F7D3FFF7D7
:1007C00083FC0000386D0008586D000810B5202A21
:1007D00004DB0146203A9140002010BD91402023C7
:1007E0009C1A0346E3401943904010BD10B5202ADF
:1007F00004DB0846203AD040002110BD0B46D34010
:10080000D0402024A21A91400843194610BD000090
:1008100000487047E469000810B50446FFF7F8FF88
:100820000068005DC007C00F10BD0000FFB508786C
:1008300089B01546FF2805D0491C2D2804D0002278
:10084000002407E000240BE00122F9E70A235C43BF
:100850000419491C0878FF28F8D1002A00D0644206
:10086000002004902A7801462D2A01D02B2A0FD18E
:100870006D1C2D2A02D00022049209E00122FBE720
:1008800000260A2233466D1C00F05EFA38187141CA
:100890002F78FF2FF4D10C9AA218069202460A4331
:1008A00004D0FF23069A9133DA4205DA0021099831
:1008B0000A4606C00DB0F0BD0024B74AB54D264625
:1008C000079200F069FA029006980391002801DA75
:1008D000474200E0074639050020AF4A001C51415D
:1008E0000191009012E0F80707D022462B463046CF
:1008F0000799FFF773FE0646079122462B461046DE
:100900001946FFF76BFE04460D467F10002FEAD113
:100910000698019B0028009A0399029806DAFFF7CF
:10092000C5FE3246079BFFF7C1FE05E0FFF756FE06
:100930003246079BFFF752FE049A002A02D001229A
:10094000D2075140099A03C2B4E7FFB591B0002025
:1009500009900025ED432E209E685C681F4601909B
:10096000B9696D1C129888470090396A8847002839
:10097000F6D10098401C0AD00D20C0018443002EFF
:1009800012DD00982B2809D02D280DD103E000207E
:10099000C04315B0F0BD012080020443B9696D1C4D
:1009A00012988847761E009003A9600501D52D2076
:1009B00000E02B206A461073491C0CA80F9102908E
:1009C0000AE0B9696D1C1298884700900120400226
:1009D00004431398761E0560002E02DD009830282F
:1009E000EFD001990098884245D18020044308E067
:1009F0000998401E09900120400204431399681C85
:100A00000860B9696D1C761E1298884700903028DE
:100A1000EED030E00199884205D1200603D4802031
:100A20000443761E1DE0009805F0CCFC002825D07C
:100A3000012149020C43009807AA0F99033230386C
:100A4000761E914208D208700F98401C0F90200625
:100A500007D50998401E03E0200602D40998401CDF
:100A60000990A00502D51399681C0860B9696D1C2E
:100A7000129888470090002ECCDC59E0002E57DDFC
:100A80000098652801D0452852D1A00550D50320F3
:100A900000028443B9696D1C761E12988847009045
:100AA000002E0CDD2B2804D02D2808D1FF2001308A
:100AB0000443B9696D1C12988847761E0090E005C2
:100AC00001D52D2100E02B21029801700298401CD5
:100AD0000290019025E00120400204430EA90298F3
:100AE0000131761E88420ED20098029930380006F5
:100AF000000E087003D10299019881420AD9029828
:100B0000401C029006E0E00501D5244801E023489E
:100B100040420990B9696D1C12988847009013985B
:100B20000560002E04DD009805F04CFC0028D2D1B1
:100B3000F969129888470F99FF200870029903AA53
:100B4000087000200A900B900CA90AA8099BFFF7D7
:100B50006DFEA00502D40120C0431AE72420044200
:100B600009D0E00713D138680B9A0A99031D3B603E
:100B7000006806C00BE00B990A98FFF7F7FB0146E7
:100B8000E00704D13868021D3A6000680160284619
:100B9000FFE60000000014400000F03FF1D8FFFF26
:100BA0004268002A08D001680B78491C002B03D04A
:100BB000521E06C0184670470121C160881E70474A
:100BC0004268002A0BD0C3680168002B07D18368F4
:100BD0008B4204D0491E521C06C0002070470020E2
:100BE000C0437047F7B582B0029C00272078641C90
:100BF00015460197302802D0002D15D015E0207839
:100C00000127641C782804D0582802D0002D09D070
:100C10000BE0002D01D0102D07D1002710252078E2
:100C2000641C02E0082500E00A250026009610E07A
:100C30000099012769430818020C294680B27143C4
:100C400000908E183804864201D30120019020784C
:100C5000641C294600F090F80028E9DA039800287F
:100C600005D0002F01D0641E00E0029C04600198B2
:100C7000002806D005F086FB02210160C81E05B0E1
:100C8000F0BD009930040843F9E710B5002B08DAED
:100C90000024401C614192185B411A4301D1400875
:100CA000400010BDF0B51FB482B005460C0003D063
:100CB000084605F04FFB02E005F04CFB20300246F1
:100CC000009021462846FFF781FD049B059A0446C3
:100CD0000F4618431143084314D0184610431BD045
:100CE000009840210A1A18460599FFF77FFD05462E
:100CF0000E46009A05990498FFF768FD084305D051
:100D0000012004E02046394607B0F0BD0020C1179D
:100D100005430E432C43374300990E986305401A50
:100D20007905E40A00220C43FD0A0A3002D50020AE
:100D30000146E9E70105101969410C9C0D9D001958
:100D40006941FFF7A2FFDFE730B5434351435C1829
:100D5000010C130C0D465D432C1980B292B205466E
:100D6000554351430A0C09044D1962415843010C83
:100D700000044019514130BD3A2800D230382023B8
:100D800002469A43412A01D310463738884201D39C
:100D90000020C043704700000EB5054A02920022B1
:100DA000009213460192FFF77DFF03B000BD0000E3
:100DB00033040000F0B583B00291019005200407D0
:100DC0001025012620462946324600F0BEFC20218F
:100DD0002046324600F0B9FC04212046324600F09D
:100DE000B4FC0027204629463A4600F0AEFC03201A
:100DF00002F0D8FE20462946324600F0A6FC0198B3
:100E0000029900F00FF8204629463A4600F09DFC72
:100E1000082002F0C7FE20462946324600F095FC25
:100E200003B0F0BDF0B581B0042803D81EA2105C59
:100E30001F4A10701E4F0026FE701024BC7079707F
:100E40000520050728462146324600F07EFC432057
:100E500002F0A8FE387802F0A5FE787802F0A2FE33
:100E6000B87802F09FFEF87802F09CFE0127284631
:100E700021463A4600F069FC28462146324600F0F9
:100E800064FC232002F08EFE01F050FC01F04EFCC9
:100E900001F04CFC01F04AFC284621463A4600F09D
:100EA00054FC01B0F0BDC0468191A1B10E0000001C
:100EB000FC02002070B5044600F050FC0619104DED
:100EC0002868C00305D500F049FCB042F8D30320E0
:100ED00070BD29680B480840286003D09F494860CE
:100EE000012070BD00F03AFC04192868400304D5C5
:100EF00000F034FCA042F8D3E9E7002070BDC04602
:100F000010200240FAC30000F0B583B00291052022
:100F100004070821204600F013FC0028F9D1102511
:100F200000222046294600F010FC284602F03AFE36
:100F300001F0FCFB064601F0F9FB019001F0F6FB25
:100F4000074601222046294600F0FFFB76B20298B0
:100F500000280DD1102500222046294600F0F5FB7F
:100F6000022002F01FFE01222046294600F0EDFB80
:100F7000F0B2C109064A117001990902C9190004A9
:100F80000818002E02D503498143481C03B0F0BD68
:100F900000030020FFFF7F0070B500282CD0014621
:100FA00024314A78022A29D1046822680E239A4300
:100FB0002260426C1568314B1D4015602568012286
:100FC00095432560046C1C2525401446AC402C4DEF
:100FD0002E6826432E60846CC56C6560046D002C01
:100FE00005D025681D402560436D806D58604A70AE
:100FF000002000220A7070BD012070BD0422C2636F
:10100000012000220A7070BD70B5242101244454CF
:10101000014624314A78022A2BD103681A680E242B
:10102000A2431A601C68012294431C60446C25682A
:10103000124B1D402560046C1C2525401446AC4015
:101040000F4D2E6826432E60846CC56C6560046D60
:10105000002C05D025681D402560436D846D5C60C3
:1010600000240C704A70816B002900D0884720460C
:1010700070BD0421C163204670BDC046FFFEFFFF66
:1010800004000240B0B5044600F068FB0546601C51
:1010900002D004480078241800F060FB401BA042F6
:1010A000FAD3B0BD3C000020F0B583B00446B34F86
:1010B0003878012802D1022003B0F0BD019100264A
:1010C0007E60012038707D20C5002846FFF7F2FEC3
:1010D000002802D03E7003B0F0BD2068BA4B04284F
:1010E0000AD11F48801C1968014319602846FFF780
:1010F000E1FE3E7003B0F0BDF1430198016031465E
:101100006668A06880198642009108461DD2029543
:10111000F7001868134908403843114908431D4631
:1011200018600298FFF7C6FE00280AD16068A1681F
:1011300008180837761C86422B46EAD300988F4F52
:1011400003E001990E608D4F2B46196802229143EE
:101150001960009E3E7003B0F0BDC046E40300205D
:101160000200010085FFFEFFF0B582B0072101609B
:101170004168012901D0102200E00C228049535817
:101180001F241C4084605258D202D20EC2600A68EA
:1011900000920D6801220192D6064B685B029BB259
:1011A0009B1903621A4B5F1C8A681740C4691C4074
:1011B000E319C361520292B2164C121942624A6993
:1011C000520292B2921982628A69520292B2121942
:1011D000C2626C4A426115408561009AD4B2AA2C61
:1011E00003D12546CC2C03D003E0BB25CC2C00D169
:1011F0002546056103221343C361019A1204096E57
:101200000A403F230B400263436302B0F0BDC04677
:10121000FFFFFF7FFF010008F0B585B0D44D2978AE
:10122000012902D1022005B0F0BD00266E60012127
:10123000049129700168CA07514F0BD041680129F8
:1012400001D0102100E00C218268C3681B04134305
:101250007B50016806220A40062A0BD1044610344E
:101260001CCC1443FF229343D2435A403B681340A3
:10127000234329E08A070DD44A0726D54269FF2374
:101280009A43DB4353403C683A68E4B2AA2C0FD13E
:10129000039411E03A6803923C68FF239C43324672
:1012A000384E039B1E4003693343164623430BE02D
:1012B0000292BB220392029A1A40CC2C00D10394D2
:1012C0008369039C234313433B600A072ED5C269FD
:1012D000049BDB075C1C22421CD00396BE68D4072B
:1012E00001D1344612E0056A446A02941F24E406E0
:1012F00001942D196D0A7D607F25AE4300969C4DAB
:10130000029C019EA419640A009E344313402343A7
:10131000BB60039E920709D51F22D206836A9B18E1
:101320005B0A7B61C36A9A18520ABA61C90607D57B
:10133000396E154A0A40016B406B0843104338660A
:101340007D20C4002046FFF7B5FD002802D02E7096
:1013500005B0F0BD03962E46049845040C3F38684E
:10136000284338602046FFF7A5FD3968A943354674
:10137000039E39602E7005B0F0BDC046E403002026
:101380002020024000FF4F3FC0FFFEFF0120C007AA
:101390000D490A6802430A600868C043C00F7047DD
:1013A0000120C106084A13680B4313607047C0460A
:1013B0000120800704490A6802430A600968014065
:1013C000484248417047C0461420024006488168A0
:1013D000490001D4012070470449016004490160BB
:1013E00080684000C00F70470C2002403B2A19085B
:1013F0007F6E5D4CF0B589B05D4D2C78012C03D12A
:101400000222104609B0F0BD0193029207910390A9
:1014100000200690686001262E707D20C40000F038
:101420009DF90494041905963604524F38683042E9
:1014300005D000F093F9A042F8D3032293E0386876
:101440004D490840386002D06860059A8BE000F092
:1014500085F90499441801200590800408903868A3
:101460000899084204D000F079F9A042F7D3E4E7E4
:10147000039801280BD1786801210143796007990D
:1014800002980860BFF36F8F0198486044E0786865
:10149000089908437860EFF31080019072B6069ABD
:1014A000114602984458079B5C505D1844186368C5
:1014B0006B60A368AB60E368EB6023692B616369D1
:1014C0006B61A369AB61E369EB61236A2B62636AB9
:1014D0006B62A36AAB62E36AEB62236B2B63636BA1
:1014E0006B63A36BAB63E36BEB630F23134340317D
:1014F00010323F2BD6D308E03868304208D0386825
:10150000304205D03868304202D038683042F3D1DA
:10151000019880F31088164D00F020F904994418C2
:101520003868304205D000F019F9A042F8D3032200
:1015300015E0386810490840386002D06860059AA4
:101540000DE000F00BF90499441838680899084236
:1015500004D000F003F9A042F7D3E8E7002279684D
:1015600003988143796006982870104609B0F0BD51
:10157000E403002010200240FAC300000648C168BE
:10158000002901D40020704704490160044901602A
:10159000C068C00F7047C04608200240230167455D
:1015A000AB89EFCDF0B58AB00B68002B00D1B9E064
:1015B0005D4A904201D0062200E0052200920246D8
:1015C0002032019200270997089707970690049107
:1015D00012E02A43554842607F1C0B681846F840C9
:1015E000079A08320792099A921C0992089A121DCA
:1015F0000892002800D195E001240594BC402340C6
:101600000393E9D04D6810202843122813D11C20E1
:10161000089908400F2631468140FA08920002924C
:10162000019DAB588B43049A1169314081401943A5
:1016300002982950556803232A461A400998824087
:101640000293834006990E689E43164306990E60E6
:10165000069ED843122D049916D8059AAA40354BF8
:101660001A420FD0B2680240CB6801460998834005
:10167000084604991343B3602A09BA407368A34328
:1016800013437360032DA7D0F26802408B6809985A
:1016900083401343F360EA009ED53A4602988243A2
:1016A00022488018046E0522120796420CD0224A66
:1016B000964206D0214A9642009E039D06D10226FC
:1016C00004E0039D059E01E00026039D1822079B70
:1016D0001A400F2393409C43603096402643066097
:1016E000134C23684868C20306D52B432360636804
:1016F000820306D4AB4305E0AB43236063688203F7
:10170000F8D52B436360094A1368C20201D52B4305
:1017100000E0AB43054A13605268800200D558E7E9
:10172000AA4357E70AB0F0BD001400500018024069
:101730008018024006000600000400500008005017
:1017400000690840411E88417047002A02D01822D3
:10175000815070472822815070470000054800687A
:101760007047C0461A48007802490A681018086095
:101770007047C046BC10002080B5032000F008F878
:10178000002801D0012080BD00F024F8002080BD99
:1017900070B50F4E31780124002916D005467D2002
:1017A000C000FEF7FFFD01469B480068FEF7FAFD0A
:1017B00000F08AFA032D08D8002806D10024E0435F
:1017C0002946224600F028F87560204670BDC046C4
:1017D0003C00002082B00948416801221143416069
:1017E0004168114001910199110702680A430260A2
:1017F000006808400090009802B070473C1002401A
:10180000002805D41F2108400121814001480160C2
:101810007047C04600E100E0002805D403220346DB
:1018200093430A4A9A1803E00C220240064BD2184E
:101830008007C00E8901C9B28140FF238340106830
:10184000984308431060704714ED00E000E400E0A6
:10185000F0B583B00D4601460120002963D0029106
:1018600001906348006807273840854215D96049D0
:101870000868B843284308605E4CFFF76FFF0646D0
:101880005B4800683840A84207D0FFF767FF801B1D
:10189000A042F5D9032003B0F0BD029B1868810770
:1018A000714C10D5410707D57B21090222688A4374
:1018B0000B210902511821600F21090222688A4375
:1018C000D96811432160C0071AD1494800683840DF
:1018D00085422AD246490868B84328430860454CE7
:1018E000FFF73CFF0646424800683840A8421CD03B
:1018F000FFF734FF801BA042F5D9032003B0F0BDF1
:101900002246083A10681C218843996801431160F7
:101910005968002932D0032901982BD0012932D1EE
:101920001268920332D403B0F0BD029B18784007CE
:101930004D4A05D538031168814318690843106082
:1019400010688006400F06D0116838200140082931
:1019500009D146483AE01046083800688004410F33
:10196000D548C84032E011680140202926D1012025
:10197000C0032BE0A26D9207D5D507E010684005A3
:101980000198D0D502E0626D9207CCD52068B843AB
:1019900008432060FFF7E2FE064620683821014038
:1019A00002984068C00081428FD0FFF7D7FE801BAD
:1019B000C4498842F1D9032003B0F0BD1168014049
:1019C000182901D0002001E07D200002116889095A
:1019D0003C220A40084989581F220A40D040B74992
:1019E0000860B7480068FFF7D3FE03B0F0BDC046FB
:1019F0000020024088130000E8690008AF48006832
:101A000019490968890A1C220A40044989581F2279
:101A10000A40D0407047C04644000020286A0008B1
:101A2000114801688906490F06D0026838210A402A
:101A3000082A08D10D487047083800688004410F13
:101A40009D48C840704702680A40202A02D1012000
:101A5000C003704700680840182801D00020704774
:101A60007D2000027047C0460810024000127A0034
:101A7000F0B581B004460120002C00D118E100909F
:101A80002078C0078B4E07D0B068382202406168CA
:101A9000082A3BD1002972D02078800713D42078FF
:101AA000000709D5B06838220240A169182A69D117
:101AB0000029009800D1FBE020780025400736D4AB
:101AC000284601B0F0BDE268B0688006400F38D00B
:101AD000306801218F02002A74D00722D20290437D
:101AE0002269024332600802316801433160FFF726
:101AF00035FE05463068384200D08BE0FFF72EFEF9
:101B0000401B0228F6D9032001B0F0BD3068012344
:101B10005F041A04914207D005252D04A94262D121
:101B200099040843306030681043306063E0B06867
:101B300038220240A168202A37D14842484101B0EA
:101B4000F0BD002A1BD07F200002716881436069CC
:101B50000002084370600720C00231688143206999
:101B60000843306030688004400F5349C1405348F7
:101B7000016053480068FFF70BFE00288FD00098E3
:101B800001B0F0BD306E00294DD001210843306610
:101B9000FFF7E4FD0546306E80078DD4FFF7DEFDCC
:101BA000411B03200229F6D982E0F06D012905D0FE
:101BB000052949D104210843F065F06D0121014355
:101BC000F1654AE0090288433060FFF7C7FD05462A
:101BD0003068384200D162E7FFF7C0FD411B0320A7
:101BE0000229F5D964E0904330609804326882435A
:101BF0003260002940D0FFF7B1FD05463068384219
:101C000000D049E7FFF7AAFD401B6428F6D903205E
:101C100001B0F0BD7F20000271688143606900025D
:101C2000084370603BE7012188433066FFF796FD6B
:101C30000546306E800700D43EE7FFF78FFD411B5D
:101C400003200229F5D933E001229043F065F06DBD
:101C500004229043F06500291CD01A4FFFF77EFD47
:101C60000446F06D800700D52AE7FFF777FD011BDA
:101C70000320B942F5D91BE0FFF770FD0546306837
:101C8000384200D108E7FFF769FD411B03206429B2
:101C9000F5D90DE00B4FFFF761FD0446F06D8007AD
:101CA00000D40DE7FFF75AFD011B0320B942F5D917
:101CB00001B0F0BD00100240006CDC0244000020C6
:101CC0004000002088130000401E010E01D00120BA
:101CD00070470749074A5060074803680B400321D3
:101CE0008907591801600020906007211160704732
:101CF000FFFFFF0010E000E020ED00E070477047BC
:101D000070470000B0B5002824D005463C356978FE
:101D1000002905D100212970044600F057F820461B
:101D20000221697001680C684B4A914202D04B4B0A
:101D3000994211D170239C4383682343204CA142D4
:101D40000EDD914212D01F4CA1420FD01E4CA14279
:101D50000CD033E00120B0BD2346194CA142F0DC89
:101D60003E4CA14202D0284CA14227D10324240298
:101D7000A34304691C4380239C43836923430B6072
:101D8000C368CB6243688B62914205D00D4A914291
:101D900002D00D4A914201D1406908630120486197
:101DA0002873A870E87028716871A871E8712872AA
:101DB0006872A872E87268700020B0BD1C46DAE74D
:101DC000FF2B0140004801400044014010B582B0A3
:101DD00000680D49884201D002B010BD0120C00347
:101DE0000A490A6802430A600968014001910198A2
:101DF0001324002120460A46FFF70EFD2046FFF778
:101E0000FFFC02B010BDC046002000404010024060
:101E100010B53D21415C01291CD101463D31022212
:101E20000A700168C86801221043C8600A488142EC
:101E300002D00A48814208D18868094B034000203B
:101E4000062B06D01404A34203D008681043086090
:101E5000002010BD012010BD002C014000040040F6
:101E60000700010070470000F0B583B00446006829
:101E7000C5680227294639404A424A410169029110
:101E800039404B424B41134313D16B49FE31016141
:101E9000012121778069800703D02046FFF7E2FF08
:101EA00005E0204600F0CAF8204600F0C8F80020FF
:101EB00020770126042229461140484248410299D0
:101EC0004907314600D50146032000020190002950
:101ED00016D1009220685849FC310161277780694A
:101EE0000199084203D02046FFF7BCFF05E02046D9
:101EF00000F0A4F8204600F0A2F800202077009A15
:101F00000827294639404842484102990907314685
:101F100000D50146002913D120684749F8310161F5
:101F20002277C069800703D02046FFF79BFF05E0BA
:101F3000204600F083F8204600F081F8002020774A
:101F400010212940484248410299C906314600D52E
:101F50000146002914D120683749F0310161277703
:101F6000C0690199084203D02046FFF77BFF05E0D6
:101F7000204600F063F8204600F061F8002020774A
:101F800001212940484248410299C907314600D001
:101F90000146002906D120682749FF31016120460A
:101FA00000F04EF880272F407842784102990906C8
:101FB000314600D50146002906D120681E498031EE
:101FC00001612046FFF79BFE784278410299C905DE
:101FD000314600D50146002905D120681649016126
:101FE0002046FFF78BFE4021294048424841029994
:101FF0004906314600D50146002906D120680E4920
:10200000C0310161204600F01CF8202005406842E4
:1020100068410299890603D4002E04D003B0F0BDB4
:102020000646002EFAD120680349E03101612046BE
:10203000FFF766FE03B0F0BDFFFEFFFF704770477D
:10204000704770477047704770477047704700008F
:10205000F0B589B00368DF69202501210691CE0221
:1020600032462F323A40196808900446803405936E
:102070009B68202A0395079710D108462840012223
:1020800012071A4080181F4616D00898416F002981
:1020900000D156E10898884709B0F0BD30460F30AE
:1020A00007421F4608D0C8480840069A1207551C28
:1020B0003D40281800D091E0049410260846304096
:1020C00042424241079D2846304044424441144325
:1020D0000898C06E401E421E9041204337D0012414
:1020E0000126B2053A4050425041EA022246059B81
:1020F00000D50246002A00D1A6E0280606D5802099
:102100000840F2051740C01900D0B0E140230A464C
:102110001A40504250416A06224600D50246002A23
:1021200000D13DE1B2070A40504250412A02224606
:1021300000D50246002A00D1A4E1002900DAA6E178
:10214000E80100D5A7E1002C00D0FAE0A7E1089C47
:102150005C34059806628068400600D57BE06188A3
:1021600022886088002800D1EBE08A4200D1E8E0B4
:10217000EFF310800790012383F3108809204501B5
:102180000898374606683468AC433460079C84F38B
:102190001088EFF31084079483F310880568AE6805
:1021A000C14C3440AC60079C84F31088049C039DB0
:1021B000E56000244467C466EFF3108483F310885D
:1021C00003681D68BD431D6084F310880223036704
:1021D000511A89B2FFF736FF09B0F0BD009204949E
:1021E0000798069B1840424242411802019108405C
:1021F000444244411443059B05D101201862049CCC
:1022000022690243226101203C4602900440604260
:10221000604107998A07069A00D50246002A06D12E
:10222000022018620498016904220A430261604294
:10223000604107994A07069A5CD4002A049C5DD045
:102240000798000763D46CE0300518620898FFF720
:10225000FCFE09B0F0BD04980068006841688AB2CD
:10226000002A6ED023889A426BD261800068800673
:1022700035D4EFF31082012181F310888C4B203389
:102280000898056837462E681E402E6082F3108835
:10229000EFF3108281F3108803689D688D439D6081
:1022A00082F31088EFF3108281F3108803689D6831
:1022B0004026B5439D6082F31088049B039ADA6040
:1022C0000022C266EFF3108281F310880068016873
:1022D000B943016082F310881868FEF75DFE0221A1
:1022E0000898016721886288891A89B2FFF7AAFED7
:1022F00009B0F0BD0246002A049CA1D10420186256
:1023000020690222024322610798000709D501983B
:10231000039A1040054304D0082018622269024342
:1023200022610298820601990A4050425041079A60
:10233000324208D106980028039A09D02069002863
:102340000DD109B0F0BD069006980028039AF5D18A
:102350001E6220691043206120690028F1D007988F
:1023600010400DD01140009807400F43049C08D046
:102370000898416F002904D0089C204688472368AC
:10238000049C206928220240986840210840801857
:102390001CD10898FFF75AFE0020206109B0F0BD5B
:1023A000EFF3108186F310880898026814689C4344
:1023B000146081F31088002181670499039A8A6070
:1023C00000F0B0F909B0F0BD20010004EFF3108077
:1023D000029E86F3108809225201089B1C6825681A
:1023E0009543256080F31088EFF3108086F3108802
:1023F0001A6894682C4D2540956080F31088D86E3B
:1024000001280CD1EFF31082029880F3108808980D
:10241000006803681024A343036082F31088049CBF
:102420000398E0600020089AD066506710688068C2
:10243000400622D5EFF31082029880F310880898A6
:10244000006883688B43836082F3108821680029C9
:1024500013D0164888630846FEF7D6FD002800D141
:102460006FE704980068816B884709B0F0BD089851
:10247000816F002900D00DE663E70898FFF7E6FDBD
:1024800009B0F0BD0898FFF7DFFD09B0F0BD0026E8
:10249000E80100D457E63446002C00D051E70898F4
:1024A000FFF7D1FD09B0F0BDFEFFFFEF652A000880
:1024B000DFFEFFFFB0B500281ED004460546843578
:1024C0006868002804D100202870204600F02AF80F
:1024D00024206860206801680125A9430160A06A82
:1024E000002802D0204600F0EBF9204600F07EFDE7
:1024F000002803D02846B0BD0120B0BD0920C0028D
:1025000021684A6882434A6088682A22904388602A
:102510000868012202430A60204600F03BFA0546A3
:102520002846B0BD70B586B0002405940494039489
:102530000294019400683E49884201D006B070BD03
:10254000144D2868012630432860286830400090E8
:10255000059604940396022002900320C002019085
:1025600000980520000701A9FFF71CF8B003E968EF
:102570000143E960E9680140009100981B25284665
:1025800021462246FFF748F92846FFF739F906B0F9
:1025900070BDC04634100240F0B581B08C23C358E2
:1025A000202B12D1012400290CD0002A0AD00123AB
:1025B0001C038568A5420CD1CC070AD00469002C05
:1025C00007D11C46204601B0F0BD0224204601B0D0
:1025D000F0BD0024C46605686D682D020AD5EFF3CE
:1025E000108583F310889B06066837681F433760A1
:1025F00085F3108800F0BCFD204601B0F0BD00005E
:1026000080B500680A49884200D080BD09488168C9
:102610008278094B5A544A1C82603F2901DB002111
:102620008160811C05480122FFF7B6FF80BDC046CE
:1026300000380140480200207C0C0020500300209C
:10264000F0B587B00693064688203058202810D170
:10265000012000290BD0002A09D001200503B3680E
:10266000AB4209D1CB0707D03369002B04D107B0A7
:10267000F0BD022007B0F0BD03913446543431461A
:10268000883100200490886021200291086017465C
:10269000FFF764F8059067802780B068A84202D1F0
:1026A0003069002801D0039D0AE0002503980490BA
:1026B00006E02878316888626D1C6088401E608062
:1026C0006088002816D006980090802100273046A8
:1026D0003A46059B00F0EAFD00281BD1002DE8D109
:1026E000049A10880E49084031688862921C04924E
:1026F0003D46E2E706980090402100223046059BC7
:1027000000F0D4FD2021029A11600028AFD00320F0
:1027100007B0F0BD202002990860032007B0F0BD8B
:10272000FF0100007047FEE7FEE77047F0B589B093
:102730000520040720250026204629463246089613
:10274000FFF703F80127204629463A46FEF7FDFF2A
:10275000402107912046FEF7F3FF059020462946C9
:102760003246FEF7F2FF2046294606973A46FEF724
:10277000ECFF2046079E3146FEF7E2FF049020461C
:102780002946089AFEF7E1FF204629463A46FEF719
:10279000DCFF20463146FEF7D3FF03902046294652
:1027A000089F3A46FEF7D1FF20462946069E32464C
:1027B000FEF7CBFF20460799FEF7C2FF02902046A6
:1027C00029463A46FEF7C1FF20462946374632469B
:1027D000FEF7BBFF2046079E3146FEF7B1FF019092
:1027E00020462946089AFEF7B0FF204629463A4679
:1027F000FEF7ABFF204637463146FEF7A1FF0090BB
:1028000020462946089E3246FEF79FFF204629466D
:10281000069AFEF79AFF20463946FEF791FF0746D3
:10282000204629463246FEF790FF20462946069A62
:10283000FEF78BFF20460799FEF782FF06462046EB
:102840002946089AFEF781FF0599481E8141C80074
:10285000049A511E8A4191004018039A511E8A41E0
:1028600051004018029A511E8A4180188000019A36
:10287000511E8A4151004018009A511E8A41801809
:102880008000791E8F4179004018711E8E41801999
:10289000C0B209B0F0BD704780B5FEF763FF80BDE0
:1028A0000120C006014908607047C04608ED00E0FD
:1028B00080B50248FFF7D8FA80BDC0460403002067
:1028C000B0B5816A0A070CD4CA0714D18A071CD490
:1028D0004A0724D4CA062CD48A0634D44A063CD4E7
:1028E0004CE00122D20303685C689443826B22436C
:1028F0005A60CA07EAD00122520403685C68944314
:10290000C26A22435A608A07E2D501221204036890
:102910005C689443026B22435A604A07DAD501226D
:10292000920403685C689443426B22435A60CA066F
:10293000D2D50122120303689C689443C26B2243E0
:102940009A608A06CAD50122520303689C689443A0
:10295000026C22439A604A0610D5012213050268D0
:1029600054689C43456C2C4354609D4206D103231C
:102970005B0554689C43836C23435360090607D569
:102980000121C904026853688B43C06C184350602E
:10299000B0BD0000F0B583B004460646843600257D
:1029A000F560FEF7DBFE034620680168090721D5C4
:1029B00002952B48009001256905002220461F46FC
:1029C00000F074FC002812D0EFF3108085F310881B
:1029D00021680A6880239A430A6080F310880320E4
:1029E00020228821029D6250357003B0F0BD20681E
:1029F0003B46029D0068400726D5194800900127F4
:102A0000B9050022204600F051FC00281CD0EFF34D
:102A1000108087F3108809214901226813688B43CD
:102A2000136080F31088EFF3108087F3108821681B
:102A30008A68BA438A6080F31088032020228C21A0
:102A40006250357003B0F0BD20207060B060E56664
:102A500070212A4628466250357003B0F0BDC0464A
:102A6000FFFFFF0180B5806A0146563100220A81CE
:102A700056214252FFF7EAFA80BDF0B581B08C21B1
:102A800041580268222910D101465C318B88526A74
:102A90001A40836D1A804A88521E4A809A1C8265A9
:102AA0004A88002A07D001B0F0BD9069082101438F
:102AB000916101B0F0BD03468C33EFF31084012225
:102AC00082F3108809256D0106683768AF433760C7
:102AD00084F31088EFF3108482F310880568AE68E1
:102AE0009643AE6084F3108820241C6000230367A3
:102AF00043670468646824020AD5EFF3108482F304
:102B00001088950606683768AF43376084F31088ED
:102B1000C46E012C15D1C366EFF3108382F31088C5
:102B20000468256810229543256083F310880368A4
:102B3000DC69E40600D51A620988FFF783FA01B060
:102B4000F0BDFFF75DFD01B0F0BD0000F0B587B04E
:102B500004460168C8690A6803928A6805928C2253
:102B6000A258222A00D0B8E023465C3320210291EB
:102B70009989002900D1B6E00299084000D1B2E05D
:102B800026468C369D8801210598084005900691BF
:102B900008020399014003910493019507E0204640
:102BA000FFF72EFD049B019DB80600D49BE0206832
:102BB000416A2940A26D11805988491E5980911C93
:102BC000A165C76979073CD0039B5A425A41FB076C
:102BD000069B00D01346002B04D1012202627368C9
:102BE00013437360059B5A425A41BB07069B00D5AD
:102BF0001346002B05D1022202627268042313439C
:102C00007360059B5A425A41002906990DD5114619
:102C10000029049B0CD10421016270680221014348
:102C200071607068002806D10BE00029049BF2D087
:102C30007068002805D02046FFF708FA049B0020A2
:102C4000706058880028AFD1EFF31081012080F325
:102C50001088020223681D6895431D6081F3108867
:102C6000EFF3108180F3108822689368DE4D2B40CB
:102C7000936081F3108802993160002121676167B8
:102C80002268526812020CD5EFF31082009280F392
:102C90001088830625682A689A432A60009A82F37E
:102CA0001088E26E012A00D079E7E166EFF3108127
:102CB00080F310882268136810208343136081F327
:102CC00010882168CA69D20600D50862049D298847
:102CD0002046FFF7B7F92B4665E7886908220243CB
:102CE0008A6107B0F0BD58880028FAD099898842D7
:102CF000F7D2EFF31080012181F31088BA4A521CF9
:102D000023689D6815409D6080F3108807486067C0
:102D1000EFF3108081F3108821680A68029B1A4340
:102D20000A6080F3108807B0F0BDC0467B2A000817
:102D3000F0B581B08C2141580268222911D1014699
:102D40005C318B88526A1A40836D1A704A88521E11
:102D50004A80826D521C82654A88002A07D001B0E1
:102D6000F0BD906908210143916101B0F0BD0346B7
:102D70008C33EFF31084012282F3108809256D0152
:102D800006683768AF43376084F31088EFF3108428
:102D900082F310880568AE689643AE6084F31088AD
:102DA00020241C60002303674367046864682402CE
:102DB0000AD5EFF3108482F3108895060668376809
:102DC000AF43376084F31088C46E012C15D1C366FD
:102DD000EFF3108382F3108804682568102295436E
:102DE000256083F310880368DC69E40600D51A6265
:102DF0000988FFF727F901B0F0BDFFF701FC01B02A
:102E0000F0BD0000F0B587B004460168C8690A68E3
:102E100003928A6805928C22A258222A00D0BAE036
:102E200022465C32202102919189002900D1B8E02C
:102E30000299084000D1B4E026468C3695880121DD
:102E400005980840059006910802039901400391F6
:102E50000492019507E02046FFF7D2FB049A019DFA
:102E6000B80600D49DE02068406A2840A16D087033
:102E70005088401E5080A06D401CA0652068C76926
:102E800079073CD0039B5A425A41FB07069B00D06E
:102E90001346002B04D1012202627368134373604E
:102EA000059B5A425A41BB07069B00D51346002B8F
:102EB00005D1022202627268042313437360059BEA
:102EC0005A425A41002906990DD5114600290CD1C4
:102ED000042101627068022101437160706800285A
:102EE000049A06D10BE00029F2D070680028049AF9
:102EF00005D02046FFF7AAF8049A00207060508899
:102F00000028ADD1EFF31081012080F31088020278
:102F100023681D6895431D6081F31088EFF31081CD
:102F200080F31088226893682F4D2B40936081F3C3
:102F30001088029931600021216761672268526818
:102F400012020CD5EFF31082009280F310888306F2
:102F500025682A689A432A60009A82F31088E26EF4
:102F6000012A00D077E7E166EFF3108180F3108843
:102F70002268136810208343136081F3108821684E
:102F8000CA69D20600D50862049D29882046FFF749
:102F900059F82A4663E78869082202438A6107B024
:102FA000F0BD50880028FAD091898842F7D2EFF31B
:102FB0001080012181F310880B4A521C23689D6800
:102FC00015409D6080F31088B6486067EFF310806D
:102FD00081F3108821680A68029B1A430A6080F313
:102FE000108807B0F0BDC046FEFFFFEFF0B581B01E
:102FF000044600680168514A0A40A16823690B43EE
:1030000065691D431543E1690D4305600322120301
:1030100043689343E2681A434260A269236A1343F8
:103020008268474D15401D438560C26A0F239A434D
:10303000676A3A43C262434A904209D0424A904288
:1030400008D14248406D8007000F41A2125802E0AB
:10305000002200E01022264668360125E80381425E
:1030600010D1082A61D8C0467A4412795200974498
:10307000045C195C2B5C5C5C3000FEF7BFFC002834
:1030800026D151E0082A50D87A4412795200974448
:10309000044C124C354C4C4C3A00FEF7AFFC002867
:1030A00030D141E0294800680006400F411C2C48FF
:1030B000FDF778F90DE0254800680006400F411C37
:1030C0002748FDF76FF91EE0FEF7AAFC00282BD079
:1030D000676A7900234A515AFDF764F94000616834
:1030E0004A081018FDF75EF90246103A1E498A4256
:1030F0001BD201400007400F084313E0FEF790FC8D
:10310000002811D0676A7900164A515AFDF74AF92A
:1031100061684A081018FDF745F901461039124A4E
:10312000914202D22168C86000251048306000201A
:103130006067A067284601B0F0BDC046F369FFCFC5
:10314000FFF4FF110044004000380140001002402D
:103150000000000004000000020000000800000061
:10316000006CDC02486A0008F0FF0000010001006A
:10317000F0B55C23C25281650021416703465C3390
:103180005A80856804468C34002D12D001263707FA
:10319000BD4208D03603B54214D10569002D0ED1C9
:1031A0003D4D9D800FE00569002D05D03F259D8098
:1031B00009E00569002D02D07F259D8003E0FF25F1
:1031C0009D8000E09980616022212160EFF31084EE
:1031D000012181F310880568AE680E43AE6084F368
:1031E00010880C034D07466EAE4202D19B899A426D
:1031F0001BD202698368A34204D1002A1ED0294A47
:10320000426703E0274B4367002A19D0EFF310828F
:1032100081F310880902006803680B4320211943D9
:10322000016082F310880020F0BD02698368A34228
:1032300013D1002A21D0194A426712E01A4A426784
:10324000EFF3108281F310880068016820230B439C
:10325000036082F310880020F0BD104B4367002A02
:103260000DD0EFF3108281F310880B0204682568FB
:103270001D43256082F3108801E0094A4267EFF39D
:10328000108281F310880907006883680B4383600C
:1032900082F310880020F0BDFF010000052E000819
:1032A0004D2B0008312D00087B2A0008F0B587B0AF
:1032B0001D4616460F460368D9693940C91B4A4264
:1032C0004A410021964224D10C9C002C24D0039129
:1032D000611C26D1D9693940C91B4A424A419642EC
:1032E00014D1D9693940C91B4A424A4196420DD18D
:1032F000D9693940C91B4A424A41964206D1D96927
:103300003940C91B4A424A419642E3D0039807B06C
:10331000F0BD084607B0F0BDFEF720FA032007B065
:10332000F0BD01468431029101210191C90205914C
:103330000690049406E0C9693940CA1B51425141C4
:103340008E42E3D1FEF70AFA411B0323A14246D87D
:10335000069801680A685207EDD5CA69120741D478
:10336000CA692C46059D2A422546049CE3D01E4688
:1033700005980862EFF31082012181F31088092378
:103380005B010698046825689D43256082F31088D8
:10339000EFF3108281F31088069803689C682D4D26
:1033A00025409D60069882F31088C26E012A0BD1D9
:1033B000EFF3108281F3108801680B681024A34397
:1033C0000B60069882F310882021029B99600022EE
:1033D000C26642671A70D960304607B0F0BD184621
:1033E00007B0F0BD08250D62EFF31081019880F35E
:1033F000108809225201069B1B681C6894431C60BC
:1034000081F31088EFF3108180F31088069A126818
:103410009368104C1C40069B946081F31088D96E11
:1034200001290CD1EFF31081012282F310881A6870
:1034300013681024A3431360069B81F31088202196
:10344000029A91600021D96659671170D56007B062
:10345000F0BDC046FEFFFFEF80B50248FEF7F8FD65
:1034600080BDC0465003002083B0F0B596B006463C
:103470001BA80EC01BA8129013A8001F009013A831
:10348000001F029013A8001F049013A8001F0190B2
:1034900013A8001F03900FA8401C07900FA8401C02
:1034A00006900FA8401C09903078252806D00028E7
:1034B00000D172E300F082FF761CF5E770782E28C9
:1034C0001FD1B07801463039C9B209291CD8311D45
:1034D00000240A235C432418303C4A1E1078054619
:1034E000303DEDB2092D11D863431C18303C8A1CC5
:1034F000087801463039C9B20A291146E9D3921E2B
:1035000004E0721C062401E0B21C0024561C014693
:10351000633912294BD8C0467944097949008F4450
:103520000A11094D090909090909090909090909BE
:1035300009097900B8E71298011D1291007800F08E
:103540003DFFB1E71298011D12910568002D00D5CD
:1035500092E000D1DBE00C96002701210D910E9145
:103560000A2428462146FCF71DFF4443291B30242A
:103570002143FEB213AA91550A2D00D2CCE00A21B4
:10358000FCF710FF13A880192143417064212846DD
:10359000FCF708FF0E9CA11CBF1C632D0546DED85E
:1035A000641C380600D0BCE000200C9ED3E2252825
:1035B00000D079E7252000F001FF75E70C961298FE
:1035C000C11D0720814308460830129003C9FCF74B
:1035D000CDFE064600252946FCF78BFE002805D1C6
:1035E0002D2000F0EBFE0120C00746403046FCF7DE
:1035F00095FE0746FCF78BFE01463046FCF718FEA9
:1036000021060B910E9031D0E0B20428E64A6ED22A
:10361000012674E01298011D12910568002D27D033
:103620000C96002701210D910E910A24284621466F
:10363000FCF7B8FE4443291B30242143FEB213AAF1
:1036400091550A2D42D30A21FCF7ACFE13A880192C
:103650002143417064212846FCF7A4FE0E9CA11C66
:10366000BF1C632D0546DFD8641C31E0012610E144
:103670000FA93020088044E20C962D2000F09EFE19
:103680006D42002701210D910E910A242846214602
:10369000FCF788FE4443291B30242143FEB213AAC1
:1036A00091550A2D7FD30A21FCF77CFE13A88019BF
:1036B0002143417064212846FCF774FE0E9CA11C36
:1036C000BF1C632D0546DFD8641C6EE00D9F0E9C69
:1036D0000020390601460C9E00D10CE2E2B2511ED8
:1036E00003292ED2002103231C4045D102E2FC20F5
:1036F0002040012656432D1DE9B28142FAD1032014
:10370000044000D1C5E0012C15D10A20C0E00FA86B
:1037100030210170079820E20D9F0E9C380600D1E1
:1037200042E7E1B2481E03284ED200200C9E03223D
:10373000144064D10EE2022C00D1A8E07D20C0002C
:10374000A6E00E94FC2313400021049CA518EE78FB
:103750000FAF7E547E18A75CF770AF7877706D78E6
:10376000B570241F091D8B42F0D1521A0C9E0E9C7D
:1037700003231C4000D1BDE113ABD3185B1E1B78A3
:1037800025460FAC63544B1C012D0AD02F4613ACB9
:103790001419A41E24780FADEC548B1C022F00D0FA
:1037A000A1E11946A6E10D9F0E9C002039060146B5
:1037B0000C9E00D1E0E1E2B2511E032935D2002176
:1037C00003231C404CD1D6E12746FC220A400020AE
:1037D000029B5C18E5780FAE355435185E5CEE70D0
:1037E000A6786E706478AC701B1F001D8242F0D109
:1037F000091A0C9E3C460322144000D1AAE113AAE8
:103800008A18521E12780FAB1A54421C012C0AD08F
:1038100013ABCB189B1E1B7825460FACA354821C00
:10382000022D00D08FE1104694E10E94FC2313404A
:103830000021009CA518EE780FAF7E547E18A75C7F
:10384000F770AF7877706D78B570241F091D8B42C3
:10385000F0D1521A0C9E0E9C03231C4000D18AE129
:1038600013ABD3185B1E1B7825460FAC63544B1C5F
:10387000012D0AD02F4613AC1419A41E24780FADC5
:10388000EC548B1C022F00D06EE1194673E16420CA
:1038900046433046FCF73BFD01460E98FCF7D0FC52
:1038A0003F210906FCF773FCFCF738FD864200D87F
:1038B0007F1C864229D90D900A960890002F2AD0A5
:1038C0000026012105910E910A2438462146FCF775
:1038D00069FD4443391B30242143F5B213AA5155E5
:1038E0000A2F1ED30A21FCF75DFD13A840192143BE
:1038F000417064213846FCF755FD0E9DA91CB61C8D
:10390000632F0746DFD86D1C0DE000210D910A964C
:103910000890002FD4D10FA9302008800C9E0D9F55
:1039200051E0059E0E9D0020310601460C9E0D9F24
:1039300044D0EAB2511E032904D2002103231D40C2
:103940001BD13AE00E95FC2313400021039CA518DF
:10395000EE780FAF7E547E18A75CF770AF78777063
:103960006D78B570241F091D8B42F0D1521A0C9E40
:103970000D9F0E9D03231D401FD013ABD3185B1E5C
:103980001B780FAC63544B1C012D0AD013AC1419D7
:10399000A41E24780E950FADEC548B1C0E9C022CAB
:1039A00004D1194609E0C0461027000013AC1219D3
:1039B000D21E12780FACE254C91CC9B20FAA5054DF
:1039C0001078002808D0099CC0B200F0F7FC611CF8
:1039D000207800280C46F7D10B98002800D163E529
:1039E0002E2000F0EBFC0A210A9D28460D91FCF7E1
:1039F000D9FC142D0ED30446B8420BD9302000F068
:103A0000DDFC0A212046FCF7CDFC142C02D3B84281
:103A10000446F3D8002F24D0002501210B910898EB
:103A20000E9104460D9E3146FCF7BCFC4643A11B9B
:103A300030263143EFB213AAD1550A2C15D30A21EF
:103A4000FCF7B0FC13A8C019314341706421204633
:103A5000FCF7A8FC0E9A911CAD1C632CE0D8541CFA
:103A600005E00FA93020088063E00B9D0E9C002725
:103A7000290639460C9E56D0E2B2511E032904D2C3
:103A80000021032004401AD14CE00E97FC23134080
:103A90000021019DAE18F7780FA847544018AF5C7D
:103AA000C770B7784770767886702D1F091D8B42D6
:103AB000F0D1521A0C9E0E9F0320044032D013A85E
:103AC0001018401E00780FAB58544B1C012C08D026
:103AD00013A81018801E00780FADE8548B1C022C20
:103AE00019D119461EE013AC1219D21E12780FAC70
:103AF000E254C91CC9B20FAA50541078002800D152
:103B0000D2E4069CC0B200F059FC611C2078002869
:103B10000C46F7D1C8E413A81018C01E00780FAAED
:103B2000D054C91CC9B20FA847540078002800D14E
:103B3000BAE4099CC0B200F041FC611C2078002866
:103B40000C46F7D1B0E413ABC918C91E09780FAB06
:103B50009954C01CC0B20FA90818002101700FA809
:103B6000007800280FD19FE413AC1219D21E1278EE
:103B70000FACE254C91CC9B20FAA50540FA8007868
:103B8000002800D190E4079CC0B200F017FC611C33
:103B9000207800280C46F7D186E416B0F0BC01BCB2
:103BA00003B00047F0B585B005210C07C2090746F0
:103BB0000490042103912046FDF7C7FD202601252E
:103BC000204631462A460195FDF7BFFD00220292AC
:103BD00020463146FDF7B9FD7806C20F2046039F07
:103BE0003946FDF7B2FD204631462A46FDF7ADFDC8
:103BF00020463146029D2A46FDF7A7FD049880061F
:103C0000C20F20463946FDF7A0FD20463146019FF0
:103C10003A46FDF79AFD204631462A46FDF795FDC6
:103C2000049DE806C20F20460399FDF78EFD20464D
:103C300031463A46FDF789FD20463146029F3A4615
:103C4000FDF783FD2807C20F20460399FDF77DFD90
:103C500020463146019D2A46FDF777FD2046314634
:103C60003A46FDF772FD04984007C20F2046039FB5
:103C70003946FDF76AFD204631462A46FDF765FDC7
:103C800020463146029D2A46FDF75FFD04988007D5
:103C9000C20F20463946FDF758FD20463146019FA8
:103CA0003A46FDF752FD204631462A46FDF74DFDC6
:103CB000049A3A4020460399FDF747FD20463146D5
:103CC0003A46FDF742FD204631462A46FDF73DFDC6
:103CD00005B0F0BDF0B587B014460E460746002586
:103CE00008462946FCF705FB002805D12D20387031
:103CF0000120C00746407F1C03973046FCF70EFBAF
:103D00000746FCF704FB01463046FCF791FA0690A3
:103D1000002C07D003202040042C05D20A210028C3
:103D200011D11AE0012618E0FC210C400126ED49D2
:103D300032460E4656432D1DEBB2A342F8D1AA4996
:103D40005143002809D0012801D10E4605E0022880
:103D500001D0642600E00A264E433046FCF7D7FA2D
:103D600001460698FCF76CFA3F210906FCF70FFAAA
:103D7000FCF7D4FA864200D87F1C864248D9054613
:103D80000290002F48D001950024E3430399049347
:103D900006910A2538462946FCF704FB4543791B62
:103DA000234630242143039AD1540593D5180A2F72
:103DB00037D30A21FCF7F6FA21436970642F34D314
:103DC00064213846FCF7EEFA0A21FCF7EBFA2143AE
:103DD000A970F8087D282CD37D20C1003846FCF757
:103DE000E1FA0A21FCF7DEFA2143E9703846BD4DBD
:103DF0002946FCF7D7FA049B1B1D059C241D069938
:103E0000091DAF420746C2D2039AD318141914E011
:103E100000250290002FB6D13020039908704C1C69
:103E20002EE06C1C039A069B07E0069B5B1CAC1CF7
:103E300002E0069B9B1CEC1C039A9A42019D1FD238
:103E40001078197811701870591E501C884217D2BA
:103E500002780B7803700A70491E401C88420FD20A
:103E600002780B7803700A70491E401C884207D202
:103E700002780B7803700A704B1E421C9A42DFD303
:103E80002E2020700A2130460491FCF78BFA074659
:103E90000694601C0390142E3DD3AF423BD9069884
:103EA000061DF01E34463026069006700A2138465C
:103EB000FCF778FA0594A11E142F7FD3A8427DD970
:103EC0000E7064213846FCF76DFA0599491EC82F1B
:103ED00071D3A8426FD90E707D20C1003846FCF71F
:103EE00061FA39097D2973D3A84271D92C46039D03
:103EF000E81C069005980670064638467949FCF796
:103F000051FA2D1D039539498F4269D3361D254637
:103F1000A0420746C5D8002D53D00124029F069D1C
:103F20003846049E3146FCF73DFA4643B91B30261D
:103F3000314329550A2F15D306990D190A21FCF78B
:103F400031FA31436970069D64213846FCF72AFA3C
:103F5000A41C642F0746E3D2611E204628180229BC
:103F600005D226E0601C21462818022921D36918B1
:103F7000039C22780B7823700A704A1E611C9142C0
:103F800017D20B7814780C701370521E491C914292
:103F90000FD20B7814780C701370531E4A1C9A427F
:103FA00007D211781C7814701970591E541C8C4259
:103FB000DFD307B0F0BD0398401C06900391002D9D
:103FC000ABD13020039908700698801C07B0F0BD73
:103FD0000398801C069005980390002D9DD1F0E772
:103FE0002546002D99D1ECE7A0860100204E000067
:103FF000F0B583B0002942D00D460026F243009070
:104000000146019202910A2728463946FCF7CAF96F
:104010004743E91B30242143009B99559F190A2DE2
:1040200032D30A21FCF7BEF921437970642D2ED3D7
:1040300064212846FCF7B6F90A21FCF7B3F92143BD
:10404000B970E8087D2826D37D20C1002846FCF7FA
:10405000A9F90A21FCF7A6F92143F9702846214C59
:104060002146FCF79FF9019A121D361D0299091D80
:10407000A5420546C5D2009B9C1898192EE0302118
:104080000170401C03B0F0BD781C029C26E0029C2D
:10409000641CB81C02E0029CA41CF81C009B1DE0E0
:1040A000197822781A702170621E591C914217D219
:1040B0000B7814780C701370521E491C91420FD269
:1040C0000B7814780C701370521E491C914207D261
:1040D0000B7814780C701370541E4B1CA342DFD362
:1040E00003B0F0BD10270000F0B583B00290324855
:1040F00000680190384F394E394C0420012529467B
:10410000FCF702FF35212E4A515C2E4A12788A4272
:1041100000D140427D21C900FCF764F92B490968B0
:104120002B4A914200DD0021274A80188A00294B42
:104130009850481C25490860B868316888420ED0FC
:10414000205C01F053FFB868401CC117890E41186C
:104150003F229143401AB86031688842F0D101F0A3
:1041600085FF002818D1144800680199411A029A65
:10417000914219D27968401A10498842BDD90F4836
:10418000411C1DA0FFF770F9302002210C4A115488
:104190000025284603B0F0BD01F060FF0648006826
:1041A0007860284603B0F0BD0EA0FFF75DF900254A
:1041B000284603B0F0BDC0465C0200202F75000009
:1041C0006C02002000030020701700004C02002049
:1041D000FF0100007C040020B002002050020020FB
:1041E0007C0C002050415F5252463A2074696D6544
:1041F0006F75740A0000000050415F5252463A2029
:104200007761746368646F6720E28094206E6F202A
:104210006F6B20666F72202575206D732C20616294
:104220006F7274696E670A00F0B585B0124C216830
:10423000606856265F4F114A914204D1B95D8842A9
:1042400001D105B0F0BD00200190FDF797F90125DF
:1042500004950F2003900220029002A801A9FCF708
:1042600023FFBB5D054A28462146FDF7C3F8FDF74D
:104270008DF805B0F0BDC04600780008BD3412BD11
:10428000F0B587B020294CDB05924B1EDA0FD20225
:1042900084189A00A4588A001718381F0297083FFC
:1042A0008D1E01910A4621461F3A06922646039327
:1042B00006E00838AD1E083F9B1E069A934217DDA4
:1042C000DA0FD2028458A14200D82146EA0FD20266
:1042D000BA58914204D9A64205D29642E9D305E0E4
:1042E0001146A642F9D326469642E2D31646E0E7A7
:1042F000881B57212F4A50545621515CC3B20120CC
:1043000000228B42014600D81146142B039E029CCA
:10431000069D019B00D81046059A002A03D1084348
:1043200001D007B0F0BD981E0590581E049032468B
:10433000DE1E191F00273846D30FDB02E3181B1FB0
:104340001B681818059BDB0FDB02E318083B1B6892
:104350001818049BDB199B1EAB421ADDF30FDB021E
:10436000E3182546CC0FE4022C190C3B1B681818E7
:10437000103C23682C4618183F1F049BDB19059D31
:104380002D1F0595069D361F091F103C121FAB42BD
:10439000D2DC1E21FCF726F80446064D2869A0420F
:1043A00003D005482146FFF75FF800202C616861C3
:1043B00007B0F0BD48020020B36A000880B582B0A3
:1043C00001A908700020C34302480122FEF738F912
:1043D00002B080BD50030020A4B0FDF7CDF9002746
:1043E0001B9719971C971A971897179702241694DA
:1043F00040201B9001200602199616A8FDF738FBF5
:10440000002801D072B6FEE712970720119013978B
:104410001497159711A801252946FDF719FA0028C8
:1044200001D072B6FEE702961A9719971897179758
:104430001697F548016829430160016829401191E8
:104440001199016821430160006820401190119882
:10445000052006070694ED4C304621463A46FDF706
:1044600074F919971895109517953546169416AE48
:1044700028463146FDF796F818971797482016906A
:1044800028463146FDF78EF8F5480C214B225202A2
:10449000F44B036042608760C760076141618761D8
:1044A000C761FEF707F8002801D072B6FEE7059550
:1044B000ED488761ED49EE4A0260109C44608760D8
:1044C000C1600761FDF71EFC002801D072B6FEE74F
:1044D000E548FDF79DFCE74DAF60EF6016A8FCF7DF
:1044E00043FE1C98C1010FD5210688431C90FDF79F
:1044F00045F8FCF76BFF16A8FCF78EFEFCF750FFA3
:10450000FCF756FFFCF742FF2E4624363621304694
:10451000FBF707FE5620042129542E62D6490A686B
:104520004968D64B9A4202D1632900D829545420B5
:104530000A9006992954AF612F61A91CC8482246E8
:10454000FEF72AF80420D421FCF734FC5920089007
:104550002C5401F041FDD149D44808180190C94EAE
:104560003D46079707E00420B421FCF723FCD1A0C7
:10457000FEF77AFF3D46C248405D002834D00D2842
:104580000AD00A2808D0BB49C9787E292CD8705493
:10459000481CB849C87027E0B648C078002823D026
:1045A000002434543078717809020818B6498842DA
:1045B00006D005223046B5A1FBF7CFFD002811D16A
:1045C0002046344610900646AA4FA05D01F00EFD2D
:1045D000761CF8788642F8D30A2001F007FD079F81
:1045E0002646109CA348C4706D1C402DC3D100F01A
:1045F00093F9002808D000F08FF9062804D000F0C5
:104600008BF9072800D0ECE0042001210991FCF788
:104610007BFC984D0899695C9E4A12788A4200D1C9
:1046200040427D21C900FBF7DDFE9B4941186868C7
:1046300082009A4B9950401C68605520285C0128E4
:1046400002D197A0FEF710FF0A98285C07280FD127
:1046500069685C290EDB0298FF30814200D8D7E000
:10466000F0228E480199FBF743FD3C20686001E091
:1046700001F074FB01F0E0F95820295C2A69012956
:1046800002D0002A00D09AE00699295468682028B0
:1046900000DA84E00492461E0546F00FC0027F4B0C
:1046A0001818B1004258A8001C18271F0394083C92
:1046B000AB1E0B9528461F3810900E9315460F968B
:1046C000314606E0083F9B1E083C891E1098814237
:1046D00017DDC80FC0023858824200D80246DE0FEC
:1046E000F602A659B24204D9854205D2B542E9D3B1
:1046F00005E032468542F9D30546B542E2D3354658
:10470000E0E7501B57215B4A50540B98411E0D9116
:10471000C11E0C91001F0B9000252846039E0EAF72
:104720008CCFD90FC9027118091F09680818D10F59
:10473000C90271180839096808180D994919891EA4
:10474000B9421DDD0C9CE10FC90271180E920F9346
:104750000B9BDA0FD202B2180C3909680818103A0C
:1047600011680E9A08182D1F0D994919121F241F40
:104770000C941B1F0B930F9B103E1B1FB942D0DCE8
:104780001E21FBF72FFE06460498B04203D048488E
:104790003146FEF769FE0020364D2E616861002625
:1047A000AE61099C2102059F38463246FCF7CDFFD9
:1047B00061033846079F3246FCF7C7FF314E0A981F
:1047C000285C297881423D4600D1D4E62949087009
:1047D000072800D0C7E604203421FCF7EBFA39485B
:1047E000C6E600F09DF901F027F922490A98085C15
:1047F000097881423D4600D1BDE61E490870072870
:1048000028D10420342127E034100240B4210000D4
:10481000224E304601F0A2FE696823393046194E17
:1048200002F068F8E8613D2800D223E701461B4802
:1048300001F0DCFE012800DA1CE769781A4A5054BE
:1048400000206860481C68700998C1021348FBF793
:1048500068FC0FE70420B421FCF7ACFA3D468AE679
:1048600050030020003801400403002080BB0000FA
:10487000002000404802002000780008BD3412BD2E
:104880007C0C0020BC0E00206F6B00004572726F24
:104890007200000000030020701700007C0400205C
:1048A00025643B0A00000000FC0300200C07000008
:1048B000B36A0008456E6473746F70206D6F646531
:1048C0000A000000606A000810B50B4C2078072829
:1048D00005D801218140C120014200D010BD302007
:1048E000064902220A5406A001F0E6FC05A0FEF7E4
:1048F000BBFD0720207010BDB00200206C0200201C
:104900004D30000050415F5252463A2061626F7252
:104910007465640A00000000014800787047C046D2
:10492000B0020020F0B53022002181540B4AC2624F
:104930000D4C0E4D0E4E0F4F0F4A104BC3600261CF
:1049400047618661C5610462064A4262044A826226
:10495000322202720A4A06C0F0BDC0460000604022
:1049600000001B4200001E4300000A430000C44236
:1049700000009C42B80B0000302A0000C05D00001F
:104980006F12033BF0B581B0002900D1AAE00446C4
:1049900008460978002900D1A4E02746303752A5FF
:1049A00003E0701C0178002941D03A21FBF7C4FBD9
:1049B00000283CD006464178084645380F280BD8D9
:1049C00078440079400087440B0707170707072141
:1049D0000726072B0707101C2846FEF745FDE0E7D2
:1049E000B01CFBF7C7FB3870DBE7B01C01F09FFD84
:1049F000FBF7BCFC6060D4E7B01CFBF7BBFB20619D
:104A0000CFE7B01CFBF7B6FBE060CAE7B01CFBF7D2
:104A1000B1FB6061C5E7B01CFBF7ACFB2072C0E7DF
:104A2000B01C01F084FDFBF7A1FC2060B9E7206910
:104A300063281FD96169632921D9E268632A23D9D0
:104A4000344B984225D8994226D800979A4200D9EB
:104A5000E3606768002538462946FBF72EFC0028EE
:104A60001FD12E4E38463146FBF727FC0028009F09
:104A700019D019E06420206161696329DDD86421BF
:104A80006161E268632ADBD86422E260214B9842CC
:104A9000D9D923619942D8D9636100979A42D7D86E
:104AA000D7E71D4E009F6660266830462946FBF713
:104AB00012FC002807D10120850730462946FBF764
:104AC000FCFB002800D12560207A002803D0412873
:104AD00003D3402000E0012020723878082801D359
:104AE0000020387001B0F0BD50415F5252463A206C
:104AF000756E6B6E6F776E20706172616D206B6585
:104B00007920272563272C2069676E6F7265640AF8
:104B10000000000060EA00006F12833ACDCCCC3D6B
:104B2000F0B5CDB00DAAD51D3E32064F3878C0463F
:104B3000784400794000874403500786D86E030309
:104B40004DB0F0BDB0020020FD48FEF78DFCFDA089
:104B500001F096FAFC4C2046FFF7C6FA072600281B
:104B600001D100F056FEF9A001F08AFA2046FFF7C5
:104B7000BBFA002801D100F04CFE2C460DA8F449E8
:104B80008180F4490D9148217D5C002D00D1E9E23E
:104B90000A96871D07240A2628463146FBF702FCA1
:104BA0004643A91B302631430DAA1219521E11701B
:104BB0000A2D00D2DFE20A21FBF7F4FB31430DA8F6
:104BC000015564212846FBF7EDFBA41C642D054626
:104BD000E1D2611EA01E0C46CEE2DF48FEF744FC87
:104BE000DE4801F069FBD84C2046FFF77DFA072626
:104BF000002801D100F00DFED94801F05DFB2046F0
:104C0000FFF772FA002801D100F003FE01F034FA38
:104C1000022600F0FEFD07927978D2A0FEF724FC70
:104C20007978B8690990002900D15FE388080528E0
:104C300000D2C4E00520042900D3C3E00120814252
:104C400000D853E3C1E0CF48FEF70EFCCE480D90EC
:104C5000FC6B3E6B0DA8001D022531462A46FFF76E
:104C600039F8CA490A0A42700170801C396C2A4618
:104C7000FFF730F80546C648010A697028702046DB
:104C80003146FBF7D5FAC349FBF7DAFA0346BE6AA9
:104C9000002E00D1E4E00C93A81C0B9003240A27FB
:104CA00030463946FBF77EFB4743F11B302739433B
:104CB0002A19521E11700A2E00D287E10A21FBF731
:104CC00071FB3943295564213046FBF76BFBA41C6B
:104CD000642E0646E3D2601EA11E0446281903294D
:104CE00000D378E1AC4F0C9BBDE02020385CBC7851
:104CF000844200D3B0E008950DA995480A918880B8
:104D000094480D90396B7E6B3046FBF791FAA14DBC
:104D10002946FBF795FA07909F48876B384631463E
:104D2000FBF786FA2946FBF78BFA06469A48C06BD2
:104D30003946994FFBF77CFA2946FBF781FA05467D
:104D40002046FBF7E4FA0446F969FBF779FAB969FA
:104D5000FBF71DFA0C90796C2046FBF771FA396C61
:104D6000FBF715FA48217C5C002C059506960B9004
:104D700000D157E10A98861D07270A2520462946B3
:104D8000FBF710FB4543611B302529430DAAD219BF
:104D9000521E11700A2C00D249E10A21FBF702FBD6
:104DA00029430DA8C15564212046FBF7FBFABF1C1F
:104DB000642C0446E1D2791EB81E0F4638E104295E
:104DC00000D23BE7814200D890E208950D1A0126F7
:104DD0002A4632400692024649424140491C00D1CF
:104DE000A6E1B543D1006D4A8F1802460C37FF216A
:104DF0000C91034606E00B46AD1E1037921C002DA9
:104E000000D198E10B920A930C99CCB2394608393B
:104E10000A78D3B20021A3423046344600D30C4670
:104E20005E1EB341234000D10C9AD6B23C780C945C
:104E3000E4B2B442064600D30E46611E8C413440B3
:104E400000D10C92002B0B9A1146064600D10A990C
:104E5000002CD0D0531CCFE705263E704DB0F0BDDE
:104E60003020A870E81C4E490170090A4170801C6E
:104E700005221946FEF72EFF00210C9101700DA8A6
:104E800001F0FEF8304C2046FFF72EF907260028E7
:104E900001D100F0BEFC434801F0F2F82046FFF7D4
:104EA00023F9002801D100F0B4FC3F4800680B90C2
:104EB0003E4E3F4C3F4F3C4800680B99401A40091A
:104EC0007C2835D804200121FCF71EF835213A4A08
:104ED000515C3A4A12788A4200D140427D21C90091
:104EE000FBF780FA326836498A420C9900DC114699
:104EF000344A80188A00344B9850481C354630603C
:104F0000254EB068216888420ED0385C01F06EF8FA
:104F1000B068401CC117890E41183F229143401AC6
:104F2000B06021688842F0D1307807282E46C2D17F
:104F3000194F0C98B87004263E704DB0F0BDC046B5
:104F40000F6B000847393000983A00004D383300A5
:104F5000204400004D353732E86A0008A16B000894
:104F6000996B000850415F5252463A2066696E695B
:104F70007368696E672C2025752073616D706C6590
:104F8000730A0000FB6A00084731205820590000CE
:104F90002046000023BC3D3DB0020020BC0C002098
:104FA00020450000946B00085C0200204C020020A9
:104FB000500200207C0C00206C0200200003002026
:104FC000FF010000701700007C040020611E2819FA
:104FD000032900D286E66918EC4F0B9C22780B78E7
:104FE00023700A704A1E611C914200D37BE60B7845
:104FF00014780C701370521E491C914200D372E653
:105000000B7814780C701370531E4A1C9A4200D30C
:1050100069E611781C7814701970591E541C8C4262
:10502000DCD360E60DA830218171089C29E0781E50
:105030000DA9CC19072823D30DA90818D34F31780F
:10504000027832700170411E701C884219D20278B9
:105050000B7803700A70491E401C884211D20278F6
:105060000B7803700A704A1E411C914209D20878DD
:1050700013780B701070501E4E1C8642DFD300E078
:10508000C24FC3482070000A6070A01C04220C9913
:10509000FEF720FE002404700DA800F0F1FFBD4DC6
:1050A0002846FFF721F80726002800D1B1E309942C
:1050B000B9480D90396B0DA8001D022408902246B6
:1050C000FEF708FEB5490A0A049242700170801C7E
:1050D0000B992246FEF7FEFD0446B148010A6170B5
:1050E00020707F6A002F0A9603913FD0A01C029087
:1050F00003250A2638463146FBF754F94643B91BC7
:10510000302631436219521E11700A2F7FD30A21B3
:10511000FBF748F93143615564213846FBF742F902
:10512000AD1C642F0746E4D2681EA91E05466FE039
:10513000FF210C91134606990029944F089D00D138
:105140009CE01E461046D100964A51180A79D1B209
:105150004C1E0B46A3410C9CE4B2A14200D284E059
:10516000002183E00DA8302181712EE03020A07055
:10517000E01C864F8FE2601E0DA90C1907280A9EBD
:1051800022D30DA90818397802783A700170411EAF
:10519000781C884218D202780B7803700A70491E76
:1051A000401C8842794F10D202780B7803700A7045
:1051B0004A1E411C914208D2087813780B70107077
:1051C000501E4F1C8742DED3704F71482070000A7A
:1051D0006070B969A01C0422FEF77CFD00210170FB
:1051E0000DA800F04DFF6B4C2046FEF77DFF002818
:1051F00000D10EE36CA000F043FF2046FEF774FFE1
:10520000002800D011E307263E704DB0F0BD691EA6
:10521000601903295D4F00D23BE261180A9E5D4D83
:10522000029C22780B7823700A704A1E611C9142FE
:1052300000D330E20B7814780C701370521E491CA6
:10524000914200D327E20B7814780C701370531E30
:105250004A1C9A4200D31EE211781C78147019700F
:10526000591E541C8C42DCD315E201210B4000D1A5
:105270000C9A002B00D1304603460C920C98C0B219
:10528000FF2833D00DA84B4981804B490D9148210F
:105290007E5CD9B2C900434A51580991002E00D111
:1052A000BEE2801D0C9007250A2730463946FBF7E1
:1052B00079F84743F11B302421430DAA5219521E9D
:1052C00011700A2E00D2CFE20A21FBF76BF82143BE
:1052D0000DA8415564213046FBF764F8AD1C642EDF
:1052E0000646E1D2681EA91E0546BEE233A0FEF7BF
:1052F000BBF80020787538A000F0C2FE3848FEF7F1
:10530000F3FE3022374802218154787D012834D1C0
:105310000B92089534480DA91CC81CC13CC83CC15F
:105320003CC83CC13CC83CC10088088048200A9069
:105330003E5C002E24D03F250B9C0A273046394680
:10534000FBF730F84743F11B21430DAA5219521EB7
:1053500011700A2E4ED30A21FBF724F821430DA821
:10536000415564213046FBF71DF8AD1C642E0646FE
:10537000E3D2681EA91E05463DE01C4D1C4878E19D
:1053800007980B990170401C5DE0C046B0020020F8
:1053900020530000983A000047312058205900005F
:1053A00020460000BC0C0020473120453420463305
:1053B00030300000204400004D35373250415F52FC
:1053C00052463A206E6F2076616C69642072657374
:1053D000756C740A000000004732382058205900CC
:1053E00060EA00006C020020D06C0008A96B000885
:1053F000486B0008691E0DA840193F2923D30DAA48
:105400005118079A144612780B7823700A704A1EB6
:10541000611C914217D20B7814780C701370521ED5
:10542000491C91420FD20B7814780C701370531EE4
:105430004A1C9A4207D211781C7814701970591EB0
:10544000521C8A42DED3FB490170090A0791417060
:10545000801C04220C92099E3146FEF73BFC074655
:10546000F5491C22FAF744FE0020069038770DAF6C
:10547000384600F005FEF148FEF736FEF0483946A2
:105480001CC81CC11CC81CC11CC81CC13CC83CC1D8
:105490003437384631460C9AFEF71CFC0446E9A125
:1054A0001922FAF725FEEF480A99475C002F24D00D
:1054B0002046193005901A250C940B9E0A24384674
:1054C0002146FAF76FFF4443391B31430C9A5219B6
:1054D000521E11700A2F14D30A21FAF763FF3143C9
:1054E0000C98415564213846FAF75CFFAD1C642FD7
:1054F0000746E3D2A91E6D1E04E00B9860761A34AD
:105500002AE0691E0C9A50191A29059C23D35118B8
:10551000089D22780B7823700A704A1E611C914204
:1055200017D20B7814780C701370521E491C9142DC
:105530000FD20B7814780C701370531E4A1C9A42C9
:1055400007D211781C7814701970591E541C8C42A3
:10555000DFD3044601E00446089DF1482070079817
:105560006070A01C04220999FEF7B4FB0446F649BA
:105570001D22FAF7BDFD069860770DAF384600F0A2
:105580007FFDE34C2046FEF7AFFDF04800F078FDCC
:105590002046FEF7A9FDE048B880E0480D90DB48C2
:1055A0000A99465C002E23D0B81D0C9007250B9F4E
:1055B0000A2430462146FAF7F5FE4443311B3943AD
:1055C0000DAA5219521E11700A2E15D30A21FAF78C
:1055D000E9FE39430DA8415564213046FAF7E2FE51
:1055E000AD1C642E0646E3D2691EA81E0D4604E0DB
:1055F0000DA80B99817128E0681E0DA94D19072887
:1056000023D30DA908180C9BC04F197802781A7083
:105610000170411E581C884217D202780B78037023
:105620000A70491E401C884210D202780B78037021
:105630000A704A1E411C914208D2087813780B70F8
:105640001070501E4B1C8342DFD3B04FB4482870FB
:1056500007986870A81C04220999FEF73BFB0446D2
:10566000BB4924252A46FAF743FD06986055B9A59B
:105670000DA800F005FDA64C2046FEF735FD284696
:1056800000F0FEFC2046FEF72FFD06263E704DB0D2
:10569000F0BD0A9E9E4D099901700DA800F0F0FC26
:1056A0002846FEF721FD0028AB4800D1B1E00D905F
:1056B000796B022408982246FEF70CFB049941708E
:1056C000A6490170801C0B992246FEF703FB039943
:1056D0004170A34C0470801CF96AFEF789FCA14953
:1056E0000E0A46700170801C05220799FEF7F2FA37
:1056F000099901700DA800F0C3FC2846FEF7F4FCE0
:10570000002800D188E094480D90B96B254602240A
:1057100008982246FEF7DEFA049941708F4901701D
:10572000801C0B992246099CFEF7D4FA039941701C
:105730000570801CB96AFEF75BFC4670894D0570E8
:10574000801C05220699FEF7C5FA04700DA800F02A
:1057500097FC6F48FEF7C8FC00285DD07E480D908E
:10576000F96B022408982246FEF7B4FA04994170B6
:105770007A490170801C0B992246FEF7ABFA039917
:10578000417077490170801CF96AFEF731FC467060
:105790000570801C052405992246FEF79BFA09999D
:1057A00001700DA800F06CFC594D2846FEF79CFCDA
:1057B000002800D1A5E06C4800F062FC2846FEF706
:1057C00093FC0028514F0A9E23D07878914909789C
:1057D000FA7891420DD93F280BD8C2004D4B0C9D51
:1057E0009D50401C78709A188C4BCB185B1E1B7810
:1057F0001371F970B978491CB970402801D2FFF7CC
:105800009FF9C9B25948FDF72FFE26463E704DB0AC
:10581000F0BD3E704DB0F0BD0A9E3E704DB0F0BD83
:105820000DA83021817128464AE003263E704DB014
:10583000F0BDC04620530000906C0008983A00006C
:10584000586C00085C6E5C6E41646420746F206369
:105850006F6E6669672E673A5C6E4D35373220444D
:1058600000000000B0020020691E0DA840190729A1
:10587000264F24D30DAA5118089D0C9C22780B7832
:1058800023700A704A1E611C914219D20B78147859
:105890000C701370521E491C914211D20B7814786F
:1058A0000C701370531E4A1C9A4209D211781C784E
:1058B00014701970591E541C8C42DFD300E0089DEF
:1058C00017490170090A4170801C0422099E314663
:1058D000FEF700FA002101700DA800F0D1FB0C4882
:1058E000FEF702FC3E61012078757C783C753046FD
:1058F000FAF728FD024600940AA00B46FDF7B4FD16
:10590000F9E4024F0A9E3E704DB0F0BDB002002097
:10591000983A0000BC0C0020204400004D3537327E
:105920002053000050415F5252463A206265737422
:105930002050413D252E3466202825752073616D49
:10594000706C6573290A0000B06C0008406C000898
:10595000106D00084D3239004731205820590000A1
:105960002046000020450000946B0008236B0008CF
:10597000F0B581B01C4C22781CA1072A2ED8012535
:105980002B469340C122134228D0214618314CC8DF
:105990004CC14CC84CC14CC84CC1CCC8CCC1002671
:1059A00066756680667069021748FAF7BAFB3020A0
:1059B000164907220A541648066016480670E9027E
:1059C0001548FAF7AEFB15488021FAF7AAFB00F05C
:1059D00003FB257012480068606012A10846FDF7BD
:1059E00043FD01B0F0BDC046B002002050415F52FF
:1059F00052463A20616C72656164792072756E6EF0
:105A0000696E670A00000000BC0C00206C020020D8
:105A10004C020020490200207C040020FC030020EE
:105A20005C02002050415F5252463A20737461720A
:105A300074696E670A000000B0B58EB000209C4902
:105A40000A1853783B2B42D093783B2B41D0D37824
:105A50003B2B40D013793B2B3FD053793B2B3ED08F
:105A600093793B2B3DD0D3793B2B3CD0137A3B2B06
:105A70003BD0537A3B2B3AD0937A3B2B39D0D37A15
:105A80003B2B38D0137B3B2B37D0537B3B2B36D073
:105A9000937B3B2B35D0D37B3B2B34D0137C3B2BE0
:105AA00033D0537C3B2B32D0937C3B2B31D0D37CF7
:105AB0003B2B30D0137D3B2B2FD0527D15303B2A12
:105AC0002CD03F28BCD1002420460EB0B0BD401CD5
:105AD00024E0801C22E0C01C20E0001D1EE0401DD0
